AFLY00Bw 00740
HFDTE050117
HFFXA010
HFPLTPILOT:Nari Watabe     
HFGTYGLIDERTYPE:not-set         
HFGIDGLIDERID:not-set         
HFDTM100GPSDATUM:WGS84
HFRFWFIRMWAREVERSION: 1.3.07  Eng
HFRHWHARDWAREVERSION:1.00
HFFTYFRTYPE:Brauniger,IQ-Basic GPS
HFGPS:FASTRAX,IT321,20
HFPRSPRESSALTSENSOR:INTERSEMA,MS5401BM,12000
HFTZNUTCOFFSET: 11
I033638FXA3940SIU4143TAS
C050117005609050117003502
C3321336S14755972ETakeoff
C3321372S14756016E00000000010000000000360000StartArea,BMI023          
C3248273S14726964E00000000005000000000360000TurnArea,FIFIEL          
C3254134S14759095E00000000000400000000360000TurnArea,MINES           
C3307555S14754626E00000000000400000000360000FinishArea,BOGAN           
C3243280S14747845ELanding
F013440020612131517192428
B0134403321321S14755938EA002190023400109000
F013510020612131517192428
B0135103321321S14755938EA002190023500109000
F013540020612131517192428
B0135403321321S14755938EA002200023200109000
F013610020612131517192428
B0136103321321S14755938EA002200023300109000
F013640020612131517192428
B0136403321321S14755937EA002200023600109000
F013710020612131517192428
B0137103321321S14755937EA002200023700109000
F013740020612131517192428
B0137403321322S14755938EA002200023300109000
F013810020612131517192428
B0138103321322S14755938EA002200023500109000
F013840020612131517192428
B0138403321322S14755940EA002200023300109000
E013854STA
E013854ATS1014.8
LFLYA100233
B0138543321336S14755972EA002230023300109000
B0139043321394S14756056EA002450024600109000
B0139143321445S14756139EA002770028300109000
B0139243321490S14756230EA003030031800109000
B0139343321530S14756321EA003330035000109000
F0139440206121517192428
B0139443321578S14756398EA003730038800208000
F013954020612131517192428
B0139543321625S14756460EA004180043600109000
B0140043321675S14756537EA004460047400109000
B0140143321716S14756633EA004840051100209000
B0140243321723S14756733EA005320055700109000
B0140343321700S14756812EA005650060500309000
B0140443321654S14756756EA005840062800109000
B0140543321642S14756663EA005920063500109000
B0141043321599S14756595EA005860062900109000
B0141143321562S14756522EA005680060900109000
B0141243321533S14756441EA005580059600109000
B0141343321587S14756377EA005750060000109000
B0141443321609S14756417EA005760061000109000
B0141543321554S14756426EA005650060000109000
F0142040212131517192428
B0142043321530S14756326EA005700060000108000
F014214020612131517192428
B0142143321484S14756259EA005930062200309000
B0142243321465S14756326EA006020063800109000
B0142343321525S14756337EA005950064200309000
B0142443321501S14756366EA005860063100209000
B0142543321454S14756303EA005840062500209000
B0143043321427S14756372EA005870061800209000
B0143143321483S14756356EA005790061700209000
B0143243321491S14756258EA005700060600109000
B0143343321452S14756170EA005810061300109000
B0143443321491S14756132EA005850062100209000
B0143543321474S14756183EA005940063100109000
B0144043321419S14756130EA006030064300109000
B0144143321468S14756109EA006030064300209000
B0144243321507S14756148EA006140065200209000
B0144343321524S14756070EA006230066300109000
B0144443321459S14756079EA006290066900109000
B0144543321447S14756132EA006350067600109000
B0145043321499S14756149EA006370067700109000
B0145143321553S14756162EA006350067400109000
B0145243321619S14756150EA006360067300109000
B0145343321679S14756088EA006380067600109000
B0145443321718S14756019EA006270067000109000
B0145543321773S14755973EA006130065800309000
B0146043321789S14756050EA006010064000109000
B0146143321735S14756100EA005920063000109000
B0146243321661S14756111EA005800061900109000
B0146343321600S14756112EA005750061100109000
B0146443321533S14756121EA005770061100109000
B0146543321468S14756134EA005790061600109000
B0147043321409S14756150EA005900062400109000
B0147143321399S14756067EA006040064000209000
B0147243321435S14756102EA006110065000209000
B0147343321381S14756123EA006270066700109000
B0147443321361S14756065EA006350067600109000
B0147543321412S14756083EA006500068900109000
B0148043321443S14756137EA006710071100109000
B0148143321398S14756144EA006800072400109000
B0148243321441S14756093EA006950073600309000
B0148343321434S14756143EA007090075000309000
B0148443321416S14756070EA007220076500109000
B0148543321470S14756061EA007480078700109000
B0149043321439S14756095EA007590080500209000
B0149143321432S14756020EA007750082100209000
B0149243321484S14756024EA007910083700109000
B0149343321464S14756073EA008070085400109000
B0149443321426S14756008EA008270087600209000
B0149543321494S14756004EA008350088400309000
B0150043321477S14756060EA008500089800309000
B0150143321449S14755982EA008660091700309000
B0150243321504S14756000EA008880093700209000
B0150343321455S14756002EA009070095700209000
B0150443321481S14755925EA009200097400309000
B0150543321508S14755982EA009330098400109000
B0151043321481S14756037EA009420099600109000
B0151143321433S14756018EA009620101200209000
B0151243321488S14755973EA009820103400309000
B0151343321473S14756023EA009960105200109000
B0151443321436S14755973EA010260108000109000
B0151543321493S14755962EA010460110400109000
B0152043321465S14756014EA010600112000109000
B0152143321428S14755944EA010930114700209000
B0152243321481S14755927EA011290118400109000
B0152343321463S14755983EA011490121200209000
B0152443321419S14756016EA011770124100109000
B0152543321477S14756001EA011980126300309000
B0153043321438S14755943EA012350129500309000
B0153143321443S14755993EA012610132700109000
B0153243321510S14755958EA012860135200109000
B0153333321501S14755889EA013220138600109000
B0153443321466S14755924EA013600142900109000
B0153543321521S14755962EA013910145900109000
B0154043321557S14755900EA014170148900209000
B0154143321505S14755849EA014510152400109000
B0154243321487S14755902EA014880156400109000
B0154343321547S14755919EA015180159400209000
B0154443321551S14755845EA015480162300109000
B0154543321505S14755856EA015830166100109000
B0155043321530S14755914EA016160169600109000
B0155143321584S14755862EA016380172000109000
B0155243321579S14755783EA016660175000109000
B0155343321526S14755743EA016950178200109000
B0155443321489S14755790EA017180180600109000
B0155543321480S14755852EA017500183900209000
B0156043321438S14755792EA017750186500109000
F0156140206121517192428
B0156143321500S14755747EA018070189800208000
F015624020612131517192428
B0156243321517S14755808EA018350192800109000
B0156343321466S14755771EA018620195600109000
B0156443321518S14755708EA018860198200109000
B0156543321544S14755773EA019040199900209000
B0157043321489S14755765EA019280202500209000
B0157143321510S14755679EA019510205000109000
B0157243321575S14755702EA019610206000109000
B0157343321565S14755766EA019760207600109000
B0157443321513S14755748EA019940209500109000
B0157543321550S14755666EA020110211100109000
B0158043321620S14755688EA020200212000109000
B0158143321620S14755758EA020300213300109000
B0158243321564S14755762EA020430214700109000
F0158340206121315171924
B0158343321520S14755713EA020490215600108000
F015844020612131517192428
B0158443321567S14755645EA020520215700309000
B0158543321553S14755697EA020560216000109000
B0159043321492S14755673EA020600216600109000
B0159143321418S14755631EA020630216800109000
B0159243321337S14755588EA020580216400109000
B0159343321263S14755565EA020690217200109000
B0159443321198S14755536EA020590216600109000
B0159543321120S14755493EA020510215700109000
B0200043321036S14755460EA020510215500109000
F0200140206131517192428
B0200143320953S14755431EA020420214800108000
F020024020612131517192428
B0200243320874S14755389EA020330213800109000
B0200343320796S14755351EA020180212200109000
B0200443320719S14755317EA020010210300109000
B0200543320639S14755278EA019830208300109000
B0201043320554S14755254EA019630206600109000
B0201143320480S14755252EA019560205700009000
B0201243320410S14755248EA019470204800009000
B0201343320332S14755236EA019320203200009000
B0201443320258S14755219EA019130201200009000
B0201543320189S14755190EA018910199000109000
B0202043320107S14755167EA018770197300109000
B0202143320028S14755166EA018590195500109000
B0202243319955S14755163EA018400193400009000
B0202343319891S14755157EA018230191600109000
B0202443319820S14755146EA018010189600009000
B0202543319746S14755134EA017830187400109000
B0203043319671S14755124EA017770186600109000
B0203143319594S14755110EA017660185800109000
B0203243319528S14755090EA017460184000109000
B0203343319466S14755066EA017360182900109000
B0203443319403S14755039EA017280181700109000
B0203543319345S14755031EA017370182400109000
B0204043319297S14755074EA017590184300109000
B0204143319243S14755089EA017870187400109000
B0204243319258S14755012EA018090189800109000
B0204343319314S14755046EA018410192900109000
B0204443319294S14755110EA018740196800109000
B0204543319238S14755090EA018980199600109000
B0205043319270S14755023EA019170201500109000
B0205143319323S14755055EA019450204100109000
B0205243319275S14755093EA019680206700109000
B0205343319240S14755031EA019910209100109000
B0205443319298S14754990EA020010210000109000
B0205543319327S14755049EA020250212200109000
B0206043319274S14755045EA020460214900109000
B0206143319298S14754970EA020620216400109000
B0206243319352S14755005EA020740217500209000
B0206343319301S14755027EA020890219100109000
B0206443319302S14754946EA021000220600109000
B0206543319371S14754950EA021090221300209000
B0207043319303S14754989EA021040221400109000
B0207143319216S14754990EA021060221500109000
B0207243319141S14754977EA021040221300109000
B0207343319066S14754956EA021030220900109000
B0207443318986S14754933EA021110221500109000
B0207543318907S14754964EA021170222200109000
B0208043318845S14755036EA021140222100109000
B0208143318778S14755104EA021090221500109000
B0208243318717S14755159EA020950220100109000
B0208343318660S14755207EA020820218700109000
B0208443318602S14755253EA020700217400109000
B0208543318545S14755308EA020640216400109000
B0209043318500S14755364EA020430214600109000
B0209143318458S14755425EA020380213700109000
B0209243318432S14755499EA020270212700109000
B0209343318416S14755575EA020310212600109000
B0209443318362S14755619EA020300212700109000
B0209543318303S14755655EA020300213000109000
B0210043318240S14755698EA020200212200109000
B0210143318173S14755740EA020120211300109000
B0210243318112S14755777EA020000210200009000
F0210340206121517192428
B0210343318051S14755815EA019820208300008000
B0210443317983S14755818EA019630206500008000
B0210543317919S14755773EA019430204500108000
B0211043317867S14755704EA019250202400108000
B0211143317821S14755626EA019010199900108000
B0211243317780S14755546EA018800197600108000
B0211343317737S14755461EA018650196000108000
B0211443317705S14755379EA018440194000108000
B0211543317685S14755285EA018200191600008000
B0212043317660S14755201EA018030189700008000
B0212143317623S14755129EA017820187500008000
B0212243317594S14755062EA017600185300108000
B0212343317560S14754998EA017310182300108000
B0212443317512S14754942EA016980178900108000
B0212543317462S14754880EA016720175700108000
B0213043317404S14754829EA016760174900108000
B0213143317384S14754785EA016650174300108000
B0213243317445S14754802EA016520173000108000
B0213343317494S14754841EA016320171300108000
B0213443317517S14754914EA016030168800108000
B0213543317505S14754980EA015940167400108000
B0214043317494S14755036EA015760165700108000
B0214143317441S14755004EA015620163900108000
B0214243317392S14754965EA015590163200108000
B0214343317339S14754942EA015490162500108000
B0214443317286S14754918EA015290160900108000
B0214543317236S14754871EA015200159600108000
B0215043317188S14754827EA014960157600108000
B0215143317138S14754780EA014840156000108000
B0215243317102S14754726EA014850155700108000
B0215343317065S14754688EA014790155200108000
B0215443317018S14754656EA014850155800108000
B0215543317044S14754581EA014950156500108000
B0216043317102S14754603EA015090157500208000
B0216143317053S14754609EA015180159100208000
B0216243317103S14754540EA015220159000208000
B0216343317117S14754596EA015420161200308000
B0216443317081S14754532EA015430161800108000
B0216543317149S14754501EA015640163300108000
B0217043317158S14754567EA015820165700308000
B0217143317118S14754527EA015950167400108000
B0217243317191S14754503EA016110168200208000
B0217343317178S14754568EA016180169500108000
B0217443317144S14754514EA016320171300108000
B0217543317214S14754472EA016360171500108000
B0218043317256S14754538EA016410172300108000
B0218143317237S14754600EA016440172700108000
B0218243317177S14754599EA016490173000108000
B0218343317125S14754587EA016520173900208000
B0218443317161S14754505EA016540173800108000
B0218543317236S14754527EA016620174400108000
B0219043317251S14754592EA016680175000108000
B0219143317203S14754605EA016650174900108000
B0219243317202S14754522EA016650175000108000
B0219343317268S14754482EA016650174800108000
B0219443317303S14754547EA016590174100108000
B0219543317251S14754568EA016540174000108000
B0220043317199S14754535EA016520174100108000
B0220143317148S14754511EA016570174300108000
B0220243317100S14754522EA016440173500108000
F02203402061217192428
B0220343317043S14754517EA016190171000107000
B0220443317001S14754452EA016110169100107000
B0220543316954S14754392EA016000167500107000
B0221043316913S14754327EA015960166700107000
B0221143316886S14754256EA016000166900107000
B0221243316828S14754268EA015880166700107000
B0221343316771S14754300EA015700165200107000
B0221443316722S14754341EA015570163600107000
B0221543316674S14754387EA015350161300107000
B0222043316622S14754429EA015120159100107000
B0222143316573S14754476EA014910156500107000
B0222243316527S14754523EA014880155500107000
B0222343316538S14754597EA014890155400107000
B0222443316576S14754649EA014980156100107000
B0222543316625S14754622EA015000156500107000
B0223043316611S14754541EA015060157500107000
B0223143316542S14754510EA015180158600107000
B0223243316505S14754568EA015410160900107000
B0223343316553S14754594EA015530162500107000
B0223443316594S14754534EA015690163900107000
B0223543316547S14754482EA015760165200107000
B0224043316493S14754518EA015860166400107000
B0224143316525S14754562EA016020167700107000
B0224243316548S14754495EA016110168600107000
B0224343316493S14754445EA016190169500107000
B0224443316426S14754464EA016310171100107000
B0224543316404S14754542EA016390172000107000
B0225043316413S14754619EA016420172400107000
B0225143316464S14754636EA016560173400107000
B0225243316472S14754558EA016690174400107000
B0225343316407S14754512EA016790175700107000
B0225443316343S14754551EA016820176600107000
B0225543316324S14754621EA016850176800107000
B0226043316375S14754629EA016910177000107000
B0226143316386S14754559EA017120178500107000
B0226243316317S14754542EA017130179500107000
B0226343316286S14754607EA017140179700107000
B0226443316339S14754639EA017240180300107000
F022654020612171924
B0226543316380S14754576EA017270180600106000
B0227043316341S14754510EA017390181400106000
B0227143316279S14754553EA017420182300106000
B0227243316275S14754620EA017460182800106000
B0227343316329S14754582EA017450183300106000
B0227443316283S14754510EA017480183300106000
B0227543316207S14754531EA017460183000106000
B0228043316163S14754585EA017460183100106000
B0228143316147S14754646EA017290182000106000
B0228243316176S14754700EA017090179800106000
B0228343316228S14754735EA016850177200106000
B0228443316289S14754760EA016500173700106000
B0228543316354S14754750EA016350171000106000
B0229043316409S14754738EA016440170000106000
B0229143316456S14754787EA016640172400106000
B0229243316398S14754786EA016510173300206000
B0229343316408S14754698EA016780175400106000
B0229443316463S14754669EA016990178100106000
B0229543316440S14754720EA017150180100306000
E023001TPC
B0230013316426S14754662EA017290181500206000
B0230043316448S14754645EA017320182100306000
B0230143316470S14754690EA017480183700306000
B0230243316426S14754638EA017630185200206000
B0230343316484S14754635EA017710185900206000
B0230443316428S14754657EA017840186900206000
B0230543316439S14754575EA017930188300106000
B0231043316489S14754610EA017920188100106000
B0231143316480S14754686EA018000188200106000
B0231243316429S14754713EA017970188400206000
B0231343316429S14754628EA017940187900106000
B0231443316477S14754558EA017990188400106000
B0231543316526S14754494EA017870188000106000
B0232043316540S14754401EA017720186200106000
B0232143316554S14754314EA017600185000106000
B0232243316576S14754220EA017420183100106000
B0232343316593S14754122EA017300181500106000
B0232443316617S14754030EA017010179200106000
B0232543316634S14753938EA016730176000106000
B0233043316657S14753849EA016420172900106000
B0233143316677S14753760EA016180170000106000
B0233243316701S14753680EA016080168300106000
B0233343316723S14753596EA015930166700106000
B0233443316752S14753514EA015890165800106000
B0233543316790S14753435EA015850165500106000
B0234043316835S14753370EA015820165300106000
B0234143316880S14753308EA015820165400106000
B0234243316899S14753227EA015820165600106000
B0234343316926S14753145EA015820165700106000
B0234443316969S14753067EA015760165600106000
B0234543317007S14752993EA015790165700106000
B0235043317063S14753005EA015690165100106000
B0235143317040S14753076EA015620163900106000
B0235243316969S14753087EA015710163900106000
B0235343316906S14753108EA015730164500106000
B0235443316850S14753077EA015750164800106000
B0235543316859S14753000EA015750165000106000
B0236043316915S14752968EA015740165000106000
B0236143316958S14753016EA015750165200106000
B0236243316938S14753085EA015760165200106000
B0236343316889S14753141EA015750165200106000
B0236443316862S14753210EA015720164900106000
B0236543316840S14753289EA015690164500106000
B0237043316774S14753329EA015670164100106000
B0237143316713S14753362EA015630163700106000
B0237243316650S14753386EA015560163000106000
B0237343316587S14753382EA015430161800106000
B0237443316523S14753377EA015300160400106000
B0237543316455S14753366EA015210159200106000
B0238043316386S14753362EA015030157500106000
B0238143316317S14753353EA014940156400106000
B0238243316260S14753377EA014800155100106000
B0238343316193S14753389EA014700153800106000
B0238443316120S14753410EA014600152600106000
B0238543316061S14753449EA014700153100106000
B0239043316008S14753486EA014970155300206000
F02391402061217192425
B0239143316035S14753415EA015260158700307000
B0239243316067S14753482EA015510162000207000
B0239343316006S14753451EA015890165800207000
B0239443316065S14753400EA016160169000207000
B0239543316059S14753468EA016400171700207000
B0240043316019S14753407EA016730175100207000
B0240143316084S14753427EA016990177800207000
B0240243316029S14753429EA017280180500207000
B0240343316082S14753377EA017570183800307000
B0240443316072S14753442EA017790186500207000
B0240543316039S14753379EA018060189500207000
B0241043316106S14753389EA018320191800207000
B0241143316057S14753421EA018510193900107000
B0241243316059S14753340EA018700195800307000
B0241343316120S14753377EA018890197500207000
B0241443316065S14753386EA019040199700207000
B0241543316115S14753353EA019150201000307000
B0242043316125S14753426EA019280202000107000
B0242143316070S14753452EA019220201700107000
B0242243316001S14753406EA019130200900107000
F024234020612171924
B0242343315934S14753385EA019170201000106000
F02424402061217192425
B0242443315869S14753351EA019100200400107000
B0242543315883S14753269EA019240201200107000
B0243043315927S14753297EA019240201600207000
B0243143315864S14753314EA019200201700107000
B0243243315828S14753231EA019240201700107000
B0243343315836S14753146EA019340202300107000
B0243443315869S14753169EA019370202600207000
B0243543315809S14753204EA019330202100107000
B0244043315757S14753131EA019420203100107000
B0244143315788S14753047EA019480203900107000
B0244243315822S14753066EA019530204400207000
B0244343315753S14753075EA019540204300107000
B0244443315701S14752991EA019500204100207000
B0244543315651S14753011EA019270202800107000
B0245043315688S14753060EA019030199900107000
B0245143315734S14753087EA018940198300107000
B0245243315785S14753106EA018860197500107000
B0245343315844S14753094EA018830197100107000
B0245443315914S14753072EA018870197000107000
B0245543315985S14753051EA019040198600107000
B0246043316031S14752984EA019230200500207000
B0246143315981S14752940EA019430202400107000
B0246243315970S14753016EA019560204400207000
B0246343316046S14753015EA019760206600207000
B0246443316041S14752930EA019910208100107000
B0246543315983S14752945EA020020209500207000
B0247043315993S14753032EA020110210700107000
B0247143316070S14753042EA020290212300107000
B0247243316061S14752973EA020430213700207000
B0247343316008S14753011EA020470214100107000
B0247443316038S14753086EA020550214500107000
B0247543316112S14753061EA020600215100107000
B0248043316086S14752998EA020670215900107000
B0248143316032S14753022EA020680216100107000
B0248243316038S14753110EA020800217000107000
B0248343316106S14753118EA020820217800207000
B0248443316125S14753051EA020840218000107000
B0248543316071S14753020EA020820217600107000
B0249043316010S14753046EA020750217000107000
B0249143316041S14753122EA020640215700207000
B0249243316111S14753102EA020560214700107000
B0249343316122S14753024EA020500214000107000
B0249443316078S14752969EA020460213600107000
B0249543316109S14752889EA020350212800107000
B0250043316170S14752825EA020370212800107000
B0250143316226S14752760EA020370212800107000
B0250243316268S14752689EA020330212500107000
B0250343316217S14752599EA020360212500107000
B0250443316154S14752531EA020390212900107000
F0250540205061217192425
B0250543316085S14752488EA020510214300108000
B0251043316027S14752457EA020710216200108000
B0251143315972S14752426EA020820218000108000
B0251243315906S14752386EA020810218300208000
B0251343315836S14752365EA021000219800108000
B0251443315774S14752362EA021200221600108000
B0251543315706S14752351EA021430223800108000
B0252043315637S14752331EA021800227600108000
B0252143315551S14752305EA021740228400108000
B0252243315472S14752289EA021570226300108000
B0252343315391S14752274EA021440224600108000
B0252443315306S14752249EA021220222500108000
B0252543315227S14752218EA021090221000108000
B0253043315146S14752185EA020930219300108000
B0253143315069S14752168EA020770217400108000
B0253243314997S14752155EA020630216000108000
B0253343314930S14752148EA020700216100108000
B0253443314871S14752122EA020750216600108000
B0253543314802S14752136EA020870217900108000
B0254043314807S14752067EA020860218200208000
B0254143314879S14752070EA020930219000108000
B0254243314858S14752133EA021030219800108000
B0254343314813S14752083EA021090220500108000
B0254443314851S14752022EA021090220700108000
B0254543314924S14752048EA021040219900108000
B0255043314976S14752104EA021090220000108000
B0255143314957S14752168EA020970219300208000
B0255243314896S14752169EA020940218900108000
B0255343314851S14752124EA021010219300108000
B0255443314813S14752077EA020990219300108000
B0255543314765S14752017EA020990219300108000
B0256043314728S14751961EA021020219600108000
B0256143314692S14751896EA021050220000108000
B0256243314653S14751827EA021020219800108000
B0256343314607S14751773EA021080220600108000
B0256443314562S14751714EA021120221100108000
B0256543314601S14751641EA021080221100208000
B0257043314656S14751692EA021090221100108000
B0257143314659S14751757EA021070220900108000
B0257243314644S14751829EA020980220400108000
B0257343314634S14751905EA020910219400108000
B0257443314581S14751911EA020820218500108000
B0257543314548S14751848EA020730217300108000
B0258043314529S14751778EA020680216400108000
B0258143314540S14751685EA020730216700108000
B0258243314494S14751624EA020760217000108000
B0258343314435S14751629EA020810217600108000
B0258443314398S14751561EA020810217900108000
B0258543314429S14751470EA020980219400108000
B0259043314476S14751504EA021020220200108000
B0259143314417S14751498EA021030220400108000
B0259243314420S14751410EA021180221600108000
B0259343314463S14751442EA021240222700308000
B0259443314418S14751378EA021300223000208000
B0259543314483S14751352EA021310223100208000
B0300043314452S14751394EA021350223400108000
B0300143314407S14751328EA021430224100108000
B0300243314464S14751266EA021380224100108000
B0300343314493S14751320EA021340223600108000
B0300443314459S14751369EA021340223600108000
B0300543314410S14751401EA021320223500108000
B0301043314350S14751420EA021350223400108000
B0301143314287S14751439EA021330223300108000
B0301243314225S14751449EA021270222700108000
B0301343314162S14751469EA021330223100108000
B0301443314101S14751482EA021450224100108000
B0301543314041S14751498EA021530225200108000
B0302043313975S14751512EA021670226600108000
B0302143313900S14751517EA021720227200108000
B0302243313829S14751497EA021880228500108000
B0302343313769S14751454EA021890228800308000
B0302443313815S14751389EA021710227000108000
B0302543313869S14751377EA021710226400108000
B0303043313867S14751429EA021710226600108000
B0303143313796S14751461EA021740227100108000
B0303243313724S14751472EA021610226500108000
B0303343313646S14751476EA021290223600108000
B0303443313577S14751492EA021200221600108000
F030354020506121719242529
B0303543313507S14751494EA021090220400109000
B0304043313434S14751489EA020930218800109000
B0304143313362S14751491EA020750216900109000
B0304243313296S14751494EA020570215000109000
B0304343313227S14751491EA020350212400109000
B0304443313167S14751506EA020370211700109000
B0304543313115S14751526EA020390212200109000
F0305040205061719242529
B0305043313052S14751551EA020340211900108000
F030514020506121719242529
B0305143312975S14751554EA020260211600109000
B0305243312900S14751560EA020080210000109000
B0305343312826S14751565EA019860207700109000
B0305443312756S14751570EA019700206100109000
B0305543312690S14751568EA019500204000109000
B0306043312629S14751572EA019290201800109000
B0306143312563S14751576EA019020199000109000
B0306243312497S14751571EA018850197100109000
B0306343312424S14751557EA018840196200109000
F0306440205061217192425
B0306443312360S14751572EA018980197600108000
F030654020506121719242529
B0306543312335S14751636EA019100199300209000
B0307043312391S14751607EA019290201500309000
B0307143312333S14751565EA019400202900109000
B0307243312320S14751627EA019470203400209000
B0307343312374S14751592EA019600204600209000
B0307443312340S14751521EA019730206000109000
B0307543312274S14751506EA019660205600109000
B0308043312230S14751544EA019510204000109000
B0308143312197S14751583EA019340202400109000
B0308243312145S14751604EA019160200500109000
B0308343312087S14751612EA018870197600109000
B0308443312024S14751583EA018770195500109000
B0308543311983S14751508EA019080196900109000
B0309043312037S14751516EA019430201300309000
B0309143311999S14751477EA019780206400409000
B0309243312045S14751515EA020140210500409000
B0309343312012S14751468EA020430213700409000
B0309443312035S14751515EA020790216900309000
B0309543312015S14751448EA021030220100309000
B0310043312070S14751486EA021230222300209000
B0310143312019S14751525EA021480224600109000
B0310243311998S14751465EA021710227100309000
B0310343312025S14751510EA021960229300409000
B0310443311957S14751479EA022120231100109000
B0310543311891S14751452EA022140231700109000
B0311043311807S14751424EA022160231600109000
B0311143311726S14751405EA022200231700109000
B0311243311647S14751378EA022090231000109000
B0311343311553S14751342EA021880228800109000
B0311443311439S14751285EA021820227400109000
B0311543311328S14751245EA021480224400109000
B0312043311231S14751209EA021040220200109000
B0312143311145S14751186EA020900217700109000
B0312243311061S14751152EA020760216600109000
B0312343310979S14751122EA020660215700109000
B0312443310901S14751088EA020580215100109000
B0312543310828S14751052EA020420213500109000
B0313043310765S14751023EA020220211600109000
B0313143310705S14751007EA020050209500109000
B0313243310640S14751002EA019840207600109000
B0313343310573S14750986EA019560204900109000
B0313443310507S14750968EA019390202700109000
B0313543310429S14750947EA019270201300109000
B0314043310353S14750931EA019350201800109000
B0314143310283S14750905EA019670204800109000
B0314243310216S14750879EA019940208300109000
B0314343310145S14750864EA020180210800109000
B0314443310079S14750842EA020210212000109000
B0314543310009S14750806EA020250212000109000
B0315043309936S14750796EA020430213700109000
B0315143309864S14750757EA020610215500109000
B0315243309793S14750707EA020700216800109000
B0315343309723S14750654EA020690216900109000
B0315443309646S14750629EA020800217500109000
B0315543309581S14750596EA020970219100309000
B0316043309613S14750633EA021150220300409000
B0316143309598S14750554EA021370222700109000
B0316243309544S14750581EA021470223800209000
B0316343309593S14750592EA021590224900209000
B0316443309593S14750515EA021670225900209000
B0316543309517S14750479EA021720226600109000
B0317043309486S14750522EA021600225600209000
B0317143309541S14750528EA021590225400109000
B0317243309596S14750509EA021580225200109000
B0317343309654S14750509EA021540225000109000
B0317443309719S14750479EA021600225200109000
B0317543309784S14750483EA021520224400109000
B0318043309846S14750494EA021570224900109000
B0318143309914S14750494EA021630225400109000
B0318243309957S14750535EA021760226800309000
B0318343309903S14750519EA021690226800209000
B0318443309918S14750419EA021690226600109000
B0318543309974S14750414EA021840227800109000
B0319043309948S14750464EA021830227600109000
B0319143309892S14750415EA021810227700109000
B0319243309942S14750344EA021830227400209000
B0319343309970S14750378EA021860227900109000
B0319443309921S14750337EA021890228400109000
B0319543309905S14750243EA021940228600109000
B0320043309848S14750235EA021810227700109000
B0320143309784S14750218EA021680226400109000
B0320243309725S14750156EA021640225900209000
B0320343309668S14750102EA021540225200209000
B0320433309599S14750060EA021320223200109000
B0320543309541S14750003EA021050220500109000
B0321043309483S14749940EA020860218000109000
B0321143309426S14749869EA020560214900109000
B0321243309362S14749798EA020300212200109000
B0321343309310S14749709EA020160209600109000
B0321443309246S14749694EA020220210000309000
B0321543309246S14749623EA020240210800309000
B0322043309284S14749671EA020450213000309000
B0322143309219S14749643EA020490214300309000
B0322243309277S14749598EA020580215300309000
B0322343309247S14749642EA020690216200309000
B0322443309253S14749559EA020830217600309000
B0322543309300S14749607EA020900218200309000
B0323043309231S14749610EA020940218400109000
B0323143309247S14749522EA020950218500209000
B0323243309315S14749548EA020990218900109000
B0323343309269S14749594EA021010219300109000
B0323443309207S14749553EA021020219700109000
B0323543309217S14749468EA020960219200309000
B0324043309274S14749499EA020870218200109000
B0324143309238S14749543EA020820217600109000
B0324243309174S14749510EA020830217000109000
B0324343309119S14749491EA020770216700109000
B0324443309050S14749467EA020820216800109000
B0324543308998S14749407EA020780216700109000
B0325043309051S14749360EA020920218000209000
B0325143309058S14749432EA020930218500109000
B0325243308994S14749389EA020830218200209000
B0325343309036S14749313EA020900218100109000
B0325443309092S14749329EA020770216900309000
B0325543309043S14749387EA020740216500109000
B0326043308971S14749343EA020690216200309000
B0326143308981S14749247EA020780216900309000
B0326243309038S14749279EA020620215600309000
B0326343308974S14749307EA020620215500409000
B0326443309004S14749251EA020680215600309000
B0326543308986S14749323EA020650215400209000
B0327043308937S14749253EA020590214600209000
B0327143309004S14749224EA020580214400209000
B0327243309012S14749306EA020460213300109000
B0327343308941S14749322EA020390212600109000
B0327443308869S14749285EA020410212700109000
B0327543308808S14749245EA020380212800109000
B0328043308748S14749200EA020250211700109000
B0328143308692S14749151EA020070209800109000
B0328243308631S14749103EA019950208400109000
B0328343308566S14749060EA019850207300109000
F0328440205061217192429
B0328443308493S14749056EA019680205300108000
F032854020506121719242529
B0328543308425S14749060EA019810205700109000
B0329043308347S14749061EA019900206900109000
B0329143308276S14749079EA019950207800109000
B0329243308205S14749099EA019970208000109000
B0329343308126S14749130EA019910207800109000
F0329440205061217192429
B0329443308041S14749154EA019610205200108000
F032954020506121719242529
B0329543307967S14749184EA019350201900109000
B0330043307910S14749218EA019190200000109000
B0330143307842S14749242EA019060198600109000
B0330243307771S14749251EA018890197000109000
B0330343307701S14749269EA018710195000109000
B0330443307629S14749297EA018560193300109000
B0330543307573S14749331EA018440192200109000
B0331043307508S14749355EA018300190800109000
B0331143307450S14749372EA018190189600109000
B0331243307393S14749385EA018060188600109000
B0331343307341S14749404EA017940187200109000
B0331443307285S14749421EA017830185900109000
B0331543307235S14749443EA017650184100109000
B0332043307187S14749468EA017470182200109000
B0332143307139S14749500EA017290180100109000
B0332243307095S14749535EA017090178200109000
B0332343307043S14749568EA016880175800109000
B0332443306989S14749593EA016650173600109000
B0332543306940S14749621EA016460171500109000
B0333043306886S14749648EA016270169500109000
B0333143306829S14749674EA016000166700109000
B0333243306774S14749705EA015750163900109000
B0333343306728S14749741EA015490161200109000
B0333443306674S14749761EA015210158300109000
B0333543306615S14749779EA014840154600109000
B0334043306555S14749806EA014470150500109000
B0334143306496S14749841EA014180147200109000
B0334243306435S14749869EA013930144300109000
B0334343306379S14749903EA013780142700109000
B0334443306311S14749921EA013700141800109000
B0334543306242S14749939EA013490140400109000
B0335043306176S14749955EA013290138400109000
B0335143306110S14749963EA013070136000109000
B0335243306046S14749994EA012920134000109000
B0335343305994S14750035EA012740132200109000
B0335443305939S14750063EA012560130200109000
B0335543305882S14750087EA012530129400109000
B0336043305822S14750110EA012560129700209000
B0336143305825S14750046EA012720131400309000
B0336243305877S14750100EA012820133000109000
B0336343305820S14750117EA012850133800109000
B0336443305793S14750052EA012980135000309000
B0336543305856S14750073EA013140136500209000
B0337043305816S14750112EA013300138100109000
B0337143305835S14750048EA013420139100309000
B0337243305856S14750107EA013510140200309000
B0337343305823S14750064EA013590141200109000
F0337440205061219242529
B0337443305893S14750065EA013710142100108000
B0337543305874S14750126EA013760142700108000
B0338043305849S14750066EA013730142900308000
B0338143305919S14750067EA013820143300108000
B0338243305891S14750125EA013810143500108000
B0338343305869S14750066EA013800143500108000
B0338443305901S14750000EA013740142900108000
B0338543305834S14749993EA013650141800108000
B0339043305782S14749996EA013710142200108000
B0339143305731S14750006EA013750142600108000
B0339243305684S14749974EA013840143700108000
B0339343305743S14749935EA013900144200208000
B0339443305718S14749979EA013970144900108000
B0339543305671S14749936EA014000145600108000
B0340043305617S14749907EA013940145100108000
B0340143305560S14749935EA013980145200108000
B0340243305502S14749938EA014010145700108000
B0340343305528S14749881EA014030145800208000
B0340443305543S14749939EA014090146200108000
B0340543305476S14749919EA014100146500108000
B0341043305489S14749846EA013990145300108000
B0341143305547S14749874EA013920144400108000
B0341243305525S14749934EA013900144000108000
B0341343305458S14749950EA013870143900108000
B0341443305399S14749979EA013900144200108000
B0341543305335S14750005EA013870144100108000
B0342043305279S14750041EA013790143300108000
B0342143305214S14750060EA013590141500108000
B0342243305147S14750071EA013410139600008000
B0342343305078S14750086EA013200137300008000
B0342443305009S14750104EA012960134700008000
B0342543304943S14750126EA012660131600008000
B0343043304877S14750146EA012370128400008000
B0343143304813S14750173EA012000124700008000
B0343243304751S14750185EA011770121600008000
B0343343304691S14750182EA011580119800008000
B0343443304639S14750143EA011450118400108000
B0343543304610S14750059EA011270116600108000
B0344043304554S14750000EA011120115100108000
B0344143304487S14749947EA011010113800108000
B0344243304434S14749893EA011170114300308000
B0344343304482S14749884EA011390117100208000
B0344443304426S14749891EA011470118400208000
B0344543304459S14749827EA011720121100308000
B0345043304443S14749873EA011850123000208000
B0345143304421S14749786EA012010124300308000
B0345243304456S14749810EA012310126700208000
B0345343304403S14749765EA012430129100308000
B0345443304455S14749743EA012650130800308000
B0345543304402S14749743EA012810133300308000
B0346043304439S14749660EA012970134700208000
B0346143304444S14749709EA013230136600208000
B0346243304389S14749666EA013330138500208000
B0346343304442S14749641EA013370139100308000
B0346443304457S14749694EA013570141000108000
B0346543304404S14749678EA013710142300208000
B0347043304444S14749602EA013870143800108000
B0347143304474S14749645EA014020145400108000
B0347243304418S14749612EA014080146400208000
B0347343304468S14749563EA014190147300108000
B0347443304503S14749606EA014270147900208000
B0347543304442S14749581EA014390149100308000
B0348043304488S14749544EA014480150100208000
B0348143304509S14749602EA014630151500108000
B0348243304566S14749586EA014760153100308000
B0348343304531S14749519EA014810154000108000
B0348443304489S14749555EA014940155100108000
B0348543304529S14749578EA015180157400108000
B0349043304552S14749480EA015290158900108000
B0349143304497S14749428EA015300159100108000
B0349243304476S14749476EA015450159900108000
B0349343304533S14749468EA015620161700308000
B0349443304499S14749396EA015670162800108000
B0349543304446S14749423EA015800163900108000
B0350043304479S14749465EA015920165100108000
B0350143304505S14749509EA015980166200108000
B0350243304486S14749570EA015820165400208000
B0350343304430S14749515EA015780164300108000
B0350443304468S14749421EA015810164200108000
B0350543304521S14749433EA015790164000108000
B0351043304527S14749492EA015700163200108000
B0351143304563S14749550EA015540161700108000
B0351243304544S14749617EA015300159200108000
B0351343304474S14749628EA015100157300108000
B0351443304420S14749555EA014940155300108000
B0351543304364S14749492EA014950154900108000
B0352043304299S14749436EA015110156100108000
B0352143304251S14749482EA015350158700208000
B0352243304308S14749499EA015550161400308000
B0352343304295S14749411EA015730163000108000
B0352443304236S14749349EA015950165300108000
B0352543304201S14749405EA016150167400208000
B0353043304253S14749391EA016420170500208000
B0353143304207S14749319EA016620172700108000
B0353243304162S14749368EA016900175300108000
B0353343304207S14749393EA017150178100108000
B0353443304226S14749315EA017400180900108000
B0353543304168S14749254EA017600183100108000
B0354043304094S14749268EA017770184700108000
B0354143304076S14749340EA017820185500108000
B0354243304097S14749413EA018000187200108000
B0354343304102S14749486EA018170189000008000
B0354443304081S14749551EA018160189500108000
B0354543304131S14749574EA018160189200208000
B0355043304171S14749508EA018030188000108000
B0355143304160S14749412EA018280189300108000
B0355243304099S14749412EA018390191200208000
B0355343304133S14749462EA018630193400108000
B0355443304156S14749398EA018900196500108000
B0355543304092S14749353EA019060198700108000
B0356043304039S14749397EA019130199500108000
B0356143304035S14749463EA019200200300108000
B0356243304041S14749539EA019130199900108000
B0356343304102S14749530EA019060198600108000
B0356443304148S14749458EA019070198200108000
B0356543304138S14749382EA019170199000108000
B0357043304071S14749419EA019280200300108000
B0357143304101S14749482EA019380201600108000
B0357243304154S14749446EA019330201500108000
B0357343304152S14749359EA019430202100108000
B0357443304130S14749274EA019600204000108000
B0357543304054S14749222EA019850206400108000
B0358043303972S14749234EA020140209300108000
B0358143303961S14749299EA020290211300108000
B0358243304011S14749290EA020430212800108000
B0358343303981S14749211EA020570214500108000
B0358443303899S14749184EA020770216300108000
B0358543303841S14749218EA020740216500108000
B0359043303815S14749277EA020580214800108000
B0359143303847S14749319EA020510213800108000
B0359243303901S14749317EA020480213100108000
B0359343303938S14749248EA020700214700108000
B0359443303982S14749241EA020850217300108000
B0359543303921S14749272EA020970218500108000
B0400043303884S14749189EA021170220600108000
B0400143303925S14749199EA021250221800108000
B0400243303861S14749241EA021430223400108000
B0400343303789S14749174EA021560224600108000
B0400443303805S14749108EA021630225300108000
B0400543303810S14749159EA021620225500108000
B0401043303730S14749164EA021580225400108000
B0401143303659S14749107EA021340223400108000
B0401243303608S14749033EA021120220500108000
B0401343303579S14748942EA020880217800008000
B0401443303541S14748848EA020660215500008000
B0401543303505S14748759EA020450213200108000
B0402043303471S14748683EA020180210700108000
B0402143303428S14748596EA020000208300108000
B0402243303383S14748540EA019810206600108000
B0402343303332S14748482EA019700205100108000
B0402443303281S14748437EA019720205100108000
B0402543303233S14748377EA019880206500108000
B0403043303177S14748369EA019890207300008000
B0403143303130S14748321EA019680205800108000
B0403243303095S14748229EA019570204300108000
B0403343303060S14748137EA019570203900008000
B0403443302994S14748089EA019310201900108000
B0403543302928S14748064EA019250200700108000
B0404043302867S14748042EA019210200300108000
B0404143302805S14748024EA019120199500108000
B0404243302743S14748006EA018800196600108000
B0404343302672S14747995EA018620193700008000
B0404443302600S14747976EA018680193800108000
B0404543302608S14747895EA018760195000108000
F04050402050612192425
B0405043302660S14747899EA018750195300207000
F0405140205061219242529
B0405143302622S14747949EA018870196200108000
B0405243302551S14747953EA018940197200208000
B0405343302508S14748022EA018980197400108000
B0405443302538S14748087EA019020197900108000
F040554020506121920242529
B0405543302591S14748114EA018890197600109000
B0406043302551S14748154EA018600194800109000
B0406143302481S14748139EA018380191700109000
B0406243302411S14748088EA018130188900109000
B0406343302373S14748022EA018080187600209000
B0406443302428S14748029EA018050187700109000
B0406543302380S14748088EA017860186500209000
B0407043302322S14748025EA017650184200109000
B0407143302343S14747952EA017500182400109000
B0407243302394S14747881EA017670182500109000
B0407343302350S14747799EA017660183200109000
B0407443302273S14747814EA017620183100109000
B0407543302263S14747883EA017650183300109000
B0408043302310S14747915EA017780184700109000
B0408143302309S14747983EA017520183800309000
B0408243302242S14747963EA017200181000109000
F0408340205061219242529
B0408343302260S14747884EA017210178700108000
F040844020506121920242529
B0408443302284S14747931EA017220178700309000
B0408543302210S14747903EA016950177200109000
B0409043302164S14747818EA016940176500109000
B0409143302100S14747751EA016920176500109000
B0409243302043S14747673EA016880176100109000
B0409343301979S14747595EA016740174600109000
B0409443301915S14747532EA016580172900109000
B0459143256014S14737701EA023540245200109000
B0459243255934S14737658EA023410244000109000
B0459343255851S14737636EA023270242500109000
B0459443255774S14737603EA023090240600109000
B0459543255694S14737555EA022930239200109000
B0500043255609S14737535EA022830238200109000
B0500143255521S14737506EA022660236700109000
B0500243255438S14737496EA022440234500109000
B0500343255351S14737478EA022220232100109000
B0500443255274S14737478EA022140231000109000
B0500543255208S14737477EA022100230600009000
B0501043255138S14737475EA022040230500109000
B0501143255063S14737467EA021960229500109000
B0501243254987S14737454EA021920229000009000
B0501343254913S14737437EA021810227900009000
B0501443254847S14737390EA021640226000109000
B0501543254791S14737324EA021380223700109000
B0502043254704S14737289EA021170221300109000
B0502143254617S14737277EA020950218800109000
B0502243254533S14737291EA020750216600009000
B0502343254452S14737307EA020550214500009000
B0502443254372S14737314EA020380212700009000
B0502543254300S14737325EA020180210900009000
B0503043254229S14737349EA019980208800009000
B0503143254157S14737361EA019820207000009000
B0503243254076S14737378EA019630205200009000
B0503343254003S14737416EA019520204000009000
B0503443253929S14737449EA019410202700009000
B0503543253859S14737478EA019290201500009000
B0504043253790S14737516EA019110199800009000
B0504143253718S14737555EA018880197300009000
B0504243253650S14737586EA018700195200009000
B0504343253583S14737619EA018550193300009000
B0504443253531S14737645EA018440192300009000
B0504543253476S14737671EA018300190800009000
B0505043253417S14737706EA018140189300009000
B0505143253360S14737738EA018120188300109000
B0505243253306S14737775EA018120188700109000
B0505343253230S14737766EA018020187900109000
B0505443253164S14737714EA018060188300109000
B0505543253115S14737662EA017940187500209000
B0506043253168S14737602EA017810186000109000
F05061402050612202124252931
B0506143253225S14737627EA017710184800110000
B0506243253280S14737645EA017720184700110000
B0506343253315S14737680EA017630183900010000
B0506443253267S14737724EA017530182400010000
B0506543253213S14737761EA017400181000010000
B0507043253160S14737804EA017280179500010000
B0507143253109S14737849EA017280179200010000
B0507243253049S14737871EA017280179300010000
B0507343252978S14737892EA017250179100010000
B0507443252918S14737941EA017170178300010000
B0507543252863S14737992EA017100177600010000
B0508043252799S14738040EA016910175800010000
B0508143252748S14738097EA016820174600010000
B0508243252704S14738148EA016710173500010000
B0508343252663S14738199EA016650172600110000
B0508443252624S14738233EA016630172400110000
B0508543252600S14738291EA016490171000110000
B0509043252564S14738359EA016460170600110000
B0509143252571S14738427EA016330169300110000
B0509243252550S14738491EA016140167200110000
B0509343252490S14738523EA016020166000010000
B0509443252424S14738547EA015850164400010000
B0509543252374S14738592EA015710162900010000
B0510043252332S14738662EA015480160500110000
B0510143252275S14738727EA015470159200110000
B0510243252216S14738764EA015580160600110000
B0510343252162S14738805EA015730162600010000
B0510443252116S14738843EA015850163900110000
F051054020512202124252931
B0510543252066S14738866EA016010166200309000
B0511043252095S14738789EA016180168000309000
B0511143252099S14738837EA016360169300209000
B0511243252076S14738764EA016550171700209000
B0511343252144S14738762EA016650172900209000
B0511443252115S14738812EA016790174000109000
B0511543252072S14738758EA016960176000109000
B0512043252125S14738707EA017080177100109000
B0512143252137S14738771EA017130177700109000
B0512243252068S14738780EA017290178800109000
B0512343252034S14738722EA017550181800109000
B0512443252092S14738718EA017870184800209000
B0512543252065S14738779EA018060187400109000
B0513043252022S14738715EA018310190000109000
B0513143252077S14738678EA018530192100109000
B0513243252120S14738726EA018520192900209000
B0513343252051S14738747EA018570193000109000
B0513443252026S14738672EA018750194600109000
B0513543252090S14738652EA018800195200109000
B0514043252103S14738729EA018770194900109000
B0514143252026S14738751EA018780195000109000
B0514243251949S14738739EA018990196800109000
B0514343251877S14738721EA019200199200109000
B0514443251828S14738682EA019400201300109000
B0514543251882S14738643EA019570203500309000
B0515043251879S14738718EA019820205800209000
B0515143251845S14738669EA019950207300109000
B0515243251907S14738667EA020190209400109000
B0515343251875S14738736EA020420212300109000
B0515443251843S14738680EA020540213900209000
B0515543251900S14738690EA020770215800109000
B0516043251874S14738767EA020960217900109000
B0516143251825S14738722EA021110219900209000
B0516243251880S14738716EA021250221100209000
B0516343251851S14738792EA021510223500109000
B0516443251790S14738761EA021610225300209000
B0516543251853S14738734EA021560224600209000
B0517043251892S14738795EA021770226300109000
B0517143251873S14738859EA021720226300209000
B0517243251824S14738805EA021840227300109000
B0517343251877S14738786EA021910227700109000
B0517443251878S14738862EA021870227500109000
B0517543251803S14738875EA021890227600109000
B0518043251740S14738850EA021830227100109000
B0518143251683S14738825EA021740226100109000
B0518243251621S14738807EA021620224900109000
B0518343251561S14738784EA021350222300109000
B0518443251500S14738747EA021200220500109000
B0518543251438S14738736EA021050219000109000
B0519043251372S14738705EA020910217500109000
B0519143251311S14738670EA020750215800109000
B0519243251238S14738648EA020650214700109000
B0519343251165S14738622EA020620214300109000
B0519443251097S14738580EA020680215000109000
F0519540205122021252931
B0519543251032S14738541EA020870216700108000
B0520043250969S14738523EA020770216600108000
B0520143250911S14738491EA020540214200108000
B0520243250850S14738450EA020290211400108000
B0520343250791S14738422EA020350210700108000
B0520443250718S14738397EA020460212100108000
B0520543250646S14738360EA020430212300108000
B0521043250565S14738329EA020250210800108000
B0521143250488S14738286EA020060208900108000
B0521243250435S14738222EA019920207300108000
B0521343250388S14738147EA019980207300108000
B0521443250345S14738058EA020080208500108000
B0521543250385S14737989EA019970208200108000
B0522043250441S14738023EA019960207600108000
B0522143250494S14738063EA019990208400108000
B0522243250548S14738109EA019810207300108000
B0522343250599S14738175EA019620205300108000
B0522443250652S14738231EA019580204500108000
B0522543250710S14738298EA019560203700108000
B0523043250776S14738347EA019520203300108000
B0523143250829S14738411EA019460202800108000
B0523243250838S14738496EA019410202100108000
B0523343250825S14738558EA019320201800108000
B0523443250765S14738585EA018950198700108000
B0523543250698S14738586EA018660195200108000
B0524043250644S14738545EA018270190600108000
B0524143250582S14738512EA017930186700108000
B0524243250518S14738460EA017780184300108000
B0524343250457S14738420EA017630182400108000
B0524443250392S14738395EA017470180800108000
B0524543250326S14738381EA017440180400108000
B0525043250267S14738344EA017490181000108000
B0525143250212S14738297EA017630182600108000
B0525243250251S14738229EA017870185300108000
B0525343250294S14738286EA018050187200108000
B0525443250233S14738301EA018150188400208000
B0525543250221S14738221EA018360190600108000
B0526043250286S14738245EA018500192200108000
B0526143250249S14738302EA018580193100108000
B0526243250215S14738360EA018720194600108000
B0526343250171S14738327EA018710194900108000
B0526443250220S14738256EA018800195500108000
B0526543250288S14738263EA018870196200108000
B0527043250300S14738335EA018950196700108000
B0527143250246S14738333EA018950197100108000
B0527243250242S14738250EA018950197300108000
B0527343250281S14738178EA018970197500108000
B0527443250338S14738187EA019020197500208000
B0527543250321S14738252EA018980197000108000
B0528043250258S14738246EA018930196700108000
B0528143250244S14738166EA018950196800108000
B0528243250310S14738145EA019050197600108000
B0528343250326S14738214EA019050197700108000
B0528443250268S14738196EA018940196800108000
B0528543250293S14738126EA018950196800108000
B0529043250357S14738134EA019000197200108000
B0529143250351S14738199EA019030197600108000
B0529243250290S14738190EA018930196800108000
B0529343250259S14738115EA018960196500108000
B0529443250200S14738112EA019130197900208000
B0529543250230S14738165EA019180199200308000
B0530043250262S14738091EA019240199800108000
B0530143250213S14738045EA019330200700108000
B0530243250170S14738117EA019410201200108000
B0530343250167S14738193EA019540202500108000
B0530443250118S14738234EA019620203700108000
B0530543250074S14738185EA019450202600108000
B0531043250066S14738098EA019570202600108000
B0531143250115S14738041EA019680204000108000
B0531243250182S14738069EA019780205300108000
B0531343250140S14738119EA019850206000108000
B0531443250074S14738104EA019890206900108000
B0531543250036S14738048EA019760206200108000
B0532043250105S14737999EA019730204900108000
B0532143250174S14738000EA019720204600108000
B0532243250235S14738020EA019720204600208000
B0532343250285S14738051EA019810205300108000
B0532443250234S14738090EA019700204800108000
B0532543250179S14738052EA019660204300108000
B0533043250150S14737979EA019620204000108000
B0533143250145S14737891EA019630204200108000
B0533243250149S14737796EA019610204100108000
B0533343250136S14737708EA019710204800108000
B0533443250072S14737691EA019770205400108000
B0533543250032S14737745EA019830205600108000
B0534043250035S14737821EA019830205600108000
B0534143250098S14737837EA019900206300108000
B0534243250137S14737763EA019820206100108000
B0534343250125S14737676EA019880206500108000
B0534443250106S14737594EA019930207000108000
B0534543250082S14737512EA019950207400108000
B0535043250059S14737434EA020130209100108000
B0535143250033S14737349EA020320210900108000
B0535243249965S14737348EA020570213100108000
B0535343249996S14737413EA020790215600108000
B0535443250050S14737372EA021040218400108000
B0535543249993S14737322EA021160219900108000
B0536043249931S14737366EA021330221600108000
B0536143249946S14737443EA021570223600108000
B0536243250018S14737445EA021720225400108000
B0536343250038S14737374EA021920227700108000
B0536443249989S14737315EA022040229400108000
B0536543249918S14737339EA022150230100108000
B0537043249875S14737390EA022390232500108000
B0537143249859S14737452EA022490233700108000
B0537243249929S14737457EA022490233900108000
B0537343249999S14737423EA022550234500108000
B0537443250066S14737400EA022730236000108000
B0537543250128S14737378EA022640236300108000
B0538043250111S14737301EA022590235100108000
B0538143250043S14737294EA022530234300108000
B0538243249974S14737322EA022490233700108000
B0538343249900S14737297EA022570234300108000
B0538443249837S14737242EA022650235200108000
B0538543249797S14737174EA022670235800108000
B0539043249724S14737166EA022790236800108000
B0539143249700S14737229EA022850237500108000
B0539243249747S14737263EA022720236800108000
B0539343249805S14737227EA022690236100108000
B0539443249841S14737156EA022700235900108000
B0539543249879S14737088EA022660235800108000
B0540043249898S14737007EA022540234800108000
B0540143249909S14736913EA022350232700108000
B0540243249891S14736816EA022230231000108000
B0540343249874S14736721EA022100229600108000
F05404405122021252931
B0540443249859S14736624EA021930228000107000
F0540540205122021252931
B0540543249850S14736523EA021720226100108000
B0541043249843S14736418EA021480223300108000
B0541143249834S14736316EA021280221000108000
B0541243249818S14736218EA021190219900108000
B0541343249807S14736117EA021010218300108000
B0541443249797S14736018EA020740215800108000
B0541543249786S14735922EA020410212300108000
B0542043249777S14735815EA020070208500108000
B0542143249771S14735713EA019820205800108000
B0542243249770S14735617EA019540202900108000
B0542343249756S14735524EA019270200100108000
B0542443249751S14735431EA018980197000108000
B0542543249747S14735337EA018690194000108000
B0543043249747S14735244EA018390190800108000
B0543143249733S14735154EA018100187800108000
B0543243249703S14735065EA017830184800108000
B0543343249691S14734971EA017610182200108000
B0543443249682S14734881EA017370179800108000
B0543543249684S14734787EA017180177700108000
B0544043249695S14734688EA017030176100108000
B0544143249693S14734586EA016950175200108000
B0544243249694S14734484EA016900174800108000
B0544343249695S14734388EA016860174400108000
B0544443249700S14734290EA016870174400108000
B0544543249715S14734196EA017160176500108000
B0545043249749S14734229EA017440179600108000
B0545143249681S14734220EA017670182600108000
B0545243249709S14734141EA017950185800308000
B0545343249705S14734196EA018160188100208000
B0545443249648S14734147EA018360190600108000
B0545543249687S14734102EA018620192800308000
B0546043249654S14734161EA018850195000108000
B0546143249599S14734092EA019030197200108000
B0546243249649S14734055EA019250199500208000
B0546343249613S14734107EA019400201100208000
B0546443249581S14734027EA019600203200108000
B0546543249636S14734024EA019740204700108000
B0547043249602S14734073EA019890206100108000
B0547143249542S14734015EA020000207600108000
B0547243249573S14733934EA020120208800108000
B0547343249628S14733958EA020260209900108000
B0547443249585S14733995EA020480211800108000
B0547543249545S14733917EA020660214200108000
B0548043249597S14733863EA020780215900108000
B0548143249626S14733917EA020890216600108000
B0548243249558S14733940EA021100218800108000
B0548343249520S14733860EA021260220800108000
B0548443249576S14733816EA021340222200108000
B0548543249595S14733874EA021440222600108000
B0549043249526S14733895EA021680224800108000
B0549143249484S14733820EA021840226800108000
B0549243249534S14733781EA021920228000108000
B0549343249560S14733844EA022030228800108000
B0549443249554S14733912EA022070229400108000
B0549543249479S14733880EA022190230300108000
B0550043249504S14733802EA022340232000108000
B0550143249546S14733832EA022450233300108000
B0550243249493S14733870EA022600234900108000
B0550343249477S14733793EA022740236200108000
B0550443249534S14733806EA022840237500208000
B0550543249485S14733848EA023010239100108000
B0551043249441S14733780EA023150240400108000
B0551143249484S14733729EA023200241600108000
B0551243249530S14733773EA023220241500108000
B0551343249584S14733810EA023380242800108000
B0551443249633S14733856EA023560244600108000
B0551543249604S14733916EA023720246100108000
B0552043249528S14733893EA023900248000108000
B0552143249513S14733808EA024130250400108000
B0552243249571S14733782EA024250252100108000
B0552343249591S14733843EA024390253300108000
B0552443249523S14733864EA024590255400108000
B0552543249465S14733801EA024850257800108000
B0553043249484S14733722EA025000260200108000
B0553143249552S14733729EA025080261000108000
B0553243249587S14733780EA025110261300108000
B0553343249533S14733827EA025210261800108000
B0553443249476S14733766EA025360263200108000
B0553543249513S14733702EA025180263000208000
B0554043249571S14733723EA025220262500108000
B0554143249627S14733746EA025240262600108000
B0554243249688S14733763EA025190262000008000
B0554343249753S14733765EA025100261300108000
B0554443249796S14733808EA024850258900108000
B0554543249746S14733860EA024670256800108000
B0555043249673S14733825EA024600255600108000
B0555143249616S14733757EA024570255200108000
B0555243249565S14733684EA024460254500108000
B0555343249512S14733617EA024570255000108000
B0555443249458S14733548EA024650256200108000
B0555543249401S14733465EA024550255800108000
B0556043249339S14733384EA024460254500108000
B0556143249271S14733314EA024590255300108000
B0556243249213S14733235EA024670256300108000
B0556343249146S14733171EA024600256000108000
B0556443249067S14733125EA024460254400108000
B0556543248993S14733055EA024490254200108000
B0557043248942S14732978EA024270252700108000
B0557143248880S14732901EA024210251500108000
B0557243248810S14732842EA024110250500108000
B0557333248746S14732771EA023960248800108000
B0557443248692S14732699EA023830247400108000
B0557543248633S14732631EA023810246900108000
B0558043248584S14732557EA023650245600108000
B0558143248530S14732481EA023400243200108000
B0558243248471S14732417EA023310241400108000
B0558343248424S14732348EA023020238800108000
B0558443248375S14732262EA022880236900108000
B0558543248325S14732184EA022650234800108000
B0559043248277S14732114EA022410232300108000
B0559143248227S14732040EA022370230900108000
B0559243248185S14731970EA022340230900108000
B0559343248141S14731905EA022270230300108000
B0559443248101S14731829EA022170229500108000
B0559543248059S14731737EA021940227700108000
B0600043248015S14731649EA021780225700108000
B0600143247970S14731565EA021590223700108000
B0600243247927S14731472EA021450221700108000
B0600343247879S14731378EA021340220700108000
B0600443247816S14731303EA021230219400108000
B0600543247753S14731213EA021240219200108000
B0601043247689S14731123EA021520221600208000
B0601143247635S14731163EA021840225600108000
B0601243247682S14731181EA022150229600108000
B0601343247683S14731073EA022430232600108000
B0601443247604S14731014EA022700235300108000
B0601543247555S14731064EA022990238200108000
B0602043247606S14731090EA023200240600108000
B0602143247626S14730996EA023430242700108000
B0602243247548S14730930EA023640244800108000
B0602343247475S14730948EA023930247400108000
B0602443247506S14730984EA024060249400108000
B0602543247534S14730894EA024250251300108000
B0603043247458S14730836EA024430253200108000
B0603143247392S14730867EA024520254300108000
B0603243247415S14730911EA024530254800108000
B0603343247461S14730846EA024580255300108000
F060344020512152021252931
B0603443247423S14730751EA024770256600109000
B0603543247346S14730711EA024810257800109000
B0604043247324S14730772EA024650256300109000
B0604143247378S14730779EA024600255400109000
B0604243247412S14730693EA024750256300109000
B0604343247413S14730593EA024850257500109000
B0604443247401S14730490EA024810257800109000
B0604543247327S14730460EA024700256800109000
B0605043247276S14730511EA024570255500109000
B0605143247280S14730569EA024420253800109000
B0605243247324S14730511EA024350252500109000
B0605343247309S14730414EA024180251000109000
B0605443247295S14730311EA024060249700109000
B0605533247292S14730207EA023930248400109000
B0606033247283S14730105EA023730246700109000
B0606143247294S14730000EA023400243300109000
B0606173247304S14729969EA023320242300109000
B0606183247307S14729958EA023310242100109000
E060619TPC
B0606193247309S14729948EA023310241900109000
B0606203247311S14729938EA023290241800109000
B0606213247313S14729927EA023280241600109000
B0606223247314S14729917EA023270241500109000
B0606233247316S14729907EA023250241300109000
B0606243247317S14729897EA023230241100109000
B0606343247357S14729826EA022990238800109000
B0606443247391S14729864EA022880237500109000
B0606543247397S14729919EA022770236300109000
B0607043247398S14729984EA022610234900109000
B0607143247390S14730052EA022510233900109000
B0607243247381S14730125EA022430233100109000
B0607343247377S14730198EA022370232600109000
B0607443247371S14730271EA022430233100109000
B0607543247363S14730346EA022420233300109000
B0608043247365S14730426EA022370232700109000
B0608143247363S14730506EA022310232100109000
B0608243247374S14730583EA022200231000009000
B0608343247382S14730658EA022110230100109000
B0608443247391S14730732EA022070229500109000
B0608543247392S14730806EA022100229700109000
B0609043247392S14730876EA022230230900109000
B0609143247394S14730946EA022330232100109000
B0609243247396S14731009EA022470233600109000
B0609343247394S14731069EA022530234500109000
B0609443247400S14731136EA022520234400109000
F06095402051215202125262931
B0609543247402S14731206EA022400233100110000
B0610043247401S14731275EA022380232700010000
B0610143247417S14731347EA022320232000010000
B0610243247449S14731410EA022320231900010000
B0610343247474S14731474EA022310231600110000
B0610443247495S14731547EA022320231600110000
B0610543247518S14731603EA022280231400110000
B0611043247535S14731670EA022360232100110000
B0611143247540S14731753EA022490233300010000
B0611243247554S14731818EA022600234700110000
B0611343247575S14731896EA022690235800110000
B0611443247592S14731971EA022690236100110000
B0611543247604S14732048EA022560234800110000
B0612043247628S14732118EA022370233000110000
B0612143247649S14732198EA022170230800110000
B0612243247671S14732274EA022000228900110000
B0612343247696S14732351EA021720226100110000
B0612443247727S14732418EA021510223600110000
B0612543247751S14732485EA021370222200110000
B0613043247769S14732557EA021210220700110000
B0613143247796S14732626EA020990218500110000
B0613243247814S14732703EA020810216300110000
B0613343247830S14732773EA020720215200110000
B0613443247862S14732841EA020600214000110000
B0613543247877S14732909EA020510213100110000
F061404020512152021252629
B0614043247898S14732967EA020350211600109000
F06141402051215202125262931
B0614143247918S14733028EA020160209600110000
B0614243247935S14733095EA019950207400010000
B0614343247956S14733169EA019700204900010000
B0614443247984S14733237EA019510202900110000
F0614540205121518202125262931
B0614543248002S14733306EA019300200600011000
B0615043248025S14733372EA019030197800011000
B0615143248047S14733439EA018850195700011000
B0615243248061S14733509EA018690194100011000
B0615343248075S14733575EA018530192300011000
B0615443248078S14733640EA018450191400011000
B0615543248086S14733700EA018580192200111000
B0616043248092S14733754EA018690193700111000
B0616143248049S14733794EA018800195100111000
B0616243248002S14733719EA018900195900111000
B0616343248053S14733664EA018960196600111000
B0616443248077S14733711EA019050197600111000
B0616543248070S14733774EA019120198300111000
B0617043248010S14733804EA019200199100111000
B0617143247953S14733735EA019330200600111000
B0617243247985S14733657EA019500202400111000
B0617343248032S14733688EA019560203200111000
B0617443248013S14733745EA019620203700111000
B0617543247945S14733699EA019640203900111000
B0618043247975S14733628EA019830205200111000
F06181402051215202125262931
B0618143248000S14733673EA019950206600110000
F06182402051215182021252931
B0618243247945S14733709EA020060208000110000
F0618340205121518202125262931
B0618343247901S14733631EA020010207700111000
B0618443247956S14733595EA020090208100111000
B0618543247990S14733639EA020200209400111000
B0619043247988S14733706EA020320210400111000
B0619143247973S14733777EA020490212300111000
B0619243247964S14733841EA020770214900111000
B0619343247961S14733904EA020920217100111000
B0619443247950S14733966EA021120219000011000
B0619543247962S14734028EA021330221400011000
B0620043247964S14734093EA021510223200011000
B0620143247954S14734159EA021580224100011000
B0620243247937S14734222EA021570224100011000
B0620343247896S14734175EA021470222900211000
B0620443247908S14734088EA021690224400111000
B0620543247917S14734003EA021850226500111000
B0621043247924S14733911EA021930227500011000
B0621143247938S14733824EA022110229500011000
B0621243247885S14733791EA022280231100111000
F06213402051215202125262931
B0621343247863S14733856EA022480233400110000
F0621440205121518202125262931
B0621443247857S14733927EA022690235600011000
B0621543247846S14733986EA022810237000011000
B0622043247839S14734052EA022890237800011000
F062214020512152021252629
B0622143247830S14734114EA023020239200009000
F0622240205121518202125262931
B0622243247814S14734170EA023110240000011000
B0622343247769S14734220EA023080240000211000
B0622443247707S14734167EA022910238200211000
B0622543247710S14734068EA023080238800111000
B0623043247727S14733975EA023300241300011000
B0623143247739S14733880EA023470243400011000
B0623243247755S14733788EA023620245100011000
B0623343247802S14733714EA023770246700111000
B0623443247846S14733768EA023980248600111000
B0623543247800S14733826EA024010249300111000
B0624043247739S14733855EA024080250100111000
B0624143247690S14733892EA024190251400111000
B0624243247636S14733926EA024220252000011000
B0624343247584S14733962EA024120251300011000
B0624443247528S14734000EA024060250600111000
B0624543247476S14734047EA024000250000011000
B0625043247454S14734116EA023940249400011000
B0625143247452S14734189EA023830248200111000
B0625243247457S14734272EA023650246300111000
F06253402051215182021252931
B0625343247471S14734368EA023250242100110000
F0625440205121518202125262931
B0625443247459S14734469EA022960239000111000
B0625543247431S14734567EA022660235800111000
B0626043247408S14734656EA022320232300111000
B0626143247389S14734741EA022180230100111000
B0626243247375S14734833EA022110229300111000
B0626343247378S14734924EA022080229000011000
B0626443247379S14735017EA021920227900111000
B0626543247353S14735115EA021770226300111000
B0627043247334S14735218EA021590224500111000
B0627143247308S14735308EA021470223200011000
B0627243247276S14735390EA021260221200011000
B0627343247233S14735459EA021070219100111000
B0627443247214S14735525EA020850216700011000
B0627543247201S14735594EA020610214100011000
B0628043247192S14735664EA020510212500011000
B0628143247167S14735729EA020350210800011000
B0628243247143S14735792EA020190209200111000
B0628343247127S14735855EA020070207900011000
B0628443247091S14735916EA019950206800011000
B0628543247060S14735982EA019920206400011000
B0629043247009S14736025EA019890206100011000
F06291402051215182021252931
B0629143246952S14736060EA019710204700010000
F0629240205121518202125262931
B0629243246901S14736102EA019400201700011000
B0629343246847S14736143EA019070198200011000
B0629443246795S14736181EA018800195200011000
B0629543246742S14736212EA018570192500011000
B0630043246689S14736243EA018390190300011000
F06301402051215182021252931
B0630143246636S14736266EA018320189500010000
F0630240205121518202125262931
B0630243246586S14736292EA018290189200011000
B0630343246566S14736348EA018260188900011000
B0630443246511S14736370EA018340189500011000
B0630543246484S14736295EA018370189900111000
F06310402051215202125262931
B0631043246548S14736270EA018320189400110000
F0631140205121518202125262931
B0631143246550S14736333EA018340189700111000
B0631243246493S14736370EA018400190300011000
B0631343246436S14736410EA018280189700011000
F0631440205121315182021252629
B0631443246385S14736459EA018160188600011000
B0631543246343S14736508EA018030187200011000
B0632043246293S14736549EA017820184900111000
B0632143246247S14736588EA017570182200111000
B0632243246204S14736632EA017320179300111000
B0632343246166S14736680EA017170177600111000
B0632443246129S14736732EA016980175700111000
B0632543246091S14736782EA016720173100011000
B0633043246054S14736832EA016460170200111000
B0633143246028S14736888EA016260167900011000
B0633243246008S14736950EA016070165800011000
B0633343245975S14737008EA015850163500011000
B0633443245944S14737069EA015680161600011000
B0633543245922S14737128EA015470159600011000
B0634043245907S14737195EA015250157100011000
B0634143245891S14737256EA015060155500011000
B0634243245854S14737319EA014830152800111000
B0634343245827S14737380EA014840152300111000
B0634443245825S14737434EA014850152500111000
B0634543245854S14737485EA014770152000111000
B0635043245891S14737533EA014770151800011000
B0635143245951S14737528EA014690151000111000
B0635243245993S14737458EA014690150700111000
B0635343246033S14737413EA014760151700111000
B0635443246051S14737463EA014770152100111000
B0635543246087S14737507EA014770152200011000
B0636043246124S14737547EA014820152600011000
B0636143246154S14737587EA014780152500211000
B0636243246088S14737626EA014720151800111000
B0636343246012S14737596EA014690151300111000
B0636443245945S14737558EA014700151400111000
B0636543245924S14737484EA014630150600111000
B0637043245968S14737492EA014610150400211000
B0637143245957S14737562EA014590150100111000
B0637243245913S14737624EA014460149000111000
B0637343245859S14737682EA014410147500111000
B0637443245874S14737753EA014360147200111000
B0637543245818S14737774EA014310146800111000
B0638043245762S14737719EA014300146400111000
B0638143245708S14737751EA014220146100111000
B0638243245686S14737816EA014230146000111000
B0638343245668S14737890EA014320146800111000
B0638443245645S14737960EA014360147700111000
B0638543245617S14737992EA014270147500311000
B0639043245608S14737917EA014280147000111000
B0639143245659S14737924EA014240146500111000
B0639243245665S14737977EA014200146000111000
B0639343245655S14738040EA014250145900111000
B0639443245608S14738074EA014400146900111000
B0639543245571S14738114EA014670149500111000
B0640043245631S14738128EA015010153600211000
B0640143245611S14738056EA015350157500211000
B0640243245574S14738099EA015590160400311000
B0640343245619S14738153EA015840163200111000
B0640443245674S14738105EA016100165500111000
B0640543245645S14738024EA016280167500111000
B0641043245606S14738056EA016510170000111000
B0641143245644S14738110EA016620171400111000
B0641243245697S14738054EA016850173100111000
B0641343245664S14737972EA017030175100111000
B0641443245601S14737964EA017270177700111000
B0641543245581S14738022EA017460180100111000
B0642043245643S14738045EA017550181100111000
B0642143245695S14737973EA017630181700111000
B0642243245691S14737877EA017790183400011000
B0642343245649S14737817EA017920185100211000
B0642443245619S14737853EA018060186600111000
B0642543245648S14737906EA018200188200111000
B0643043245716S14737851EA018420190100111000
B0643143245692S14737770EA018560191800111000
F0643240512131518202125262931
B0643243245639S14737755EA018640193000111000
B0643343245616S14737805EA018710193800011000
B0643443245601S14737864EA018870195300011000
B0643543245591S14737919EA019010196600011000
B0644043245576S14737973EA019150198200011000
B0644143245553S14738024EA019240199400011000
B0644243245542S14738090EA019410200700011000
B0644343245511S14738135EA019360200700011000
B0644443245477S14738171EA019340199900011000
B0644543245419S14738148EA019420200600311000
B0645043245451S14738054EA019520201700111000
B0645143245483S14738090EA019720203700111000
B0645243245428S14738052EA019900205800111000
B0645343245462S14737957EA019970207000111000
B0645443245518S14737985EA020070207700111000
B0645543245541S14738031EA020060208300111000
B0646043245500S14738066EA020020207900111000
B0646143245454S14738092EA019960207400011000
B0646243245412S14738118EA019880206400011000
B0646343245379S14738161EA019720204900011000
B0646443245357S14738214EA019840204600011000
B0646543245375S14738265EA019880205500011000
B0647043245436S14738226EA019910205700111000
B0647143245437S14738118EA019940206200011000
B0647243245391S14738053EA020000206900111000
B0647343245336S14737996EA020080207800111000
B0647443245297S14738040EA020220209200111000
B0647543245317S14738095EA020360210800111000
B0648043245385S14738084EA020380211300111000
B0648143245390S14737989EA020400211400111000
B0648243245342S14737928EA020440211800111000
B0648343245292S14737944EA020540212700111000
B0648443245295S14738001EA020590213400111000
B0648543245306S14738054EA020680214500111000
B0649043245332S14738116EA020760215200111000
B0649143245390S14738123EA020730215100211000
B0649243245393S14738025EA020620214000111000
B0649343245353S14737959EA020710214600111000
B0649443245300S14737940EA020860216200011000
B0649543245244S14737936EA021050218300011000
B0650043245187S14737950EA021250220700011000
B0650143245135S14737887EA021420222300011000
B0650243245128S14737794EA021620224500011000
B0650343245155S14737716EA021730225600011000
B0650443245225S14737707EA021830226600111000
B0650543245271S14737753EA022030228500111000
B0651043245218S14737782EA022240230900011000
B0651143245184S14737704EA022420233200111000
B0651243245250S14737646EA022630235300111000
B0651343245295S14737693EA022720236400111000
B0651443245246S14737728EA022880238000111000
B0651543245203S14737670EA022990239400111000
B0652043245192S14737577EA023220241500011000
B0652143245186S14737484EA023230242000011000
B0652243245248S14737434EA023180241400011000
B0652343245291S14737490EA023120240400011000
F06524405121315182021252629
B0652443245291S14737564EA023170240300110000
B0652543245264S14737629EA023330241800110000
B0653043245218S14737664EA023250242400210000
B0653143245206S14737581EA023290242500110000
B0653243245279S14737536EA023410243400110000
B0653343245348S14737560EA023460244200110000
B0653443245326S14737627EA023550244600110000
B0653543245271S14737588EA023380243600110000
B0654043245279S14737493EA023390243400010000
B0654143245357S14737470EA023440243500110000
B0654243245417S14737524EA023480243900110000
B0654343245453S14737599EA023510244300010000
B0654443245489S14737674EA023360243500010000
B0654543245528S14737749EA023200241700010000
B0655043245552S14737825EA022970239300010000
F065514051213151820252629
B0655143245568S14737898EA022770236900109000
F06552405121315182021252629
B0655243245583S14737967EA022640235200110000
B0655343245610S14738037EA022480233600110000
B0655443245647S14738112EA022260231200010000
B0655543245699S14738177EA022080229400010000
B0656043245742S14738254EA021760226200010000
B0656143245771S14738331EA021490223300010000
B0656243245793S14738412EA021240220700010000
B0656343245822S14738480EA021100219100010000
B0656443245836S14738559EA020960217900010000
B0656543245859S14738630EA020840216600010000
B0657043245887S14738699EA020650214600010000
B0657143245911S14738767EA020520213200010000
B0657243245931S14738830EA020420212200010000
B0657343245943S14738902EA020180209900010000
B0657443245969S14738946EA020060208400010000
B0657543245985S14739004EA019980207100010000
B0658043245996S14739058EA019890206300010000
B0658143246006S14739121EA019830205600010000
B0658243246019S14739171EA019860206100010000
B0658343246024S14739234EA019950206900010000
B0658443246053S14739283EA020120208700010000
B0658543246102S14739251EA020150209200010000
B0659043246076S14739169EA020210209700110000
B0659143246001S14739161EA020280210400110000
B0659243245931S14739178EA020440212100010000
B0659343245880S14739231EA020530213100010000
B0659443245868S14739290EA020550213400010000
B0659543245890S14739341EA020690214400010000
B0700043245943S14739344EA020740215000010000
B0700143245939S14739266EA020760215400110000
B0700243245862S14739264EA020810215700110000
B0700343245847S14739323EA020960217400010000
B0700443245887S14739348EA021030218100110000
B0700543245886S14739264EA021080218700110000
B0701043245808S14739238EA021090218900110000
B0701143245760S14739283EA021210220000110000
B0701243245728S14739339EA021200219900110000
B0701343245734S14739401EA021280220700110000
B0701443245753S14739461EA021290220900010000
B0701543245778S14739517EA021300221100010000
B0702043245808S14739565EA021320221200010000
B0702143245837S14739621EA021270220900010000
B0702243245870S14739671EA021160219900010000
B0702343245899S14739735EA021160219200010000
B0702443245928S14739793EA021350220800010000
B0702543245984S14739826EA021520222700010000
B0703043246046S14739803EA021670224500110000
B0703143246053S14739854EA021650224700110000
B0703243245990S14739840EA021620225000110000
B0703343245936S14739857EA021610224900110000
B0703443245930S14739922EA021520223900110000
B0703543245939S14739993EA021490222900010000
B0704043245956S14740044EA021510223100010000
B0704143245956S14740109EA021540223500010000
B0704243245953S14740183EA021520223400010000
B0704343245970S14740241EA021620224200010000
B0704443245989S14740290EA021520224000010000
B0704533245997S14740355EA021440222900010000
B0705043246007S14740426EA021320221500010000
B0705143246017S14740490EA021320221400010000
B0705243246025S14740566EA021050218900010000
B0705343246041S14740636EA020780215800010000
B0705443246077S14740694EA020630213200010000
B0705543246115S14740743EA020600212700010000
B0706043246160S14740787EA020640213400010000
B0706143246192S14740846EA020720214400010000
B0706243246252S14740853EA020730215000210000
B0706343246239S14740775EA020700214800110000
B0706443246179S14740763EA020670214300110000
B0706543246122S14740786EA020860215900010000
B0707043246113S14740838EA021070218200010000
B0707143246082S14740889EA021140219500010000
B0707243246037S14740843EA021210220500110000
B0707343246068S14740755EA021310221200010000
B0707443246135S14740745EA021460222400010000
B0707543246154S14740790EA021610224200310000
B0708043246115S14740725EA021640225200210000
B0708143246171S14740721EA021730225500210000
B0708243246121S14740736EA021790226400110000
B0708343246122S14740641EA021820226500110000
B0708443246189S14740625EA021940227500110000
B0708543246206S14740690EA022160229700110000
B0709043246253S14740719EA022310231700110000
B0709143246290S14740650EA022320232100310000
B0709243246229S14740645EA022290231900110000
B0709343246177S14740675EA022380232800110000
B0709443246133S14740699EA022320232400010000
B0709543246083S14740720EA022190231000010000
B0710043246077S14740781EA021970228600010000
B0710143246102S14740844EA021740225900010000
B0710243246127S14740906EA021530223600010000
F071034051213151820212629
B0710343246142S14740969EA021340221600009000
F07104405121315182021252629
B0710443246157S14741030EA021090219100010000
B0710543246178S14741086EA021000217900010000
B0711043246197S14741138EA020930217100010000
B0711143246205S14741195EA020880216600010000
B0711243246220S14741254EA020860216300010000
B0711343246238S14741308EA020820216000010000
B0711443246265S14741357EA020710215000010000
B0711543246296S14741408EA020600213700010000
B0712043246322S14741462EA020470212400010000
B0712143246343S14741518EA020320210900010000
B0712243246354S14741571EA020110208700010000
B0712343246373S14741626EA019950206700010000
B0712443246395S14741683EA019840205400010000
B0712543246412S14741745EA019770204800010000
B0713043246436S14741807EA019630203600010000
B0713143246463S14741877EA019540202600010000
B0713243246488S14741945EA019490202000010000
B0713343246511S14742003EA019480201900010000
B0713443246531S14742060EA019530202300010000
B0713543246546S14742118EA019560202800010000
B0714043246570S14742186EA019380201500010000
B0714143246593S14742260EA019160198800010000
B0714243246606S14742332EA019070197500010000
B0714343246613S14742392EA019170198300010000
B0714443246609S14742445EA019350200100010000
B0714543246548S14742427EA019500202100110000
B0715043246565S14742339EA019630203500110000
B0715143246622S14742353EA019780205200110000
B0715243246593S14742391EA019950206900110000
B0715343246557S14742310EA020090208400110000
B0715443246615S14742256EA020190209400110000
B0715543246642S14742307EA020340210900010000
B0716043246595S14742270EA020500212700110000
B0716143246649S14742203EA020670214400110000
B0716243246687S14742244EA020720215400010000
B0716343246632S14742246EA020740216200010000
B0716443246645S14742159EA020910217300110000
B0716543246710S14742171EA021010218200110000
B0717043246683S14742215EA020890218000110000
B0717143246639S14742149EA020910218100110000
B0717243246670S14742054EA021020218100010000
B0717343246734S14742003EA021060218500010000
B0717443246794S14742043EA021140219100010000
B0717543246792S14742106EA021160219500010000
B0718043246775S14742166EA021070218700010000
F0718140512131516182021252629
B0718143246754S14742220EA020990218000011000
B0718243246753S14742282EA020900217100011000
B0718343246753S14742345EA020780215700011000
B0718443246760S14742415EA020610214000011000
B0718543246770S14742492EA020370211600011000
B0719043246785S14742570EA020180209400011000
B0719143246782S14742641EA020050207900011000
B0719243246779S14742703EA019990207100011000
B0719343246768S14742773EA019950206700011000
B0719443246766S14742849EA019870205900011000
B0719543246782S14742922EA019910205800011000
B0720043246804S14742987EA020010207000011000
B0720143246830S14743038EA020070207900011000
B0720243246854S14743093EA020080208100011000
B0720343246877S14743144EA020060208000011000
B0720443246891S14743205EA020000207400011000
B0720543246898S14743270EA019870206100011000
B0721043246915S14743337EA019700204700011000
B0721143246935S14743404EA019510202600011000
B0721243246946S14743467EA019280199900011000
B0721343246957S14743531EA019060197600011000
B0721443246965S14743595EA018840195200011000
B0721543246971S14743659EA018660193300011000
B0722043246965S14743728EA018460191200011000
B0722143246963S14743798EA018250189000011000
B0722243246964S14743869EA018030186700011000
B0722343246970S14743938EA017860184900011000
B0722443246967S14744013EA017670182800011000
B0722543246942S14744086EA017500181000011000
B0723043246904S14744153EA017270178600011000
B0723143246863S14744219EA017010175900011000
B0723243246834S14744292EA016800173600011000
F07233405121315182021252629
B0723343246794S14744356EA016590171500010000
B0723443246761S14744419EA016370169300010000
F0723540512131516182021252629
B0723543246732S14744492EA016150166700011000
B0724043246705S14744560EA016010165200011000
B0724143246675S14744626EA015910164000011000
B0724243246644S14744690EA015810163100011000
B0724343246608S14744756EA015690161800011000
F07244405131516182021252629
B0724443246572S14744821EA015560160400010000
B0724543246531S14744878EA015420159000010000
B0725043246497S14744934EA015260157300010000
F0725140510131516182021252629
B0725143246458S14744988EA015100155700011000
B0725243246431S14745048EA014940154000011000
B0725343246404S14745105EA014770152300011000
B0725443246369S14745153EA014620150700011000
B0725543246327S14745194EA014440148800011000
B0726043246296S14745241EA014250146700011000
B0726143246260S14745288EA014070144600011000
B0726243246216S14745328EA013870142500011000
B0726343246172S14745368EA013660140300011000
B0726443246132S14745406EA013440138100011000
B0726543246092S14745445EA013290136500011000
F07270405101315182021252629
B0727043246056S14745483EA013080134300010000
F0727140510131516182021252629
B0727143246028S14745529EA012910132300011000
B0727243245997S14745576EA012740130600011000
B0727343245965S14745621EA012580128800011000
B0727443245930S14745664EA012370126500011000
B0727543245889S14745709EA012180124400011000
B0728043245840S14745740EA012040123100011000
B0728143245792S14745773EA011830121100011000
B0728243245755S14745823EA011710119700011000
B0728343245728S14745880EA011530118000011000
B0728443245690S14745930EA011300115600011000
B0728543245643S14745978EA011020112700011000
B0729043245587S14746022EA010810110500011000
B0729143245529S14746060EA010570107900011000
B0729243245463S14746081EA010380105700011000
B0729343245404S14746117EA010220104000011000
B0729443245362S14746165EA010070102400011000
B0729543245312S14746211EA009860100100011000
B0730043245268S14746267EA009660098000011000
B0730143245232S14746330EA009460095900011000
B0730243245190S14746391EA009210093200011000
B0730343245140S14746443EA009030091200011000
B0730443245089S14746500EA008860089400011000
B0730543245036S14746554EA008700087400011000
B0731043244991S14746607EA008570086200011000
B0731143244952S14746663EA008470085200011000
B0731243244915S14746718EA008340083900011000
B0731343244885S14746786EA008210082500011000
B0731443244868S14746856EA008070081100011000
B0731543244850S14746927EA007940079600011000
B0732043244828S14746987EA007860078800011000
B0732143244812S14747042EA007670077100011000
B0732243244787S14747094EA007450074600011000
B0732343244754S14747147EA007230071800011000
B0732443244698S14747163EA007000069700011000
B0732543244638S14747172EA006860068000011000
B0733043244571S14747167EA006740066900011000
B0733143244506S14747159EA006760067100011000
B0733243244495S14747078EA006640066100111000
B0733343244550S14747063EA006500064500011000
B0733443244520S14747111EA006390063100111000
B0733543244450S14747109EA006350062800011000
B0734043244385S14747128EA006330062700011000
B0734143244321S14747155EA006280062300011000
B0734243244250S14747167EA006170061300011000
B0734343244186S14747194EA006150060900011000
B0734443244140S14747248EA006120060400011000
B0734543244084S14747291EA006110060400011000
B0735043244028S14747323EA006090060100011000
B0735143243989S14747370EA006030059500011000
B0735243243949S14747409EA005910058200011000
B0735343243899S14747431EA005790057000011000
B0735443243839S14747438EA005570054700011000
B0735543243779S14747449EA005450053200011000
B0736043243726S14747469EA005320052100011000
B0736143243683S14747510EA005160050300011000
B0736243243643S14747550EA004990048500011000
B0736343243606S14747590EA004840046700011000
B0736443243571S14747632EA004690045000011000
B0736543243538S14747674EA004570043700011000
B0737043243510S14747719EA004380041700011000
B0737143243497S14747768EA004250040200011000
B0737243243485S14747817EA004190039500011000
B0737343243446S14747841EA004110038900011000
B0737443243456S14747760EA004080038500211000
B0737543243486S14747795EA004000037800111000
B0738043243444S14747816EA003910036900111000
B0738143243377S14747800EA003850036400011000
B0738243243315S14747799EA003710035000011000
B0738343243265S14747819EA003630034000011000
B0738443243205S14747816EA003490032600011000
B0738543243163S14747847EA003290030400211000
B0739043243232S14747854EA003140028400111000
B0739143243282S14747846EA003100027400211000
B0739243243280S14747846EA003090027400111000
B0739343243279S14747846EA003090027500111000
B0739443243279S14747846EA003090027600011000
B0739543243279S14747846EA003090027600011000
B0740043243280S14747845EA003100027800011000
B0740143243280S14747845EA003090027900011000
B0740243243281S14747845EA003100027900011000
B0740343243281S14747845EA003090027900011000
B0740443243280S14747845EA003090027900011000
B0740543243280S14747845EA003100027800011000
B0741043243280S14747845EA003090027900011000
B0741143243280S14747845EA003090027800011000
L   FlyChart
L   Version 4.59, August 3th 2016
G9CC2FAAF9E52B952975A004550CD14BEA1D8CF5DD6A7DD33210B37FED9608D17
