AFLY00Bw 00740
HFDTE040117
HFFXA010
HFPLTPILOT:Nari Watabe     
HFGTYGLIDERTYPE:not-set         
HFGIDGLIDERID:not-set         
HFDTM100GPSDATUM:WGS84
HFRFWFIRMWAREVERSION: 1.3.07  Eng
HFRHWHARDWAREVERSION:1.00
HFFTYFRTYPE:Brauniger,IQ-Basic GPS
HFGPS:FASTRAX,IT321,20
HFPRSPRESSALTSENSOR:INTERSEMA,MS5401BM,12000
HFTZNUTCOFFSET: 11
I033638FXA3940SIU4143TAS
C040117010145040117003400
C3321280S14755972ETakeoff
C3321372S14756016E00000000010000000000360000StartArea,BMI023          
C3359712S14543132E00000000001000000000360000FinishArea,GOOLGO          
C3333915S14718377ELanding
F032108020506121719242529
B0321083321294S14755934EA002130023800109000
F032138020506121719242529
B0321383321294S14755935EA002130023400109000
F032208020506121719242529
B0322083321292S14755940EA002130023300109000
F0322380205061217192429
B0322383321290S14755938EA002130023500108000
F032308020506121719242529
B0323083321290S14755942EA002130023500109000
F032338020506121719242529
B0323383321290S14755941EA002130023500109000
F032408020506121719242529
B0324083321290S14755941EA002130023300109000
F032438020506121719242529
B0324383321289S14755942EA002130023300109000
F032508020506121719242529
B0325083321290S14755941EA002130023200109000
E032526STA
E032526ATS1015.6
LFLYA100235
B0325263321280S14755972EA002170023300109000
B0325363321253S14756046EA002430025400109000
B0325463321230S14756116EA002670028300109000
B0325563321201S14756190EA002980031600109000
B0326063321173S14756254EA003320035700109000
B0326163321174S14756313EA003550038500109000
B0326263321198S14756370EA003720040400109000
B0326363321252S14756394EA003950042700109000
B0326463321322S14756393EA004000043700109000
B0326563321398S14756353EA004140045000109000
B0327063321471S14756277EA004250046500109000
B0327163321505S14756167EA004410048000109000
B0327263321500S14756046EA004540049300109000
B0327363321467S14755938EA004670050600109000
B0327463321389S14755879EA004740051400109000
B0327563321302S14755871EA004790051800109000
B0328063321230S14755904EA005050053900109000
B0328163321150S14755925EA005400057600109000
B0328263321083S14755965EA005750061500109000
B0328363321024S14756019EA006100065300109000
B0328463320975S14756058EA006580070100109000
B0328563320926S14756101EA007010074400109000
B0329063320877S14756153EA007560080400109000
B0329163320863S14756211EA007840085800109000
B0329263320854S14756267EA007970086900109000
B0329363320799S14756281EA008010087200109000
B0329463320721S14756270EA008120087600109000
B0329563320719S14756328EA008100087100109000
E033001TPC
B0330013320751S14756339EA008090086900109000
B0330063320787S14756334EA008110086800109000
B0330163320863S14756281EA008130086800109000
B0330263320929S14756270EA008160087200109000
B0330363320912S14756312EA008060086300309000
B0330463320849S14756296EA008010085800109000
B0330563320794S14756258EA008050085800109000
B0331063320775S14756165EA008260087200109000
B0331163320721S14756148EA008340088600109000
B0331263320738S14756204EA008370089400109000
B0331363320774S14756256EA008380089200109000
B0331463320759S14756303EA008480090100309000
B0331563320737S14756227EA008620091500109000
B0332063320799S14756227EA008660092300209000
B0332163320753S14756230EA008730093000209000
B0332263320767S14756135EA008770093500309000
B0332363320834S14756159EA008810093900209000
B0332463320863S14756208EA008840094400309000
B0332563320803S14756175EA008800094400209000
B0333063320843S14756092EA008820094300109000
B0333163320904S14756094EA009040096100109000
B0333263320948S14756049EA009050096600209000
B0333363320886S14755969EA009140097000309000
B0333463320824S14755915EA009290098600109000
B0333563320857S14755840EA009450100700109000
B0334063320871S14755875EA009580102100109000
B0334163320807S14755846EA009710103700209000
B0334263320748S14755793EA009970106200309000
B0334363320746S14755841EA010140108400109000
B0334463320787S14755776EA010380110300109000
B0334563320725S14755724EA010550112400209000
B0335063320696S14755787EA010630113100209000
B0335163320735S14755800EA010700114100209000
B0335263320788S14755736EA010880115600309000
B0335363320797S14755773EA011120118100209000
B0335463320744S14755713EA011260120000109000
B0335563320707S14755632EA011400121700109000
B0336063320758S14755593EA011500122700209000
B0336163320737S14755637EA011740124900109000
B0336263320694S14755578EA011800126700209000
B0336363320750S14755540EA011920127100309000
B0336463320721S14755578EA012120128900309000
B0336563320699S14755502EA012210129800209000
B0337063320753S14755503EA012270130200209000
B0337163320705S14755526EA012460132100109000
B0337263320722S14755437EA012490132800209000
B0337363320796S14755415EA012650133800109000
B0337463320853S14755405EA012970137200109000
B0337563320908S14755408EA013390141600109000
B0338063320963S14755417EA013770145900109000
B0338163321030S14755411EA014110149600109000
B0338263321099S14755397EA014400152800109000
B0338363321165S14755339EA014670155800109000
B0338463321203S14755245EA014900158300109000
B0338563321207S14755151EA014970159200109000
B0339063321151S14755138EA014970158900109000
B0339163321105S14755175EA014950158600209000
B0339263321053S14755213EA015170160300109000
B0339363321001S14755236EA015440163300109000
B0339463320944S14755245EA015780166900109000
B0339563320881S14755243EA016130170600109000
B0340063320818S14755250EA016490174600209000
B0340163320791S14755165EA016830178400109000
B0340263320857S14755107EA017140181600109000
B0340363320923S14755102EA017320183500109000
B0340463320993S14755112EA017550185600109000
B0340563321058S14755127EA017840188600109000
B0341063321127S14755122EA018000190800109000
B0341163321198S14755132EA018260193100109000
B0341263321267S14755169EA018390194600109000
B0341363321276S14755225EA018490195300109000
B0341463321217S14755209EA018610196700109000
B0341563321174S14755143EA018810198600109000
B0342063321128S14755103EA019080201400109000
B0342163321082S14755041EA019310204200309000
B0342263321027S14755021EA019690207900109000
F0342360205061219242529
B0342363320973S14754997EA020090212000108000
B0342463320917S14754967EA020340215000108000
B0342563320858S14754941EA020640217600108000
B0343063320801S14754917EA021030221700108000
B0343163320743S14754890EA021370226000108000
B0343263320714S14754912EA021580228100208000
B0343363320766S14754940EA021700229600108000
B0343463320839S14754963EA021800230000108000
B0343563320925S14754947EA021950231400108000
B0344063321009S14754921EA022130233100108000
B0344163321087S14754877EA022510237000108000
B0344263321157S14754819EA022800240500108000
B0344363321237S14754783EA023070243600108000
B0344463321316S14754739EA023170244900108000
B0344563321392S14754709EA023100244200108000
B0345063321443S14754748EA023040243600108000
B0345163321426S14754789EA023080243700108000
B0345263321381S14754762EA023060243900108000
B0345363321336S14754720EA023010243600108000
B0345463321296S14754653EA023220244800108000
B0345563321254S14754594EA023280245700108000
B0346063321204S14754540EA023220245400108000
B0346163321160S14754472EA023250245600108000
B0346263321131S14754390EA023270245800108000
B0346363321185S14754298EA023210245000108000
B0346463321250S14754215EA023000243000108000
B0346563321322S14754138EA022860241100108000
B0347063321390S14754046EA022680239100108000
B0347163321462S14753952EA022460237000108000
B0347263321542S14753880EA022190234200108000
B0347363321599S14753777EA022010232000108000
B0347463321603S14753655EA021880230500108000
B0347563321596S14753536EA021630228300008000
B0348063321576S14753423EA021270224900008000
B0348163321544S14753320EA021060222200008000
B0348263321525S14753226EA020960221100008000
B0348363321503S14753134EA020880220400008000
B0348463321478S14753047EA020770219400008000
B0348563321455S14752967EA020600217800008000
B0349063321435S14752882EA020360215400008000
B0349163321415S14752802EA020140213000008000
B0349263321388S14752723EA019880210200108000
B0349363321363S14752636EA019690208200108000
B0349463321340S14752545EA019630207400008000
B0349563321314S14752457EA019620207300008000
B0350063321293S14752359EA019580207100008000
B0350163321269S14752254EA019610207300008000
B0350263321231S14752159EA019650207700108000
B0350363321188S14752080EA019540207000108000
B0350463321158S14751993EA019300204700108000
B0350563321138S14751899EA019080202000008000
B0351063321134S14751800EA018690198200108000
B0351163321197S14751713EA018350194200108000
B0351263321269S14751665EA018140191700108000
B0351363321344S14751633EA018000190200108000
B0351463321420S14751608EA018010190100108000
B0351563321497S14751585EA018010190300108000
B0352063321576S14751557EA018040190700108000
B0352163321651S14751550EA018060191100108000
B0352263321672S14751614EA018230192500108000
B0352363321621S14751608EA018250193100108000
B0352463321626S14751512EA018280192900108000
B0352563321639S14751425EA018250192700108000
B0353063321615S14751332EA018050191600108000
B0353163321655S14751246EA017930189800108000
B0353263321725S14751195EA017870188900108000
B0353363321798S14751152EA017890188900108000
B0353463321874S14751138EA017870189000108000
B0353563321930S14751179EA017970189900108000
B0354063321973S14751228EA017950190100008000
B0354163321944S14751261EA017920189600108000
B0354263321896S14751224EA018000190300108000
B0354363321896S14751130EA018090191100108000
B0354463321958S14751063EA018160191800108000
B0354563322026S14751089EA018270192900108000
B0355063322022S14751147EA018310193400108000
B0355163321973S14751131EA018320193600108000
B0355263321956S14751038EA018470194800108000
B0355363322009S14750963EA018550195800108000
B0355463322084S14750970EA018650196800108000
B0355563322115S14751030EA018670197400008000
B0356063322079S14751051EA018610196900108000
B0356163322028S14751020EA018630196700008000
B0356263321986S14751029EA018660197100008000
B0356363321956S14750949EA018660197000108000
B0356463322020S14750876EA018690197300108000
B0356563322071S14750916EA018770197800108000
B0357063322033S14750905EA018760198000108000
B0357163321992S14750890EA018840198500108000
B0357263322052S14750906EA018810198300308000
B0357363322073S14750812EA018870198700208000
B0357463322025S14750796EA019000199900108000
B0357563322047S14750840EA019000200300108000
B0358063322121S14750784EA018950199600108000
B0358163322121S14750677EA018940199400108000
B0358263322080S14750623EA018940199800108000
B0358363322033S14750646EA019010200200108000
B0358463321997S14750658EA018830199400108000
B0358563321985S14750566EA018610196600108000
B0359063322027S14750473EA018610195700108000
B0359163322090S14750408EA018530195100108000
B0359263322155S14750417EA018540195000108000
B0359363322209S14750437EA018670196400308000
B0359463322224S14750336EA018620196400108000
B0359563322177S14750308EA018590195700108000
E040001TPC
B0400013322166S14750330EA018630195900108000
B0400063322158S14750356EA018680196300108000
B0400163322198S14750399EA018760197400108000
B0400263322251S14750326EA018830197900108000
B0400363322204S14750276EA018920198900108000
B0400463322188S14750330EA019030200100108000
B0400563322245S14750338EA019020200300108000
B0401063322282S14750246EA019000199900108000
B0401163322279S14750135EA018970199300108000
B0401263322230S14750111EA019060200000308000
B0401363322289S14750087EA019140201200308000
B0401463322237S14750054EA019220202200308000
B0401563322274S14750093EA019340203300308000
B0402063322321S14750005EA019300203200108000
B0402163322327S14749893EA019290202900108000
B0402263322330S14749772EA019440204100108000
B0402363322336S14749644EA019400204600108000
B0402463322337S14749524EA019390204400008000
B0402563322342S14749402EA019440204600008000
B0403063322347S14749286EA019550205800008000
B0403163322339S14749184EA019670207100008000
B0403263322405S14749137EA019810208300108000
B0403363322412S14749185EA019990209900108000
B0403463322356S14749141EA020120211600108000
B0403563322388S14749058EA020230212800208000
B0404063322438S14749091EA020390214400108000
B0404163322383S14749086EA020430215400108000
B0404263322359S14748997EA020460215400108000
B0404363322339S14748900EA020640217000108000
B0404463322301S14748925EA020600216900108000
B0404563322368S14748940EA020690217400108000
B0405063322409S14748854EA020840218800108000
B0405163322355S14748794EA020910220200308000
B0405263322372S14748846EA020830219300108000
B0405363322432S14748790EA020960220200308000
B0405463322385S14748783EA021030221000208000
B0405563322433S14748823EA021100221700108000
B0406063322472S14748735EA021160222300108000
B0406163322419S14748710EA021200223000208000
B0406263322467S14748746EA021190222800108000
B0406363322536S14748762EA021130222400108000
B0406463322575S14748670EA021040221300108000
B0406563322566S14748548EA021030220800108000
B0407063322549S14748432EA021130221900008000
B0407163322534S14748332EA021040221800008000
B0407263322526S14748226EA020810219400008000
B0407363322524S14748118EA020600216900008000
B0407463322522S14748017EA020370214400008000
B0407563322531S14747913EA020140211900008000
B0408063322551S14747808EA019970210000008000
B0408163322596S14747706EA019710207500008000
B0408263322654S14747612EA019480204900108000
B0408363322697S14747518EA019460204200108000
B0408463322746S14747427EA019440204000108000
B0408563322801S14747327EA019230202600108000
B0409063322834S14747226EA019060201000108000
B0409163322855S14747118EA018790198100108000
B0409263322885S14747007EA018650196300108000
B0409363322901S14746909EA018400193900008000
B0409463322919S14746811EA018170191500008000
B0409563322947S14746713EA018040190000108000
B0410063322971S14746616EA017880188300108000
B0410163322991S14746528EA017670186200008000
B0410263323006S14746440EA017430183700008000
B0410363323013S14746340EA017120180500008000
B0410463323037S14746230EA016990178500008000
F041056020506121920242529
B0410563323042S14746121EA016860177300009000
B0411063323039S14746021EA016700175700009000
B0411163323052S14745913EA016550174300009000
B0411263323097S14745812EA016350172300009000
B0411363323182S14745769EA016170170200009000
B0411463323263S14745749EA016010168500009000
B0411563323357S14745731EA015770165900109000
B0412063323443S14745708EA015540163600109000
B0412163323526S14745692EA015360161500109000
B0412263323604S14745682EA015200159900009000
B0412363323682S14745677EA015020158200009000
B0412463323758S14745684EA014870156600009000
B0412563323832S14745692EA014700154700009000
B0413063323901S14745706EA014570153200109000
B0413163323971S14745726EA014410151700009000
B0413263324045S14745740EA014140149000009000
B0413363324114S14745770EA013890146100009000
B0413463324178S14745786EA013600143300009000
B0413563324249S14745804EA013330140400009000
F0414060206121920242529
B0414063324314S14745827EA013230139000108000
F041416020506121920242529
B0414163324388S14745815EA013230138600109000
B0414263324467S14745809EA013080137900109000
B0414363324540S14745829EA012770134700109000
B0414463324616S14745837EA012400130700109000
B0414563324701S14745851EA012050127000109000
B0415063324778S14745875EA011760123900109000
B0415163324856S14745867EA011540121400109000
B0415263324918S14745877EA011270118900109000
B0415363324977S14745909EA011020116100109000
B0415463325036S14745933EA010830114100109000
B0415563325095S14745940EA010570111800109000
B0416063325161S14745957EA010170107500109000
B0416163325235S14745987EA009850103700109000
B0416263325305S14746001EA009700101900109000
B0416363325376S14745980EA009590100800009000
B0416463325444S14745970EA009430099300009000
B0416563325512S14745953EA009290097700009000
B0417063325585S14745940EA009080095700009000
B0417163325656S14745907EA008820093200009000
B0417263325733S14745877EA008640091000009000
B0417363325804S14745840EA008480089200009000
B0417463325878S14745806EA008260086900009000
B0417563325947S14745774EA008020084400009000
B0418063326021S14745740EA007670080900009000
B0418163326098S14745709EA007390077700009000
B0418263326172S14745677EA007160075200009000
B0418363326241S14745642EA006910072500009000
B0418463326314S14745612EA006750070600109000
B0418563326383S14745579EA006570068900009000
B0419063326458S14745562EA006410067200009000
B0419163326532S14745534EA006240065500109000
B0419263326609S14745518EA006020063200009000
B0419363326690S14745487EA005810061000109000
B0419463326770S14745432EA005610058700109000
B0419563326835S14745378EA005610058300009000
B0420063326889S14745390EA005630058700109000
B0420163326860S14745421EA005530058200109000
B0420263326851S14745347EA005360056200309000
B0420363326921S14745303EA005330055600109000
B0420463326980S14745308EA005320055800109000
F0420560205121920242529
B0420563326941S14745305EA005330056100108000
F042106020506121920242529
B0421063326991S14745242EA005320055300209000
B0421163327048S14745262EA005360056100209000
B0421263327004S14745268EA005390056700209000
B0421363327047S14745202EA005450056800109000
B0421463327081S14745246EA005470057400309000
B0421563327035S14745200EA005560058100209000
B0422063327098S14745159EA005650059100109000
B0422163327075S14745189EA005700060000309000
B0422263327096S14745108EA005880061200309000
B0422363327115S14745147EA006000063000109000
B0422463327088S14745083EA006140064500309000
B0422563327137S14745088EA006290066100109000
B0423063327092S14745061EA006480067900209000
B0423163327144S14745028EA006660069700309000
B0423263327103S14745023EA006850071900309000
B0423363327147S14744959EA007070074200209000
B0423463327119S14744979EA007300076500209000
B0423563327138S14744898EA007520078800309000
B0424063327192S14744936EA007580080000209000
B0424163327148S14744980EA007710081100109000
B0424263327117S14744899EA007970083400309000
B0424363327167S14744924EA008170085500109000
B0424463327113S14744902EA008450088500309000
B0424563327173S14744854EA008670091000209000
B0425063327149S14744901EA008860093200209000
B0425163327149S14744812EA009070095200309000
B0425263327193S14744855EA009180097200209000
B0425363327128S14744854EA009350098500109000
B0425463327167S14744776EA009530099900309000
B0425563327177S14744837EA009720102400309000
B0426063327119S14744782EA009840103600309000
B0426163327182S14744742EA010030105300209000
B0426263327187S14744790EA010220107500209000
B0426363327150S14744712EA010390109200309000
B0426463327210S14744722EA010510110400109000
B0426563327198S14744784EA010600111600109000
B0427063327146S14744762EA010640112000109000
B0427163327185S14744689EA010790113300209000
B0427263327179S14744734EA010830114000309000
B0427363327149S14744653EA011010115500109000
B0427463327205S14744635EA011130117200209000
B0427563327160S14744641EA011250118400309000
B0428063327190S14744568EA011360119200309000
B0428163327208S14744616EA011440120300209000
F0428260205061220242529
B0428263327155S14744639EA011540121700108000
F042836020506121920242529
B0428363327101S14744613EA011680123100109000
B0428463327148S14744563EA011810124200209000
B0428563327157S14744608EA011890125400109000
B0429063327125S14744640EA012000126200209000
B0429163327128S14744546EA011960126000309000
B0429263327183S14744560EA012090127200109000
B0429363327188S14744612EA012120127800109000
B0429463327164S14744655EA012110127800109000
B0429563327191S14744713EA012090127300109000
B0430063327211S14744771EA012250128500109000
B0430163327211S14744835EA012330129500109000
B0430263327157S14744809EA012470130900209000
B0430363327215S14744766EA012580132100209000
B0430463327219S14744829EA012630133200109000
B0430563327156S14744810EA012750134200109000
B0431063327197S14744770EA012890135600209000
B0431163327173S14744818EA012960136500109000
B0431263327127S14744766EA013150138200209000
B0431363327177S14744741EA013350140600109000
B0431463327155S14744793EA013460142100109000
B0431563327099S14744751EA013700143900109000
B0432063327139S14744691EA013930146300209000
B0432163327160S14744751EA014090148800109000
B0432263327098S14744763EA014260150100109000
B0432363327106S14744682EA014450151900109000
B0432463327160S14744703EA014620154000109000
B0432563327129S14744747EA014630154500109000
B0433063327106S14744672EA014760155000109000
B0433163327166S14744660EA014870156400109000
B0433263327142S14744704EA014820156100109000
B0433363327076S14744678EA014840156100109000
B0433463327030S14744604EA015070157800309000
B0433563327010S14744651EA015370161200109000
B0434063327069S14744630EA015480162500109000
B0434163327040S14744553EA015630164100109000
B0434263326994S14744584EA015950167400309000
B0434363327053S14744587EA016120170200309000
B0434463327011S14744534EA016250171200309000
B0434563327055S14744553EA016410172800309000
B0435063327017S14744482EA016530174000109000
B0435163326993S14744533EA016750175900109000
B0435263326952S14744539EA016900177900309000
B0435363326968S14744452EA017220180900109000
B0435463327010S14744478EA017380182900209000
B0435563326956S14744456EA017550184500209000
B0436063327004S14744452EA017690186100309000
B0436163326948S14744467EA017830187600109000
B0436263326972S14744398EA018080190100309000
B0436363326993S14744463EA018180191300109000
B0436463326944S14744440EA018400193000309000
B0436563326999S14744416EA018590195300209000
B0437063326959S14744440EA018760197200309000
B0437163326999S14744381EA018950199300309000
B0437263326976S14744422EA019100200900209000
B0437363326983S14744342EA019290203200309000
B0437463326990S14744393EA019390204100209000
B0437563326964S14744321EA019640206500309000
B0438063327029S14744320EA019740207800109000
B0438163326990S14744351EA019870208900109000
B0438263326995S14744268EA020050210600309000
B0438363327024S14744317EA020130211700109000
B0438463326968S14744319EA020290213300109000
B0438563326970S14744227EA020470214800209000
B0439063327025S14744241EA020570216300109000
B0439163326978S14744264EA020650217100109000
B0439263326973S14744179EA020790218100109000
B0439363327025S14744191EA020860219200109000
B0439463326971S14744209EA020950220300109000
B0439563326978S14744123EA021010221100109000
B0440063327025S14744151EA021090221700109000
B0440163326972S14744180EA021150222500109000
B0440263326937S14744102EA021210223000109000
F04403602050612192024252931
B0440363326995S14744065EA021260223700110000
B0440463326998S14744128EA021310224100110000
B0440563326941S14744097EA021300223900110000
B0441063326979S14744023EA021290224000110000
B0441163327033S14744051EA021280224000110000
B0441263327009S14744107EA021150222800110000
B0441363326948S14744051EA020970220300110000
B0441463326926S14743956EA021050219700110000
B0441563326897S14743865EA021360223300110000
B0442063326841S14743880EA021560226000110000
B0442163326893S14743885EA021760228300110000
B0442263326881S14743795EA022000231000110000
B0442363326818S14743812EA022110232400110000
B0442463326861S14743850EA022230233800110000
B0442563326905S14743893EA022410235700110000
B0443063326965S14743883EA022280234600110000
B0443163326949S14743792EA022160232600110000
B0443263326904S14743700EA022270232900210000
B0443363326836S14743700EA022430235200310000
B0443463326863S14743753EA022590237300110000
B0443563326897S14743684EA022660238300110000
B0444063326835S14743654EA022740239200210000
B0444163326869S14743692EA022810239800310000
B0444263326872S14743606EA022850240200210000
B0444363326813S14743617EA022950241400310000
B0444463326857S14743648EA023080242700210000
B0444563326911S14743592EA023070242300110000
B0445063326938S14743517EA023100242500110000
B0445163326892S14743449EA023150242800110000
B0445263326836S14743488EA023190243400110000
B0445363326883S14743511EA023270244300210000
F044546020506122024252931
B0445463326919S14743440EA023300244900109000
B0445563326962S14743373EA023290244800109000
B0446063326999S14743292EA023180244100109000
B0446163326993S14743189EA023050242700109000
B0446263326988S14743079EA022900241200109000
B0446363326996S14742961EA022660238700109000
B0446463326999S14742854EA022450236400109000
B0446563327011S14742746EA022260234200109000
B0447063327018S14742641EA022130232800109000
B0447163327027S14742532EA022060232100109000
B0447263327063S14742434EA021890230700109000
B0447363327110S14742343EA021760229200109000
B0447463327148S14742253EA021690228300109000
B0447563327179S14742159EA021530226500109000
B0448063327205S14742067EA021380225300109000
B0448163327233S14741973EA021250223900109000
B0448263327256S14741882EA021100222200009000
B0448363327272S14741793EA020970220800009000
B0448463327288S14741705EA020810219100009000
B0448563327300S14741615EA020610216900009000
B0449063327312S14741529EA020330214200109000
B0449163327322S14741439EA020060211200009000
B0449263327327S14741343EA019770208200109000
B0449363327335S14741248EA019560205900109000
B0449463327354S14741147EA019330203400109000
B0449563327368S14741048EA019180201600009000
B0450063327391S14740948EA019140201100009000
B0450163327419S14740852EA019100200800009000
B0450263327463S14740762EA019020200100009000
B0450363327518S14740674EA018950199300009000
B0450463327575S14740588EA018890198500009000
B0450563327633S14740508EA018700196800109000
B0451063327684S14740426EA018500194700109000
B0451163327731S14740327EA018290192500009000
B0451263327789S14740241EA018140190600109000
B0451363327848S14740164EA018100190000109000
B0451463327908S14740084EA018160190400109000
B0451563327958S14740003EA018120190500109000
B0452063328014S14739951EA018090190200009000
F0452160205061224252931
B0452163328064S14739895EA018050189900008000
F045226020506122024252931
B0452263328122S14739837EA017940188800009000
B0452363328178S14739767EA017870187800009000
B0452463328230S14739700EA017870187800009000
B0452563328281S14739634EA017820187200009000
B0453063328334S14739570EA017800186800009000
B0453163328389S14739556EA017730186100109000
B0453263328438S14739543EA017700185800109000
B0453363328479S14739500EA017630185100009000
B0453463328527S14739469EA017540184400109000
B0453563328587S14739451EA017530183600109000
B0454063328641S14739457EA017480183500309000
B0454163328596S14739487EA017300181600109000
B0454263328566S14739383EA017150179600109000
B0454363328522S14739298EA017250180100309000
B0454463328511S14739338EA017330181400109000
B0454563328540S14739263EA017450182800109000
B0455063328474S14739223EA017490183400109000
B0455163328475S14739273EA017550184000109000
B0455263328519S14739243EA017560184400109000
B0455363328475S14739148EA017650185100109000
B0455463328412S14739166EA017680185700109000
B0455563328434S14739202EA017700185800109000
B0456063328487S14739145EA017510184400109000
B0456163328487S14739038EA017610184300109000
B0456263328417S14738977EA017700185200109000
B0456363328393S14739021EA017750186000109000
B0456463328444S14738979EA017850187100109000
B0456563328426S14738886EA017900187800209000
B0457063328355S14738877EA017950188400109000
B0457163328340S14738932EA018000188900109000
B0457263328375S14738958EA017880188400109000
B0457363328420S14738968EA017620185400109000
B0457463328442S14739010EA017410182900109000
B0457563328445S14739061EA017350181400109000
B0458063328430S14739112EA017200180100109000
B0458163328364S14739098EA016980178200209000
B0458263328330S14738986EA016830176500109000
B0458363328318S14738872EA016640174700109000
B0458463328348S14738788EA016470172900109000
B0458563328367S14738674EA016290171000109000
B0459063328399S14738572EA016180169600109000
B0459163328444S14738508EA016120169000009000
B0459263328487S14738443EA016060168400009000
B0459363328524S14738375EA015890166900009000
B0459463328567S14738301EA015860166200009000
B0459563328598S14738219EA015840166200009000
B0500063328641S14738139EA015900166600109000
B0500163328688S14738073EA015940167300109000
B0500263328678S14738110EA016100169000109000
B0500363328618S14738058EA016210170200109000
B0500463328646S14737962EA016190170800209000
B0500563328703S14737974EA016250171000109000
B0501063328720S14738021EA016330172100109000
B0501163328660S14738013EA016180170400309000
B0501263328668S14737905EA016160169500109000
B0501363328708S14737824EA016250170400109000
B0501463328750S14737760EA016380171600109000
B0501563328806S14737753EA016390172300109000
B0502063328771S14737669EA016620174200309000
B0502163328763S14737712EA016730176000309000
B0502263328801S14737636EA016850176900109000
B0502363328746S14737585EA017100179100309000
B0502463328758S14737639EA017130180300209000
B0502563328818S14737609EA017240181100109000
B0503063328820S14737516EA017470182800109000
B0503163328771S14737524EA017640185100309000
B0503263328817S14737502EA017800186800109000
B0503363328767S14737447EA018040189400309000
B0503463328783S14737492EA018140190700109000
B0503563328847S14737464EA018190191100109000
B0504063328878S14737369EA018330192100209000
B0504163328817S14737344EA018600194500309000
B0504263328860S14737360EA018730196200109000
B0504363328854S14737267EA018940198200109000
B0504463328810S14737301EA019200200800309000
B0504563328853S14737256EA019350202600209000
B0505063328789S14737221EA019580205200309000
B0505163328809S14737269EA019750207000109000
B0505263328846S14737198EA019960208900109000
B0505363328794S14737173EA020190211200309000
B0505463328836S14737193EA020320213300309000
B0505563328800S14737124EA020450214400109000
B0506063328788S14737180EA020570215600309000
B0506163328869S14737153EA020670216700109000
B0506263328929S14737094EA020860218500109000
B0506363328951S14737011EA020970220200309000
B0506463328883S14736998EA021150222000109000
B0506563328908S14737034EA021280223500309000
B0507063328958S14736967EA021370224400109000
B0507163328931S14736887EA021580225800109000
B0507263328905S14736941EA021790228000309000
B0507363328955S14736895EA021870229100109000
B0507463328904S14736834EA022070231000309000
B0507563328918S14736878EA022210232700309000
B0508063328899S14736799EA022310233800109000
B0508163328846S14736829EA022450235500309000
B0508263328900S14736833EA022470235700109000
B0508363328954S14736784EA022540236000109000
B0508463328984S14736707EA022660237400109000
B0508563328982S14736606EA022660238000109000
B0509063329008S14736514EA022550237100109000
B0509163329019S14736407EA022390235300109000
B0509263329053S14736300EA022280234000109000
B0509363329088S14736191EA022110232400109000
B0509463329126S14736086EA022000231000009000
B0509563329167S14735982EA021780228800009000
B0510063329203S14735880EA021540226300009000
B0547463331779S14724777EA017390182300108000
B0547563331857S14724705EA017330181600108000
B0548063331929S14724627EA017270181000108000
B0548163332003S14724548EA017090179400108000
B0548263332081S14724471EA016950177700108000
B0548363332156S14724389EA016850176400108000
B0548463332230S14724308EA016700174800108000
B0548563332304S14724225EA016540173200108000
B0549063332376S14724144EA016380171500108000
B0549163332447S14724062EA016210169500108000
F05492602051220212931
B0549263332520S14724000EA016050167900107000
F0549360205122021252931
B0549363332597S14723944EA015920166500108000
B0549463332666S14723877EA015800165300108000
B0549563332730S14723795EA015620163500108000
B0550063332801S14723726EA015420161500108000
B0550163332873S14723664EA015290159800008000
B0550263332931S14723608EA015270159500008000
B0550363332991S14723553EA015160158600108000
B0550463333048S14723494EA015060157700108000
B0550563333106S14723433EA014930156400108000
B0551063333169S14723371EA014800155000108000
B0551163333236S14723326EA014630153300008000
B0551263333297S14723269EA014510151900008000
B0551363333364S14723215EA014370150600108000
B0551463333426S14723156EA014310149800108000
B0551563333490S14723106EA014270149300008000
B0552063333554S14723054EA014230148900008000
B0552163333610S14722998EA014230148900008000
B0552263333669S14722942EA014160148200008000
B0552363333734S14722889EA014070147200008000
B0552463333796S14722828EA013970146200008000
B0552563333866S14722776EA013900145300108000
B0553063333929S14722720EA013860144800108000
B0553163333994S14722664EA013840144500108000
B0553263334056S14722603EA013770143800108000
B0553363334116S14722547EA013720143300108000
B0553463334180S14722493EA013610142300008000
B0553563334243S14722440EA013540141600008000
B0554063334305S14722395EA013450140600008000
B0554163334372S14722353EA013330139300008000
B0554263334438S14722299EA013190137700008000
B0554363334502S14722240EA013070136500008000
B0554463334570S14722191EA012960135300008000
B0554563334635S14722130EA012840134200108000
B0555063334706S14722088EA012730133000108000
B0555163334777S14722042EA012620131800108000
B0555263334846S14721998EA012510130700108000
B0555363334901S14721921EA012380129600108000
B0555463334898S14721812EA012250129000108000
B0555563334891S14721707EA012060127500108000
B0556063334897S14721600EA011910125900108000
B0556163334917S14721492EA011740124300108000
B0556263334927S14721383EA011580122500108000
B0556363334933S14721275EA011510121700108000
B0556463334925S14721173EA011470121000108000
B0556563334919S14721070EA011390119700108000
B0557063334921S14720962EA011250118100108000
B0557163334947S14720868EA011190117100108000
B0557263334963S14720778EA011110116100108000
B0557363334971S14720676EA011070115600108000
B0557463334987S14720589EA010990114800108000
B0557563334995S14720500EA010910114000108000
B0558063335005S14720411EA010910113800108000
B0558163335026S14720328EA010840113300108000
B0558263335040S14720233EA010730112400108000
B0558363335019S14720147EA010600110900108000
B0558463335008S14720055EA010510109800108000
B0558563335012S14719955EA010460109000108000
B0559063334965S14719868EA010380108300108000
B0559163334906S14719801EA010200106700108000
B0559263334928S14719711EA010040104800108000
B0559363334972S14719641EA009970103800108000
B0559463335006S14719568EA009880102900108000
B0559563335042S14719499EA009750101600108000
B0600063335074S14719429EA009680100800108000
B0600163335104S14719360EA009590099900108000
B0600263335119S14719278EA009460098600108000
B0600363335112S14719187EA009380097500108000
B0600463335143S14719114EA009220096300108000
B0600563335178S14719043EA009040094400108000
B0601063335177S14718948EA008880092600108000
B0601163335169S14718854EA008740091100108000
B0601263335148S14718765EA008660090200108000
B0601363335119S14718674EA008520088900108000
B0601463335085S14718590EA008300086600108000
B0601563335044S14718506EA008090084200108000
B0602063334986S14718437EA007920082200108000
B0602163334921S14718364EA007880081500108000
B0602263334852S14718323EA007860081300108000
B0602363334788S14718323EA007770080600108000
B0602463334725S14718326EA007690079900108000
B0602563334656S14718318EA007600079000108000
B0603063334589S14718301EA007430077400108000
B0603163334525S14718271EA007190074900108000
B0603263334464S14718227EA006980072100108000
B0603363334403S14718188EA007020072100108000
B0603463334347S14718206EA007160073500108000
B0603563334295S14718180EA007110074100108000
B0604063334340S14718110EA007200074400108000
B0604163334371S14718154EA007330075800108000
B0604263334343S14718206EA007180075000108000
B0604363334293S14718153EA006940072600108000
B0604463334334S14718078EA006790070400108000
B0604563334377S14718111EA006770069200108000
B0605063334402S14718162EA006550067400108000
B0605163334408S14718221EA006250064600108000
B0605263334391S14718282EA005920061200108000
B0605363334360S14718343EA005620057900108000
B0605463334323S14718392EA005340054900108000
B0605563334260S14718376EA005060052100108000
B0606063334195S14718342EA004800049100108000
B0606163334127S14718319EA004610047500008000
B0606263334063S14718305EA004460046100008000
B0606363333996S14718287EA004260044300108000
B0606463333929S14718285EA004070042600108000
B0606563333861S14718283EA003780039600108000
B0607063333787S14718274EA003560037100208000
B0607163333814S14718277EA003350034700308000
B0607263333863S14718227EA003180032800208000
B0607363333902S14718265EA002930029700108000
B0607463333912S14718334EA002750027100108000
B0607563333914S14718379EA002720026400108000
B0608063333915S14718378EA002730026600108000
B0608163333915S14718378EA002730027000108000
B0608263333915S14718378EA002730027400108000
B0608363333915S14718377EA002730027600108000
B0608463333914S14718377EA002730027600108000
L   FlyChart®
L   Version 4.59, August 3th 2016
G2136AFAEAC0AFDEDB0BA113C700C951CE07932A2D2D008D492200E38EB8F682D
