AFLY00CV 0100775
HFDTE311216
HFFXA010
HFPLTPILOT:Emma            
HFCM2CREW2:NKN
HFGTYGLIDERTYPE:NKN             
HFGIDGLIDERID:NKN             
HFDTM100GPSDATUM:WGS84
HFRFWFIRMWAREVERSION: 1.04.17
HFRHWHARDWAREVERSION:1.00
HFFTYFRTYPE:Flytec Element Track
HFGPS:FASTRAX,IT430,48
HFPRSPRESSALTSENSOR:INTERSEMA,MS5401BM,12000
HFALGALTGPS:GEO
HFALPALTPRESSURE:ISA
HFTZNUTCOFFSET: 11.00h
I033638FXA3940SIU4143TAS
C311216040933311216001400
C3321372S14756016E TAKEOFF
C3321372S14756016E START  BMI023           00000000005000000000360000AREA
C3326382S14820720E FINISH EUGOWR           00000000000400000000360000AREA
C3326382S14820720E LANDING
F0442380205061219202429
E044238ATS0977.1
B0442383321319S14756074EA003060023004308000
F0442390205061219202429
E044239TPC
B0442393321319S14756074EA003060023004208000
F0442400205061219202429
B0442403321319S14756074EA003060023104008000
F0442410205061219202429
B0442413321319S14756074EA003060023103908000
F0442420205061219202429
B0442423321319S14756074EA003060023103408000
F0442430205061219202429
B0442433321319S14756074EA003060023103408000
F044308020506121920242529
B0443083321319S14756074EA003060023203009000
F044338020506121920242529
B0443383321319S14756074EA003070023202309000
F044408020506121920242529
B0444083321319S14756074EA003060023401309000
E044439STA
E044439ATS0977.1
LFLYA1 -0000
B0444393321336S14756048EA003080023400409000
B0444443321356S14756021EA003210024100609000
B0444493321370S14756001EA003300025300809000
B0444543321384S14755978EA003350026200609000
B0444593321396S14755953EA003430027200609000
B0445043321408S14755925EA003530028300609000
B0445093321415S14755894EA003680030100509000
B0445143321419S14755863EA003830031900609000
B0445193321416S14755830EA003940033200609000
B0445243321416S14755798EA004040034400509000
B0445293321417S14755765EA004120035500609000
B0445343321417S14755734EA004220036700409000
B0445393321417S14755704EA004280037400609000
B0445443321420S14755675EA004370038200409000
B0445493321421S14755645EA004450039100509000
B0445543321423S14755614EA004510039700309000
B0445593321426S14755582EA004570040300309000
B0446043321427S14755548EA004630040900509000
B0446093321428S14755516EA004680041400509000
B0446143321428S14755480EA004700041800309000
B0446193321431S14755446EA004800042400509000
B0446243321433S14755414EA004960043700609000
B0446293321437S14755380EA005090045400509000
B0446343321440S14755345EA005230047000309000
B0446393321442S14755309EA005420049000509000
B0446443321441S14755272EA005620051100309000
B0446493321436S14755234EA005730052800409000
B0446543321431S14755197EA005930054700609000
B0446593321424S14755157EA005910055400609000
B0447043321418S14755119EA005920055200409000
B0447093321416S14755084EA005950055500509000
B0447143321416S14755048EA005950055500509000
B0447193321421S14755013EA005970055600409000
B0447243321429S14754980EA006000055800509000
B0447293321430S14754945EA006060056300409000
B0447343321419S14754906EA006060056600409000
B0447393321400S14754872EA006130056900409000
B0447443321374S14754843EA006220057600409000
B0447493321341S14754820EA006240058100409000
B0447543321301S14754803EA006220057900509000
B0447593321254S14754793EA006250058300609000
B0448043321202S14754787EA006270058500509000
B0448093321149S14754794EA006310059000509000
B0448143321096S14754815EA006350059300409000
B0448193321043S14754849EA006360059500409000
B0448243320998S14754898EA006400059900209000
B0448293320963S14754959EA006460060500409000
B0448343320937S14755025EA006530061200509000
B0448393320925S14755096EA006560061400309000
B0448443320927S14755165EA006580061700409000
B0448493320942S14755225EA006630062200309000
B0448543320967S14755276EA006660062500409000
B0448593320996S14755320EA006700062800409000
B0449043321027S14755359EA006750063300309000
B0449093321061S14755396EA006780063800309000
B0449143321095S14755433EA006830064300309000
B0449193321129S14755468EA006840064600409000
B0449243321163S14755498EA006850064700209000
B0449293321197S14755529EA006910064900409000
B0449343321231S14755559EA007010066000409000
B0449393321264S14755585EA007130067400409000
B0449443321299S14755606EA007270069100409000
B0449493321335S14755624EA007390070300409000
B0449543321372S14755639EA007430070800109000
B0449593321410S14755658EA007430070700309000
B0450043321448S14755672EA007420070500309000
B0450093321488S14755679EA007420070600009000
B0450143321525S14755682EA007470070900109000
B0450193321559S14755678EA007530071300509000
B0450243321591S14755669EA007570071700509000
B0450293321618S14755650EA007610072100409000
B0450343321640S14755628EA007670072600309000
B0450393321658S14755606EA007730073200309000
B0450443321672S14755581EA007790073800309000
B0450493321687S14755555EA007850074400309000
B0450543321702S14755529EA007870074700309000
B0450593321719S14755503EA007910075200309000
B0451043321742S14755483EA007990075900409000
B0451093321769S14755469EA008070076700609000
B0451143321794S14755456EA008160077800409000
B0451193321819S14755443EA008200078500609000
B0451243321844S14755433EA008300079400409000
B0451293321871S14755421EA008350080100709000
B0451343321900S14755409EA008430080600609000
B0451393321929S14755400EA008500081200609000
B0451443321956S14755383EA008530081600309000
B0451493321979S14755362EA008560082000309000
B0451543322007S14755349EA008580082400509000
B0451593322038S14755344EA008610082700309000
B0452043322067S14755354EA008710083700509000
B0452093322098S14755371EA008800084700609000
B0452143322131S14755398EA008920086100409000
B0452193322167S14755426EA008990086900409000
B0452243322202S14755448EA009070087800609000
B0452293322235S14755466EA009170088800509000
B0452343322267S14755487EA009320090200509000
B0452393322301S14755511EA009410091200509000
B0452443322333S14755536EA009520092500509000
B0452493322363S14755560EA009660094000309000
B0452543322392S14755587EA009740095100509000
B0452593322420S14755619EA009870096300309000
B0453043322446S14755656EA010030097900409000
B0453093322470S14755699EA010200099800409000
B0453143322494S14755743EA010360101600309000
B0453193322518S14755762EA010410102600509000
B0453243322530S14755742EA010400102400509000
B0453293322498S14755728EA010410102200909000
B0453343322461S14755733EA010420102300709000
B0453393322411S14755741EA010450102600409000
B0453443322373S14755744EA010420102500409000
B0453493322334S14755755EA010420102400609000
B0453543322303S14755783EA010530102800709000
B0453593322315S14755781EA010590103700509000
B0454043322286S14755771EA010660104200909000
B0454093322270S14755805EA010700104800609000
B0454143322265S14755786EA010730105000709000
B0454193322219S14755791EA010680105000909000
B0454243322210S14755834EA010660105000509000
B0454293322216S14755829EA010650104800409000
B0454343322193S14755809EA010610104500509000
B0454393322161S14755795EA010600104300509000
B0454443322128S14755787EA010570104300609000
B0454493322105S14755826EA010550104100709000
B0454543322115S14755865EA010530104000509000
B0454593322129S14755888EA010520103800409000
B0455043322143S14755899EA010490103300509000
B0455093322160S14755902EA010440102700309000
B0455143322179S14755916EA010440102300509000
B0455193322198S14755927EA010430102200409000
B0455243322213S14755942EA010410102000409000
B0455293322230S14755959EA010420102000609000
B0455343322252S14755960EA010440102400409000
B0455393322237S14755946EA010510102900709000
B0455443322222S14755984EA010530103000809000
B0455493322237S14755989EA010640104400809000
B0455543322213S14755984EA010720105500909000
B0455593322210S14756023EA010770105800709000
B0456043322221S14756011EA010840106200809000
B0456093322190S14756013EA010920106901209000
B0456143322198S14756047EA010940107501009000
B0456193322204S14756028EA011030108300909000
B0456243322167S14756024EA011030108601309000
B0456293322177S14756052EA010990108600909000
B0456343322179S14756033EA011040108800609000
B0456393322148S14756043EA010990108600709000
B0456443322148S14756080EA010950108100509000
B0456493322173S14756096EA011010108400609000
B0456543322196S14756095EA011060109100609000
B0456593322184S14756080EA011100109701109000
B0457043322165S14756113EA011150110200709000
B0457093322186S14756116EA011180110300809000
B0457143322165S14756099EA011190110400809000
B0457193322141S14756131EA011260110701009000
B0457243322159S14756162EA011280111100609000
B0457293322172S14756153EA011330111700409000
B0457343322143S14756147EA011360112001009000
B0457393322127S14756181EA011360112201009000
B0457443322156S14756192EA011420112400809000
F04574902050612192024252931
B0457493322170S14756183EA011450112800810000
B0457543322185S14756180EA011510113400510000
B0457593322201S14756207EA011520113800610000
B0458043322171S14756239EA011560114101210000
B0458093322168S14756219EA011590114400710000
B0458143322186S14756220EA011610114600710000
B0458193322203S14756226EA011610114600610000
B0458243322223S14756248EA011660114900610000
B0458293322210S14756297EA011650115100610000
B0458343322182S14756298EA011610115200710000
B0458393322192S14756279EA011600115200810000
B0458443322212S14756292EA011650115400510000
B0458493322202S14756336EA011750116500810000
B0458543322170S14756334EA011800117300810000
B0458593322184S14756327EA011830117700910000
B0459043322189S14756365EA011900118400810000
B0459093322151S14756372EA011990119200910000
B0459143322156S14756355EA012050119800810000
B0459193322166S14756396EA012080120100910000
B0459243322135S14756430EA012210121600510000
B0459293322120S14756410EA012250122100910000
B0459343322141S14756424EA012320122200910000
B0459393322111S14756464EA012390122901210000
B0459443322094S14756446EA012440123500610000
B0459493322113S14756449EA012520124600810000
B0459543322099S14756490EA012630125700810000
B0459593322065S14756485EA012710126300810000
B0500043322078S14756476EA012750127000810000
B0500093322078S14756523EA012840127400710000
B0500143322037S14756539EA012910127800810000
B0500193322024S14756514EA012960128701110000
B0500243322043S14756529EA012940129000710000
B0500293322038S14756577EA013050130300610000
B0500343322000S14756579EA013090130900810000
B0500393322003S14756565EA013190131501110000
B0500443322016S14756601EA013240131800810000
B0500493321989S14756642EA013310132600310000
B0500543321959S14756637EA013370133500510000
B0500593321971S14756638EA013410133900610000
B0501043321983S14756672EA013490134600610000
B0501093321971S14756718EA013570135700810000
B0501143321934S14756726EA013600136100710000
B0501193321927S14756707EA013630136301210000
B0501243321945S14756731EA013650136401110000
B0501293321929S14756786EA013720137000710000
B0501343321892S14756806EA013750137401010000
B0501393321891S14756784EA013750137400410000
B0501443321911S14756799EA013800137700310000
B0501493321926S14756828EA013870138100510000
B0501543321912S14756868EA013940139200610000
B0501593321880S14756857EA013960139600810000
B0502043321889S14756850EA014000140200810000
B0502093321895S14756887EA014050140600810000
B0502143321859S14756913EA014110141300910000
B0502193321837S14756892EA014120141700510000
B0502243321847S14756880EA014160142100410000
B0502293321865S14756892EA014250142600410000
B0502343321861S14756936EA014370143700810000
B0502393321828S14756940EA014420144400810000
B0502443321837S14756932EA014520145400810000
B0502493321835S14756974EA014620146700810000
B0502543321800S14756973EA014660147400810000
F050259020506122024252931
B0502593321810S14756970EA014760148200809000
B0503043321807S14757019EA014820148800709000
B0503093321775S14757026EA014860149200909000
B0503143321784S14757010EA014940149900809000
B0503193321800S14757037EA015100151300809000
B0503243321771S14757062EA015190152501109000
B0503293321755S14757039EA015310153500709000
B0503343321773S14757042EA015450155100609000
B0503393321777S14757088EA015610156700709000
B0503443321746S14757116EA015690158001009000
B0503493321736S14757099EA015810159401109000
B0503543321754S14757118EA015960161000509000
B0503593321727S14757151EA016050161901109000
B0504043321718S14757125EA016110162601209000
B0504093321737S14757143EA016270164100609000
B0504143321707S14757170EA016400165401009000
B0504193321696S14757145EA016500166701009000
B0504243321708S14757165EA016600167600909000
B0504293321674S14757199EA016750169200909000
B0504343321659S14757174EA016860170901109000
B0504393321674S14757183EA016960171900809000
B0504443321654S14757223EA017060173001309000
B0504493321634S14757195EA017140173400909000
B0504543321656S14757215EA017200174601209000
B0504593321634S14757254EA017260175200709000
B0505043321606S14757233EA017330175601309000
B0505093321616S14757227EA017430176500909000
B0505143321619S14757271EA017470177000609000
F0505190206122024252931
B0505193321582S14757286EA017530177301108000
F050524020506122024252931
B0505243321578S14757264EA017580178001209000
B0505293321592S14757295EA017650179300809000
B0505343321565S14757333EA017740180200409000
B0505393321534S14757323EA017870181500909000
B0505443321540S14757300EA017910181900909000
B0505493321558S14757317EA017940182000909000
B0505543321530S14757350EA017980182201109000
B0505593321506S14757326EA018010182501109000
B0506043321529S14757323EA018100183500909000
B0506093321528S14757363EA018170184500709000
B0506143321487S14757371EA018180184801109000
B0506193321469S14757347EA018210185201009000
B0506243321481S14757353EA018380186500609000
B0506293321457S14757395EA018530187900909000
B0506343321433S14757373EA018520188500809000
B0506393321438S14757347EA018670189600909000
B0506443321446S14757377EA018790190900709000
B0506493321408S14757383EA018930192101109000
B0506543321406S14757355EA019030193200809000
B0506593321418S14757383EA019160194600909000
B0507043321390S14757424EA019260195900809000
B0507093321356S14757411EA019340196900709000
B0507143321360S14757386EA019400197400709000
B0507193321383S14757393EA019530198200409000
B0507243321385S14757426EA019640199600709000
B0507293321366S14757461EA019770200900709000
B0507343321328S14757473EA019880202200609000
B0507393321287S14757470EA019870202600509000
B0507443321274S14757443EA019800202200709000
B0507493321295S14757431EA019800201800809000
B0507543321311S14757457EA019880202100609000
B0507593321289S14757485EA019940202900709000
B0508043321261S14757461EA020010203500809000
B0508093321260S14757428EA020040203900609000
B0508143321281S14757416EA020090204400509000
B0508193321296S14757433EA020180205500409000
B0508243321289S14757470EA020180205800409000
B0508293321257S14757487EA020270206500609000
B0508343321237S14757457EA020320207000709000
B0508393321247S14757438EA020420208100809000
B0508443321258S14757461EA020450208700609000
B0508493321244S14757499EA020450208700609000
B0508543321212S14757519EA020450208700709000
B0508593321189S14757494EA020520209401209000
B0509043321210S14757487EA020560209700809000
B0509093321205S14757526EA020560210001009000
B0509143321165S14757540EA020570209900809000
B0509193321142S14757512EA020590209800809000
B0509243321159S14757493EA020600210200809000
B0509293321175S14757518EA020590210300709000
B0509343321150S14757552EA020560210000609000
B0509393321111S14757551EA020580210000809000
B0509443321102S14757519EA020480209401009000
B0509493321122S14757521EA020460208900409000
B0509543321127S14757551EA020400208400409000
B0509593321136S14757581EA020360207900509000
B0510043321142S14757613EA020240207100609000
B0510093321146S14757650EA020160206000409000
B0510143321136S14757692EA020090205100409000
B0510193321097S14757708EA020050204700509000
B0510243321058S14757700EA020040204300609000
B0510293321044S14757672EA019940203200609000
B0510343321065S14757663EA019840202200409000
B0510393321076S14757693EA019790201600409000
B0510443321060S14757732EA019750201300709000
B0510493321029S14757762EA019720200800709000
B0510543321004S14757805EA019640200200609000
B0510593320983S14757846EA019620199800609000
B0511043320968S14757891EA019650200000309000
B0511093320962S14757939EA019680200300509000
B0511143320934S14757979EA019710200700609000
F0511190205061220252931
B0511193320893S14757978EA019780201300508000
F051124020506122024252931
B0511243320890S14757954EA019830201901509000
B0511293320905S14757979EA019860202500709000
B0511343320883S14758022EA019900202800709000
B0511393320844S14758017EA019930203000709000
B0511443320847S14758001EA019970203300809000
B0511493320855S14758038EA020010203600909000
B0511543320823S14758073EA020020203800509000
B0511593320788S14758059EA020050204200509000
B0512043320797S14758048EA020070204500909000
B0512093320801S14758087EA020090204700509000
B0512143320764S14758118EA020100204800409000
B0512193320737S14758101EA020120204900509000
B0512243320753S14758098EA020130205100609000
B0512293320755S14758140EA020120205100509000
B0512343320749S14758188EA020150205400309000
B0512393320748S14758237EA020200205800509000
B0512443320745S14758285EA020250206400409000
B0512493320746S14758330EA020300206900309000
B0512543320747S14758374EA020350207500409000
B0512593320754S14758415EA020420208000309000
B0513043320763S14758452EA020480208600309000
B0513093320773S14758491EA020560209500409000
B0513143320773S14758533EA020610210200309000
B0513193320777S14758576EA020590210100309000
B0513243320785S14758618EA020590210100509000
B0513293320790S14758660EA020590210100309000
B0513343320791S14758700EA020570209900309000
B0513393320792S14758743EA020510209500509000
B0513443320787S14758791EA020450208700509000
B0513493320782S14758838EA020510208800609000
B0513543320752S14758863EA020520208900909000
B0513593320749S14758841EA020480208900809000
B0514043320771S14758847EA020530209100709000
B0514093320758S14758892EA020560209701109000
B0514143320740S14758873EA020590210000709000
B0514193320762S14758885EA020670210600809000
B0514243320745S14758927EA020680211300809000
B0514293320716S14758923EA020700211500409000
B0514343320728S14758913EA020710211401009000
B0514393320741S14758958EA020720211500609000
B0514443320748S14758998EA020710211500509000
B0514493320752S14759039EA020640210900609000
B0514543320750S14759086EA020630210600309000
B0514593320755S14759131EA020650210800409000
B0515043320763S14759176EA020730211200309000
B0515093320769S14759222EA020720211400409000
B0515143320775S14759270EA020670211200509000
B0515193320782S14759320EA020700211200609000
B0515243320786S14759366EA020730211400609000
B0515293320786S14759414EA020720211500509000
B0515343320788S14759462EA020700211300409000
B0515393320797S14759507EA020670211000209000
B0515443320806S14759553EA020640210600309000
B0515493320812S14759599EA020570210100209000
B0515543320820S14759647EA020530209600509000
B0515593320827S14759693EA020480209000309000
B0516043320835S14759738EA020440208500209000
B0516093320842S14759780EA020360207800309000
B0516143320846S14759822EA020250206800509000
B0516193320851S14759866EA020120205400409000
B0516243320855S14759909EA020020204100209000
B0516293320858S14759954EA019890202600309000
B0516343320855S14800000EA019750201100509000
B0516393320862S14800041EA019640199700309000
B0516443320868S14800083EA019510198400509000
B0516493320859S14800131EA019440197600509000
B0516543320859S14800177EA019370196800309000
B0516593320863S14800224EA019320196200509000
B0517043320864S14800273EA019250195600509000
B0517093320859S14800323EA019240195500309000
F0517140205061220252931
B0517143320853S14800374EA019230195300508000
F051719020506122024252931
B0517193320850S14800426EA019160194700309000
B0517243320851S14800477EA019060193800309000
B0517293320858S14800524EA018940192400209000
B0517343320863S14800571EA018790191000409000
B0517393320861S14800622EA018670189700309000
B0517443320865S14800673EA018560188600309000
B0517493320865S14800723EA018470187600309000
B0517543320873S14800774EA018340186400209000
B0517593320881S14800823EA018270185300409000
B0518043320885S14800874EA018170184200309000
B0518093320894S14800922EA018090183300209000
B0518143320905S14800965EA017980182300309000
B0518193320914S14801016EA017860181200509000
B0518243320917S14801069EA017710179700309000
B0518293320925S14801124EA017590178400509000
B0518343320929S14801175EA017470177000309000
B0518393320935S14801226EA017370175800309000
B0518443320947S14801272EA017230174500309000
B0518493320965S14801316EA017130173400309000
B0518543320972S14801364EA017110172800509000
B0518593320983S14801410EA017050172200309000
B0519043320995S14801455EA017000171800309000
B0519093321002S14801502EA016960171400309000
B0519143321009S14801549EA016920171000209000
B0519193321012S14801597EA016850170400309000
B0519243321020S14801639EA016780169700309000
B0519293321028S14801685EA016710169000609000
B0519343321036S14801727EA016650168300309000
B0519393321049S14801769EA016570167500309000
B0519443321057S14801815EA016470166500509000
B0519493321062S14801860EA016370165400309000
B0519543321074S14801901EA016260164200209000
B0519593321087S14801936EA016120162900309000
B0520043321106S14801968EA015970161300309000
B0520093321121S14802007EA015820159700209000
B0520143321134S14802048EA015690158200409000
B0520193321148S14802088EA015580156800309000
B0520243321161S14802126EA015460155400309000
B0520293321177S14802163EA015290153900309000
B0520343321191S14802200EA015130152100309000
B0520393321197S14802242EA014950150100309000
B0520443321196S14802285EA014800148300509000
B0520493321198S14802327EA014610146200309000
B0520543321198S14802369EA014490144600609000
B0520593321191S14802411EA014360143500609000
B0521043321174S14802456EA014330143000609000
B0521093321148S14802500EA014240142400209000
B0521143321124S14802544EA014210142100509000
B0521193321116S14802593EA014190141800309000
B0521243321117S14802637EA014140141400309000
B0521293321126S14802673EA014080140800509000
B0521343321132S14802713EA014000140000309000
B0521393321136S14802754EA013900139000509000
B0521443321133S14802799EA013840138300509000
B0521493321131S14802843EA013800137700609000
B0521543321127S14802889EA013790137500709000
B0521593321115S14802932EA013740137100509000
B0522043321131S14802963EA013700136600309000
B0522093321151S14802990EA013660136200309000
B0522143321160S14803022EA013620136000309000
B0522193321173S14803054EA013590135600309000
B0522243321178S14803091EA013570135300509000
B0522293321177S14803136EA013530134900509000
B0522343321181S14803178EA013470134400409000
B0522393321188S14803219EA013430133800309000
B0522443321196S14803258EA013380133300309000
B0522493321205S14803297EA013340132900309000
B0522543321217S14803336EA013330132600309000
B0522593321230S14803376EA013320132500309000
B0523043321244S14803410EA013400133000409000
B0523093321257S14803401EA013430133500609000
B0523143321225S14803413EA013430133901009000
B0523193321231S14803458EA013460134100809000
B0523243321259S14803467EA013460134300809000
B0523293321260S14803451EA013480134600609000
B0523343321230S14803478EA013530135000709000
B0523393321241S14803520EA013600135700509000
B0523443321257S14803516EA013650136300509000
B0523493321229S14803514EA013660136200509000
B0523543321211S14803557EA013750137000709000
B0523593321228S14803585EA013770137300509000
B0524043321227S14803574EA013780137300809000
B0524093321190S14803591EA013790137400409000
B0524143321184S14803640EA013760137100409000
B0524193321195S14803682EA013740136900409000
B0524243321209S14803710EA013730137000509000
B0524293321218S14803710EA013760137200509000
B0524343321187S14803703EA013770137400409000
B0524393321157S14803747EA013770137600709000
B0524443321162S14803789EA013800137700309000
B0524493321173S14803792EA013840138200609000
B0524543321141S14803790EA013850138300709000
B0524593321112S14803835EA013880138600509000
B0525043321121S14803871EA013890138700509000
B0525093321129S14803865EA013920139000509000
B0525143321101S14803858EA013960139400509000
B0525193321069S14803896EA013990139700609000
B0525243321073S14803941EA014030140200309000
B0525293321090S14803947EA014080140900509000
B0525343321070S14803935EA014150141600709000
B0525393321036S14803971EA014180142100809000
B0525443321040S14804014EA014240142600509000
B0525493321048S14804005EA014270143100409000
B0525543321013S14804015EA014370144100709000
B0525593321014S14804058EA014430144600709000
B0526043321027S14804049EA014460144701109000
B0526093320995S14804051EA014560145600809000
B0526143320977S14804097EA014650146500409000
B0526193320993S14804129EA014700147200509000
B0526243321006S14804123EA014760147900609000
B0526293320977S14804120EA014850148500709000
B0526343320967S14804170EA014920149300509000
B0526393320986S14804175EA014990150400409000
B0526443320970S14804158EA014990150700509000
B0526493320940S14804193EA015060151400709000
B0526543320957S14804234EA015110151600509000
B0526593320976S14804233EA015120151900909000
B0527043320957S14804220EA015110151800709000
B0527093320922S14804257EA015130151600509000
B0527143320932S14804308EA015140151800509000
B0527193320955S14804325EA015120151700609000
B0527243320957S14804306EA015160151900409000
B0527293320920S14804323EA015240152901109000
B0527343320910S14804380EA015210152800709000
B0527393320919S14804428EA015240152700409000
B0527443320940S14804434EA015260153200709000
B0527493320912S14804425EA015310153601109000
F05275402050612202124252931
B0527543320896S14804475EA015350154000710000
B0527593320909S14804517EA015400154700410000
B0528043320922S14804518EA015440155200410000
B0528093320897S14804511EA015500155500510000
B0528143320873S14804561EA015520155800310000
B0528193320888S14804597EA015550156200310000
B0528243320907S14804600EA015580156600410000
B0528293320887S14804592EA015680157500810000
B0528343320857S14804632EA015750158600810000
B0528393320874S14804663EA015790159300910000
B0528443320876S14804654EA015910160100310000
B0528493320839S14804673EA016030161500710000
B0528543320840S14804719EA016130162400410000
F052859020506122021252931
B0528593320858S14804725EA016190162800809000
F05290402050612202124252931
B0529043320841S14804716EA016320163500710000
B0529093320825S14804762EA016480165400610000
B0529143320839S14804766EA016580167300510000
B0529193320807S14804774EA016680168500610000
B0529243320798S14804825EA016810169800410000
B0529293320818S14804834EA016890170700410000
B0529343320795S14804826EA016950171400610000
B0529393320773S14804870EA017070172600710000
B0529443320791S14804906EA017200174100610000
B0529493320794S14804898EA017290175000610000
B0529543320759S14804925EA017350175600710000
B0529593320763S14804971EA017480176900410000
B0530043320770S14804965EA017560177800610000
B0530093320734S14804973EA017610178300710000
B0530143320730S14805031EA017660178800510000
B0530193320752S14805044EA017780180000610000
B0530243320743S14805030EA017910181300310000
B0530293320706S14805053EA018010182700510000
B0530343320686S14805101EA018110183900310000
B0530393320702S14805130EA018180184500510000
B0530443320700S14805117EA018220184900510000
B0530493320661S14805140EA018330186100510000
B0530543320662S14805189EA018440187300210000
B0530593320678S14805191EA018450187400510000
B0531043320657S14805174EA018440187400310000
B0531093320621S14805201EA018510188200410000
B0531143320632S14805241EA018550188700610000
B0531193320639S14805224EA018570188600510000
B0531243320604S14805227EA018620189000810000
B0531293320594S14805279EA018630189200310000
B0531343320614S14805305EA018650189500510000
B0531393320625S14805301EA018700189900510000
B0531443320604S14805283EA018760190600310000
B0531493320570S14805311EA018810191200510000
B0531543320573S14805357EA018850191200310000
B0531593320594S14805371EA018900191600510000
B0532043320591S14805356EA018930191900510000
B0532093320553S14805377EA018930192000310000
B0532143320544S14805427EA019000192700310000
B0532193320562S14805435EA019020193000410000
B0532243320544S14805418EA018990192800410000
B0532293320511S14805453EA019040193300610000
B0532343320517S14805502EA019090193900210000
B0532393320534S14805507EA019090193900510000
B0532443320511S14805492EA019010193300710000
B0532493320486S14805536EA019000192900410000
B0532543320496S14805583EA019000192700410000
B0532593320515S14805615EA018950192200310000
B0533043320535S14805640EA018820191400310000
B0533093320556S14805659EA018710190200510000
B0533143320575S14805684EA018640189400310000
B0533193320589S14805716EA018560188400310000
B0533243320604S14805745EA018450187300210000
F053329020512202124252931
B0533293320622S14805773EA018320186100209000
B0533343320637S14805804EA018200184800209000
B0533393320648S14805842EA018070183400209000
B0533443320660S14805874EA017960182200209000
B0533493320676S14805903EA017870181100209000
B0533543320688S14805932EA017780180200309000
B0533593320701S14805960EA017690179300209000
B0534043320715S14805985EA017620178500209000
B0534093320727S14806016EA017550177800309000
B0534143320742S14806045EA017460177000309000
B0534193320752S14806080EA017390176300209000
B0534243320766S14806113EA017330175600209000
B0534293320780S14806143EA017260174900209000
B0534343320793S14806175EA017180174000209000
B0534393320806S14806205EA017060172800509000
B0534443320821S14806234EA016960171600309000
B0534493320832S14806271EA016870170600309000
B0534543320848S14806301EA016800169700309000
B0534593320862S14806334EA016750169200309000
B0535043320876S14806363EA016720168800409000
B0535093320894S14806387EA016630168100309000
B0535143320911S14806417EA016540167100309000
B0535193320927S14806447EA016420166100309000
B0535243320942S14806480EA016330165100309000
B0535293320960S14806510EA016240164100209000
B0535343320978S14806541EA016170163300209000
B0535393320995S14806573EA016100162600209000
B0535443321014S14806605EA015990161500309000
B0535493321034S14806631EA015890160500209000
B0535543321054S14806657EA015800159300309000
B0535593321070S14806686EA015740158600209000
B0536043321084S14806721EA015660157900209000
B0536093321103S14806748EA015560157000209000
B0536143321118S14806780EA015490156100209000
B0536193321134S14806812EA015330154900309000
B0536243321147S14806845EA015250153600309000
B0536293321160S14806881EA015150152400309000
B0536343321179S14806910EA015060151500309000
B0536393321196S14806942EA014990150700309000
B0536443321219S14806964EA014910149900509000
B0536493321240S14806996EA014900149700309000
B0536543321258S14807034EA014880149600209000
B0536593321278S14807068EA014880149500209000
B0537043321302S14807097EA014890149500309000
B0537093321323S14807133EA014850149200309000
B0537143321339S14807163EA014800148700309000
B0537193321360S14807182EA014700147500509000
B0537243321380S14807206EA014610146500309000
B0537293321399S14807226EA014520145600209000
B0537343321417S14807249EA014380144200309000
B0537393321438S14807269EA014190142300309000
B0537443321460S14807291EA014020140300209000
B0537493321481S14807315EA013900138900209000
B0537543321503S14807337EA013770137500409000
B0537593321527S14807357EA013690136600209000
B0538043321545S14807387EA013660136200309000
F0538090205122021252931
B0538093321565S14807407EA013620135900508000
B0538143321587S14807425EA013560135400608000
B0538193321608S14807453EA013490134700508000
B0538243321627S14807477EA013410134000608000
B0538293321647S14807495EA013290132800308000
B0538343321665S14807516EA013190131600608000
B0538393321687S14807527EA013060130200608000
B0538443321700S14807562EA012970129200808000
B0538493321717S14807588EA012880128100408000
B0538543321736S14807619EA012810127400608000
B0538593321755S14807643EA012790127100508000
B0539043321776S14807668EA012750126800308000
B0539093321794S14807691EA012750126500508000
B0539143321791S14807676EA012740126300808000
B0539193321752S14807683EA012760126600608000
B0539243321738S14807729EA012710126300508000
B0539293321747S14807776EA012670125900408000
B0539343321763S14807813EA012630125400508000
B0539393321782S14807837EA012570124700608000
B0539443321806S14807848EA012520124200608000
B0539493321830S14807871EA012540124200608000
B0539543321847S14807905EA012600124600508000
B0539593321817S14807939EA012620125001308000
B0540043321800S14807919EA012620124900808000
B0540093321818S14807911EA012670125300608000
B0540143321826S14807948EA012750126001008000
B0540193321794S14807956EA012740126001008000
B0540243321810S14807944EA012760126300908000
B0540293321833S14807951EA012860126900608000
B0540343321827S14807992EA012850127300808000
B0540393321792S14807996EA012910127700708000
B0540443321786S14807972EA012970128200608000
B0540493321804S14807991EA013030129000708000
B0540543321780S14808022EA013060129601108000
B0540593321758S14808000EA013160130500508000
B0541043321775S14807994EA013210131100908000
B0541093321780S14808028EA013270131701208000
B0541143321740S14808044EA013290132101308000
B0541193321731S14808019EA013370132600708000
B0541243321750S14808032EA013450133200508000
B0541293321732S14808070EA013460133600708000
B0541343321703S14808056EA013500134300608000
B0541393321718S14808046EA013540134700508000
B0541443321736S14808068EA013630135400608000
B0541493321712S14808101EA013650135801008000
B0541543321685S14808079EA013700136000708000
B0541593321708S14808074EA013740136600908000
B0542043321706S14808110EA013780137201108000
B0542093321671S14808101EA013820137601308000
B0542143321684S14808080EA013850138101308000
B0542193321707S14808087EA013930138700608000
B0542243321729S14808113EA013940139000908000
B0542293321746S14808097EA013990139600608000
B0542343321725S14808071EA014090140300508000
B0542393321696S14808099EA014160141300508000
B0542443321707S14808131EA014190141700608000
B0542493321727S14808121EA014250142000608000
B0542543321712S14808089EA014270142200708000
B0542593321676S14808099EA014300142600608000
B0543043321678S14808135EA014330142900608000
B0543093321694S14808119EA014370143200908000
B0543143321661S14808095EA014360143700808000
B0543193321631S14808127EA014350143701008000
B0543243321638S14808163EA014390143900808000
B0543293321661S14808168EA014400143900808000
B0543343321666S14808138EA014430144200708000
B0543393321630S14808135EA014390144400608000
B0543443321625S14808168EA014340143900908000
B0543493321647S14808179EA014410144000908000
B0543543321633S14808150EA014420144100908000
B0543593321602S14808175EA014440144400908000
B0544043321618S14808181EA014490144500708000
B0544093321596S14808150EA014500144500808000
B0544143321564S14808175EA014500144601008000
B0544193321574S14808201EA014540145101008000
B0544243321589S14808182EA014570145600608000
B0544293321557S14808166EA014590145800708000
B0544343321542S14808197EA014620145800508000
B0544393321560S14808205EA014620146000708000
B0544443321559S14808179EA014620146100808000
B0544493321523S14808167EA014600146100708000
B0544543321499S14808201EA014620146200408000
B0544593321511S14808224EA014580145700708000
B0545043321525S14808243EA014550145400608000
B0545093321527S14808276EA014490145100308000
B0545143321539S14808308EA014460144800608000
B0545193321552S14808331EA014460144500508000
B0545243321569S14808346EA014470144600608000
B0545293321588S14808358EA014500144700508000
B0545343321606S14808346EA014480144700508000
B0545393321587S14808319EA014510144900608000
B0545443321554S14808344EA014480144700808000
B0545493321563S14808382EA014520145000408000
B0545543321584S14808400EA014540145100608000
B0545593321606S14808400EA014560145300608000
B0546043321596S14808377EA014620145800508000
B0546093321558S14808390EA014660146500308000
B0546143321558S14808433EA014680146700608000
B0546193321579S14808440EA014720147100508000
B0546243321573S14808414EA014760147700608000
B0546293321534S14808421EA014810148400208000
B0546343321520S14808462EA014880149000308000
B0546393321536S14808477EA014940149600608000
B0546443321536S14808451EA014950149800508000
B0546493321501S14808454EA015010150200608000
B0546543321496S14808494EA015040150400808000
B0546593321516S14808512EA015060150700808000
B0547043321532S14808498EA015090151000708000
B0547093321510S14808474EA015120151300608000
B0547143321470S14808491EA015120151600508000
B0547193321455S14808531EA015180152000408000
B0547243321476S14808545EA015170152000708000
B0547293321487S14808530EA015210152200708000
B0547343321457S14808519EA015210152200608000
B0547393321429S14808557EA015210152400808000
B0547443321440S14808592EA015210152500708000
B0547493321460S14808603EA015240152600508000
B0547543321472S14808587EA015260152700508000
B0547593321442S14808572EA015310153300508000
B0548043321413S14808614EA015290153300508000
B0548093321418S14808657EA015280153200608000
B0548143321435S14808688EA015290153400608000
B0548193321453S14808712EA015370153800608000
B0548243321473S14808732EA015420154200508000
B0548293321495S14808741EA015470154900608000
B0548343321501S14808718EA015510155400408000
B0548393321470S14808704EA015550155900608000
B0548443321440S14808733EA015580156100608000
B0548493321452S14808765EA015630156101008000
B0548543321473S14808763EA015630156300608000
B0548593321476S14808733EA015680156800408000
B0549043321445S14808729EA015760157900608000
B0549093321424S14808769EA015800158500408000
B0549143321436S14808801EA015850159000808000
B0549193321461S14808813EA015850159100508000
B0549243321485S14808818EA015860159400508000
B0549293321489S14808798EA015930160100308000
B0549343321459S14808800EA015990160800608000
B0549393321447S14808842EA016040161300708000
B0549443321467S14808877EA016050161300508000
B0549493321489S14808891EA016100161700708000
B0549543321485S14808871EA016090161600508000
B0549593321450S14808888EA016130162200808000
B0550043321453S14808937EA016160162700608000
B0550093321474S14808947EA016190163100608000
B0550143321473S14808928EA016250163400508000
B0550193321440S14808927EA016270163800808000
B0550243321425S14808970EA016340164500408000
B0550293321441S14809004EA016390165200508000
B0550343321465S14809005EA016440165500608000
B0550393321454S14808981EA016480165800608000
B0550443321426S14809010EA016550166600608000
B0550493321431S14809053EA016640167400808000
B0550543321455S14809063EA016700168100308000
B0550593321458S14809042EA016730168500508000
B0551043321424S14809034EA016700168500808000
B0551093321414S14809082EA016680168501008000
B0551143321435S14809114EA016730168801108000
B0551193321450S14809105EA016760169100608000
B0551243321426S14809088EA016740168900508000
B0551293321392S14809115EA016700168600508000
B0551343321394S14809159EA016730168600808000
B0551393321413S14809183EA016770168900508000
B0551443321432S14809197EA016770169000508000
B0551493321455S14809211EA016730168800608000
B0551543321477S14809218EA016720168600608000
B0551593321501S14809233EA016770168900608000
B0552043321513S14809230EA016850169600608000
B0552093321480S14809222EA016880169900808000
B0552143321459S14809265EA016950170600508000
B0552193321479S14809292EA017000171200508000
B0552243321484S14809272EA017060171900408000
B0552293321450S14809285EA017090172300308000
B0552343321448S14809334EA017130172800608000
B0552393321472S14809361EA017170173200508000
B0552443321489S14809351EA017220173500608000
B0552493321469S14809335EA017170173500508000
B0552543321438S14809367EA017230174200408000
B0552593321444S14809415EA017280174500708000
B0553043321470S14809427EA017290174700608000
B0553093321463S14809408EA017200174300708000
B0553143321431S14809411EA017200174300708000
B0553193321420S14809458EA017220174600808000
B0553243321443S14809497EA017230174500808000
B0553293321464S14809531EA017110173500608000
B0553343321487S14809555EA017020172300608000
B0553393321511S14809576EA016900170900608000
B0553443321532S14809597EA016820169900408000
B0553493321553S14809612EA016710168600508000
B0553543321575S14809631EA016580167200308000
B0553593321594S14809660EA016460165900508000
B0554043321613S14809689EA016350164600408000
B0554093321633S14809721EA016220163300308000
B0554143321656S14809745EA016100162000508000
B0554193321677S14809771EA016000160900508000
B0554243321700S14809793EA015880159700508000
B0554293321720S14809816EA015780158600508000
B0554343321739S14809846EA015660157500508000
B0554393321759S14809865EA015590156600408000
B0554443321779S14809887EA015490155800508000
B0554493321798S14809908EA015370154400508000
B0554543321815S14809936EA015200152700508000
B0554593321835S14809956EA015060151100508000
B0555043321854S14809977EA014910149500408000
B0555093321874S14809999EA014770147800408000
B0555143321892S14810023EA014650146300408000
B0555193321910S14810042EA014550145200408000
B0555243321930S14810061EA014450144100408000
B0555293321945S14810089EA014350143200508000
B0555343321965S14810113EA014240142200508000
B0555393321984S14810133EA014140141100508000
B0555443322004S14810144EA014050140300508000
B0555493322024S14810142EA013950139500608000
B0555543322045S14810149EA013880138800508000
B0555593322062S14810171EA013790137800608000
B0556043322082S14810193EA013710136900508000
B0556093322103S14810219EA013640136100508000
B0556143322126S14810238EA013640135800508000
B0556193322144S14810263EA013690136200608000
B0556243322159S14810259EA013730136600508000
B0556293322139S14810239EA013760136900408000
B0556343322104S14810262EA013800137400408000
B0556393322104S14810300EA013840137800608000
B0556443322123S14810298EA013880138200608000
B0556493322102S14810280EA013890138300708000
B0556543322072S14810310EA013910138600708000
B0556593322087S14810342EA013940138800608000
B0557043322099S14810328EA013980139000908000
B0557093322066S14810325EA013980139200608000
B0557143322044S14810367EA014010139700508000
B0557193322064S14810390EA014010139600808000
B0557243322079S14810379EA013990139600608000
B0557293322082S14810354EA013990139600708000
B0557343322083S14810333EA014080140000708000
B0557393322048S14810332EA014120140600608000
B0557443322034S14810377EA014140141200508000
B0557493322053S14810394EA014250142200908000
B0557543322044S14810369EA014300142500908000
B0557593322007S14810384EA014360143200408000
B0558043322012S14810425EA014380143700708000
B0558093322030S14810422EA014440144100608000
B0558143322041S14810400EA014500144400408000
B0558193322046S14810376EA014510144600608000
B0558243322055S14810359EA014450144600408000
B0558293322082S14810370EA014350143800708000
B0558343322108S14810393EA014280142800608000
B0558393322134S14810409EA014210142100408000
B0558443322156S14810423EA014160141600608000
B0558493322175S14810444EA014150141500508000
B0558543322193S14810468EA014100141100608000
B0558593322214S14810489EA014050140400308000
B0559043322235S14810507EA013970139600308000
B0559093322255S14810533EA013860138500508000
B0559143322270S14810564EA013760137400608000
B0559193322289S14810586EA013650136100508000
B0559243322304S14810615EA013530134800508000
B0559293322321S14810646EA013400133300508000
B0559343322336S14810676EA013280131900508000
B0559393322355S14810703EA013180130900308000
B0559443322370S14810735EA013090129800408000
B0559493322383S14810763EA013010128900408000
B0559543322398S14810787EA012940128200508000
B0559593322414S14810807EA012860127300508000
B0600043322428S14810835EA012760126400608000
B0600093322446S14810856EA012630125100508000
B0600143322464S14810874EA012510123800408000
B0600193322483S14810896EA012390122400408000
B0600243322502S14810916EA012310121400408000
B0600293322521S14810939EA012210120400408000
B0600343322540S14810967EA012110119300508000
B0600393322560S14810993EA012020118300308000
B0600443322581S14811013EA011930117200508000
B0600493322604S14811034EA011820116000408000
B0600543322624S14811059EA011720115000408000
B0600593322639S14811090EA011630114000708000
B0601043322653S14811121EA011520112900508000
B0601093322670S14811148EA011400111600808000
B0601143322682S14811184EA011220110200608000
B0601193322695S14811223EA011090108800608000
B0601243322709S14811255EA010940107200508000
B0601293322729S14811282EA010800105500508000
B0601343322743S14811313EA010680104200608000
B0601393322762S14811341EA010550102700508000
B0601443322782S14811367EA010410101300608000
B0601493322800S14811394EA010250099600608000
B0601543322818S14811417EA010090097600308000
B0601593322832S14811457EA009930095900608000
B0602043322847S14811493EA009760094200508000
B0602093322866S14811524EA009620092600508000
B0602143322884S14811561EA009460091100608000
B0602193322903S14811588EA009340089700508000
B0602243322918S14811625EA009220088500608000
B0602293322937S14811651EA009120087100508000
B0602343322956S14811677EA009020086000508000
B0602393322977S14811699EA008960085300408000
B0602443322998S14811724EA008920084900608000
B0602493323016S14811757EA008830084200608000
B0602543323033S14811791EA008760083400408000
B0602593323049S14811826EA008660082400308000
B0603043323065S14811862EA008540081300408000
B0603093323079S14811903EA008460080200608000
B0603143323098S14811935EA008330078900408000
B0603193323115S14811972EA008220077800508000
B0603243323133S14812003EA008200077300508000
B0603293323152S14812024EA008190077200608000
B0603343323176S14812042EA008190077200708000
B0603393323191S14812079EA008190077300508000
B0603443323198S14812128EA008150077000408000
B0603493323211S14812175EA007940076300508000
B0603543323221S14812222EA007790074500708000
B0603593323231S14812269EA007630072600508000
B0604043323248S14812302EA007480070600508000
B0604093323270S14812324EA007350068900608000
B0604143323280S14812367EA007230067400408000
B0604193323290S14812410EA007110066000608000
B0604243323305S14812448EA006990064600508000
B0604293323324S14812484EA006880063300508000
B0604343323331S14812532EA006750062100408000
B0604393323338S14812581EA006630060900508000
B0604443323345S14812628EA006510059600608000
B0604493323355S14812675EA006400058200408000
B0604543323366S14812719EA006270056800608000
B0604593323377S14812765EA006220056100408000
B0605043323377S14812815EA006170055800408000
B0605093323385S14812862EA006120055400608000
B0605143323394S14812909EA006070054800608000
B0605193323393S14812959EA005990054100308000
B0605243323399S14813005EA005930053300408000
B0605293323406S14813051EA005880052900408000
B0605343323412S14813098EA005810052100608000
B0605393323414S14813148EA005710051300408000
B0605443323419S14813196EA005610050300608000
B0605493323424S14813248EA005500049100508000
B0605543323434S14813297EA005410048100608000
B0605593323446S14813345EA005350047200608000
B0606043323460S14813396EA005260046200508000
B0606093323477S14813447EA005250045700608000
B0606143323486S14813497EA005250045800608000
B0606193323502S14813533EA005170045500508000
B0606243323524S14813557EA005130044800408000
B0606293323540S14813599EA005100044500508000
B0606343323541S14813641EA005130044600508000
B0606393323513S14813649EA005150044801208000
B0606443323528S14813637EA005110044500708000
B0606493323541S14813676EA005120044601108000
B0606543323510S14813680EA005090044201108000
B0606593323525S14813666EA005050043901108000
B0607043323546S14813675EA005060043800808000
B0607093323564S14813694EA005020043500708000
B0607143323582S14813717EA005060043700708000
B0607193323591S14813760EA004990043600608000
B0607243323605S14813786EA004970043300508000
B0607293323609S14813825EA004940042900408000
B0607343323625S14813853EA004950042800508000
B0607393323643S14813864EA004950042900508000
B0607443323652S14813890EA004980043000708000
B0607493323641S14813937EA004900042700608000
B0607543323647S14813975EA004830042000908000
B0607593323664S14814001EA004800041400808000
B0608043323678S14814022EA004770040800608000
B0608093323694S14814033EA004700040000708000
B0608143323711S14814047EA004620039400608000
B0608193323730S14814063EA004550038800608000
B0608243323745S14814085EA004500038300608000
B0608293323763S14814093EA004430037500508000
B0608343323782S14814101EA004310036400508000
B0608393323798S14814131EA004220035400408000
B0608443323815S14814156EA004120034300508000
B0608493323834S14814163EA004040033300508000
B0608543323854S14814186EA003900031900608000
B0608593323874S14814194EA003780030300508000
B0609043323892S14814198EA003710029100508000
B0609093323912S14814207EA003580028000508000
B0609143323939S14814199EA003470026700708000
B0609193323954S14814193EA003470026300408000
B0609243323958S14814190EA003470026400608000
B0609293323962S14814188EA003470026300408000
B0609343323963S14814187EA003470026300308000
B0609393323967S14814184EA003470026300308000
B0609443323970S14814183EA003460026300308000
B0609493323970S14814182EA003460026300208000
B0609543323970S14814182EA003460026400308000
B0609593323970S14814182EA003460026400208000
B0610043323970S14814182EA003470026400308000
B0610093323970S14814182EA003470026400308000
B0610143323970S14814182EA003470026400308000
B0610193323970S14814182EA003470026400408000
B0610243323970S14814182EA003460026400408000
B0610293323970S14814182EA003470026400408000
GD29E36342F8A69F8E4A7EFEBF8BF0A0A942B0D858D45B53FD404641991A405E5
