AFLY00C6 0100750
HFDTE311216
HFFXA010
HFPLTPILOT:PETER_ BURKITT  
HFCM2CREW2:NKN
HFGTYGLIDERTYPE:RX5             
HFGIDGLIDERID:003             
HFDTM100GPSDATUM:WGS84
HFRFWFIRMWAREVERSION: 1.1.04 EN
HFRHWHARDWAREVERSION:1.00
HFFTYFRTYPE:Flytec ,Element
HFGPS:FASTRAX,IT430,48
HFPRSPRESSALTSENSOR:INTERSEMA,MS5401BM,12000
HFALGALTGPS:GEO
HFALPALTPRESSURE:ISA
HFTZNUTCOFFSET: 10.00h
I033638FXA3940SIU4143TAS
C311216003126311216005500
C3321372S14756016E TAKEOFF
C3321372S14756016E START  BMI023           00000000010000000000360000AREA
C3227913S14859358E FINISH WELLIN           00000000000400000000360000AREA
C3227913S14859358E LANDING
F0327060205061217192425
B0327063321384S14756060EA003220023900508000
F0327360205061217192425
B0327363321384S14756060EA003220023900508000
F0328060205061217192425
B0328063321386S14756056EA003220023700408000
F0328360205061217192425
B0328363321386S14756056EA003220023700508000
F03290602050612171924
B0329063321386S14756056EA003230023700607000
F0329360205061217192425
B0329363321385S14756056EA003230023700908000
F0330060205061217192425
B0330063321385S14756056EA003230023600508000
F0330360205061217192425
B0330363321385S14756056EA003230023600508000
F0331060205061217192425
B0331063321385S14756056EA003230023600508000
E033124STA
E033124ATS1003.2
LFLYA1 00235
B0331243321400S14756031EA003220023500608000
B0331293321423S14755996EA003280023900608000
B0331343321447S14755965EA003420024500608000
B0331393321466S14755935EA003590025900508000
B0331443321485S14755899EA003740028000608000
B0331493321501S14755861EA003920030100708000
B0331543321516S14755823EA004120032500508000
B0331593321531S14755782EA004280034800508000
B0332043321542S14755740EA004510037400508000
B0332093321549S14755699EA004710039800508000
B0332143321556S14755653EA004850041700508000
B0332193321563S14755612EA005010043500608000
B0332243321581S14755580EA005160045100608000
B0332293321608S14755564EA005380047300708000
B0332343321644S14755571EA005520049000908000
B0332393321677S14755604EA005700050800508000
B0332443321703S14755651EA005880052900508000
B0332493321713S14755710EA006070054900408000
B0332543321699S14755773EA006230056600608000
B0332593321653S14755818EA006330058100608000
B0333043321595S14755837EA006480059600508000
B0333093321542S14755824EA006590060900708000
B0333143321509S14755787EA006730062300808000
B0333193321495S14755742EA006880063800508000
B0333243321501S14755696EA007040065200408000
B0333293321507S14755650EA007200066900608000
B0333343321508S14755601EA007380068400608000
F03333902061217192425
B0333393321500S14755548EA007580070400707000
F0333440205061217192425
B0333443321487S14755493EA007710072100508000
B0333493321474S14755440EA007820073400408000
B0333543321470S14755391EA007890074300508000
B0333593321472S14755346EA008000075300408000
B0334043321484S14755307EA008070075900408000
B0334093321518S14755293EA008150076800708000
B0334143321555S14755319EA008200077500608000
B0334193321577S14755371EA008240078000608000
B0334243321583S14755438EA008230077900608000
B0334293321561S14755501EA008330078601208000
B0334343321520S14755546EA008570080300708000
B0334393321477S14755578EA008780082300608000
B0334443321437S14755613EA008830083600608000
B0334493321394S14755605EA008810084500908000
B0334543321383S14755575EA008740084800908000
B0334593321406S14755575EA008730084801408000
B0335043321413S14755618EA008810085100608000
B0335093321396S14755668EA008860085400708000
B0335143321387S14755717EA008950086100608000
B0335193321370S14755766EA009020086900608000
B0335243321327S14755787EA009100087800408000
F033529020506121719242529
B0335293321281S14755785EA009180088600509000
B0335343321253S14755760EA009260089800609000
B0335393321251S14755727EA009300090400609000
B0335443321224S14755701EA009320090700709000
B0335493321175S14755724EA009380091100809000
B0335543321148S14755785EA009330091100709000
B0335593321140S14755843EA009380091300609000
B0336043321157S14755887EA009420091700409000
B0336093321185S14755904EA009450092100509000
B0336143321214S14755907EA009530092700709000
B0336193321241S14755916EA009660093900809000
B0336243321253S14755896EA009750095100609000
B0336293321221S14755879EA009900096300809000
B0336343321177S14755903EA010000097600609000
B0336393321157S14755953EA010110098700609000
B0336443321169S14756001EA010240099900609000
B0336493321197S14756024EA010290101000609000
B0336543321222S14756023EA010360101900409000
B0336593321233S14755998EA010420102500409000
B0337043321214S14755969EA010510103200409000
B0337093321176S14755968EA010610104100609000
B0337143321135S14756004EA010690104900609000
B0337193321128S14756059EA010810106100609000
B0337243321149S14756096EA010860106800409000
B0337293321176S14756106EA010950107700609000
B0337343321185S14756079EA011020108500609000
B0337393321166S14756051EA011120109600509000
B0337443321126S14756050EA011220110700509000
B0337493321088S14756088EA011300111500609000
B0337543321070S14756147EA011410112700509000
B0337593321087S14756194EA011450113500609000
B0338043321112S14756197EA011570114700609000
B0338093321101S14756167EA011650115500809000
B0338143321060S14756175EA011750116400709000
B0338193321032S14756230EA011790117000709000
B0338243321045S14756278EA011880117800809000
B0338293321071S14756285EA011960118700609000
B0338343321071S14756264EA012030119500609000
B0338393321035S14756261EA012080120300509000
B0338443320992S14756292EA012130120800609000
B0338493320967S14756346EA012210121500609000
B0338543320963S14756405EA012270122100709000
B0338593320978S14756456EA012250122200509000
B0339043321004S14756488EA012200121800809000
B0339093321035S14756508EA012060120700709000
B0339143321062S14756508EA011990119900409000
B0339193321079S14756499EA011910119000509000
B0339243321089S14756473EA011740118000409000
B0339293321077S14756442EA011680116800409000
B0339343321058S14756413EA011680116200309000
B0339393321038S14756382EA011690116000409000
B0339443321017S14756355EA011730116100509000
B0339493320996S14756328EA011790116400609000
B0339543320954S14756343EA011820116800709000
B0339593320924S14756394EA011910117600609000
B0340043320944S14756443EA011990118500809000
B0340093320970S14756445EA012100120000809000
B0340143320975S14756416EA012130120800609000
B0340193320960S14756386EA012140121200409000
B0340243320926S14756368EA012180121700409000
B0340293320886S14756367EA012230122000409000
B0340343320842S14756392EA012260122400509000
B0340393320801S14756429EA012300122600409000
B0340443320755S14756457EA012250122500409000
B0340493320723S14756506EA012230122300609000
B0340543320739S14756552EA012230122100709000
B0340593320766S14756566EA012220121800709000
B0341043320788S14756553EA012210121800609000
B0341093320797S14756528EA012230121800509000
B0341143320805S14756503EA012240121800509000
B0341193320797S14756473EA012230121800609000
B0341243320759S14756468EA012220121600509000
B0341293320715S14756491EA012150121100609000
B0341343320681S14756543EA012070120400709000
B0341393320682S14756601EA012020119900609000
B0341443320711S14756620EA011990119500909000
B0341493320730S14756607EA012010119600509000
B0341543320725S14756579EA012050119800609000
B0341593320704S14756554EA012060119900409000
B0342043320666S14756541EA012020119500409000
B0342093320617S14756542EA011870118700509000
B0342143320569S14756541EA011750117600509000
B0342193320519S14756556EA011670116400509000
B0342243320476S14756586EA011610115400509000
B0342293320453S14756638EA011590115000409000
B0342343320452S14756695EA011710115300609000
B0342393320471S14756744EA011770116000509000
B0342443320505S14756766EA011790116700709000
B0342493320514S14756740EA011850117700809000
B0342543320485S14756722EA011850118100609000
B0342593320441S14756732EA011750117400709000
B0343043320401S14756770EA011810117300609000
B0343093320377S14756822EA011920117900609000
B0343143320383S14756883EA011940118300509000
B0343193320414S14756921EA012000119300909000
B0343243320447S14756944EA012140120600709000
B0343293320478S14756946EA012240122000609000
B0343343320485S14756925EA012330122900509000
B0343393320455S14756910EA012370123500509000
B0343443320414S14756938EA012410123800709000
B0343493320392S14756999EA012470124500609000
B0343543320391S14757060EA012570125200509000
B0343593320403S14757115EA012690126200509000
B0344043320430S14757150EA012770127200609000
B0344093320453S14757147EA012780127600609000
B0344143320459S14757128EA012780127600509000
B0344193320440S14757110EA012770127600609000
B0344243320405S14757112EA012810127700509000
F0344290205061219242529
B0344293320368S14757113EA012810127900808000
F034434020506121719242529
B0344343320339S14757094EA012840128100409000
B0344393320313S14757068EA012900128500509000
B0344443320271S14757059EA012920128800409000
B0344493320225S14757063EA012880128800509000
B0344543320179S14757098EA012920128900609000
B0344593320171S14757157EA012960129300609000
B0345043320186S14757206EA013060130000509000
B0345093320214S14757214EA013100130700509000
B0345143320211S14757189EA013160131400609000
B0345193320176S14757174EA013240132000509000
B0345243320127S14757205EA013240132300809000
B0345293320109S14757269EA013300132900709000
B0345343320135S14757320EA013340133200909000
B0345393320160S14757311EA013390133900709000
B0345443320154S14757281EA013430134300609000
B0345493320116S14757273EA013540134900609000
B0345543320066S14757291EA013480135000609000
B0345593320027S14757339EA013530135300609000
B0346043320019S14757405EA013570135800609000
B0346093320038S14757453EA013630136300409000
B0346143320066S14757473EA013620136500509000
B0346193320094S14757478EA013620136600409000
B0346243320117S14757473EA013670136800509000
B0346293320119S14757450EA013680137000509000
B0346343320095S14757427EA013710137200609000
B0346393320052S14757443EA013800137900909000
B0346443320031S14757506EA013850138300709000
B0346493320040S14757566EA013890138900509000
B0346543320068S14757592EA013900139200509000
B0346593320087S14757584EA013890139300509000
B0347043320091S14757564EA013860139300509000
B0347093320080S14757540EA013820139100509000
B0347143320048S14757531EA013830139000409000
B0347193320009S14757538EA013870139200409000
B0347243319964S14757549EA013870139400409000
B0347293319919S14757585EA013910139500509000
B0347343319899S14757643EA013930139600409000
B0347393319904S14757706EA013920139800509000
B0347443319930S14757749EA013950139900509000
B0347493319962S14757760EA013940140000609000
B0347543319974S14757740EA013900139900509000
B0347593319961S14757716EA013840139500509000
B0348043319923S14757705EA013800139200509000
B0348093319876S14757719EA013820139200509000
B0348143319830S14757742EA013900139700609000
B0348193319790S14757787EA013890139700609000
B0348243319768S14757854EA013900139800609000
B0348293319787S14757909EA014040140501309000
B0348343319810S14757895EA014030140901109000
B0348393319787S14757875EA014050140900809000
B0348443319739S14757901EA014020140900909000
B0348493319702S14757940EA014150141600709000
B0348543319690S14758002EA014130141800809000
B0348593319722S14758031EA014100141800909000
B0349043319750S14758027EA014140142000609000
B0349093319761S14758011EA014120142000509000
B0349143319752S14757988EA014120142000409000
B0349193319719S14757984EA014080141600409000
B0349243319682S14758015EA014070141500609000
B0349293319662S14758070EA014100141600409000
B0349343319670S14758123EA014090141500409000
B0349393319699S14758148EA014060141300509000
B0349443319725S14758146EA014040141100409000
B0349493319737S14758130EA014030140900409000
B0349543319753S14758115EA013980140700409000
B0349593319768S14758101EA013930140100409000
B0350043319781S14758086EA013910139800409000
B0350093319797S14758065EA013900139600409000
B0350143319793S14758033EA014040140000609000
B0350193319768S14758009EA014080140500509000
B0350243319723S14758022EA014120140900809000
B0350293319691S14758070EA014070141000609000
B0350343319695S14758133EA014000140600609000
B0350393319723S14758166EA013980140500709000
B0350443319751S14758175EA014100141300609000
B0350493319769S14758166EA014150142000509000
B0350543319766S14758143EA014210142600409000
B0350593319736S14758131EA014280143300409000
B0351043319693S14758152EA014340143900609000
B0351093319662S14758195EA014390144500509000
B0351143319647S14758248EA014410145100709000
B0351193319653S14758301EA014460145200709000
B0351243319678S14758329EA014500145700509000
B0351293319702S14758326EA014560146400509000
B0351343319712S14758308EA014670147300609000
B0351393319693S14758287EA014760148300409000
B0351443319647S14758303EA014840149000909000
B0351493319619S14758361EA014880149900609000
B0351543319619S14758424EA014990150900509000
B0351593319641S14758465EA015080151800709000
B0352043319672S14758476EA015180153100709000
B0352093319686S14758460EA015270154100409000
B0352143319676S14758435EA015310154500509000
B0352193319648S14758418EA015390155200409000
B0352243319609S14758417EA015460155900409000
B0352293319563S14758448EA015500156500409000
B0352343319527S14758500EA015520156900609000
B0352393319525S14758566EA015520157200709000
B0352443319545S14758609EA015580157400509000
B0352493319574S14758625EA015660158200509000
B0352543319593S14758612EA015720158700409000
B0352593319592S14758586EA015730159000409000
B0353043319593S14758561EA015840159500509000
B0353093319582S14758536EA015900160200609000
B0353143319548S14758527EA015950160800409000
B0353193319505S14758543EA016020161600609000
B0353243319472S14758593EA016040162000509000
B0353293319466S14758655EA016030162100509000
B0353343319480S14758713EA016020162100409000
B0353393319508S14758748EA016100162900509000
B0353443319539S14758764EA016190163600409000
B0353493319561S14758758EA016200163900409000
B0353543319566S14758734EA016170163900609000
B0353593319550S14758703EA016130163800609000
B0354043319533S14758673EA016100163400409000
B0354093319499S14758650EA016120163300409000
B0354143319457S14758637EA016160163600409000
B0354193319412S14758634EA016240164000609000
B0354243319366S14758641EA016290164500409000
B0354293319319S14758647EA016340165100409000
B0354343319273S14758669EA016360165500609000
B0354393319243S14758723EA016420166100809000
B0354443319243S14758786EA016440166500609000
B0354493319263S14758832EA016510166900409000
B0354543319292S14758847EA016530167200409000
B0354593319314S14758831EA016510167400409000
B0355043319317S14758800EA016540167500509000
B0355093319303S14758768EA016560167700509000
B0355143319270S14758744EA016590168000409000
B0355193319225S14758737EA016590168200409000
B0355243319178S14758751EA016620168400509000
B0355293319136S14758788EA016640168500609000
B0355343319097S14758835EA016700169000609000
B0355393319072S14758894EA016740169500409000
B0355443319074S14758951EA016790169900509000
B0355493319097S14758991EA016770170100609000
B0355543319123S14758998EA016790170500409000
B0355593319139S14758981EA016820170700509000
B0356043319130S14758947EA016830170800709000
B0356093319083S14758942EA016820170800709000
B0356143319035S14758971EA016860171000709000
B0356193318998S14759025EA016870171200809000
B0356243318972S14759084EA016870171300609000
B0356293318953S14759146EA016890171500509000
B0356343318932S14759205EA016920171700609000
B0356393318903S14759263EA016880171500709000
B0356443318864S14759316EA016780170700609000
B0356493318822S14759366EA016710169800509000
B0356543318779S14759414EA016610168600509000
B0356593318733S14759452EA016530167600709000
B0357043318688S14759490EA016480166900709000
B0357093318659S14759549EA016360165900609000
B0357143318660S14759614EA016210164800709000
B0357193318631S14759665EA016100163600809000
B0357243318585S14759702EA016020162400709000
B0357293318540S14759742EA015930161300609000
B0357343318494S14759773EA015840160100509000
B0357393318445S14759801EA015680158700609000
B0357443318391S14759831EA015550157200509000
B0357493318339S14759862EA015450156000509000
B0357543318291S14759897EA015350154900509000
B0357593318245S14759928EA015220153500509000
B0358043318197S14759944EA015110152100609000
B0358093318148S14759952EA014930150300309000
B0358143318099S14759969EA014750148400609000
B0358193318049S14759992EA014610146700609000
B0358243318001S14800008EA014490145400509000
B0358293317952S14800014EA014340144100409000
B0358343317901S14800024EA014230142800409000
B0358393317846S14800043EA014100141500509000
B0358443317797S14800084EA014230141401009000
B0358493317770S14800140EA014380143001009000
B0358543317766S14800201EA014510144700609000
B0358593317790S14800245EA014530145800509000
B0359043317817S14800252EA014480146000509000
B0359093317816S14800229EA014510146200709000
B0359143317780S14800217EA014600146700609000
B0359193317737S14800246EA014760148000909000
B0359243317715S14800307EA014860149400609000
B0359293317727S14800353EA014900150300809000
B0359343317753S14800352EA014860150000609000
B0359393317765S14800328EA014850150100609000
F0359440205061219242529
B0359443317772S14800301EA014850150001008000
B0359493317760S14800270EA014780149500708000
B0359543317727S14800252EA014730148800608000
B0359593317681S14800240EA014630148000508000
B0400043317629S14800238EA014680147800708000
B0400093317583S14800255EA014800148500808000
B0400143317552S14800311EA014840149101008000
B0400193317571S14800338EA014990150201508000
B0400243317580S14800306EA015120151801008000
B0400293317540S14800289EA015220153000808000
B0400343317494S14800318EA015380154301108000
B0400393317481S14800372EA015410155300808000
B0400443317498S14800409EA015460156000708000
B0400493317525S14800428EA015540156800908000
B0400543317543S14800410EA015650157800708000
B0400593317531S14800373EA015720158600808000
B0401043317487S14800358EA015770159201108000
B0401093317438S14800385EA015800159300808000
B0401113317420S14800405EA015820159500908000
B0401123317415S14800416EA015850159600908000
B0401133317411S14800427EA015870159800908000
B0401143317410S14800440EA015900160001108000
B0401153317410S14800451EA015910160300808000
B0401163317411S14800462EA015930160501008000
B0401173317412S14800473EA015930160700808000
B0401183317416S14800483EA015940160800908000
B0401193317420S14800493EA015940160900908000
B0401243317451S14800511EA016040161901108000
B0401293317467S14800489EA016160163100708000
B0401303317466S14800483EA016190163200808000
B0401313317464S14800476EA016200163400908000
B0401323317462S14800469EA016200163501008000
B0401333317458S14800463EA016200163600908000
B0401343317453S14800457EA016210163800708000
B0401353317448S14800452EA016220164000708000
B0401363317441S14800449EA016250164100708000
B0401373317434S14800446EA016260164100808000
B0401383317425S14800446EA016240164100808000
B0401393317415S14800447EA016220164001108000
B0401403317403S14800450EA016190164001208000
B0401413317392S14800454EA016190164100808000
B0401423317382S14800459EA016200164200808000
B0401433317372S14800466EA016210164200808000
B0401443317363S14800474EA016220164200808000
B0401493317327S14800528EA016270164801008000
B0401543317327S14800582EA016390165700808000
B0401593317357S14800604EA016500166801008000
B0402043317372S14800574EA016510167301108000
B0402093317334S14800549EA016530167501008000
B0402143317284S14800564EA016610168300808000
B0402193317249S14800616EA016580168600908000
B0402243317255S14800672EA016710169400908000
B0402293317286S14800689EA016750169801108000
B0402343317300S14800656EA016820170301208000
B0402393317261S14800630EA016820170501308000
B0402443317207S14800650EA016830170600808000
B0402493317180S14800707EA016890171101208000
B0402543317203S14800739EA016930171401308000
B0402593317221S14800725EA016970172001008000
B0403043317186S14800701EA016990172100908000
B0403093317135S14800700EA016950171900808000
B0403143317086S14800715EA017000172300808000
B0403193317040S14800747EA017090173000908000
B0403243317020S14800803EA017170174001008000
B0403293317036S14800842EA017230174801408000
B0403343317056S14800828EA017320175601008000
B0403393317041S14800790EA017350176200708000
B0403443317003S14800773EA017440176700608000
B0403493316955S14800794EA017500177300808000
B0403543316935S14800853EA017500177801208000
B0403593316956S14800887EA017570178501408000
B0404043316956S14800855EA017590178801108000
B0404093316915S14800836EA017640179301108000
B0404143316866S14800851EA017690179801308000
B0404193316837S14800904EA017810180801008000
B0404243316849S14800954EA017860181500708000
B0404293316878S14800974EA017880181800808000
B0404343316895S14800959EA017920182200708000
B0404393316896S14800927EA017940182300808000
B0404443316861S14800898EA017970182600808000
B0404493316815S14800889EA018060183400808000
B0404543316769S14800912EA018110183900708000
B0404593316732S14800956EA018140184300708000
B0405043316708S14801007EA018200184900708000
B0405093316704S14801066EA018210185300808000
B0405143316717S14801110EA018260185500408000
B0405193316737S14801142EA018300185900608000
B0405243316765S14801143EA018310186200708000
B0405293316784S14801124EA018350186600608000
B0405343316788S14801092EA018350186700508000
B0405393316790S14801055EA018340186500608000
B0405443316786S14801016EA018360186700708000
B0405493316788S14800984EA018430187100608000
B0405543316797S14800956EA018590188100608000
B0405593316791S14800924EA018740189400708000
B0406043316770S14800886EA018790190700608000
B0406093316728S14800868EA018940191900808000
B0406143316680S14800874EA019090193600708000
B0406193316632S14800890EA019170194700608000
B0406243316593S14800932EA019220195500908000
B0406293316593S14800986EA019250196200908000
B0406343316621S14801021EA019360197000908000
B0406393316648S14801009EA019450198200708000
B0406443316644S14800968EA019600199600908000
B0406493316605S14800949EA019710200900908000
B0406543316562S14800972EA019790201700708000
B0406593316542S14801021EA019820202201008000
B0407043316563S14801068EA019780202301208000
B0407093316595S14801076EA019910203200908000
B0407143316616S14801054EA020020204200608000
B0407193316618S14801015EA020110205200708000
B0407243316603S14800976EA020210206200508000
B0407293316562S14800946EA020230206800708000
B0407343316514S14800942EA020290207100908000
B0407393316463S14800965EA020260207300908000
B0407443316416S14800996EA020240207100808000
B0407493316378S14801044EA020210206800808000
B0407543316351S14801098EA020210206800808000
B0407593316338S14801157EA020210206800708000
B0408043316312S14801214EA020190206700808000
B0408093316290S14801269EA020330207500808000
B0408143316290S14801328EA020350207800808000
B0408193316319S14801348EA020360208101108000
B0408243316343S14801321EA020390208401008000
B0408293316341S14801289EA020470208800808000
B0408343316305S14801267EA020490209200908000
B0408393316259S14801275EA020540209600808000
B0408443316223S14801313EA020620210100708000
B0408493316206S14801370EA020620210600908000
B0408543316188S14801426EA020610210600608000
B0408593316158S14801478EA020650210801008000
B0409043316136S14801533EA020690211200608000
B0409093316115S14801587EA020720211600508000
B0409143316090S14801641EA020690211600808000
B0409193316063S14801697EA020690211600708000
B0409243316030S14801751EA020740211600708000
B0409293315990S14801799EA020750211800808000
B0409343315953S14801852EA020740211800408000
B0409393315919S14801904EA020730211900808000
B0409443315889S14801954EA020830212600908000
B0409493315860S14802002EA020780212601108000
B0409543315828S14802051EA020770212700908000
B0409593315793S14802101EA020750212500708000
B0410043315755S14802149EA020770212500708000
B0410093315722S14802205EA020790212700708000
B0410143315693S14802263EA020800212800508000
B0410193315659S14802319EA020750212300708000
B0410243315620S14802374EA020670211600708000
B0410293315580S14802428EA020620210900708000
B0410343315544S14802486EA020570210500508000
B0410393315508S14802545EA020480209601008000
B0410443315470S14802614EA020290207900808000
B0410493315440S14802679EA020230207000708000
B0410543315414S14802747EA020200206200908000
B0410593315393S14802817EA020130205400808000
B0411043315380S14802880EA020110204900608000
B0411093315372S14802939EA020080204500508000
B0411143315362S14803003EA020010204000508000
B0411193315344S14803066EA020020204000708000
B0411243315317S14803118EA019990203800608000
B0411293315284S14803166EA019940203500708000
B0411343315248S14803216EA019910203000708000
B0411393315214S14803264EA019910202900508000
B0411443315174S14803311EA019890202700408000
B0411493315138S14803360EA019890202700708000
B0411543315099S14803409EA019870202700708000
B0411593315054S14803453EA019780202100708000
B0412043315015S14803502EA019700201100808000
B0412093314976S14803554EA019590200000808000
B0412143314937S14803601EA019540199100808000
B0412193314895S14803652EA019420198100808000
B0412243314857S14803700EA019370197200808000
B0412293314819S14803748EA019250196200608000
B0412343314784S14803793EA019210195500808000
B0412393314746S14803837EA019070194500608000
B0412443314709S14803877EA019010193700808000
B0412493314668S14803914EA018890192600808000
B0412543314626S14803954EA018810191700808000
B0412593314587S14803997EA018760191200608000
B0413043314549S14804038EA018740190900608000
B0413093314514S14804083EA018680190300608000
B0413143314477S14804127EA018610189600608000
B0413193314437S14804171EA018530188700608000
B0413243314398S14804214EA018470188100608000
B0413293314361S14804256EA018400187400808000
B0413343314320S14804303EA018320186800808000
B0413393314282S14804345EA018320186500908000
B0413443314243S14804389EA018230185600708000
B0413493314202S14804435EA018150184800808000
B0413543314162S14804485EA018050183800708000
B0413593314120S14804533EA017960182800808000
B0414043314080S14804581EA017880181900708000
B0414093314041S14804629EA017790181001008000
B0414143313996S14804678EA017670179900908000
B0414193313954S14804727EA017560178800708000
B0414243313910S14804772EA017410177200708000
B0414293313865S14804822EA017260175400808000
B0414343313831S14804883EA017110173700808000
B0414393313802S14804946EA017050172600808000
B0414443313768S14805004EA016920171500908000
B0414493313737S14805062EA016830170400808000
B0414543313701S14805114EA016730169300708000
B0414593313666S14805165EA016660168600508000
B0415043313632S14805220EA016610168300708000
B0415093313595S14805273EA016620168500708000
B0415143313558S14805329EA016610168600708000
B0415193313529S14805389EA016490168000908000
B0415243313505S14805444EA016490167600508000
B0415293313481S14805507EA016410167100708000
B0415343313458S14805564EA016390166700508000
B0415393313441S14805618EA016370166400508000
B0415443313429S14805674EA016310165700508000
B0415493313419S14805730EA016240165000508000
B0415543313392S14805783EA016130163900908000
B0415593313345S14805810EA016030162700908000
B0416043313296S14805832EA015960161800508000
B0416093313247S14805850EA015930161200608000
B0416143313194S14805871EA015860160600708000
B0416193313145S14805903EA015780159800708000
B0416243313094S14805941EA015680158900808000
B0416293313043S14805980EA015620158001208000
B0416343312995S14806014EA015510156901008000
B0416393312945S14806043EA015400155700608000
B0416443312900S14806062EA015360154800608000
B0416493312852S14806075EA015240153700708000
B0416543312806S14806104EA015190153000808000
B0416593312759S14806135EA015140152300708000
B0417043312710S14806167EA015060151700808000
B0417093312668S14806206EA015050151200808000
B0417143312624S14806247EA014960150600808000
B0417193312574S14806288EA014830149600708000
B0417243312527S14806320EA014760148900608000
B0417293312478S14806351EA014660147900708000
B0417343312430S14806380EA014550146700508000
B0417393312384S14806403EA014510145900808000
B0417443312335S14806446EA014270144300908000
B0417493312284S14806477EA014180143100508000
B0417543312234S14806513EA014060141700808000
B0417593312184S14806551EA013940140100808000
B0418043312133S14806586EA013830138700608000
B0418093312084S14806624EA013700137400708000
B0418143312033S14806662EA013580135800708000
B0418193311983S14806700EA013480134700808000
B0418243311931S14806741EA013380133700708000
B0418293311878S14806776EA013320133000708000
B0418343311830S14806804EA013270132300608000
B0418393311774S14806835EA013150131500708000
B0418443311717S14806866EA013100131000508000
B0418493311663S14806894EA013100130600408000
B0418543311609S14806918EA013170130900708000
B0418593311570S14806911EA013300132100708000
B0419043311551S14806881EA013360133301108000
B0419093311562S14806863EA013450134400908000
B0419143311588S14806870EA013460134800908000
B0419193311609S14806887EA013520135100808000
B0419243311616S14806938EA013480134800808000
B0419293311582S14806989EA013450134801108000
B0419343311533S14807009EA013480135000708000
B0419393311493S14806998EA013550135600908000
B0419443311487S14806972EA013580136000908000
B0419493311514S14806980EA013660136301108000
B0419543311521S14807031EA013710136700808000
B0419593311501S14807089EA013800137600808000
B0420043311456S14807120EA013810138201008000
B0420093311423S14807098EA013810138300908000
B0420143311419S14807055EA013780138400808000
B0420193311411S14807019EA013860138800808000
B0420243311423S14806996EA013960139401108000
B0420293311440S14807035EA013930139500908000
B0420343311413S14807089EA013910139701308000
B0420393311366S14807109EA014010140400808000
B0420443311337S14807078EA014020140801208000
B0420493311354S14807059EA014090141201308000
B0420543311374S14807083EA014040140800908000
B0420593311376S14807139EA014040140500808000
B0421043311361S14807199EA013970140201108000
B0421093311318S14807233EA014000140200808000
B0421143311276S14807220EA014050140700808000
B0421193311262S14807188EA014140141501208000
B0421243311287S14807173EA014120141601208000
B0421293311295S14807220EA014070141501508000
B0421343311256S14807264EA014120141901008000
B0421393311211S14807288EA014250143200908000
B0421443311168S14807286EA014320144000608000
B0421493311161S14807252EA014360144501308000
B0421543311187S14807257EA014430145001208000
B0421593311195S14807306EA014440145101008000
B0422043311164S14807355EA014500145801108000
B0422093311124S14807393EA014620147100908000
B0422143311078S14807414EA014710148100508000
B0422193311049S14807391EA014740148601108000
B0422243311063S14807375EA014820149001308000
B0422293311090S14807403EA014900149600708000
B0422343311088S14807460EA014960150200808000
B0422393311051S14807508EA015070151401208000
B0422443311013S14807500EA015120152201208000
B0422493311021S14807475EA015170152701108000
B0422543311044S14807505EA015270153401008000
B0422593311041S14807560EA015410154501008000
B0423043311001S14807600EA015470155600908000
B0423093310966S14807582EA015520156300808000
B0423143310975S14807560EA015580157101108000
B0423193310998S14807582EA015700158000908000
B0423243310985S14807639EA015800159101508000
B0423293310937S14807666EA015930160400708000
B0423343310912S14807639EA015930160901208000
B0423393310928S14807626EA016030161501508000
B0423443310940S14807671EA016140162201308000
B0423493310893S14807705EA016300163701308000
B0423543310863S14807677EA016310164601708000
B0423593310884S14807662EA016370165301308000
F04240402050612192425
B0424043310906S14807693EA016510166500907000
F0424090205061219242529
B0424093310897S14807753EA016600167601308000
B0424143310851S14807771EA016750168801008000
B0424193310852S14807734EA016770169601808000
B0424243310879S14807747EA016940170900908000
B0424293310881S14807803EA017040171901508000
B0424343310831S14807831EA017140173401308000
B0424393310811S14807796EA017200174401708000
B0424443310835S14807788EA017290175201008000
B0424493310852S14807834EA017320175500708000
B0424543310827S14807892EA017430176501308000
B0424593310779S14807898EA017540177700808000
B0425043310762S14807866EA017570178101308000
B0425093310785S14807850EA017680178901308000
B0425143310809S14807886EA017690179300608000
B0425193310805S14807944EA017770179901108000
B0425243310764S14807983EA017820180901008000
B0425293310731S14807965EA017900181501008000
B0425343310728S14807932EA017960182301008000
B0425393310750S14807927EA018000182600908000
B0425443310777S14807960EA017990182600808000
B0425493310788S14808012EA018010182700508000
B0425543310768S14808062EA018060183201008000
B0425593310727S14808068EA018090183700908000
B0426043310705S14808036EA018150184300808000
B0426093310706S14808003EA018200184800808000
B0426143310732S14808004EA018170184601108000
B0426193310751S14808050EA018110184100608000
B0426243310730S14808108EA018050183601008000
B0426293310681S14808144EA018050183501108000
B0426343310638S14808164EA018090183700608000
B0426393310590S14808184EA018140184000808000
B0426443310550S14808209EA018260185101008000
B0426493310504S14808233EA018280185700808000
B0426543310462S14808229EA018270185900708000
F042659020506121920242529
B0426593310441S14808203EA018260186100909000
B0427043310450S14808176EA018290186300509000
B0427093310476S14808179EA018360186500409000
B0427143310497S14808220EA018330186600709000
B0427193310484S14808278EA018380186700609000
B0427243310439S14808312EA018390186900509000
B0427293310396S14808305EA018390186800509000
B0427343310359S14808281EA018410187000409000
B0427393310345S14808249EA018400187100709000
B0427443310359S14808229EA018450187400509000
B0427493310383S14808248EA018440187400709000
B0427543310390S14808303EA018430187200609000
B0427593310370S14808356EA018480187600509000
B0428043310327S14808392EA018580188400609000
B0428093310285S14808373EA018570188700909000
B0428143310295S14808344EA018580189000809000
B0428193310325S14808373EA018620189200709000
B0428243310333S14808429EA018720190000509000
F0428290205121920242529
B0428293310304S14808472EA018860191200908000
F042834020506121920242529
B0428343310265S14808454EA018820191500809000
B0428393310274S14808423EA018890191900909000
B0428443310305S14808442EA019000192900809000
B0428493310313S14808499EA019000193200609000
B0428543310303S14808557EA019040193300509000
B0428593310277S14808609EA019070193900809000
B0429043310240S14808654EA019010193600909000
B0429093310189S14808693EA018980193300509000
B0429143310140S14808722EA019070193600509000
B0429193310095S14808727EA019160194100509000
B0429243310070S14808699EA019260195301009000
B0429293310087S14808695EA019310196000709000
B0429343310107S14808736EA019330196600609000
B0429393310095S14808798EA019350196800709000
B0429443310056S14808846EA019410197700609000
B0429493310011S14808881EA019510198500509000
F0429540205061219202529
B0429543309961S14808898EA019540199300508000
F042959020506121920242529
B0429593309912S14808897EA019610199900509000
B0430043309881S14808876EA019690200500609000
B0430093309882S14808850EA019690200800409000
B0430143309904S14808859EA019750201100609000
B0430193309915S14808914EA019790201500509000
B0430243309894S14808977EA019870202200609000
B0430293309850S14809026EA019900202800509000
B0430343309801S14809054EA019960203300509000
B0430393309745S14809071EA019850202900509000
B0430443309699S14809106EA019770201900609000
B0430493309654S14809151EA019650200800509000
B0430543309612S14809198EA019520199500609000
B0430593309572S14809245EA019460198500509000
B0431043309536S14809293EA019370197500509000
B0431093309501S14809343EA019270196400509000
B0431143309462S14809392EA019190195400509000
B0431193309424S14809442EA019070194200809000
B0431243309382S14809491EA018960193100609000
B0431293309338S14809542EA018820191900409000
B0431343309298S14809594EA018730190900409000
B0431393309260S14809646EA018670190100409000
B0431443309223S14809701EA018570189100409000
B0431493309186S14809754EA018510188400509000
B0431543309146S14809807EA018440187600509000
B0431593309109S14809862EA018330186500809000
B0432043309082S14809916EA018240185400409000
B0432093309056S14809967EA018120184300509000
B0432143309023S14810012EA017960182700509000
B0432193308983S14810059EA017800181100509000
B0432243308953S14810117EA017670179500409000
B0432293308920S14810177EA017620178600709000
B0432343308884S14810230EA017620178500609000
B0432393308848S14810284EA017520178100609000
B0432443308812S14810332EA017490177700509000
B0432493308776S14810376EA017430177200609000
B0432543308733S14810420EA017340176400709000
B0432593308682S14810459EA017220175300509000
B0433043308640S14810503EA017170174400509000
B0433093308600S14810555EA017090173600709000
B0433143308560S14810607EA017070173200509000
B0433193308521S14810664EA017110173300709000
B0433243308487S14810718EA017200174400909000
B0433293308441S14810746EA017240174900509000
B0433343308405S14810725EA017190174700609000
B0433393308414S14810700EA017190174800909000
B0433443308443S14810730EA017230174900709000
B0433493308446S14810795EA017230175200809000
B0433543308444S14810854EA017250175100609000
B0433593308451S14810916EA017320175600609000
B0434043308440S14810974EA017410176400809000
B0434093308394S14811003EA017500177400709000
B0434143308373S14810979EA017540178101009000
B0434193308395S14810975EA017610178601209000
B0434243308416S14811019EA017690179300609000
B0434293308400S14811077EA017810180401309000
B0434343308356S14811092EA017870181300709000
B0434393308329S14811072EA017920181901009000
B0434443308324S14811046EA017950182500709000
B0434493308345S14811040EA018030183100509000
B0434543308369S14811082EA018070183400609000
B0434593308357S14811143EA018160184301409000
B0435043308310S14811155EA018200185000809000
B0435093308293S14811131EA018310186100709000
B0435143308318S14811130EA018370186700709000
B0435193308343S14811170EA018430187400909000
B0435243308327S14811230EA018510188401309000
B0435293308278S14811257EA018610189500609000
B0435343308240S14811242EA018660190000609000
B0435393308236S14811217EA018750190900609000
B0435443308261S14811219EA018860191700609000
B0435493308279S14811265EA018930192500609000
B0435543308271S14811323EA019020193400609000
B0435593308233S14811366EA019040193800509000
B0436043308191S14811366EA019110194100509000
B0436093308184S14811339EA019140194800709000
B0436143308209S14811349EA019220195501009000
B0436193308216S14811403EA019300196101109000
B0436243308194S14811462EA019330196800909000
B0436293308160S14811517EA019350197200809000
B0436343308114S14811566EA019330197400509000
B0436393308073S14811614EA019330197300609000
B0436443308028S14811664EA019250196500509000
B0436493307985S14811710EA019150195400609000
B0436543307941S14811759EA019060194300809000
B0436593307902S14811807EA018930193100709000
B0437043307861S14811851EA018770191700809000
B0437093307823S14811897EA018680190501009000
B0437143307784S14811942EA018640189900509000
B0437193307742S14811986EA018560189100509000
B0437243307699S14812031EA018480188300409000
B0437293307661S14812076EA018400187500709000
B0437343307622S14812122EA018330186800609000
B0437393307587S14812170EA018290186200809000
B0437443307556S14812228EA018180185300509000
B0437493307520S14812282EA018040184000609000
B0437543307478S14812329EA017940182700809000
B0437593307442S14812380EA017840181500409000
B0438043307404S14812433EA017720180300409000
B0438093307361S14812485EA017620179300609000
B0438143307314S14812536EA017560178500609000
B0438193307271S14812586EA017570178501109000
B0438243307242S14812647EA017670179100509000
B0438293307203S14812704EA017690179400909000
B0438343307149S14812731EA017710179900509000
B0438393307101S14812737EA017800180700409000
B0438443307070S14812715EA017850181400909000
B0438493307061S14812687EA017950182400609000
B0438543307069S14812664EA017990183000409000
B0438593307098S14812669EA018010183300509000
B0439043307120S14812713EA018030183600509000
B0439093307124S14812771EA018070183800409000
B0439143307113S14812834EA018090184200509000
B0439193307097S14812897EA018160184900409000
B0439243307082S14812965EA018170185100509000
B0439293307050S14813022EA018190185300509000
B0439343307002S14813059EA018150185200409000
B0439393306952S14813085EA018160185000409000
B0439443306904S14813124EA018130184700709000
B0439493306865S14813175EA018100184300709000
B0439543306825S14813230EA018050183800609000
B0439593306782S14813285EA018010183500509000
B0440043306741S14813336EA018020183400709000
B0440093306699S14813386EA017930182800809000
B0440143306657S14813434EA017850182000709000
B0440193306610S14813483EA017720180600609000
B0440243306560S14813531EA017600179200709000
B0440293306510S14813570EA017450177600709000
B0440343306459S14813617EA017270175800709000
B0440393306414S14813668EA017090173700709000
B0440443306366S14813718EA016920171700709000
B0440493306318S14813768EA016770170000509000
B0440543306270S14813818EA016620168400709000
B0440593306224S14813868EA016500167100309000
B0441043306178S14813905EA016390166000409000
B0441093306127S14813942EA016210164200409000
B0441143306077S14813986EA016020162400609000
B0441193306033S14814040EA015880160600509000
B0441243305994S14814094EA015740159000709000
B0441293305953S14814148EA015570157400609000
B0441343305910S14814198EA015450156100709000
B0441393305874S14814257EA015330155000809000
B0441443305843S14814312EA015270154200809000
B0441493305808S14814360EA015130152800809000
B0441543305767S14814403EA015010151500709000
B0441593305733S14814447EA014880150100809000
B0442043305695S14814492EA014810149100509000
B0442093305649S14814539EA014710148200509000
B0442143305604S14814587EA014660147600509000
B0442193305559S14814639EA014600146900409000
B0442243305516S14814687EA014540146200509000
B0442293305465S14814733EA014370145000509000
B0442343305413S14814776EA014320144200609000
B0442393305360S14814807EA014200142900409000
B0442443305304S14814835EA014090141700409000
B0442493305249S14814860EA013980140300409000
B0442543305187S14814886EA013820138800409000
B0442593305129S14814912EA013750137600509000
B0443043305077S14814942EA013700137000509000
B0443093305017S14814969EA013550135800509000
B0443143304959S14814997EA013490135000509000
B0443193304904S14815027EA013370133800409000
B0443243304844S14815050EA013220132200609000
B0443293304794S14815081EA013290132100709000
B0443343304749S14815111EA013260131900509000
B0443393304706S14815132EA013220131700709000
B0443443304656S14815158EA013080131300609000
B0443493304617S14815178EA013090131000509000
B0443543304574S14815188EA013060130700409000
B0443593304531S14815177EA012980130200409000
B0444043304501S14815154EA012970129700509000
B0444093304477S14815121EA012890129300509000
B0444143304467S14815083EA012760128400609000
B0444193304467S14815044EA012850128300609000
B0444243304478S14815013EA012910128500509000
B0444293304502S14815016EA012940128800809000
B0444343304509S14815055EA013000129300609000
B0444393304472S14815088EA013010129601009000
B0444443304428S14815072EA013080130100709000
B0444493304418S14815037EA013140131000909000
B0444543304436S14815022EA013190131500609000
B0444593304457S14815041EA013220131700709000
B0445043304461S14815086EA013200131800609000
B0445093304451S14815136EA013170131700609000
B0445143304422S14815186EA013110131400809000
B0445193304381S14815217EA013150131400609000
B0445243304337S14815214EA013120131100409000
B0445293304302S14815186EA013070130800509000
B0445343304292S14815149EA013130131000609000
B0445393304311S14815151EA013190131301209000
B0445443304307S14815197EA013210131600709000
B0445493304274S14815231EA013220131800909000
B0445543304231S14815256EA013160131500509000
B0445593304188S14815260EA013100130900409000
B0446043304150S14815241EA013030130200409000
B0446093304118S14815213EA013010130000309000
B0446143304090S14815178EA013050130200509000
B0446193304082S14815141EA013060130300509000
B0446243304104S14815126EA013160130700609000
B0446293304127S14815144EA013260131700809000
B0446343304112S14815188EA013390133001309000
B0446393304062S14815197EA013480134300909000
B0446443304031S14815161EA013570135701109000
B0446493304038S14815131EA013680137100709000
B0446543304055S14815156EA013830138501009000
B0446593304040S14815212EA013910139701009000
B0447043303995S14815236EA013990140700909000
B0447093303962S14815208EA014140141700809000
B0447143303972S14815173EA014180142200609000
B0447193303998S14815167EA014270143100509000
B0447243304015S14815202EA014450144700709000
B0447293303984S14815253EA014560146201309000
B0447343303940S14815242EA014690147700909000
B0447393303934S14815204EA014850149500709000
B0447443303961S14815204EA014960150800809000
B0447493303972S14815245EA015140152400909000
B0447543303941S14815294EA015190153501209000
B0447593303901S14815284EA015320154601009000
B0448043303897S14815247EA015450156100709000
B0448093303918S14815227EA015550157100809000
B0448143303941S14815265EA015700158600609000
B0448193303924S14815317EA015780159500809000
B0448243303880S14815328EA015920160500609000
B0448293303874S14815293EA016040162000909000
B0448343303902S14815297EA016200163600909000
B0448393303917S14815339EA016310164900709000
B0448443303883S14815380EA016380165900809000
B0448493303846S14815372EA016560167400609000
B0448543303849S14815339EA016690169000909000
B0448593303879S14815346EA016780170001009000
B0449043303886S14815399EA016840170700909000
B0449093303842S14815422EA016930171500909000
B0449143303819S14815393EA017080172801409000
B0449193303840S14815378EA017170174000809000
B0449243303869S14815416EA017230174800609000
B0449293303875S14815470EA017330175900509000
B0449343303850S14815515EA017390176601009000
B0449393303807S14815516EA017380176600709000
B0449443303787S14815490EA017550177400709000
B0449493303801S14815465EA017620178100609000
B0449543303834S14815488EA017690179001109000
B0449593303844S14815543EA017780179800609000
B0450043303818S14815585EA017800180400709000
B0450093303778S14815580EA017820180800609000
B0450143303760S14815552EA017930181700609000
B0450193303767S14815522EA017990182300809000
B0450243303805S14815528EA017990182700709000
B0450293303833S14815570EA018060183200609000
B0450343303833S14815622EA018130183900709000
B0450393303797S14815653EA018130184100609000
B0450443303758S14815639EA018140184200609000
B0450493303737S14815613EA018240184700509000
B0450543303730S14815580EA018240185100809000
F0450590205061219242529
B0450593303757S14815558EA018220185000908000
F045104020506121920242529
B0451043303793S14815558EA018210185000609000
B0451093303819S14815601EA018210184900409000
B0451143303818S14815655EA018220185000409000
B0451193303802S14815705EA018230185000709000
B0451243303785S14815761EA018210185000609000
B0451293303768S14815814EA018240185100309000
B0451343303743S14815864EA018200184800709000
B0451393303707S14815902EA018210184700509000
B0451443303660S14815911EA018160184500409000
B0451493303633S14815884EA018150184100609000
B0451543303644S14815852EA018070183500709000
B0451593303676S14815861EA018000182901009000
B0452043303707S14815891EA018040182900709000
B0452093303725S14815931EA018040183000409000
B0452143303725S14815982EA018020182800509000
B0452193303711S14816036EA017900182000509000
B0452243303687S14816088EA017760180400809000
B0452293303666S14816132EA017550178300509000
B0452343303648S14816190EA017220175300509000
B0452393303628S14816246EA016970172100509000
B0452443303613S14816306EA016790169600709000
B0452493303592S14816360EA016570167200509000
B0452543303558S14816406EA016370164800809000
B0452593303519S14816443EA016130162500709000
B0453043303481S14816483EA015890160100609000
B0453093303442S14816526EA015720158100709000
B0453143303404S14816565EA015550156300609000
B0453193303362S14816605EA015410154800709000
B0453243303325S14816647EA015290153600709000
B0453293303290S14816695EA015240152900509000
B0453343303254S14816743EA015150152100509000
B0453393303213S14816794EA015010151000609000
B0453443303173S14816847EA014980150500809000
B0453493303136S14816901EA014850149500909000
B0453543303100S14816951EA014820149100809000
B0453593303069S14817006EA014710148300809000
B0454043303028S14817051EA014680147800609000
B0454093302985S14817103EA014530146500609000
B0454143302947S14817162EA014340144400409000
B0454193302919S14817231EA014140142200709000
B0454243302890S14817284EA014130141400709000
B0454293302856S14817339EA013970139900909000
B0454343302820S14817394EA013850138800609000
B0454393302783S14817447EA013730137500609000
B0454443302745S14817493EA013620136300709000
B0454493302703S14817543EA013460134700609000
B0454543302661S14817590EA013440134001009000
B0454593302621S14817637EA013400133400609000
B0455043302577S14817687EA013400133400609000
B0455093302533S14817736EA013420133600709000
B0455143302491S14817790EA013300133201209000
B0455193302449S14817843EA013160131800609000
B0455243302407S14817899EA013000130200609000
B0455293302367S14817955EA012890128700609000
B0455343302335S14818023EA012740127200409000
B0455393302308S14818087EA012660126200409000
B0455443302280S14818152EA012500124800409000
B0455493302253S14818215EA012390123300409000
B0455543302222S14818278EA012300122200409000
B0455593302188S14818342EA012150120800509000
B0456043302156S14818406EA012070119700609000
B0456093302125S14818471EA011930118400409000
B0456143302093S14818536EA011810117000609000
B0456193302059S14818601EA011660115300709000
B0456243302026S14818666EA011560114000609000
B0456293301990S14818730EA011390112700709000
B0456343301959S14818789EA011320111400609000
B0456393301938S14818854EA011170110000409000
B0456443301912S14818925EA011010108400409000
B0456493301888S14818994EA010930107200509000
B0456543301857S14819064EA010800106000709000
B0456593301828S14819133EA010730105100409000
B0457043301796S14819197EA010660104200609000
B0457093301767S14819263EA010580103500609000
B0457143301740S14819321EA010500102600609000
B0457193301726S14819383EA010410101700409000
B0457243301728S14819441EA010290100800409000
F0457290205061219202425
B0457293301728S14819495EA010190099900408000
F045734020506121920242529
B0457343301725S14819555EA010120099100409000
B0457393301726S14819617EA010110098700409000
B0457443301730S14819674EA010140098900409000
B0457493301745S14819718EA010220099300409000
B0457543301766S14819758EA010240099800609000
B0457593301753S14819814EA010190099600609000
B0458043301707S14819827EA010090098600809000
B0458093301683S14819793EA010040098000909000
B0458143301667S14819767EA010130098300509000
B0458193301669S14819741EA010120098400509000
B0458243301692S14819751EA010120098500809000
B0458293301691S14819800EA010120098601109000
B0458343301648S14819813EA010100098400909000
B0458393301628S14819781EA010090098601109000
B0458443301611S14819752EA010110098600509000
B0458493301600S14819725EA010110098500409000
B0458543301613S14819707EA010070098300409000
B0458593301640S14819706EA010070098300409000
B0459043301667S14819699EA010070098200409000
B0459093301691S14819691EA010120098400409000
B0459143301711S14819718EA010140098701009000
B0459193301682S14819765EA010160098900909000
F0459240205121920242529
B0459243301640S14819753EA010210099400808000
F045929020506121920242529
B0459293301637S14819717EA010210099500609000
B0459343301654S14819694EA010220099500509000
B0459393301679S14819703EA010250099800509000
B0459443301683S14819750EA010280100101109000
B0459493301638S14819771EA010300100400809000
B0459543301610S14819744EA010320100700509000
F04595902050612192024252931
B0459593301600S14819711EA010300100900510000
B0500043301608S14819687EA010290100800510000
B0500093301633S14819687EA010280100700410000
B0500143301652S14819726EA010250100200510000
B0500193301654S14819781EA010260100100510000
B0500243301638S14819837EA010280100000510000
B0500293301594S14819850EA010300100200910000
B0500343301587S14819818EA010330100500910000
B0500393301614S14819825EA010390101200610000
B0500443301620S14819876EA010400101400710000
B0500493301580S14819893EA010400101600810000
B0500543301558S14819860EA010430102001210000
B0500593301575S14819843EA010460102300610000
B0501043301603S14819862EA010440102300810000
B0501093301628S14819897EA010460102400610000
B0501143301624S14819945EA010490102400610000
B0501193301583S14819973EA010450102300510000
B0501243301538S14819971EA010420102100510000
B0501293301495S14819952EA010450102100510000
B0501343301478S14819919EA010510102500710000
B0501393301499S14819916EA010490102500810000
B0501443301509S14819964EA010480102700510000
B0501493301485S14820017EA010520102700510000
B0501543301440S14820031EA010530103000710000
B0501593301424S14819998EA010580103600710000
B0502043301442S14819992EA010600103600710000
B0502093301452S14820037EA010580103900410000
B0502143301427S14820088EA010600103900310000
B0502193301386S14820126EA010660104300610000
B0502243301339S14820133EA010730105000310000
B0502293301305S14820110EA010790105600410000
F050234020506121920252931
B0502343301305S14820080EA010790105900909000
F05023902050612192024252931
B0502393301327S14820087EA010770105801110000
B0502443301322S14820142EA010770105700710000
B0502493301286S14820189EA010850106000510000
B0502543301241S14820203EA010940106700610000
B0502593301222S14820171EA010980107500910000
B0503043301247S14820173EA010970107700910000
B0503093301262S14820216EA011060108600510000
B0503143301266S14820264EA011130109200410000
B0503193301243S14820314EA011100109400610000
B0503243301202S14820311EA011070109100710000
B0503293301185S14820276EA011180109900710000
B0503343301211S14820284EA011270110500910000
B0503393301205S14820336EA011370111400610000
B0503443301165S14820373EA011320111600810000
B0503493301123S14820390EA011320111600610000
B0503543301083S14820371EA011370111900510000
B0503593301082S14820339EA011450112600710000
F050404020506122024252931
B0504043301107S14820357EA011500113000909000
B0504093301110S14820408EA011630114000609000
B0504143301093S14820457EA011630114300609000
B0504193301053S14820482EA011630114700509000
B0504243301010S14820467EA011660115000609000
B0504293300992S14820432EA011740115601109000
B0504343301014S14820429EA011820116200809000
B0504393301018S14820476EA011920117100809000
B0504443300980S14820506EA011950117700809000
B0504493300936S14820493EA011990118300909000
F0504540205061220252931
B0504543300924S14820453EA012040118800908000
F050459020506122024252931
B0504593300950S14820457EA012050118900809000
B0505043300974S14820487EA012130119300709000
B0505093300979S14820536EA012190120000509000
B0505143300954S14820580EA012170120400609000
B0505193300910S14820599EA012250121100709000
B0505243300876S14820577EA012340122101009000
B0505293300881S14820549EA012420122800609000
B0505343300906S14820566EA012460123200709000
B0505393300917S14820607EA012470123500609000
B0505443300911S14820657EA012440123400609000
B0505493300875S14820698EA012310122600609000
B0505543300830S14820716EA012380122300509000
B0505593300787S14820712EA012500123200609000
B0506043300766S14820684EA012590124400909000
B0506093300772S14820658EA012660125400409000
B0506143300788S14820651EA012740126100409000
B0506193300802S14820691EA012750126400809000
B0506243300791S14820744EA012780126700409000
B0506293300750S14820775EA012830127100609000
B0506343300708S14820766EA012940128000709000
B0506393300693S14820733EA013010129201009000
B0506443300709S14820722EA013090130000809000
B0506493300726S14820753EA013160130800809000
B0506543300708S14820804EA013160131100609000
B0506593300663S14820834EA013220131700509000
B0507043300612S14820846EA013370132700409000
B0507093300576S14820829EA013470134100609000
B0507143300572S14820800EA013500134600609000
B0507193300593S14820808EA013530134800809000
B0507243300600S14820854EA013630135500609000
B0507293300567S14820902EA013680136200609000
B0507343300524S14820899EA013790137500809000
B0507393300512S14820873EA013860138300809000
B0507443300535S14820883EA013900139001009000
B0507493300557S14820922EA013930139200809000
B0507543300549S14820975EA014090140000909000
B0507593300501S14820992EA014120140500909000
B0508043300476S14820958EA014210141701309000
B0508093300490S14820937EA014280142600809000
B0508143300509S14820964EA014390143700609000
B0508193300492S14821015EA014470144600809000
B0508243300442S14821025EA014460144700709000
B0508293300411S14820998EA014590146000909000
B0508343300414S14820964EA014690146900809000
B0508393300440S14820984EA014790147900909000
B0508443300441S14821037EA014900149200609000
B0508493300406S14821080EA014930149800509000
B0508543300356S14821098EA015030150800609000
B0508593300306S14821102EA015110151700509000
B0509043300257S14821095EA015140152300409000
B0509093300228S14821065EA015120152401109000
B0509143300233S14821037EA015110152100609000
B0509193300251S14821015EA015090152000409000
B0509243300265S14820991EA015090151900509000
B0509293300289S14821000EA015040151500709000
B0509343300314S14821032EA015110151700709000
B0509393300320S14821078EA015190152400609000
B0509443300303S14821132EA015200152700609000
B0509493300252S14821165EA015140152600609000
B0509543300201S14821162EA015210152900609000
B0509593300168S14821130EA015300153701009000
B0510043300168S14821098EA015360154200509000
F0510090205122024252931
B0510093300193S14821102EA015410154800908000
F051014020506122024252931
B0510143300213S14821133EA015510155600609000
B0510193300210S14821184EA015540156100509000
B0510243300175S14821230EA015500156100909000
B0510293300138S14821277EA015490156000409000
B0510343300118S14821333EA015550156300409000
B0510393300081S14821364EA015570156600809000
B0510443300039S14821343EA015640157100809000
B0510493300032S14821307EA015580157100809000
B0510543300050S14821282EA015580157200409000
B0510593300073S14821285EA015660157300609000
B0511043300089S14821320EA015670157600409000
B0511093300085S14821369EA015670157800409000
B0511143300053S14821409EA015660157700409000
B0511193300008S14821415EA015660157700509000
B0511243259977S14821388EA015660157800909000
B0511293259981S14821358EA015690157900609000
B0511343300005S14821363EA015700158100609000
B0511393300015S14821404EA015700158200409000
B0511443300004S14821452EA015710158300409000
B0511493259968S14821492EA015670157900609000
B0511543259923S14821508EA015670157800409000
B0511593259875S14821500EA015600157300509000
B0512043259826S14821506EA015610157100409000
B0512093259781S14821542EA015540156700509000
B0512143259751S14821595EA015540156600509000
B0512193259727S14821648EA015570156800409000
B0512243259705S14821703EA015560156700309000
B0512293259659S14821739EA015500156300409000
B0512343259606S14821759EA015520156300509000
B0512393259559S14821763EA015520156300509000
B0512443259524S14821737EA015500156100809000
B0512493259511S14821703EA015440155600709000
B0512543259509S14821669EA015380155000409000
B0512593259523S14821649EA015290154500509000
B0513043259544S14821671EA015180153100609000
B0513093259543S14821723EA015120152000509000
B0513143259518S14821777EA015080151600409000
B0513193259486S14821825EA015110151500409000
B0513243259450S14821869EA015040151000509000
B0513293259418S14821911EA015000150500309000
F0513340205061220242529
B0513343259394S14821965EA014900149800508000
F051339020506122024252931
B0513393259361S14822021EA014800148900409000
B0513443259318S14822068EA014780148100509000
B0513493259283S14822112EA014730147600409000
B0513543259249S14822155EA014670147000409000
B0513593259205S14822189EA014530146000509000
B0514043259175S14822234EA014440145100409000
B0514093259158S14822284EA014370144400309000
B0514143259135S14822337EA014220143100409000
B0514193259100S14822380EA014110141900409000
B0514243259069S14822431EA014000140700409000
B0514293259039S14822479EA013870139300509000
B0514343259001S14822520EA013780137900409000
B0514393258956S14822557EA013660136600409000
B0514443258910S14822589EA013600135700509000
B0514493258868S14822628EA013510134700509000
B0514543258826S14822668EA013410133700409000
B0514593258793S14822714EA013360133000509000
B0515043258758S14822768EA013220131900409000
B0515093258725S14822821EA013190131500409000
B0515143258694S14822879EA013120130800409000
B0515193258663S14822933EA013100130400409000
B0515243258630S14822985EA013080130100409000
B0515293258595S14823039EA013000129600409000
B0515343258560S14823088EA012970129200409000
B0515393258524S14823143EA012860128300409000
B0515443258488S14823200EA012810127400409000
B0515493258445S14823264EA012620126100409000
B0515543258407S14823325EA012550124900309000
B0515593258369S14823385EA012440123600409000
B0516043258330S14823447EA012350122500309000
B0516093258290S14823507EA012270121500409000
B0516143258248S14823566EA012190120600309000
B0516193258207S14823626EA012090119600409000
B0516243258166S14823682EA012030118800309000
B0516293258121S14823740EA011880117700309000
B0516343258078S14823794EA011820116700309000
B0516393258032S14823851EA011690115600609000
B0516443257988S14823908EA011610114600309000
B0516493257950S14823974EA011520113700309000
B0516543257922S14824042EA011450112800309000
B0516593257904S14824111EA011350111800309000
B0517043257885S14824183EA011240110700409000
B0517093257870S14824242EA011340110400409000
B0517143257855S14824294EA011460111200709000
B0517193257813S14824303EA011530112101109000
B0517243257799S14824267EA011620113401009000
B0517293257821S14824270EA011700114500709000
B0517343257834S14824320EA011750115700609000
B0517393257825S14824380EA011840116500509000
B0517443257784S14824403EA011890117200909000
B0517493257769S14824369EA011940117900909000
B0517543257793S14824381EA012060118600809000
B0517593257803S14824436EA012120119600509000
B0518043257767S14824477EA012180120301009000
B0518093257744S14824450EA012240120901009000
B0518143257766S14824447EA012340121800909000
B0518193257782S14824489EA012340122200709000
B0518243257767S14824551EA012330122200909000
B0518293257716S14824571EA012380122400609000
B0518343257687S14824545EA012390122600909000
B0518393257685S14824516EA012440123000709000
B0518443257708S14824519EA012480123200609000
B0518493257734S14824546EA012470123300409000
B0518543257754S14824589EA012410123200509000
B0518593257740S14824646EA012370122900709000
B0519043257696S14824678EA012440123000609000
B0519093257645S14824685EA012430122900509000
B0519143257603S14824680EA012440122900609000
B0519193257586S14824652EA012410123000609000
B0519243257599S14824637EA012470123100609000
B0519293257618S14824671EA012510123300809000
B0519343257599S14824728EA012470123400809000
B0519393257546S14824742EA012480123400809000
B0519443257503S14824731EA012470123300609000
B0519493257472S14824697EA012490123600509000
B0519543257462S14824663EA012520123900409000
B0519593257472S14824644EA012610124500409000
B0520043257490S14824680EA012520124500709000
B0520093257458S14824731EA012490124101009000
B0520143257413S14824727EA012620124800609000
B0520193257406S14824697EA012740125600909000
B0520243257430S14824731EA012640125601309000
B0520293257410S14824793EA012590125101109000
B0520343257364S14824819EA012670125400509000
B0520393257320S14824806EA012670125500809000
B0520443257308S14824778EA012790126400709000
B0520493257324S14824772EA012820126700709000
B0520543257351S14824791EA012800126700609000
B0520593257372S14824829EA012760126500409000
B0521043257365S14824892EA012650126000609000
B0521093257321S14824926EA012620125401009000
B0521143257283S14824911EA012620125200509000
B0521193257261S14824883EA012640125300509000
B0521243257266S14824864EA012660125300609000
B0521293257290S14824889EA012600125100509000
B0521343257305S14824936EA012510124300509000
B0521393257294S14825000EA012430123500509000
B0521443257258S14825055EA012360122500609000
B0521493257208S14825088EA012330121900509000
B0521543257155S14825103EA012310121700509000
B0521593257101S14825107EA012340121600509000
B0522043257048S14825107EA012380121900409000
B0522093256993S14825107EA012410122300509000
B0522143256955S14825091EA012540123200509000
B0522193256950S14825065EA012570123900809000
B0522243256970S14825095EA012690124800809000
B0522293256953S14825154EA012800125800809000
B0522343256907S14825189EA012910127300509000
B0522393256866S14825179EA012990128501009000
B0522443256867S14825153EA013010129100809000
B0522493256888S14825194EA013110130000709000
F0522540205061220252931
B0522543256861S14825250EA013170130801308000
F052259020506122024252931
B0522593256813S14825258EA013250131400709000
B0523043256788S14825234EA013250131801009000
B0523093256786S14825209EA013300132200509000
B0523143256799S14825198EA013400132600409000
B0523193256819S14825226EA013500133600609000
B0523243256801S14825281EA013550134401209000
B0523293256753S14825285EA013650135400909000
B0523343256742S14825259EA013790136900609000
B0523393256760S14825257EA013900138300509000
B0523443256769S14825304EA013880138700809000
B0523493256742S14825363EA013960139400709000
B0523543256691S14825383EA013980139700909000
B0523593256653S14825359EA014080140500709000
B0524043256649S14825338EA014160141300609000
B0524093256668S14825343EA014230141900609000
B0524143256678S14825391EA014200142000409000
B0524193256655S14825448EA014260142200609000
B0524243256604S14825478EA014330142800609000
B0524293256568S14825462EA014410143701109000
B0524343256576S14825449EA014480144400709000
B0524393256599S14825477EA014540145000609000
B0524443256597S14825539EA014550145400609000
B0524493256548S14825577EA014550145601009000
B0524543256508S14825560EA014650146200709000
B0524593256508S14825536EA014690146600609000
B0525043256530S14825556EA014690146700809000
B0525093256535S14825616EA014700146900409000
F0525140205061220242529
B0525143256519S14825677EA014760147300608000
F052519020506122024252931
B0525193256477S14825721EA014730147400609000
B0525243256424S14825728EA014710147300509000
B0525293256385S14825714EA014750147600609000
B0525343256350S14825699EA014730147500609000
B0525393256301S14825694EA014700147400509000
B0525443256280S14825672EA014610146800509000
B0525493256282S14825651EA014600146300509000
B0525543256305S14825645EA014510146000509000
B0525593256328S14825644EA014500145700409000
B0526043256355S14825655EA014480145300709000
B0526093256380S14825702EA014470145000509000
B0526143256391S14825752EA014520145200509000
B0526193256368S14825811EA014560145600709000
B0526243256324S14825851EA014610146000409000
B0526293256275S14825868EA014580145900509000
B0526343256231S14825853EA014550145800509000
B0526393256209S14825829EA014570145700709000
B0526443256205S14825804EA014620146100409000
B0526493256210S14825788EA014640146300409000
B0526543256226S14825779EA014590146100409000
B0526593256253S14825779EA014570146100409000
B0527043256279S14825769EA014580146000409000
B0527093256296S14825743EA014640146200309000
B0527143256327S14825738EA014640146300409000
B0527193256353S14825773EA014580146100509000
B0527243256357S14825835EA014480145400509000
B0527293256335S14825896EA014390144300409000
B0527343256303S14825950EA014270143200509000
B0527393256249S14825976EA014240142600509000
B0527443256197S14826007EA014240142200609000
B0527493256154S14826056EA014230142000509000
B0527543256110S14826111EA014190141700509000
F05275902050612202124252931
B0527593256063S14826156EA014170141400310000
B0528043256013S14826200EA014180141400310000
B0528093255964S14826246EA014110141100310000
B0528143255917S14826292EA014070140700310000
B0528193255873S14826337EA013970139900310000
B0528243255829S14826386EA013860138900310000
B0528293255784S14826436EA013780137900310000
B0528343255737S14826489EA013630136600310000
B0528393255693S14826538EA013540135400310000
B0528443255650S14826585EA013440134200310000
B0528493255602S14826627EA013360133200310000
B0528543255552S14826663EA013310132400310000
B0528593255503S14826700EA013240131800310000
B0529043255461S14826730EA013200131200310000
B0529093255408S14826761EA013080130600310000
B0529143255359S14826796EA013030129800310000
B0529193255312S14826835EA012970129100310000
B0529243255268S14826886EA012840128200310000
B0529293255240S14826946EA012830127600310000
F052934020506122021242529
B0529343255224S14827007EA012760126900309000
F05293902050612202124252931
B0529393255207S14827067EA012710126100310000
B0529443255192S14827132EA012570125100410000
B0529493255185S14827205EA012390123800410000
B0529543255187S14827267EA012370122800410000
B0529593255190S14827328EA012260121800310000
B0530043255194S14827390EA012100120500410000
B0530093255193S14827449EA012090120000410000
B0530143255192S14827499EA012090119600310000
B0530193255198S14827558EA011960118800410000
B0530243255209S14827608EA011910117900410000
B0530293255213S14827654EA011970117800410000
B0530343255185S14827694EA011930117600610000
B0530393255139S14827680EA011840117000610000
B0530443255134S14827655EA011840116700510000
B0530493255159S14827671EA011790116400510000
B0530543255174S14827710EA011820116400410000
B0530593255192S14827749EA011720115900310000
B0531043255211S14827790EA011630115000410000
B0531093255224S14827840EA011610114500410000
B0531143255247S14827876EA011540114000410000
B0531193255269S14827900EA011530113700410000
B0531243255280S14827952EA011390112800510000
B0531293255269S14828014EA011200111300510000
B0531343255259S14828070EA011120110000410000
B0531393255265S14828121EA011000108400410000
B0531443255273S14828170EA010900106900310000
B0531493255258S14828225EA010860106000310000
B0531543255222S14828269EA010800105400310000
B0531593255179S14828307EA010720104600310000
B0532043255127S14828335EA010650103900410000
B0532093255075S14828355EA010780103900510000
B0532143255034S14828337EA010760104100610000
F053219020506122024252931
B0532193255041S14828318EA010690104101009000
F05322402050612202124252931
B0532243255061S14828354EA010680104200610000
B0532293255074S14828398EA010800104700510000
B0532343255051S14828448EA010820105200710000
B0532393255004S14828450EA010840105400910000
B0532443255000S14828412EA010960106400710000
F053249020506122024252931
B0532493255023S14828412EA011090107500709000
F05325402050612202124252931
B0532543255020S14828458EA011130108500710000
B0532593254971S14828487EA011180109300710000
B0533043254919S14828488EA011210110000510000
B0533093254893S14828457EA011320110900610000
F053314020506122021252931
B0533143254912S14828440EA011240110601209000
F05331902050612202124252931
B0533193254938S14828451EA011220110300410000
F053324020512202124252931
B0533243254951S14828488EA011190110000409000
B0533293254941S14828542EA011190110000309000
B0533343254913S14828599EA011180110000309000
B0533393254882S14828651EA011280110300309000
B0533443254838S14828672EA011310110601209000
B0533493254816S14828637EA011420111300809000
B0533543254834S14828648EA011550112300609000
B0533593254825S14828699EA011590113200709000
B0534043254779S14828726EA011680114200909000
B0534093254732S14828704EA011720114800509000
B0534143254720S14828674EA011790115500809000
B0534193254744S14828673EA011900116500609000
B0534243254751S14828714EA011920117000609000
B0534293254714S14828758EA011990117701109000
B0534343254668S14828744EA012040118400809000
B0534393254663S14828720EA012130119300509000
B0534443254682S14828731EA012130119400609000
B0534493254686S14828786EA012160119800509000
B0534543254651S14828828EA012240120600809000
B0534593254605S14828825EA012320121400709000
B0535043254593S14828794EA012390122500509000
F0535090205122021252931
B0535093254610S14828791EA012430122700508000
F053514020512202124252931
B0535143254628S14828823EA012430123000509000
B0535193254619S14828877EA012500123600409000
B0535243254578S14828917EA012580124500609000
B0535293254534S14828906EA012680125600609000
B0535343254525S14828878EA012760126400509000
B0535393254542S14828872EA012800127000409000
B0535443254562S14828908EA012820127300709000
B0535493254562S14828960EA012880127800409000
B0535543254528S14829008EA012920128300609000
B0535593254478S14829010EA013040129300909000
B0536043254464S14828979EA013110129900709000
B0536093254486S14828991EA013140130300709000
B0536143254484S14829044EA013210131000609000
F0536190205122021242531
B0536193254464S14829094EA013330131700408000
F053624020512202124252931
B0536243254434S14829149EA013370132300609000
B0536293254384S14829165EA013440133400809000
B0536343254364S14829134EA013520134100709000
B0536393254385S14829139EA013630134900609000
B0536443254392S14829188EA013750136100709000
B0536493254346S14829226EA013770137100909000
B0536543254310S14829209EA013860137901109000
B0536593254310S14829183EA013950139100509000
B0537043254334S14829189EA014010139900409000
B0537093254348S14829233EA014070140500509000
B0537143254327S14829288EA014080140900609000
B0537193254284S14829299EA014140141300809000
B0537243254262S14829272EA014210141700809000
B0537293254282S14829272EA014270142000609000
B0537343254299S14829310EA014320142500509000
B0537393254296S14829364EA014340143000509000
B0537443254258S14829401EA014350143300709000
B0537493254211S14829407EA014430143900609000
B0537543254180S14829383EA014460144400509000
B0537593254187S14829363EA014540145000509000
B0538043254210S14829387EA014520145100509000
B0538093254201S14829441EA014530145200409000
B0538143254164S14829484EA014560145500509000
B0538193254116S14829504EA014540145400509000
B0538243254062S14829522EA014530145400509000
B0538293254006S14829528EA014630145800609000
B0538343253969S14829504EA014620146000609000
B0538393253964S14829473EA014620146300309000
B0538443253979S14829466EA014640146300409000
B0538493253998S14829502EA014620146400609000
B0538543253996S14829555EA014700146700509000
B0538593253972S14829609EA014770147300509000
B0539043253924S14829628EA014840148000709000
B0539093253889S14829605EA014860148300509000
B0539143253888S14829579EA014910148900709000
B0539193253910S14829597EA014960149200509000
F0539240205122021252931
B0539243253914S14829646EA014980149700608000
B0539293253896S14829699EA015080150600508000
B0539343253868S14829747EA015180151600408000
B0539393253822S14829782EA015210152100508000
B0539443253781S14829770EA015190152300808000
B0539493253776S14829738EA015190152400708000
B0539543253799S14829738EA015140152100708000
B0539593253813S14829780EA015210152500608000
B0540043253786S14829832EA015300153200908000
B0540093253739S14829829EA015390154001308000
B0540143253727S14829795EA015390154300608000
B0540193253745S14829782EA015400154400608000
B0540243253766S14829809EA015430154600608000
B0540293253764S14829862EA015490155200608000
B0540343253729S14829912EA015530155800908000
B0540393253676S14829916EA015600156600808000
B0540443253651S14829887EA015680157300608000
B0540493253664S14829875EA015710157500508000
B0540543253682S14829907EA015780157800708000
B0540593253678S14829959EA015860158800508000
B0541043253646S14830011EA015940159900508000
B0541093253594S14830033EA016010160801208000
B0541143253556S14830009EA016050161300708000
B0541193253562S14829987EA016050161300708000
B0541243253581S14830004EA016100161700508000
B0541293253577S14830055EA016150162400508000
B0541343253543S14830107EA016190163100508000
B0541393253497S14830145EA016260163700708000
B0541443253445S14830157EA016260163900608000
B0541493253417S14830130EA016260163700608000
B0541543253423S14830112EA016300163700608000
B0541593253443S14830126EA016310163800508000
B0542043253451S14830167EA016370164300608000
F05420902051220212529
B0542093253446S14830222EA016410164900707000
F0542140205122021252931
B0542143253422S14830277EA016440165300508000
B0542193253378S14830315EA016470165800808000
B0542243253327S14830323EA016480166100708000
B0542293253290S14830300EA016500166300508000
B0542343253293S14830277EA016470166200908000
B0542393253312S14830294EA016480166000608000
B0542443253304S14830348EA016470166000608000
B0542493253266S14830398EA016480166200508000
B0542543253222S14830434EA016510166300408000
B0542593253173S14830458EA016510166300708000
B0543043253117S14830474EA016480166100708000
B0543093253068S14830505EA016460165900508000
B0543143253031S14830556EA016430165600308000
B0543193252997S14830606EA016400165300308000
B0543243252955S14830653EA016290164700408000
B0543293252911S14830695EA016250164200408000
B0543343252869S14830743EA016140163300508000
B0543393252838S14830798EA016100162500308000
B0543443252807S14830846EA016030161800408000
B0543493252770S14830897EA015890160600308000
B0543543252738S14830953EA015760159400408000
B0543593252704S14831007EA015660158200308000
B0544043252665S14831055EA015550157000308000
B0544093252623S14831099EA015440155700308000
B0544143252578S14831141EA015320154300308000
B0544193252532S14831184EA015210153000308000
B0544243252491S14831226EA015140152000308000
B0544293252450S14831274EA015010150800508000
B0544343252408S14831323EA014880149400408000
B0544393252369S14831378EA014790148100308000
B0544443252333S14831435EA014730147200408000
B0544493252299S14831490EA014740146900408000
B0544543252271S14831554EA014780147100408000
B0544593252241S14831615EA014870148100408000
B0545043252202S14831638EA014940149001508000
B0545093252180S14831614EA014980149501008000
B0545143252196S14831598EA015040149900608000
B0545193252225S14831624EA015050150100508000
B0545243252235S14831683EA015090150800608000
B0545293252211S14831738EA015130151200908000
B0545343252170S14831751EA015160151601408000
B0545393252163S14831722EA015180151900708000
B0545443252189S14831721EA015130151700808000
B0545493252221S14831743EA015180151800708000
B0545543252248S14831768EA015140151600508000
B0545593252263S14831819EA015040151200708000
B0546043252255S14831878EA015020151000408000
B0546093252227S14831935EA015020150800508000
B0546143252186S14831976EA015020150500608000
B0546193252142S14831991EA015000150000908000
B0546243252098S14831985EA014980149800608000
B0546293252054S14831980EA014990149900608000
B0546343252013S14831974EA014980149800508000
B0546393251979S14831958EA014970149700508000
B0546443251960S14831931EA014990149800408000
B0546493251968S14831905EA014960149801008000
B0546543251992S14831904EA014990149900708000
B0546593252013S14831941EA014990149900508000
B0547043252007S14832000EA014970150000508000
B0547093251973S14832047EA015000150200808000
B0547143251927S14832072EA014960149900508000
B0547193251883S14832075EA014920149700908000
B0547243251845S14832063EA014940149500508000
B0547293251811S14832046EA014890149300508000
B0547343251798S14832015EA014830148900408000
B0547393251812S14831999EA014800148600508000
B0547443251837S14832012EA014750148000608000
B0547493251851S14832063EA014730147600508000
B0547543251851S14832119EA014750147500508000
B0547593251828S14832174EA014760147600508000
B0548043251786S14832219EA014730147400708000
B0548093251743S14832255EA014710147100608000
B0548143251696S14832277EA014710146900708000
B0548193251649S14832288EA014700146700708000
B0548243251602S14832295EA014700146700608000
B0548293251554S14832309EA014690146600608000
B0548343251509S14832341EA014660146500408000
B0548393251475S14832388EA014660146500308000
B0548443251453S14832446EA014640146400208000
B0548493251429S14832502EA014620146200308000
B0548543251399S14832558EA014550145700308000
B0548593251364S14832619EA014470144900308000
B0549043251320S14832675EA014390144100408000
B0549093251273S14832724EA014310143100408000
B0549143251233S14832767EA014230142300408000
B0549193251185S14832816EA014060141100308000
B0549243251141S14832870EA013970139900408000
B0549293251096S14832924EA013840138600308000
B0549343251051S14832979EA013730137300308000
B0549393251008S14833039EA013600135900408000
B0549443250964S14833086EA013540134700408000
B0549493250917S14833142EA013340133200408000
B0549543250875S14833193EA013300132000508000
B0549593250835S14833247EA013200130800408000
B0550043250795S14833302EA013090129700408000
B0550093250757S14833355EA012970128400508000
B0550143250716S14833404EA013000128000608000
B0550193250684S14833444EA013100128800608000
B0550243250643S14833450EA013070128901508000
B0550293250626S14833419EA013110129200708000
B0550343250636S14833386EA013020129100808000
B0550393250654S14833388EA012980128700608000
B0550443250675S14833422EA012920128300608000
B0550493250693S14833458EA012910128100708000
B0550543250716S14833481EA012950128100508000
B0550593250736S14833512EA012950128100408000
B0551043250729S14833565EA012990128400608000
B0551093250692S14833604EA013070129201108000
B0551143250664S14833577EA013120129701208000
B0551193250682S14833563EA013190130201408000
B0551243250700S14833596EA013240130700808000
B0551293250680S14833639EA013360131800808000
B0551343250639S14833633EA013480132900908000
B0551393250643S14833599EA013540133901208000
B0551443250670S14833606EA013530134100608000
B0551493250696S14833631EA013490134100408000
B0551543250704S14833676EA013390133600608000
B0551593250697S14833741EA013320133100608000
B0552043250685S14833798EA013380133000508000
B0552093250637S14833826EA013390132801608000
B0552143250611S14833794EA013430133000808000
B0552193250626S14833786EA013530133500808000
B0552243250633S14833835EA013600134400708000
B0552293250605S14833880EA013690135401208000
B0552343250559S14833884EA013740136001308000
B0552393250551S14833852EA013780136501108000
B0552443250570S14833859EA013870136900908000
B0552493250574S14833907EA013930137600708000
B0552543250533S14833936EA013960138401408000
B0552593250499S14833918EA014020139101008000
B0553043250503S14833896EA014120140001208000
B0553093250520S14833921EA014200140900708000
B0553143250510S14833973EA014290141800708000
B0553193250464S14833994EA014280142301408000
B0553243250434S14833968EA014310142700908000
B0553293250431S14833939EA014440143400908000
B0553343250442S14833917EA014540144301008000
B0553393250453S14833946EA014590145000808000
B0553443250426S14834001EA014600145501308000
B0553493250381S14834005EA014650146001608000
B0553543250360S14833966EA014720146700708000
B0553593250377S14833967EA014810147700908000
B0554043250371S14834020EA014860148300708000
B0554093250325S14834058EA014890148801408000
B0554143250279S14834036EA014940149201308000
B0554193250253S14834005EA015050150000908000
B0554243250252S14833976EA015090150500708000
B0554293250270S14833981EA015170151000708000
B0554343250285S14834010EA015190151400508000
B0554393250265S14834062EA015160151701108000
B0554443250211S14834074EA015170151801308000
B0554493250192S14834041EA015260152400808000
B0554543250208S14834039EA015310152800708000
B0554593250221S14834066EA015330153200508000
B0555043250226S14834111EA015280153200608000
B0555093250198S14834167EA015240153200708000
B0555143250152S14834190EA015380153600908000
B0555193250118S14834167EA015410154101108000
B0555243250119S14834143EA015480154701308000
B0555293250137S14834156EA015490154900608000
B0555343250151S14834179EA015460154700508000
B0555393250146S14834236EA015420154800508000
B0555443250114S14834280EA015490155300808000
B0555493250073S14834278EA015560155701508000
B0555543250062S14834247EA015650156200908000
B0555593250089S14834246EA015670156801208000
B0556043250112S14834272EA015670157000708000
B0556093250109S14834326EA015690157300608000
B0556143250069S14834358EA015770158001308000
B0556193250044S14834327EA015910158900808000
B0556243250067S14834318EA015950159801308000
B0556293250092S14834334EA015970160200508000
B0556343250095S14834380EA016080160900608000
B0556393250052S14834406EA016120161601608000
B0556443250030S14834373EA016170162100808000
B0556493250041S14834350EA016210162500708000
B0556543250065S14834367EA016270162900908000
B0556593250073S14834414EA016300163300708000
B0557043250051S14834466EA016400164300708000
B0557093250006S14834470EA016430164901008000
B0557143249997S14834436EA016490165600708000
B0557193250017S14834430EA016600166500708000
B0557243250036S14834462EA016620166900508000
B0557293250028S14834513EA016680167500608000
B0557343249986S14834538EA016740168301508000
B0557393249961S14834510EA016810168801108000
B0557443249977S14834494EA016880169601008000
B0557493249996S14834517EA016910169900808000
B0557543249992S14834567EA016970170600708000
B0557593249950S14834605EA017010171301008000
B0558043249913S14834588EA017060172001108000
B0558093249912S14834557EA017090172300808000
B0558143249936S14834564EA017110172400608000
B0558193249937S14834615EA017140172700708000
B0558243249912S14834659EA017220173400908000
B0558293249868S14834673EA017240173801008000
B0558343249833S14834644EA017270174100708000
B0558393249833S14834612EA017270174101208000
B0558443249852S14834633EA017290174200808000
B0558493249832S14834690EA017250174301208000
B0558543249788S14834720EA017280174600708000
B0558593249740S14834741EA017250174600508000
B0559043249701S14834774EA017320174800608000
B0559093249671S14834824EA017340175100608000
B0559143249658S14834878EA017430175700408000
B0559193249662S14834931EA017510176600808000
B0559243249692S14834960EA017590177501108000
B0559293249715S14834943EA017680178300808000
B0559343249699S14834910EA017700178800808000
B0559393249655S14834907EA017720178900708000
B0559443249610S14834925EA017780179500608000
B0559493249565S14834948EA017870180200608000
B0559543249534S14834991EA017980181300608000
B0559593249521S14835045EA018010181900408000
B0600043249526S14835094EA018070182400508000
B0600093249553S14835122EA018140183101208000
B0600143249571S14835100EA018200183700808000
B0600193249567S14835065EA018220184100508000
B0600243249542S14835043EA018310184600508000
B0600293249501S14835038EA018390185300508000
B0600343249458S14835051EA018470186300508000
B0600393249421S14835085EA018520187100408000
B0600443249393S14835137EA018540187500408000
B0600493249368S14835181EA018550187900708000
B0600543249330S14835231EA018450187300508000
B0600593249285S14835276EA018450187000708000
B0601043249239S14835322EA018480187000508000
B0601093249193S14835367EA018480187000608000
B0601143249147S14835411EA018470186900608000
B0601193249099S14835459EA018420186600508000
B0601243249052S14835509EA018390186100408000
B0601293249006S14835566EA018220185100408000
B0601343248962S14835614EA018150184000408000
B0601393248920S14835665EA018080183200408000
B0601443248879S14835716EA018020182300608000
B0601493248841S14835766EA017980181700408000
B0601543248804S14835824EA017890181000608000
B0601593248762S14835878EA017800180000308000
B0602043248717S14835924EA017720179100608000
B0602093248673S14835969EA017650178300508000
B0602143248629S14836016EA017590177600508000
B0602193248588S14836064EA017520177000508000
B0602243248548S14836111EA017450176300308000
B0602293248508S14836157EA017370175500308000
B0602343248463S14836207EA017250174600408000
B0602393248417S14836257EA017240174100508000
B0602443248379S14836310EA017190173400408000
B0602493248345S14836364EA017170173000408000
B0602543248309S14836421EA017090172400608000
B0602593248271S14836477EA017050171700408000
B0603043248233S14836537EA016970171200408000
B0603093248196S14836590EA016950170600608000
B0603143248156S14836636EA016900170100608000
B0603193248116S14836682EA016840169700408000
B0603243248075S14836728EA016830169400308000
B0603293248033S14836779EA016780169200308000
B0603343247997S14836837EA016800169200408000
B0603393247969S14836890EA016810169400408000
B0603443247929S14836931EA016790169300508000
B0603493247885S14836927EA016730169100908000
B0603543247868S14836901EA016730168900708000
B0603593247882S14836887EA016690168600708000
B0604043247907S14836894EA016650168200608000
B0604093247920S14836940EA016580167800508000
B0604143247929S14836989EA016570167300508000
B0604193247932S14837040EA016500166800508000
B0604243247909S14837094EA016390165800808000
B0604293247880S14837141EA016320164800708000
B0604343247847S14837188EA016280164100508000
B0604393247811S14837227EA016260163600408000
B0604443247764S14837256EA016160162800608000
B0604493247716S14837292EA016070161900608000
B0604543247667S14837330EA015990160900708000
B0604593247615S14837366EA015920160100608000
B0605043247561S14837403EA015880159500408000
B0605093247510S14837450EA015910159400408000
B0605143247461S14837500EA015860158900508000
B0605193247412S14837550EA015860158600408000
B0605243247364S14837601EA015830158400408000
B0605293247320S14837650EA015910158600608000
B0605343247271S14837683EA015970159200708000
B0605393247225S14837675EA016020159800808000
B0605443247211S14837645EA016090160500608000
B0605493247227S14837638EA016100161001008000
B0605543247239S14837676EA016150161500608000
B0605593247229S14837730EA016200162200608000
B0606043247194S14837778EA016250163100708000
B0606093247147S14837800EA016320163700608000
B0606143247110S14837783EA016360164300608000
B0606193247104S14837758EA016440164900608000
B0606243247124S14837760EA016450165100608000
B0606293247130S14837808EA016520165400508000
B0606343247112S14837865EA016540165800808000
B0606393247071S14837906EA016590166400508000
B0606443247025S14837919EA016660167000808000
B0606493246987S14837902EA016720167600508000
B0606543246974S14837878EA016720167800408000
B0606593246988S14837869EA016720168100808000
B0607043247005S14837909EA016720168100708000
B0607093247002S14837969EA016760168500608000
B0607143246981S14838031EA016770168801108000
B0607193246934S14838072EA016760169000808000
B0607243246886S14838106EA016740168800808000
B0607293246838S14838156EA016660168400708000
B0607343246794S14838201EA016620167800708000
B0607393246747S14838244EA016570167000708000
B0607443246709S14838292EA016530166500808000
B0607493246669S14838332EA016520166300608000
B0607543246620S14838348EA016510166100708000
B0607593246578S14838336EA016440165700508000
B0608043246544S14838310EA016360165200608000
B0608093246498S14838300EA016380164800708000
B0608143246447S14838304EA016340164400708000
B0608193246395S14838306EA016270163900808000
B0608243246369S14838272EA016170163200608000
B0608293246362S14838243EA016200163100508000
B0608343246371S14838217EA016200162900508000
B0608393246384S14838203EA016260163100508000
B0608443246401S14838185EA016190163100608000
B0608493246414S14838165EA016170162900508000
B0608543246434S14838157EA016130162700908000
B0608593246460S14838176EA016110162300608000
B0609043246486S14838210EA016070161800408000
B0609093246508S14838250EA016030161300508000
B0609143246538S14838287EA015950160600508000
B0609193246563S14838325EA015900160000508000
B0609243246578S14838375EA015850159600308000
B0609293246592S14838422EA015800158900508000
B0609343246592S14838477EA015770158500308000
B0609393246565S14838534EA015650157700708000
B0609443246524S14838584EA015540156200708000
B0609493246482S14838640EA015410154900708000
B0609543246439S14838686EA015390154000608000
B0609593246385S14838728EA015300153100608000
B0610043246333S14838760EA015280152600608000
B0610093246282S14838796EA015180152200608000
B0610143246235S14838835EA015190152000508000
B0610193246191S14838880EA015120151300608000
B0610243246149S14838926EA015070150800708000
B0610293246103S14838973EA015000150100808000
B0610343246053S14839015EA014990149600708000
B0610393246003S14839057EA015030149500808000
B0610443245951S14839091EA015040149700708000
B0610493245899S14839107EA015010149600508000
B0610543245859S14839098EA014980149400608000
B0610593245809S14839092EA014940149200608000
B0611043245765S14839092EA014980149200808000
B0611093245725S14839077EA014970149300808000
B0611143245712S14839059EA014980149400508000
B0611193245714S14839048EA014970149500408000
B0611243245714S14839031EA014920149500408000
B0611293245714S14839011EA014890149300608000
B0611343245740S14839023EA014820148800808000
B0611393245761S14839051EA014810148300708000
B0611443245786S14839071EA014750147700708000
B0611493245808S14839092EA014690147300608000
B0611543245805S14839149EA014630146900808000
B0611593245764S14839196EA014620146400608000
B0612043245711S14839227EA014630146300908000
B0612093245656S14839256EA014600146200808000
B0612143245605S14839286EA014680146300608000
B0612193245564S14839284EA014730146501208000
B0612243245561S14839264EA014740146701008000
B0612293245581S14839280EA014740146800608000
B0612343245583S14839330EA014800147300508000
B0612393245560S14839389EA014820147700808000
B0612443245519S14839438EA014850148200708000
B0612493245467S14839475EA014880148600708000
B0612543245417S14839513EA014880148600708000
B0612593245364S14839554EA014840148500608000
B0613043245314S14839602EA014770148100708000
B0613093245269S14839647EA014700147300508000
B0613143245223S14839685EA014580146200708000
B0613193245176S14839722EA014490145000708000
B0613243245130S14839763EA014370143500708000
B0613293245081S14839804EA014250142200408000
B0613343245034S14839836EA014180140800408000
B0613393244984S14839869EA014070139800408000
B0613443244934S14839900EA013960138700408000
B0613493244887S14839931EA013890137700408000
B0613543244835S14839961EA013790137000408000
B0613593244785S14839987EA013730136400608000
B0614043244735S14840011EA013640135600408000
B0614093244682S14840042EA013550134800508000
B0614143244631S14840077EA013480133800508000
B0614193244580S14840111EA013420133200408000
B0614243244528S14840146EA013360132500408000
B0614293244477S14840182EA013320132000408000
B0614343244426S14840228EA013230131400408000
B0614393244382S14840283EA013170130800608000
B0614443244339S14840327EA013150130200508000
B0614493244296S14840371EA013110129700308000
B0614543244249S14840416EA013020129000508000
B0614593244205S14840462EA012970128400508000
B0615043244161S14840506EA012900127500508000
B0615093244113S14840548EA012860127100508000
B0615143244065S14840587EA012820126400608000
B0615193244012S14840627EA012770126000508000
B0615243243965S14840671EA012720125600408000
B0615293243920S14840716EA012660125000608000
B0615343243877S14840763EA012570124200608000
B0615393243835S14840810EA012500123500608000
B0615443243795S14840854EA012430122700308000
B0615493243753S14840902EA012320121800408000
B0615543243712S14840948EA012350121200608000
B0615593243666S14840981EA012290120400808000
B0616043243625S14840971EA012270120100908000
B0616093243609S14840939EA012290120300808000
B0616143243624S14840925EA012330120701208000
B0616193243644S14840955EA012250120800808000
B0616243243639S14841010EA012210120700508000
B0616293243607S14841057EA012210120500608000
B0616343243558S14841088EA012170120100408000
B0616393243511S14841118EA012140119700708000
B0616443243463S14841148EA012120119100408000
B0616493243416S14841167EA012150119100408000
B0616543243367S14841180EA012130119000608000
F06165902051221252931
B0616593243315S14841181EA012090118800507000
F0617040205122021252931
B0617043243266S14841186EA012030118300608000
B0617093243219S14841211EA011950117600808000
B0617143243176S14841241EA011880116900808000
B0617193243137S14841287EA011750116000408000
B0617243243119S14841340EA011700115100408000
B0617293243109S14841391EA011640114400308000
B0617343243101S14841441EA011550113500408000
B0617393243095S14841496EA011420112300408000
B0617443243094S14841549EA011300111100408000
B0617493243094S14841601EA011180109700408000
B0617543243100S14841656EA011060108600408000
B0617593243107S14841707EA010970107400408000
B0618043243107S14841759EA010930106400508000
B0618093243098S14841815EA010850105400408000
B0618143243067S14841871EA010740104200708000
B0618193243015S14841906EA010660103200408000
B0618243242962S14841924EA010690102900608000
B0618293242924S14841903EA010660102900908000
B0618343242930S14841886EA010640102800808000
B0618393242943S14841919EA010590102600808000
B0618443242917S14841977EA010540102401008000
B0618493242868S14842004EA010580102500908000
B0618543242821S14841994EA010480102000908000
B0618593242797S14841964EA010390101200808000
B0619043242813S14841957EA010260100301108000
B0619093242812S14842010EA010190099600908000
B0619143242798S14842070EA010200099100608000
B0619193242769S14842124EA010200098700708000
B0619243242724S14842157EA010170098200808000
B0619293242668S14842178EA010100097700708000
B0619343242617S14842199EA010070097300708000
B0619393242562S14842210EA010010096600708000
B0619443242504S14842224EA009960096000508000
B0619493242450S14842244EA009960095700408000
B0619543242392S14842265EA010000095700508000
B0619593242344S14842262EA010060096100808000
B0620043242324S14842233EA010110096900608000
B0620093242337S14842218EA010170097401308000
B0620143242357S14842249EA010190097600608000
B0620193242352S14842304EA010210098100608000
B0620243242315S14842352EA010220098501108000
B0620293242276S14842333EA010260098600908000
B0620343242284S14842313EA010320099000908000
B0620393242301S14842335EA010330099200608000
B0620443242288S14842389EA010340099400808000
B0620493242244S14842425EA010350099701008000
B0620543242207S14842404EA010310099801208000
B0620593242208S14842380EA010360099901108000
B0621043242219S14842409EA010340099800708000
B0621093242189S14842458EA010300099701008000
B0621143242139S14842474EA010280099400908000
B0621193242099S14842452EA010320099500608000
B0621243242088S14842426EA010360099700508000
B0621293242100S14842414EA010360099900808000
B0621343242117S14842439EA010340099800608000
B0621393242104S14842494EA010350099700608000
B0621443242071S14842543EA010350099900808000
F062149020512152021252931
B0621493242021S14842572EA010350100000509000
B0621543241977S14842557EA010420100601009000
B0621593241970S14842533EA010450100800509000
B0622043241984S14842550EA010470101200709000
B0622093241968S14842603EA010480101600509000
B0622143241925S14842642EA010510102000809000
B0622193241879S14842638EA010570102400609000
B0622243241862S14842609EA010640102800409000
B0622293241873S14842604EA010670103100909000
B0622343241879S14842642EA010670103400609000
B0622393241848S14842698EA010680103700509000
B0622443241801S14842736EA010730104000509000
B0622493241759S14842724EA010710104000909000
B0622543241760S14842702EA010810104501109000
B0622593241774S14842730EA010880105300709000
B0623043241752S14842786EA010940106100809000
B0623093241704S14842793EA010960106601009000
B0623143241681S14842767EA011010107100509000
B0623193241691S14842752EA011080107600809000
B0623243241709S14842776EA011110108100509000
B0623293241715S14842824EA011140108400509000
B0623343241698S14842877EA011110108501209000
B0623393241645S14842888EA011030108100709000
B0623443241610S14842863EA011030107900409000
B0623493241607S14842835EA011120108000509000
B0623543241622S14842831EA011160108300709000
B0623593241625S14842874EA011140108500809000
B0624043241586S14842920EA011050108100509000
B0624093241532S14842940EA011010107900709000
B0624143241478S14842944EA011070107800409000
B0624193241425S14842945EA011120108100709000
B0624243241397S14842918EA011140108400409000
B0624293241402S14842897EA011160108500409000
B0624343241421S14842897EA011170108900709000
B0624393241436S14842920EA011190109000509000
B0624443241425S14842977EA011180109200909000
B0624493241375S14843006EA011210109501009000
B0624543241343S14842979EA011310110100609000
B0624593241355S14842969EA011360110401409000
B0625043241362S14843010EA011350110800609000
B0625093241334S14843067EA011390111300709000
B0625143241280S14843082EA011430111501009000
B0625193241249S14843057EA011520112200509000
B0625243241252S14843034EA011610112800809000
B0625293241270S14843047EA011600113300709000
B0625343241269S14843095EA011590113600509000
B0625393241242S14843153EA011640114000709000
B0625443241197S14843196EA011650114300609000
B0625493241153S14843179EA011690114400609000
B0625543241153S14843158EA011740114700609000
B0625593241170S14843176EA011730115100809000
B0626043241164S14843231EA011800115300609000
B0626093241128S14843282EA011790115500509000
B0626143241075S14843299EA011800115800709000
B0626193241036S14843279EA011870116400709000
B0626243241022S14843253EA011950116900409000
B0626293241040S14843242EA011950117000709000
B0626343241060S14843262EA011980117300609000
B0626393241036S14843317EA012030117700909000
B0626443240988S14843314EA012050118101209000
B0626493240984S14843283EA012020118000709000
B0626543240989S14843267EA012070118200609000
B0626593241007S14843277EA012060118300709000
B0627043241019S14843318EA012030118300609000
B0627093241014S14843375EA012000118100509000
B0627143240977S14843423EA011910117500909000
B0627193240923S14843438EA011900117200709000
B0627243240880S14843431EA011900116900709000
B0627293240856S14843409EA011830116500509000
B0627343240857S14843384EA011800116200509000
B0627393240864S14843364EA011770115900509000
B0627443240882S14843392EA011730115400709000
B0627493240872S14843453EA011680115000709000
B0627543240830S14843499EA011680114700709000
B0627593240796S14843487EA011620113901009000
B0628043240810S14843480EA011600113701209000
B0628093240824S14843518EA011550113300709000
B0628143240802S14843576EA011500112800809000
B0628193240768S14843630EA011490112500509000
B0628243240717S14843660EA011430111701109000
B0628293240684S14843642EA011460111600609000
B0628343240678S14843614EA011420111600509000
B0628393240698S14843615EA011390111501009000
B0628443240712S14843648EA011370111200509000
B0628493240714S14843708EA011280110700509000
B0628543240696S14843765EA011240110400809000
B0628593240648S14843803EA011200109700409000
B0629043240594S14843813EA011150109000409000
B0629093240556S14843800EA011150108700409000
B0629143240516S14843789EA011110108500509000
B0629193240469S14843796EA011120108600509000
B0629243240419S14843799EA011050108300509000
B0629293240367S14843816EA010970107700509000
B0629343240321S14843863EA010930107000709000
B0629393240314S14843919EA010920106600509000
B0629443240330S14843949EA010910106200509000
B0629493240346S14843958EA010910106100809000
B0629543240359S14843981EA010880105900409000
B0629593240350S14844034EA010880105900909000
B0630043240312S14844079EA010880105900509000
B0630093240263S14844080EA010820105200609000
B0630143240253S14844055EA010730104300609000
B0630193240270S14844070EA010690103900709000
B0630243240276S14844117EA010620103400609000
B0630293240276S14844167EA010620103100409000
B0630343240264S14844222EA010560102700609000
B0630393240242S14844278EA010530102400409000
B0630443240217S14844341EA010460102000409000
B0630493240198S14844403EA010420101500409000
B0630543240179S14844463EA010380100900409000
B0630593240162S14844527EA010260100300409000
B0631043240142S14844591EA010180099200409000
B0631093240116S14844653EA010120098400509000
B0631143240091S14844713EA010040097400409000
B0631193240063S14844770EA010030096800409000
B0631243240042S14844829EA009960096000409000
B0631293240041S14844884EA009920095700509000
B0631343240055S14844924EA009910095100609000
B0631393240071S14844960EA009890094800609000
B0631443240067S14845011EA009860094600409000
B0631493240049S14845068EA009820094300809000
B0631543240024S14845123EA009670093400709000
B0631593239993S14845178EA009580092100609000
B0632043239963S14845235EA009470091000309000
B0632093239935S14845290EA009390090100609000
B0632143239904S14845355EA009280088900409000
B0632193239872S14845417EA009230088000409000
B0632243239849S14845488EA009140087000309000
F06322902051215202125262931
B0632293239826S14845556EA009090086100310000
B0632343239808S14845625EA009070086100310000
B0632393239805S14845683EA009130086700410000
B0632443239819S14845725EA009170086900410000
B0632493239841S14845745EA009200087200310000
B0632543239860S14845768EA009230087600410000
B0632593239847S14845816EA009280087900710000
B0633043239797S14845825EA009260088100810000
B0633093239784S14845793EA009250088200510000
B0633143239797S14845779EA009270088200610000
B0633193239817S14845787EA009280088400510000
B0633243239834S14845824EA009230088000310000
B0633293239841S14845869EA009100087200510000
B0633343239844S14845914EA008980085900410000
F0633390205121315202125262931
B0633393239837S14845968EA008820084300311000
B0633443239832S14846024EA008720082600411000
B0633493239823S14846080EA008620081300311000
B0633543239801S14846138EA008490079900311000
B0633593239769S14846203EA008320078300311000
