AFLY009W 0100590
HFDTE311216
HFFXA010
HFPLTPILOT:NKN             
HFCM2CREW2:NKN
HFGTYGLIDERTYPE:NKN             
HFGIDGLIDERID:NKN             
HFDTM100GPSDATUM:WGS84
HFRFWFIRMWAREVERSION: 1.1.04 EN
HFRHWHARDWAREVERSION:1.00
HFFTYFRTYPE:Flytec ,Element
HFGPS:FASTRAX,IT430,48
HFPRSPRESSALTSENSOR:INTERSEMA,MS5401BM,12000
HFALGALTGPS:GEO
HFALPALTPRESSURE:ISA
HFTZNUTCOFFSET: 11.00h
I033638FXA3940SIU4143TAS
C311216023812311216000400
C3321372S14756016E TAKEOFF
C3321372S14756016E START  BMI023           00000000005000000000360000AREA
C3326382S14820720E FINISH EUGOWR           00000000000400000000360000AREA
C3326382S14820720E LANDING
F044838
B0448380000000N00000000EV003850000000000000
F04484012192024
E044840TPC
B0448403321470S14755829EA003930033306104000
F04484112192024
B0448413321479S14755817EA003970032805604000
F04484212192024
B0448423321485S14755808EA003990032905504000
E044844STA
E044844ATS1005.2
LFLYA1 00335
B0448443321500S14755785EA004070032204904000
B0448453321505S14755778EA004080032304804000
B0448463321509S14755772EA004080032504804000
B0448473321513S14755766EA004110032805204000
B0448483321514S14755765EA004120033604504000
B0448493321515S14755764EA004130034504304000
B0448503321520S14755761EA004160035004204000
B0448513321524S14755759EA004230035704104000
B0448523321532S14755754EA004260035804004000
B0448533321540S14755749EA004280035803904000
B0448543321550S14755744EA004330035704104000
B0448553321561S14755740EA004400035703904000
B0448563321571S14755740EA004430035904104000
B0448573321580S14755740EA004440036003904000
B0448583321588S14755742EA004470036004004000
B0448593321594S14755754EA004520036306604000
B0449003321600S14755763EA004530036703604000
B0449013321606S14755771EA004520036903404000
B0449023321612S14755777EA004530037404504000
B0449033321619S14755785EA004580037602804000
B0449043321624S14755796EA004600038103004000
B0449053321630S14755803EA004580038202504000
B0449063321637S14755811EA004580038403204000
B0449073321645S14755820EA004620038303404000
B0449083321651S14755829EA004640038303304000
B0449093321657S14755839EA004640038503504000
B0449103321663S14755850EA004640038703704000
B0449113321669S14755861EA004670038703704000
B0449123321674S14755871EA004700038803704000
B0449133321678S14755881EA004710039003804000
B0449143321682S14755892EA004700039203804000
B0449153321685S14755905EA004720039103804000
B0449163321688S14755918EA004750039203304000
B0449173321690S14755931EA004780039203304000
B0449183321692S14755946EA004770039203504000
B0449193321692S14755960EA004760039203604000
B0449203321691S14755974EA004780039303604000
F044921021219202429
B0449213321678S14756001EA004820041202806000
B0449223321669S14756024EA004830042501806000
B0449233321664S14756041EA004820043001306000
B0449243321661S14756052EA004820043201006000
B0449253321657S14756066EA004820043301206000
B0449263321652S14756080EA004850043401106000
B0449273321646S14756093EA004880043601006000
F0449280212192029
B0449283321641S14756105EA004870043801005000
F044929021219202429
B0449293321635S14756116EA004880044000706000
B0449303321628S14756127EA004900044300906000
B0449313321621S14756138EA004940044400906000
B0449323321613S14756147EA004970044601006000
B0449333321605S14756155EA004980044800806000
B0449343321596S14756161EA005000045000806000
B0449353321588S14756166EA005040045200906000
B0449363321579S14756170EA005070045400806000
B0449373321570S14756173EA005090045801006000
B0449383321560S14756175EA005120046101106000
B0449393321550S14756176EA005150046400906000
B0449403321540S14756177EA005170046701106000
B0449413321530S14756177EA005170047001206000
B0449423321521S14756175EA005180047301406000
B0449433321514S14756173EA005210047301406000
B0449443321507S14756170EA005230047501106000
B0449453321501S14756165EA005240047701406000
B0449463321495S14756160EA005250048001306000
B0449473321490S14756155EA005280048301306000
B0449483321486S14756149EA005320048501306000
B0449493321483S14756143EA005340048601406000
B0449503321480S14756136EA005350048701006000
B0449513321477S14756130EA005360048801606000
B0449523321475S14756124EA005390048801506000
B0449533321473S14756119EA005390048901406000
B0449543321472S14756112EA005380049101306000
B0449553321472S14756106EA005390049301306000
B0449563321471S14756099EA005430049501206000
B0449573321471S14756093EA005460049700906000
B0449583321471S14756086EA005470049900906000
B0449593321472S14756079EA005510050100906000
B0450003321475S14756073EA005520050300906000
B0450013321477S14756067EA005530050500706000
B0450023321479S14756061EA005560050700906000
B0450033321482S14756055EA005630051000906000
B0450043321486S14756049EA005640051201106000
B0450053321491S14756043EA005650051401006000
B0450063321495S14756038EA005680051701006000
B0450073321499S14756032EA005750052001306000
B0450083321505S14756027EA005760052301206000
B0450093321510S14756022EA005770052601006000
B0450103321515S14756017EA005800052901006000
B0450113321520S14756012EA005870053300806000
B0450123321524S14756007EA005910053701106000
B0450133321529S14756001EA005920054000706000
B0450143321533S14755995EA005940054300606000
B0450153321536S14755989EA006000054600706000
B0450163321540S14755983EA006020054900906000
B0450173321543S14755977EA006020055100706000
B0450183321547S14755969EA006050055400906000
B0450193321550S14755962EA006080055600906000
B0450203321554S14755954EA006080055800606000
B0450213321557S14755947EA006080056000706000
B0450223321561S14755940EA006080056000806000
B0450233321564S14755933EA006090056100706000
B0450243321567S14755926EA006090056300606000
B0450253321570S14755920EA006090056400606000
B0450263321574S14755913EA006110056600706000
B0450273321577S14755907EA006140056701106000
B0450283321581S14755901EA006150056801106000
B0450293321586S14755894EA006150056900906000
B0450303321590S14755888EA006160057000506000
B0450313321594S14755882EA006190057100506000
B0450323321599S14755876EA006190057200606000
B0450333321604S14755869EA006180057300606000
F04503402051219202429
B0450343321608S14755863EA006200057400507000
B0450353321613S14755858EA006200057500607000
B0450363321617S14755852EA006200057500807000
B0450373321621S14755846EA006210057600907000
B0450383321625S14755840EA006240057800607000
B0450393321628S14755833EA006270057900607000
B0450403321632S14755826EA006280058000607000
B0450413321636S14755820EA006290058200607000
B0450423321641S14755814EA006320058400507000
B0450433321646S14755807EA006350058400607000
B0450443321651S14755802EA006350058600607000
B0450453321657S14755797EA006350058700607000
B0450463321664S14755793EA006360058800607000
B0450473321670S14755788EA006380059000607000
B0450483321676S14755785EA006400059200607000
B0450493321683S14755781EA006420059500607000
B0450503321689S14755778EA006440059800607000
B0450513321696S14755776EA006480060000607000
B0450523321702S14755774EA006500060300607000
B0450533321709S14755772EA006520060600607000
B0450543321717S14755771EA006540060900607000
B0450553321724S14755770EA006580061100607000
B0450563321731S14755770EA006600061400507000
B0450573321738S14755769EA006620061700507000
B0450583321746S14755768EA006640062000507000
B0450593321753S14755767EA006670062200507000
B0451003321760S14755765EA006700062400507000
B0451013321768S14755763EA006710062600507000
B0451023321775S14755762EA006720062800507000
B0451033321783S14755761EA006750063000507000
B0451043321790S14755760EA006770063200407000
B0451053321798S14755760EA006780063400407000
B0451063321806S14755760EA006790063600407000
B0451073321814S14755761EA006810063700407000
B0451083321821S14755761EA006830063900407000
B0451093321829S14755762EA006850064000407000
B0451103321837S14755763EA006860064200407000
B0451113321844S14755763EA006860064400507000
B0451123321852S14755764EA006890064600507000
B0451133321859S14755765EA006910064800507000
B0451143321867S14755766EA006930065000507000
B0451153321874S14755767EA006950065200507000
B0451163321882S14755768EA006970065400507000
B0451173321890S14755769EA006990065500507000
B0451183321898S14755770EA006990065700507000
B0451193321906S14755771EA007000065800507000
B0451203321914S14755771EA007030066000507000
B0451213321922S14755771EA007050066200507000
B0451223321929S14755771EA007060066400507000
B0451233321936S14755770EA007080066600507000
B0451243321943S14755769EA007120066900507000
B0451253321950S14755768EA007140067100507000
B0451263321956S14755766EA007160067400507000
B0451273321962S14755764EA007190067700607000
B0451283321969S14755761EA007230068100607000
B0451293321974S14755759EA007260068300607000
B0451303321980S14755756EA007270068600507000
B0451313321985S14755754EA007290068900507000
B0451323321991S14755751EA007310069200507000
B0451333321996S14755749EA007340069500507000
B0451343322001S14755746EA007380069800507000
B0451353322007S14755744EA007420070100607000
B0451363322013S14755741EA007460070300507000
B0451373322018S14755737EA007480070500507000
B0451383322024S14755734EA007500070700607000
B0451393322031S14755731EA007510071000607000
B0451403322037S14755728EA007520071200607000
B0451413322043S14755725EA007540071400907000
B0451423322049S14755721EA007570071600807000
B0451433322054S14755717EA007580071700507000
B0451443322060S14755713EA007590071900507000
B0451453322065S14755708EA007600072100507000
B0451463322070S14755704EA007630072300507000
B0451473322076S14755699EA007650072500507000
B0451483322081S14755694EA007670072700607000
B0451493322087S14755690EA007700073000607000
B0451503322092S14755686EA007740073300607000
B0451513322097S14755683EA007770073700607000
B0451523322102S14755679EA007790074000607000
B0451533322108S14755675EA007830074500807000
B0451543322113S14755672EA007880074900907000
B0451553322119S14755668EA007910075200807000
B0451563322125S14755665EA007950075600507000
F045157021219202429
B0451573322131S14755661EA007970076000706000
F04515802051219202429
B0451583322137S14755659EA008020076300507000
B0451593322143S14755658EA008030076600607000
B0452003322150S14755657EA008070076900607000
B0452013322157S14755657EA008080077200607000
B0452023322164S14755657EA008110077500507000
B0452033322172S14755658EA008120077800507000
B0452043322179S14755659EA008150078200407000
B0452053322186S14755659EA008160078500507000
B0452063322193S14755660EA008200078900507000
B0452073322200S14755661EA008240079200507000
B0452083322207S14755661EA008270079500507000
B0452093322214S14755662EA008290079800507000
B0452103322222S14755663EA008320080200507000
B0452113322229S14755663EA008340080500507000
B0452123322237S14755662EA008400080900507000
B0452133322244S14755662EA008440081200507000
B0452143322251S14755661EA008470081600507000
B0452153322258S14755660EA008500081900507000
B0452163322265S14755658EA008530082300507000
B0452173322272S14755657EA008570082700507000
B0452183322279S14755655EA008600083000507000
B0452193322286S14755655EA008630083400507000
B0452203322294S14755654EA008670083700507000
B0452213322301S14755653EA008700084100507000
B0452223322308S14755653EA008740084500507000
B0452233322315S14755653EA008760084800507000
B0452243322322S14755652EA008800085200507000
B0452253322329S14755651EA008830085600507000
B0452263322336S14755651EA008880086100507000
B0452273322344S14755651EA008900086500507000
B0452283322351S14755652EA008930086900507000
B0452293322359S14755652EA008970087300507000
B0452303322366S14755653EA009020087800407000
B0452313322374S14755654EA009070088200507000
B0452323322382S14755655EA009090088600507000
B0452333322390S14755657EA009120088900407000
B0452343322397S14755659EA009160089300507000
B0452353322405S14755662EA009200089800407000
B0452363322413S14755665EA009240090200507000
B0452373322420S14755668EA009300090800507000
B0452383322428S14755670EA009370091300507000
B0452393322435S14755672EA009420091800507000
B0452403322442S14755674EA009490092300607000
B0452413322448S14755673EA009540092700707000
B0452423322454S14755672EA009570093100707000
B0452433322459S14755669EA009590093400707000
B0452443322465S14755665EA009620093700607000
B0452453322468S14755660EA009640094100807000
B0452463322470S14755653EA009660094300907000
B0452473322471S14755647EA009670094500707000
B0452483322472S14755641EA009680094700707000
B0452493322473S14755635EA009670094700707000
B0452503322474S14755629EA009670094700707000
B0452513322476S14755624EA009670094800607000
B0452523322478S14755619EA009690094900607000
B0452533322481S14755615EA009700095000607000
B0452543322485S14755612EA009700095100607000
B0452553322489S14755612EA009700095100607000
B0452563322494S14755614EA009710095200707000
B0452573322498S14755618EA009730095200907000
B0452583322499S14755625EA009730095201007000
B0452593322498S14755635EA009730095201207000
B0453003322493S14755646EA009730095201407000
B0453013322488S14755654EA009720095201107000
B0453023322480S14755661EA009730095301207000
B0453033322471S14755664EA009740095301207000
F0453040205061219202429
B0453043322462S14755663EA009740095301008000
B0453053322454S14755658EA009740095301508000
B0453063322450S14755651EA009740095301508000
B0453073322448S14755644EA009740095301008000
B0453083322450S14755637EA009730095201008000
B0453093322454S14755632EA009730095300908000
B0453103322458S14755630EA009750095200908000
B0453113322462S14755630EA009760095300808000
B0453123322468S14755634EA009770095300908000
B0453133322472S14755640EA009770095300908000
B0453143322475S14755646EA009770095300908000
B0453153322476S14755655EA009770095300908000
B0453163322476S14755665EA009760095400908000
B0453173322476S14755676EA009750095400908000
B0453183322474S14755687EA009750095600808000
B0453193322473S14755697EA009770095700708000
B0453203322472S14755706EA009780095800608000
B0453213322472S14755715EA009780095900608000
B0453223322473S14755725EA009790096000808000
B0453233322474S14755733EA009770095900808000
B0453243322478S14755741EA009770095900708000
B0453253322481S14755748EA009770095900608000
B0453263322485S14755755EA009770095800608000
B0453273322490S14755760EA009760095800808000
B0453283322496S14755762EA009760095800908000
B0453293322502S14755763EA009760095800708000
B0453303322508S14755764EA009780095700608000
B0453313322514S14755767EA009780095800608000
B0453323322518S14755772EA009770095700708000
B0453333322521S14755778EA009770095700708000
B0453343322524S14755786EA009760095700608000
B0453353322525S14755795EA009760095700808000
B0453363322525S14755804EA009760095700608000
B0453373322524S14755814EA009760095700608000
B0453383322521S14755823EA009760095700708000
B0453393322517S14755832EA009760095700608000
B0453383322512S14755840EA009760095700608000
B0453393322506S14755847EA009760095700608000
B0453403322499S14755854EA009760095600408000
F04534102050612192029
B0453413322493S14755861EA009760095600707000
F0453420205061219202429
B0453423322487S14755866EA009760095600508000
B0453433322480S14755871EA009760095700608000
B0453443322473S14755876EA009760095700708000
B0453453322466S14755880EA009770095700608000
B0453463322458S14755884EA009780095700608000
B0453473322451S14755887EA009780095800708000
B0453483322444S14755890EA009780095800508000
B0453493322436S14755892EA009790095800508000
B0453503322429S14755894EA009820095900608000
B0453513322421S14755897EA009830095900608000
B0453523322413S14755901EA009830095900708000
B0453533322405S14755904EA009830095800708000
B0453543322397S14755907EA009830095800608000
B0453553322389S14755908EA009850095700608000
B0453563322381S14755907EA009850095601008000
B0453573322375S14755904EA009830095600708000
B0453583322371S14755897EA009850095601108000
B0453593322371S14755889EA009860095601208000
B0454003322374S14755881EA009860095501108000
B0454013322380S14755878EA009880095501108000
B0454023322388S14755878EA009890095501208000
B0454033322396S14755882EA009900095601108000
B0454043322402S14755886EA009920095701108000
B0454053322404S14755894EA009940095801308000
B0454063322403S14755903EA009950095901508000
B0454073322400S14755911EA009960096101108000
B0454083322394S14755918EA009980096201108000
B0454093322387S14755923EA009990096301008000
B0454103322378S14755925EA009970096301408000
B0454113322370S14755924EA009970096401208000
B0454123322366S14755919EA009970096501508000
B0454133322364S14755912EA009990096601608000
B0454143322366S14755904EA010000096701008000
B0454153322370S14755898EA010020096700808000
B0454163322376S14755896EA010050096901508000
B0454173322383S14755899EA010060097001508000
B0454183322387S14755904EA010080097200908000
B0454193322390S14755911EA010110097300908000
B0454203322392S14755918EA010120097400808000
B0454213322391S14755927EA010120097600908000
B0454223322387S14755935EA010120097801108000
B0454233322382S14755942EA010130097901108000
B0454243322375S14755947EA010130098001308000
B0454253322367S14755947EA010140098201008000
B0454263322361S14755943EA010150098201508000
B0454273322357S14755938EA010160098301408000
B0454283322357S14755932EA010180098401508000
B0454293322359S14755925EA010200098500908000
B0454303322362S14755920EA010220098600808000
B0454313322367S14755918EA010220098700808000
B0454323322373S14755919EA010220098800908000
B0454333322379S14755923EA010240099000908000
B0454343322382S14755931EA010260099100908000
B0454353322384S14755940EA010280099200808000
B0454363322384S14755948EA010270099301008000
B0454373322382S14755957EA010260099401008000
B0454383322379S14755964EA010280099601108000
B0454393322373S14755970EA010290099701408000
B0454403322365S14755973EA010300099801208000
B0454413322357S14755975EA010300100001208000
B0454423322350S14755973EA010300100100908000
B0454433322346S14755967EA010310100100708000
B0454443322344S14755961EA010330100200808000
B0454453322344S14755954EA010350100200808000
B0454463322347S14755949EA010330100100908000
B0454473322353S14755947EA010310100201308000
B0454483322360S14755949EA010330100201308000
B0454493322367S14755954EA010340100301008000
B0454503322371S14755965EA010340100401608000
B0454513322370S14755976EA010340100501508000
B0454523322367S14755986EA010350100601608000
B0454533322361S14755993EA010360100501108000
B0454543322353S14755996EA010360100701308000
B0454553322345S14755996EA010370100801108000
B0454563322338S14755992EA010380101000908000
B0454573322333S14755985EA010400101101708000
B0454583322332S14755978EA010420101201508000
B0454593322332S14755970EA010430101401008000
B0455003322335S14755965EA010430101601308000
B0455013322339S14755962EA010440101801308000
B0455023322345S14755964EA010460101901308000
B0455033322350S14755969EA010480102001308000
B0455043322354S14755976EA010480102101308000
B0455053322355S14755984EA010460102101208000
B0455063322353S14755994EA010450102101108000
B0455073322348S14756004EA010460102101108000
B0455083322341S14756011EA010470102201308000
B0455093322332S14756014EA010480102401308000
B0455103322323S14756012EA010480102400908000
B0455113322316S14756006EA010500102401508000
B0455123322314S14755998EA010500102501308000
B0455133322313S14755990EA010490102401208000
B0455143322313S14755982EA010500102501008000
B0455153322313S14755975EA010500102601008000
B0455163322315S14755969EA010550102701108000
B0455173322317S14755966EA010540102800908000
B0455183322321S14755963EA010530102800708000
B0455193322325S14755961EA010520102800708000
B0455203322331S14755960EA010510102700708000
B0455213322337S14755960EA010500102700708000
B0455223322343S14755962EA010510102700608000
B0455233322349S14755966EA010540102700608000
B0455243322355S14755971EA010540102700608000
B0455253322358S14755980EA010540102800808000
B0455263322359S14755991EA010570102801108000
B0455273322355S14756002EA010580102901108000
F04552802051219202429
B0455283322349S14756012EA010570102901207000
F0455290205061219202429
B0455293322342S14756020EA010560102901208000
B0455303322333S14756023EA010570103001208000
B0455313322323S14756020EA010570103101508000
B0455323322315S14756013EA010560103201508000
B0455333322310S14756007EA010550103201108000
B0455343322309S14756000EA010550103301908000
B0455353322311S14755993EA010560103401308000
B0455363322316S14755989EA010570103401108000
B0455373322321S14755987EA010580103401008000
B0455383322328S14755989EA010590103401008000
B0455393322335S14755994EA010590103501008000
B0455403322340S14756000EA010600103501008000
B0455413322344S14756010EA010610103601008000
B0455423322346S14756022EA010630103700708000
B0455433322345S14756034EA010650103900908000
B0455443322343S14756044EA010680104101008000
B0455453322338S14756054EA010690104201208000
B0455463322330S14756061EA010700104301208000
B0455473322321S14756064EA010700104501108000
B0455483322312S14756065EA010700104501008000
B0455493322304S14756065EA010700104501108000
B0455503322297S14756061EA010690104501408000
B0455513322293S14756054EA010680104501708000
B0455523322293S14756046EA010670104501308000
B0455533322294S14756039EA010660104500908000
B0455543322297S14756034EA010670104501008000
B0455553322303S14756033EA010690104500908000
B0455563322310S14756034EA010690104501208000
B0455573322318S14756039EA010690104401208000
B0455583322324S14756045EA010700104501208000
B0455593322329S14756053EA010710104601308000
B0456003322330S14756064EA010720104601108000
B0456013322328S14756074EA010720104801208000
B0456023322323S14756084EA010730105001108000
B0456033322316S14756092EA010750105201008000
B0456043322309S14756097EA010770105300908000
B0456053322301S14756099EA010770105401208000
B0456063322294S14756098EA010760105401108000
B0456073322287S14756095EA010760105300808000
B0456083322284S14756089EA010750105301408000
B0456093322283S14756082EA010730105301408000
B0456103322287S14756074EA010710105101308000
B0456113322293S14756070EA010700105001308000
B0456123322300S14756070EA010700105001408000
B0456133322310S14756074EA010700105001308000
B0456143322315S14756081EA010710105001308000
B0456153322317S14756091EA010730105101308000
B0456163322316S14756102EA010750105201508000
B0456173322311S14756112EA010770105301208000
B0456183322305S14756119EA010780105401208000
B0456193322298S14756125EA010790105401008000
B0456203322291S14756131EA010790105400808000
B0456213322283S14756135EA010790105400908000
B0456223322275S14756138EA010790105400808000
B0456233322267S14756140EA010800105500608000
B0456243322261S14756139EA010800105500908000
B0456253322255S14756136EA010810105501008000
B0456263322252S14756129EA010820105701208000
B0456273322252S14756121EA010820105701008000
B0456283322254S14756116EA010840105801208000
B0456293322260S14756116EA010850105801508000
B0456303322268S14756119EA010850105901208000
B0456313322273S14756126EA010850106001308000
B0456323322275S14756135EA010850106001408000
B0456333322276S14756144EA010850106001208000
B0456343322273S14756156EA010850106101308000
B0456353322268S14756164EA010860106101208000
B0456363322261S14756171EA010860106101108000
B0456373322252S14756174EA010840106201008000
B0456383322244S14756173EA010840106201008000
B0456393322238S14756168EA010850106301208000
B0456403322234S14756163EA010860106301208000
B0456413322234S14756155EA010880106300808000
B0456423322236S14756149EA010880106300908000
B0456433322240S14756144EA010890106401108000
B0456443322246S14756142EA010910106500808000
B0456453322252S14756143EA010930106600908000
B0456463322259S14756145EA010940106600908000
B0456473322266S14756151EA010940106700908000
B0456483322271S14756159EA010940106801008000
B0456493322272S14756167EA010950106801208000
B0456503322269S14756178EA010950106801608000
B0456513322263S14756189EA010930106801408000
B0456523322256S14756196EA010910106801108000
B0456533322248S14756201EA010900106801208000
B0456543322241S14756198EA010890106601108000
B0456553322236S14756194EA010900106501308000
B0456563322234S14756187EA010910106501408000
B0456573322236S14756176EA010900106701208000
B0456583322240S14756167EA010900106700908000
B0456593322243S14756161EA010910106700808000
B0457003322245S14756156EA010950106800808000
B0457013322247S14756151EA010990107000808000
B0457023322249S14756145EA011020107200808000
B0457033322250S14756139EA011050107300808000
B0457043322252S14756133EA011070107400708000
B0457053322254S14756127EA011090107600708000
B0457063322257S14756122EA011100107700708000
B0457073322262S14756118EA011110107900708000
B0457083322267S14756117EA011140108100708000
B0457093322273S14756117EA011160108300608000
B0457103322279S14756120EA011180108600708000
B0457113322283S14756127EA011190108800708000
B0457123322286S14756136EA011210109100908000
B0457133322285S14756145EA011220109401308000
B0457143322279S14756155EA011240109701808000
B0457153322271S14756163EA011270109901408000
B0457163322261S14756167EA011290110301208000
B0457173322251S14756166EA011310110601108000
B0457183322245S14756163EA011340110801208000
B0457193322241S14756156EA011370111101408000
F04572002050612192029
B0457203322240S14756148EA011380111301207000
F0457210205061219202429
B0457213322242S14756142EA011380111400908000
F04572202050612192029
B0457223322249S14756140EA011400111501107000
F0457230205061219202429
B0457233322259S14756144EA011410111601708000
B0457243322266S14756150EA011420112001108000
B0457253322271S14756158EA011450112201208000
B0457263322272S14756166EA011480112501408000
B0457273322269S14756177EA011510112702008000
B0457283322264S14756188EA011540113101708000
B0457293322257S14756196EA011560113501508000
B0457303322248S14756201EA011570113801208000
B0457313322240S14756203EA011600114100908000
B0457323322233S14756202EA011630114501008000
B0457333322227S14756197EA011660114801008000
B0457343322225S14756190EA011680115300908000
B0457353322224S14756183EA011690115700908000
B0457363322225S14756177EA011710116000908000
B0457373322230S14756174EA011720116100908000
B0457383322238S14756177EA011730116101708000
B0457393322245S14756184EA011740116101208000
B0457403322249S14756193EA011760116301308000
B0457413322251S14756206EA011790116501408000
B0457423322249S14756216EA011830116901508000
B0457433322243S14756225EA011870117201908000
B0457443322236S14756231EA011890117401308000
B0457453322227S14756233EA011910117701508000
F045746020506121920242931
B0457463322218S14756231EA011930117901009000
B0457473322213S14756226EA011960118301109000
B0457483322210S14756219EA011980118701209000
B0457493322209S14756212EA011990119001009000
B0457503322211S14756208EA012010119301209000
B0457513322216S14756204EA012030119500909000
B0457523322222S14756203EA012050119400909000
B0457533322229S14756206EA012060119601309000
B0457543322235S14756213EA012070119601209000
B0457553322237S14756220EA012100119701409000
B0457563322237S14756230EA012120120001509000
B0457573322232S14756241EA012160120201509000
B0457583322226S14756250EA012190120401309000
B0457593322218S14756255EA012210120701409000
B0458003322207S14756257EA012240121101309000
B0458013322198S14756256EA012250121301209000
B0458023322193S14756250EA012260121400909000
B0458033322191S14756243EA012270121801409000
B0458043322194S14756237EA012300122001609000
B0458053322200S14756232EA012320122101209000
B0458063322207S14756232EA012320122201209000
B0458073322213S14756238EA012340122501209000
B0458083322217S14756247EA012360122701409000
B0458093322216S14756257EA012380122701509000
B0458103322208S14756266EA012410122801109000
B0458113322200S14756271EA012440123001509000
B0458123322190S14756274EA012460123401209000
B0458133322181S14756271EA012480123601209000
B0458143322177S14756267EA012490123901309000
B0458153322176S14756261EA012510124101609000
B0458163322180S14756254EA012530124301409000
B0458173322184S14756250EA012530124501209000
B0458183322191S14756254EA012550124701409000
B0458193322196S14756260EA012580124901309000
B0458203322199S14756270EA012600125101309000
B0458213322198S14756279EA012610125200909000
B0458223322192S14756289EA012640125401609000
B0458233322184S14756295EA012670125701309000
B0458243322175S14756299EA012680125901309000
B0458253322166S14756298EA012690125900909000
B0458263322161S14756293EA012710126000909000
B0458273322159S14756285EA012740126201509000
B0458283322160S14756281EA012750126400909000
B0458293322164S14756278EA012770126500909000
B0458303322171S14756281EA012780126701409000
B0458313322178S14756289EA012790126901309000
B0458323322181S14756298EA012800127101109000
B0458333322180S14756309EA012820127301309000
B0458343322176S14756320EA012850127601309000
B0458353322170S14756328EA012880127701209000
B0458363322163S14756333EA012890127901109000
B0458373322155S14756333EA012910127901209000
B0458383322149S14756328EA012920127901509000
B0458393322147S14756318EA012920128101909000
B0458403322148S14756310EA012920128101409000
B0458413322153S14756306EA012940128301309000
B0458423322161S14756309EA012960128501509000
B0458433322167S14756315EA012970128601609000
B0458443322170S14756324EA012980128701509000
B0458453322168S14756332EA012980128801209000
B0458463322160S14756344EA013000128901109000
B0458473322151S14756351EA013030129201509000
B0458483322141S14756355EA013060129401309000
B0458493322134S14756353EA013080129601109000
B0458503322131S14756346EA013080129801409000
B0458513322131S14756337EA013080129901009000
B0458523322135S14756332EA013100130001209000
B0458533322143S14756334EA013120130201009000
B0458543322150S14756338EA013140130301209000
B0458553322155S14756347EA013160130501409000
F04585602050612192024252931
B0458563322158S14756358EA013160130701010000
B0458573322157S14756369EA013170130900810000
B0458583322153S14756380EA013190131001010000
F045859020512192024252931
B0458593322146S14756389EA013210131101409000
F04590002050612192024252931
B0459003322139S14756394EA013220131301110000
B0459013322130S14756393EA013230131501410000
B0459023322121S14756389EA013240131700910000
B0459033322116S14756383EA013250131800910000
B0459043322114S14756375EA013270131900910000
B0459053322115S14756367EA013280132000810000
B0459063322119S14756361EA013280132100910000
B0459073322125S14756362EA013280132201110000
B0459083322132S14756368EA013300132301110000
B0459093322137S14756378EA013320132400910000
B0459103322139S14756390EA013310132500910000
B0459113322138S14756401EA013310132500710000
B0459123322133S14756410EA013340132701310000
B0459133322126S14756416EA013370132801310000
B0459143322115S14756413EA013380132901310000
B0459153322108S14756409EA013380133001110000
B0459163322104S14756401EA013380133101210000
B0459173322106S14756389EA013370133101010000
B0459183322108S14756383EA013390133201010000
B0459193322113S14756383EA013420133301610000
B0459203322119S14756387EA013440133401410000
B0459213322126S14756397EA013460133601410000
B0459223322129S14756408EA013460133701310000
B0459233322127S14756421EA013460133801410000
B0459243322122S14756431EA013450133901210000
B0459253322113S14756436EA013440133901310000
B0459263322101S14756434EA013420133901410000
B0459273322094S14756429EA013430134000810000
B0459283322089S14756422EA013460134100810000
B0459293322087S14756415EA013480134300810000
B0459303322086S14756408EA013490134500710000
B0459313322085S14756402EA013510134600710000
B0459323322085S14756397EA013520134800810000
B0459333322085S14756392EA013540135000810000
B0459343322087S14756387EA013540135100510000
B0459353322089S14756383EA013540135100510000
B0459363322091S14756378EA013530135200510000
B0459373322094S14756374EA013540135200510000
B0459383322098S14756372EA013570135200510000
B0459393322103S14756372EA013560135200810000
B0459403322109S14756377EA013550135200810000
B0459413322115S14756384EA013550135200610000
B0459423322120S14756391EA013550135400610000
B0459433322125S14756399EA013570135400610000
B0459443322128S14756407EA013580135500510000
B0459453322129S14756416EA013590135500510000
B0459463322129S14756426EA013590135600410000
B0459473322126S14756436EA013580135600610000
B0459483322121S14756446EA013580135500610000
B0459493322114S14756452EA013580135500710000
B0459503322105S14756455EA013580135501110000
B0459513322096S14756452EA013570135500810000
B0459523322091S14756446EA013570135501410000
B0459533322089S14756439EA013570135401410000
B0459543322091S14756433EA013570135501210000
B0459553322095S14756431EA013560135401110000
B0459563322102S14756434EA013570135401210000
B0459573322108S14756441EA013580135501110000
B0459583322112S14756451EA013580135401210000
B0459593322114S14756461EA013580135500710000
B0500003322115S14756472EA013580135500610000
B0500013322116S14756483EA013590135600610000
B0500023322117S14756494EA013590135700710000
B0500033322119S14756503EA013600135800710000
B0500043322122S14756513EA013610135900710000
B0500053322124S14756522EA013620136100710000
B0500063322127S14756532EA013630136100710000
B0500073322130S14756541EA013650136300610000
B0500083322133S14756550EA013680136400610000
B0500093322136S14756559EA013720136600610000
B0500103322137S14756569EA013750136700610000
B0500113322136S14756580EA013760136800610000
B0500123322132S14756590EA013770136900710000
F050013020512192024252931
B0500133322127S14756601EA013750137000709000
F05001402050612192024252931
B0500143322122S14756610EA013750137100810000
B0500153322112S14756611EA013770137201310000
B0500163322103S14756607EA013780137301510000
B0500173322097S14756600EA013770137301310000
B0500183322097S14756593EA013760137401410000
B0500193322101S14756589EA013760137300910000
B0500203322106S14756590EA013760137301210000
B0500213322111S14756595EA013780137401010000
B0500223322115S14756605EA013810137501010000
B0500233322114S14756621EA013820137601310000
B0500243322110S14756634EA013820137601310000
B0500253322103S14756642EA013810137701310000
B0500263322094S14756645EA013820137701210000
B0500273322086S14756643EA013840137701110000
B0500283322081S14756636EA013860137901210000
B0500293322079S14756628EA013870138001010000
B0500303322079S14756621EA013860138000810000
B0500313322081S14756617EA013860138101110000
B0500323322085S14756618EA013880138201310000
B0500333322092S14756626EA013910138401210000
B0500343322097S14756636EA013930138501110000
B0500353322099S14756647EA013950138601010000
B0500363322097S14756659EA013940138601410000
B0500373322091S14756671EA013930138501410000
B0500383322083S14756678EA013910138701310000
B0500393322072S14756680EA013920138901310000
B0500403322064S14756679EA013950139000810000
B0500413322057S14756674EA013980139200710000
B0500423322053S14756668EA014010139300610000
B0500433322050S14756662EA014030139500610000
B0500443322049S14756656EA014050139800710000
B0500453322050S14756650EA014050140000810000
B0500463322054S14756649EA014070140200910000
B0500473322060S14756653EA014080140300910000
B0500483322066S14756660EA014080140501010000
B0500493322070S14756671EA014080140701010000
B0500503322071S14756682EA014090141101210000
B0500513322069S14756694EA014110141301210000
B0500523322064S14756705EA014120141601210000
B0500533322057S14756713EA014130141800910000
B0500543322048S14756715EA014150142001210000
B0500553322039S14756715EA014180142101410000
B0500563322033S14756712EA014190142200910000
B0500573322030S14756706EA014190142300910000
B0500583322030S14756699EA014200142301210000
B0500593322032S14756696EA014210142400910000
B0501003322039S14756697EA014210142301410000
B0501013322043S14756701EA014190142201410000
B0501023322047S14756710EA014170142201510000
B0501033322047S14756724EA014170142201410000
B0501043322043S14756737EA014170142100910000
B0501053322035S14756746EA014180142200910000
B0501063322026S14756750EA014210142301110000
B0501073322017S14756751EA014230142401110000
B0501083322011S14756746EA014240142601010000
B0501093322006S14756740EA014250142601110000
B0501103322005S14756733EA014250142700710000
B0501113322006S14756726EA014260142800910000
B0501123322008S14756722EA014290143000710000
B0501133322011S14756722EA014310143100810000
B0501143322017S14756725EA014330143101010000
B0501153322022S14756732EA014330143101110000
B0501163322025S14756741EA014330143101210000
B0501173322024S14756754EA014330143101210000
B0501183322019S14756767EA014330143101210000
B0501193322012S14756774EA014330143201210000
B0501203322001S14756775EA014330143301310000
B0501213321992S14756771EA014340143301210000
B0501223321987S14756766EA014340143301510000
B0501233321987S14756756EA014340143501410000
B0501243321988S14756749EA014370143600810000
B0501253321992S14756746EA014410143701010000
B0501263321997S14756748EA014420143800910000
B0501273322004S14756754EA014440144000910000
B0501283322008S14756762EA014440144100910000
B0501293322009S14756774EA014440144301110000
B0501303322007S14756786EA014470144601010000
B0501313322003S14756797EA014500144801010000
B0501323321996S14756805EA014520145100810000
B0501333321988S14756811EA014530145401010000
B0501343321979S14756814EA014550145601110000
B0501353321971S14756813EA014560145700910000
B0501363321964S14756810EA014580145901110000
B0501373321959S14756805EA014580146101110000
B0501383321958S14756798EA014590146300810000
B0501393321958S14756791EA014610146400810000
B0501403321960S14756787EA014620146600810000
B0501413321966S14756788EA014640146800810000
B0501423321972S14756792EA014670147101110000
B0501433321976S14756798EA014680147300710000
B0501443321980S14756808EA014700147400810000
B0501453321981S14756821EA014710147600810000
B0501463321979S14756834EA014720147801010000
B0501473321975S14756845EA014740148001010000
B0501483321969S14756854EA014770148301110000
B0501493321962S14756860EA014790148501010000
B0501503321955S14756864EA014810148700910000
B0501513321947S14756866EA014820148800910000
B0501523321938S14756864EA014810148800810000
B0501533321932S14756860EA014810149000810000
B0501543321928S14756854EA014830149100810000
B0501553321928S14756846EA014840149100810000
B0501563321930S14756841EA014860149200910000
B0501573321934S14756839EA014870149301010000
B0501583321940S14756843EA014900149501010000
B0501593321948S14756852EA014940149800810000
B0502003321950S14756863EA014960149900810000
B0502013321950S14756875EA014970150101010000
B0502023321946S14756886EA014980150100810000
B0502033321940S14756895EA014990150201210000
B0502043321931S14756899EA014990150301310000
B0502053321921S14756897EA014970150201210000
B0502063321913S14756892EA014940150201210000
B0502073321912S14756882EA014950150201410000
B0502083321913S14756874EA014970150301310000
B0502093321919S14756872EA015000150201710000
B0502103321926S14756878EA015020150301910000
B0502113321933S14756888EA015040150501510000
B0502123321934S14756898EA015050150601210000
B0502133321932S14756911EA015060150901310000
B0502143321926S14756920EA015080151001510000
B0502153321917S14756926EA015090151101310000
B0502163321907S14756928EA015080151301110000
B0502173321898S14756925EA015070151401210000
B0502183321892S14756922EA015070151501310000
B0502193321890S14756912EA015070151501610000
B0502203321891S14756903EA015080151501210000
B0502213321894S14756897EA015090151701010000
B0502223321900S14756895EA015090151801410000
B0502233321907S14756899EA015120151901310000
B0502243321913S14756905EA015140152100810000
B0502253321917S14756912EA015160152000810000
B0502263321918S14756923EA015160152100810000
B0502273321917S14756936EA015160152101110000
B0502283321912S14756946EA015170152201310000
B0502293321905S14756954EA015170152101410000
B0502303321897S14756958EA015170152101410000
B0502313321888S14756956EA015150152001210000
B0502323321881S14756951EA015130151800910000
B0502333321878S14756942EA015130151901410000
B0502343321878S14756934EA015130152001210000
B0502353321882S14756928EA015140151901010000
B0502363321888S14756928EA015150151901510000
B0502373321897S14756933EA015160152101410000
B0502383321901S14756942EA015170152101410000
B0502393321901S14756953EA015180152301210000
B0502403321899S14756964EA015190152301110000
B0502413321895S14756973EA015190152301110000
B0502423321887S14756980EA015190152300910000
B0502433321878S14756984EA015180152301110000
B0502443321869S14756982EA015190152401110000
B0502453321862S14756979EA015190152401010000
B0502463321857S14756973EA015200152401210000
B0502473321854S14756965EA015190152300810000
B0502483321855S14756958EA015190152300810000
B0502493321859S14756956EA015180152200910000
B0502503321866S14756961EA015190152301110000
B0502513321871S14756970EA015230152600910000
B0502523321874S14756980EA015260152700610000
B0502533321876S14756990EA015280152900910000
B0502543321876S14757001EA015290153000610000
F050255020506122024252931
B0502553321876S14757013EA015280153100609000
B0502563321875S14757025EA015290153200509000
B0502573321873S14757036EA015330153400509000
B0502583321869S14757046EA015350153500509000
B0502593321865S14757057EA015360153700609000
B0503003321858S14757065EA015370153800709000
B0503013321850S14757070EA015380153900809000
B0503023321843S14757071EA015400154101109000
B0503033321836S14757069EA015430154300809000
B0503043321830S14757065EA015450154600809000
B0503053321827S14757058EA015480154901409000
B0503063321826S14757050EA015490155101509000
B0503073321828S14757043EA015500155301209000
B0503083321832S14757038EA015520155501209000
B0503093321839S14757041EA015530155801309000
B0503103321844S14757048EA015550156001209000
B0503113321847S14757058EA015570156301309000
B0503123321847S14757070EA015590156501109000
B0503133321843S14757081EA015600156701209000
B0503143321836S14757090EA015610156800909000
B0503153321827S14757095EA015630156901009000
B0503163321819S14757094EA015650157101409000
B0503173321814S14757091EA015690157201309000
B0503183321813S14757083EA015720157301309000
B0503193321814S14757077EA015730157401209000
B0503203321818S14757075EA015750157601209000
B0503213321823S14757078EA015780157901309000
B0503223321829S14757085EA015800158101409000
B0503233321832S14757096EA015820158401309000
B0503243321831S14757107EA015850158801209000
B0503253321829S14757118EA015880159201109000
B0503263321824S14757129EA015910159401109000
B0503273321818S14757137EA015930159801109000
B0503283321810S14757141EA015940160001209000
B0503293321801S14757140EA015950160301109000
B0503303321793S14757138EA015970160500809000
B0503313321786S14757133EA016000160900809000
B0503323321783S14757127EA016020161300809000
B0503333321781S14757120EA016060161600809000
B0503343321782S14757115EA016080161900809000
B0503353321786S14757111EA016100162201109000
B0503363321792S14757111EA016110162601309000
B0503373321798S14757115EA016130162901209000
B0503383321803S14757122EA016150163201109000
B0503393321807S14757133EA016180163401109000
B0503403321807S14757144EA016200163700909000
B0503413321805S14757154EA016230164000909000
B0503423321801S14757164EA016250164201209000
B0503433321794S14757171EA016270164301309000
B0503443321786S14757176EA016280164401309000
B0503453321777S14757176EA016290164501309000
B0503463321769S14757172EA016310164600909000
B0503473321765S14757166EA016330164801009000
B0503483321763S14757159EA016350165001109000
B0503493321763S14757151EA016370165101309000
B0503503321768S14757148EA016390165201209000
B0503513321775S14757150EA016400165301509000
B0503523321781S14757154EA016410165401109000
B0503533321786S14757165EA016420165601409000
B0503543321787S14757177EA016430165601409000
B0503553321783S14757190EA016450165801509000
B0503563321776S14757198EA016470165901509000
B0503573321765S14757202EA016490166001509000
B0503583321756S14757203EA016490166101109000
B0503593321749S14757198EA016500166201009000
B0504003321745S14757191EA016520166401209000
B0504013321744S14757183EA016550166500909000
B0504023321746S14757177EA016570166601109000
B0504033321752S14757176EA016590166701309000
B0504043321759S14757181EA016600167001209000
B0504053321765S14757189EA016600167101309000
B0504063321766S14757200EA016590167201409000
B0504073321764S14757212EA016600167201009000
B0504083321757S14757221EA016620167401209000
B0504093321749S14757227EA016640167601209000
B0504103321739S14757228EA016650167601209000
B0504113321731S14757226EA016650167701409000
B0504123321724S14757222EA016660167901509000
B0504133321720S14757216EA016690168000909000
B0504143321719S14757209EA016720168201009000
B0504153321720S14757204EA016740168400909000
B0504163321723S14757199EA016750168501009000
B0504173321727S14757196EA016760168701409000
B0504183321732S14757197EA016770168901609000
B0504193321737S14757202EA016790169101109000
B0504203321740S14757211EA016810169201409000
B0504213321739S14757222EA016810169400909000
B0504223321736S14757233EA016800169401009000
B0504233321728S14757242EA016790169401309000
B0504243321719S14757245EA016800169401509000
B0504253321709S14757243EA016810169500809000
B0504263321703S14757238EA016830169601209000
B0504273321701S14757232EA016850169701209000
B0504283321701S14757225EA016870169800909000
B0504293321704S14757220EA016860169801209000
B0504303321710S14757218EA016860169901209000
B0504313321716S14757221EA016860170201509000
B0504323321721S14757229EA016870170401309000
B0504333321725S14757238EA016890170601009000
B0504343321726S14757249EA016900170800609000
B0504353321724S14757261EA016910171000809000
B0504363321719S14757270EA016930171201009000
B0504373321713S14757278EA016950171300909000
B0504383321705S14757282EA016970171300909000
B0504393321697S14757284EA016970171401109000
B0504403321688S14757281EA016970171500909000
B0504413321681S14757277EA016970171600809000
B0504423321676S14757271EA016980171600809000
B0504433321673S14757264EA017000171700909000
B0504443321672S14757255EA017000171700909000
B0504453321673S14757248EA017000171801109000
B0504463321679S14757245EA017010171901209000
B0504473321684S14757243EA017020172001109000
B0504483321690S14757242EA017040172200909000
B0504493321697S14757244EA017070172400809000
B0504503321703S14757247EA017100172600809000
B0504513321708S14757252EA017130172800709000
B0504523321714S14757258EA017150172900709000
B0504533321719S14757266EA017150173100609000
B0504543321722S14757276EA017160173200509000
B0504553321724S14757286EA017170173300509000
B0504563321724S14757297EA017200173600509000
B0504573321722S14757308EA017220173800509000
B0504583321719S14757318EA017240174000509000
B0504593321715S14757327EA017260174300609000
B0505003321708S14757333EA017300174400809000
B0505013321700S14757336EA017300174601009000
B0505023321691S14757335EA017290174700909000
B0505033321685S14757329EA017290174800809000
B0505043321682S14757322EA017310175000909000
B0505053321683S14757314EA017320175101009000
B0505063321686S14757307EA017330175201109000
B0505073321691S14757305EA017340175101509000
B0505083321700S14757308EA017350175201309000
B0505093321707S14757316EA017350175301609000
B0505103321710S14757328EA017350175401209000
B0505113321709S14757341EA017370175401009000
B0505123321704S14757352EA017380175601609000
B0505133321696S14757359EA017400175801409000
B0505143321688S14757362EA017410175901209000
B0505153321679S14757359EA017420176100909000
B0505163321672S14757354EA017440176200909000
B0505173321668S14757346EA017450176400809000
B0505183321666S14757339EA017460176600809000
B0505193321665S14757332EA017480176700909000
B0505203321667S14757326EA017490176800809000
B0505213321672S14757322EA017500176900909000
B0505223321676S14757318EA017510177101209000
B0505233321684S14757319EA017530177401509000
B0505243321690S14757322EA017550177601309000
B0505253321695S14757327EA017570177901209000
B0505263321699S14757336EA017600178201209000
B0505273321699S14757346EA017630178400909000
B0505283321696S14757356EA017650178601009000
B0505293321691S14757364EA017660178600909000
B0505303321684S14757369EA017660178700909000
B0505313321673S14757368EA017660178801009000
B0505323321666S14757363EA017660178900909000
B0505333321663S14757352EA017660178801509000
B0505343321663S14757341EA017640178801409000
B0505353321669S14757335EA017630178801409000
B0505363321677S14757335EA017660178801409000
B0505373321685S14757340EA017690178901509000
B0505383321692S14757349EA017690178901509000
B0505393321697S14757358EA017700179101309000
B0505403321700S14757367EA017720179301209000
B0505413321703S14757375EA017740179500809000
B0505423321706S14757383EA017760179600809000
B0505433321709S14757390EA017780179700709000
B0505443321713S14757398EA017780179800509000
B0505453321717S14757406EA017780179800609000
B0505463321719S14757415EA017790179900509000
B0505473321720S14757425EA017790179900709000
B0505483321718S14757436EA017780180000809000
B0505493321712S14757445EA017770180001009000
B0505503321703S14757450EA017770180001109000
B0505513321694S14757452EA017770180000809000
B0505523321685S14757449EA017780180100809000
B0505533321676S14757445EA017790180200709000
B0505543321669S14757441EA017810180300709000
B0505553321661S14757437EA017830180500609000
B0505563321654S14757435EA017860180600509000
B0505573321647S14757432EA017870180700509000
B0505583321641S14757429EA017880180700509000
B0505593321633S14757426EA017880180700509000
B0506003321626S14757423EA017870180700509000
B0506013321619S14757418EA017880180600409000
B0506023321613S14757412EA017860180700509000
B0506033321606S14757407EA017860180800509000
B0506043321600S14757402EA017860180800509000
B0506053321593S14757397EA017880180900509000
B0506063321587S14757391EA017890181000409000
B0506073321581S14757386EA017890181100409000
B0506083321576S14757381EA017900181300409000
B0506093321570S14757376EA017910181400609000
B0506103321564S14757372EA017920181500609000
B0506113321557S14757368EA017940181700709000
B0506123321551S14757363EA017960181800609000
B0506133321546S14757359EA017970182000709000
B0506143321540S14757355EA017990182200709000
B0506153321535S14757352EA018030182400609000
B0506163321529S14757348EA018070182700709000
B0506173321522S14757345EA018090182900609000
B0506183321515S14757343EA018110183100409000
B0506193321508S14757341EA018130183200409000
B0506203321499S14757340EA018140183300409000
B0506213321489S14757338EA018140183400509000
B0506223321479S14757335EA018160183500509000
B0506233321469S14757331EA018190183600509000
B0506243321460S14757325EA018200183800809000
B0506253321455S14757317EA018220184000909000
B0506263321452S14757307EA018260184300909000
B0506273321452S14757299EA018300184600909000
B0506283321453S14757292EA018340184801009000
B0506293321457S14757289EA018350185201309000
B0506303321463S14757289EA018370185501209000
B0506313321470S14757293EA018410186001209000
B0506323321475S14757297EA018440186401009000
B0506333321480S14757302EA018470186700909000
B0506343321486S14757306EA018490187000809000
B0506353321491S14757310EA018500187200709000
B0506363321496S14757312EA018510187300709000
B0506373321502S14757314EA018520187500709000
B0506383321507S14757314EA018530187700609000
B0506393321513S14757315EA018540187900609000
B0506403321518S14757315EA018560188000609000
B0506413321523S14757317EA018560188100609000
B0506423321529S14757319EA018550188200609000
B0506433321535S14757322EA018550188300609000
B0506443321541S14757323EA018560188500609000
B0506453321547S14757325EA018560188600509000
B0506463321553S14757327EA018570188800509000
B0506473321559S14757331EA018590188900509000
B0506483321565S14757334EA018610189100509000
B0506493321570S14757337EA018640189300609000
B0506503321576S14757339EA018670189400609000
B0506513321581S14757341EA018700189600609000
B0506523321586S14757344EA018710189800609000
B0506533321591S14757347EA018730190000609000
B0506543321596S14757351EA018750190200509000
B0506553321601S14757355EA018770190400509000
B0506563321605S14757361EA018800190600509000
B0506573321607S14757369EA018810190700609000
B0506583321606S14757377EA018830190900509000
B0506593321604S14757385EA018870191100709000
B0507003321600S14757392EA018890191300709000
B0507013321595S14757399EA018900191400809000
B0507023321588S14757405EA018900191500909000
B0507033321580S14757409EA018900191501009000
B0507043321571S14757409EA018890191501109000
B0507053321561S14757407EA018890191600709000
B0507063321553S14757401EA018900191700809000
B0507073321548S14757393EA018900191800809000
B0507083321546S14757385EA018940191900809000
B0507093321547S14757377EA018970192100809000
B0507103321551S14757372EA018980192201209000
B0507113321556S14757373EA018990192301309000
B0507123321560S14757378EA019000192401309000
B0507133321565S14757389EA019020192501609000
B0507143321565S14757401EA019020192501209000
B0507153321561S14757412EA019020192701109000
B0507163321553S14757421EA019030192801409000
B0507173321544S14757425EA019040193001609000
B0507183321534S14757424EA019070193200909000
B0507193321526S14757419EA019090193400809000
B0507203321522S14757409EA019100193401209000
B0507213321520S14757399EA019110193501109000
B0507223321520S14757391EA019110193600909000
B0507233321524S14757386EA019120193901109000
B0507243321530S14757386EA019140194201209000
B0507253321535S14757390EA019160194401209000
B0507263321541S14757397EA019170194501009000
B0507273321543S14757407EA019180194600909000
B0507283321543S14757418EA019170194801009000
B0507293321542S14757428EA019180194900909000
B0507303321540S14757437EA019210195000909000
B0507313321536S14757446EA019230195100809000
B0507323321531S14757454EA019240195200809000
B0507333321525S14757461EA019230195300909000
B0507343321517S14757467EA019250195400909000
B0507353321509S14757471EA019270195500909000
B0507363321500S14757473EA019280195501009000
B0507373321491S14757471EA019280195600809000
B0507383321484S14757466EA019290195701009000
B0507393321480S14757457EA019310195801609000
B0507403321478S14757448EA019320195901109000
B0507413321480S14757441EA019340196001209000
B0507423321484S14757436EA019350196101309000
B0507433321491S14757438EA019350196101309000
B0507443321498S14757445EA019360196101309000
B0507453321501S14757456EA019360196201209000
B0507463321500S14757469EA019360196201209000
B0507473321494S14757481EA019360196301209000
B0507483321486S14757490EA019360196401409000
B0507493321477S14757492EA019380196501209000
B0507503321466S14757487EA019400196601709000
B0507513321460S14757480EA019410196701609000
B0507523321458S14757470EA019430196801409000
B0507533321459S14757459EA019450196900909000
B0507543321462S14757455EA019470197201509000
B0507553321466S14757454EA019490197301509000
B0507563321474S14757459EA019500197401609000
B0507573321480S14757467EA019490197501709000
B0507583321482S14757477EA019480197501209000
B0507593321481S14757489EA019470197601309000
B0508003321474S14757500EA019480197801609000
B0508013321468S14757509EA019510198001009000
B0508023321459S14757513EA019550198101009000
B0508033321449S14757512EA019570198301209000
B0508043321440S14757509EA019580198501109000
B0508053321432S14757504EA019590198600809000
B0508063321426S14757497EA019600198700909000
B0508073321423S14757488EA019610198900809000
B0508083321422S14757480EA019630199100809000
B0508093321423S14757473EA019660199300909000
B0508103321426S14757470EA019670199401109000
B0508113321431S14757470EA019680199601209000
B0508123321436S14757475EA019670199601109000
B0508133321440S14757484EA019650199701109000
B0508143321440S14757495EA019640199701109000
B0508153321436S14757506EA019640199801109000
B0508163321429S14757515EA019650199901109000
B0508173321420S14757519EA019660200101409000
B0508183321409S14757517EA019670200101109000
B0508193321399S14757511EA019690200201009000
B0508203321393S14757503EA019710200301509000
B0508213321391S14757494EA019730200400909000
B0508223321391S14757485EA019740200400909000
B0508233321394S14757478EA019750200501009000
B0508243321399S14757474EA019740200401209000
B0508253321404S14757475EA019730200501309000
B0508263321409S14757479EA019730200501109000
B0508273321411S14757488EA019730200501109000
B0508283321409S14757500EA019720200501009000
B0508293321404S14757510EA019710200501109000
B0508303321398S14757518EA019720200501109000
B0508313321389S14757523EA019740200601009000
B0508323321380S14757526EA019770200701109000
B0508333321372S14757527EA019800200901009000
B0508343321363S14757526EA019820201100909000
B0508353321356S14757523EA019840201200809000
B0508363321349S14757517EA019850201301109000
B0508373321345S14757509EA019850201301209000
B0508383321345S14757498EA019850201401309000
B0508393321347S14757489EA019830201401109000
B0508403321353S14757484EA019810201401109000
B0508413321361S14757485EA019820201501309000
B0508423321368S14757490EA019830201500909000
B0508433321371S14757496EA019830201601209000
B0508443321372S14757506EA019830201701209000
B0508453321371S14757518EA019830201601109000
B0508463321365S14757527EA019820201701209000
B0508473321358S14757533EA019830201701009000
B0508483321348S14757535EA019840201701209000
B0508493321336S14757533EA019840201601009000
B0508503321325S14757532EA019840201701009000
B0508513321316S14757530EA019850201801009000
B0508523321307S14757528EA019870201900809000
B0508533321299S14757527EA019880201900909000
B0508543321291S14757525EA019880201800709000
B0508553321282S14757523EA019870201800709000
B0508563321274S14757521EA019860201900709000
B0508573321265S14757517EA019860201900709000
B0508583321257S14757513EA019880202000809000
B0508593321249S14757508EA019900202100609000
B0509003321243S14757502EA019900202100609000
B0509013321236S14757494EA019880202000509000
B0509023321230S14757487EA019850202000609000
B0509033321224S14757480EA019820202000609000
B0509043321218S14757473EA019820202100509000
B0509053321212S14757467EA019820202100509000
B0509063321206S14757461EA019830202100409000
B0509073321200S14757455EA019840202100509000
B0509083321192S14757451EA019830202100709000
B0509093321185S14757447EA019830202100709000
B0509103321178S14757443EA019850202000809000
B0509113321171S14757440EA019850201900709000
B0509123321164S14757437EA019830201800709000
B0509133321157S14757434EA019820201800709000
B0509143321151S14757431EA019820201700709000
B0509153321144S14757428EA019810201600509000
B0509163321138S14757424EA019790201500509000
B0509173321132S14757419EA019770201500509000
B0509183321129S14757413EA019770201400509000
B0509193321127S14757406EA019770201300509000
B0509203321126S14757399EA019760201200509000
B0509213321127S14757392EA019730201000709000
B0509223321130S14757386EA019680200900909000
B0509233321136S14757381EA019640200601009000
B0509243321142S14757376EA019590200300809000
B0509253321147S14757372EA019570200100709000
B0509263321151S14757367EA019550199900709000
B0509273321154S14757363EA019540199700709000
B0509283321158S14757359EA019530199500609000
B0509293321161S14757355EA019500199300509000
B0509303321165S14757351EA019460199000609000
B0509313321170S14757348EA019430198700609000
B0509323321174S14757346EA019410198500609000
B0509333321179S14757345EA019400198300609000
B0509343321183S14757343EA019390198000609000
B0509353321188S14757341EA019380197800509000
B0509363321192S14757338EA019380197500509000
B0509373321196S14757336EA019350197300509000
B0509383321200S14757333EA019320197100509000
B0509393321203S14757331EA019310196900509000
B0509403321205S14757328EA019290196700509000
B0509413321208S14757324EA019280196500609000
B0509423321211S14757321EA019260196300509000
B0509433321216S14757319EA019240196000509000
B0509443321221S14757318EA019200195700709000
B0509453321226S14757320EA019160195400809000
B0509463321231S14757324EA019160195100809000
B0509473321234S14757329EA019160194900709000
B0509483321238S14757335EA019160194700709000
B0509493321241S14757343EA019130194300709000
B0509503321243S14757352EA019090194000609000
B0509513321245S14757362EA019070193800509000
B0509523321245S14757370EA019070193700409000
B0509533321244S14757379EA019060193500509000
B0509543321243S14757387EA019040193200409000
B0509553321242S14757396EA019010193000409000
B0509563321239S14757405EA018980192700509000
B0509573321235S14757414EA018960192400509000
B0509583321230S14757424EA018920192100609000
B0509593321224S14757433EA018890192000609000
B0510003321217S14757441EA018870191800609000
B0510013321211S14757449EA018870191600409000
B0510023321204S14757456EA018860191400509000
B0510033321199S14757464EA018830191200509000
B0510043321193S14757472EA018810191000509000
B0510053321187S14757481EA018780190700409000
B0510063321182S14757489EA018760190500409000
B0510073321176S14757496EA018740190300409000
B0510083321169S14757503EA018720190100409000
B0510093321162S14757510EA018690189900509000
B0510103321156S14757516EA018680189700809000
F0510110205061220252931
B0510113321150S14757522EA018660189500808000
F051012020506122024252931
B0510123321144S14757529EA018640189300509000
B0510133321138S14757536EA018620189000409000
B0510143321133S14757545EA018600188800409000
B0510153321129S14757554EA018570188500409000
B0510163321126S14757563EA018550188300409000
B0510173321123S14757572EA018530188100409000
B0510183321120S14757581EA018510187800309000
B0510193321117S14757590EA018480187500409000
B0510203321113S14757599EA018450187200409000
B0510213321108S14757609EA018420187000409000
B0510223321102S14757618EA018390186700509000
B0510233321097S14757629EA018370186500509000
B0510243321093S14757639EA018360186300509000
B0510253321088S14757648EA018370186200609000
B0510263321083S14757657EA018380186000609000
B0510273321078S14757666EA018380185800609000
B0510283321072S14757676EA018360185700509000
B0510293321065S14757686EA018340185500509000
B0510303321059S14757695EA018320185400509000
B0510313321053S14757705EA018310185400609000
B0510323321049S14757714EA018320185300609000
B0510333321044S14757723EA018320185200609000
B0510343321040S14757732EA018310185100609000
B0510353321036S14757742EA018300185100509000
B0510363321032S14757752EA018300185000509000
B0510373321027S14757762EA018290185000509000
B0510383321023S14757771EA018280185000509000
B0510393321018S14757780EA018280185000409000
B0510403321013S14757789EA018280185000409000
B0510413321008S14757798EA018270184900409000
B0510423321002S14757808EA018260184900409000
B0510433320997S14757818EA018260184800409000
B0510443320991S14757828EA018250184800409000
B0510453320987S14757838EA018260184800409000
B0510463320983S14757849EA018270184900409000
B0510473320980S14757860EA018270185000409000
B0510483320976S14757872EA018280185000409000
B0510493320974S14757883EA018280185100409000
B0510503320971S14757894EA018290185200509000
B0510513320969S14757905EA018310185300509000
B0510523320967S14757916EA018320185500509000
B0510533320966S14757926EA018340185700509000
B0510543320966S14757936EA018360185900409000
B0510553320965S14757946EA018380186000509000
B0510563320965S14757956EA018400186200509000
B0510573320964S14757966EA018420186400509000
B0510583320964S14757976EA018430186600509000
B0510593320963S14757987EA018440186700309000
B0511003320961S14757998EA018450186900309000
B0511013320958S14758010EA018490187100409000
B0511023320954S14758022EA018500187200509000
B0511033320947S14758031EA018510187500609000
B0511043320939S14758037EA018560187600709000
B0511053320931S14758039EA018600187800909000
B0511063320923S14758037EA018620188000809000
B0511073320917S14758031EA018620188200809000
B0511083320915S14758022EA018620188300909000
B0511093320916S14758016EA018620188401009000
B0511103320920S14758012EA018620188501109000
B0511113320925S14758012EA018630188701109000
B0511123320931S14758019EA018640189001009000
B0511133320934S14758027EA018670189101209000
B0511143320935S14758039EA018690189401209000
B0511153320932S14758053EA018700189601009000
B0511163320926S14758065EA018720189901009000
B0511173320919S14758075EA018750190200909000
B0511183320910S14758082EA018780190400809000
B0511193320901S14758086EA018820190800809000
B0511203320891S14758087EA018880191100809000
B0511213320882S14758087EA018920191400809000
B0511223320875S14758083EA018930191701109000
B0511233320870S14758078EA018950191901209000
B0511243320867S14758071EA018970192101309000
B0511253320870S14758066EA018970192201509000
B0511263320873S14758065EA018960192301109000
B0511273320879S14758069EA018970192501209000
B0511283320882S14758078EA018990192601209000
B0511293320882S14758090EA019020192701109000
B0511303320877S14758104EA019040193001209000
B0511313320870S14758115EA019060193201209000
B0511323320861S14758123EA019080193401109000
B0511333320850S14758127EA019100193801309000
B0511343320839S14758127EA019140194101109000
B0511353320831S14758124EA019170194300909000
B0511363320823S14758119EA019200194600909000
B0511373320817S14758112EA019220194900909000
B0511383320813S14758105EA019260195100809000
B0511393320812S14758099EA019280195400809000
B0511403320812S14758094EA019280195601109000
B0511413320815S14758092EA019280195601009000
B0511423320819S14758093EA019280195701309000
B0511433320824S14758102EA019280196001209000
B0511443320826S14758117EA019280196101209000
B0511453320823S14758130EA019290196101009000
B0511463320816S14758141EA019310196101509000
B0511473320806S14758149EA019310196201309000
B0511483320795S14758154EA019320196301109000
B0511493320785S14758152EA019350196401009000
B0511503320778S14758149EA019370196601109000
B0511513320774S14758141EA019410196701009000
B0511523320772S14758134EA019430196800909000
B0511533320773S14758127EA019420196800909000
B0511543320776S14758122EA019420196901109000
B0511553320781S14758122EA019420197001109000
B0511563320786S14758128EA019420197001009000
B0511573320790S14758137EA019420197101009000
B0511583320790S14758148EA019420197201009000
B0511593320787S14758160EA019420197201109000
B0512003320781S14758171EA019420197401209000
B0512013320771S14758177EA019430197401309000
B0512023320759S14758178EA019440197401309000
B0512033320748S14758174EA019460197401209000
B0512043320741S14758166EA019470197601509000
B0512053320739S14758159EA019490197701309000
B0512063320739S14758151EA019500197801209000
B0512073320741S14758146EA019500197801109000
B0512083320745S14758145EA019510197901409000
B0512093320751S14758148EA019510197901109000
B0512103320755S14758155EA019510198001209000
B0512113320758S14758165EA019520198101309000
B0512123320758S14758177EA019530198101009000
B0512133320753S14758190EA019540198201409000
B0512143320746S14758201EA019540198301309000
B0512153320736S14758207EA019540198401309000
B0512163320726S14758210EA019560198401009000
B0512173320716S14758208EA019580198500709000
B0512183320708S14758204EA019590198700809000
B0512193320703S14758197EA019610198901209000
B0512203320700S14758191EA019630199200609000
B0512213320700S14758185EA019640199200809000
B0512223320701S14758181EA019650199301009000
B0512233320704S14758180EA019650199401109000
B0512243320708S14758183EA019660199501209000
B0512253320712S14758190EA019660199401009000
B0512263320715S14758200EA019650199401109000
B0512273320715S14758213EA019650199401109000
B0512283320711S14758225EA019650199401009000
B0512293320705S14758236EA019660199500909000
B0512303320697S14758243EA019680199601009000
B0512313320686S14758245EA019710199701309000
B0512323320675S14758242EA019720199801009000
B0512333320668S14758238EA019730199901409000
B0512343320665S14758231EA019730200001409000
B0512353320664S14758223EA019730200101209000
B0512363320665S14758217EA019730200100909000
B0512373320667S14758213EA019730200101009000
B0512383320671S14758213EA019740200201209000
B0512393320676S14758217EA019750200301309000
B0512403320680S14758225EA019750200401409000
B0512413320682S14758234EA019770200601209000
B0512423320681S14758246EA019780200601009000
B0512433320677S14758258EA019780200700909000
F0512440205061220252931
B0512443320670S14758269EA019780200801308000
F051245020506122024252931
B0512453320663S14758277EA019790200900909000
B0512463320654S14758282EA019800200901109000
B0512473320643S14758280EA019810201001209000
B0512483320634S14758275EA019810201100809000
B0512493320628S14758269EA019820201100809000
B0512503320625S14758262EA019830201300709000
B0512513320623S14758255EA019850201500809000
B0512523320623S14758250EA019880201700709000
B0512533320625S14758246EA019900201800809000
B0512543320626S14758244EA019920201900909000
B0512553320630S14758247EA019910202001209000
B0512563320635S14758253EA019900202101009000
B0512573320637S14758264EA019900202201009000
B0512583320637S14758277EA019890202201009000
B0512593320633S14758290EA019890202100809000
B0513003320626S14758303EA019880202200909000
B0513013320617S14758314EA019880202200909000
B0513023320608S14758322EA019890202300909000
B0513033320597S14758326EA019910202401209000
B0513043320586S14758326EA019930202401209000
B0513053320574S14758323EA019930202500809000
B0513063320566S14758317EA019930202501109000
B0513073320560S14758309EA019920202601009000
B0513083320557S14758301EA019940202700809000
B0513093320555S14758294EA019960202800809000
B0513103320556S14758289EA019980202900909000
B0513113320558S14758285EA019990202900809000
B0513123320561S14758281EA019990203000809000
B0513133320565S14758279EA020000203100809000
B0513143320569S14758279EA020010203200809000
B0513153320574S14758281EA020020203400809000
B0513163320578S14758285EA020020203400809000
B0513173320581S14758293EA020030203600709000
B0513183320582S14758303EA020040203600809000
B0513193320582S14758314EA020050203700709000
B0513203320578S14758326EA020060203800809000
B0513213320572S14758337EA020070204000809000
B0513223320564S14758345EA020080204000809000
B0513233320556S14758353EA020080204101109000
B0513243320546S14758355EA020080204201209000
B0513253320535S14758352EA020090204100909000
B0513263320529S14758346EA020090204201209000
B0513273320525S14758338EA020100204200909000
B0513283320523S14758332EA020110204400909000
B0513293320523S14758327EA020130204401109000
B0513303320525S14758326EA020140204501309000
B0513313320529S14758329EA020150204601309000
B0513323320532S14758336EA020150204601109000
B0513333320534S14758346EA020140204501109000
B0513343320532S14758358EA020120204601209000
B0513353320526S14758369EA020110204601009000
B0513363320519S14758378EA020110204601209000
B0513373320509S14758384EA020110204601209000
B0513383320499S14758382EA020110204501209000
B0513393320491S14758376EA020110204501109000
B0513403320487S14758368EA020110204501009000
B0513413320485S14758360EA020120204601009000
B0513423320484S14758354EA020150204700909000
B0513433320485S14758351EA020170204800909000
B0513443320488S14758350EA020170204801109000
B0513453320493S14758352EA020170204901209000
B0513463320497S14758357EA020170205000909000
B0513473320501S14758367EA020170205001009000
B0513483320501S14758380EA020170205001009000
B0513493320496S14758392EA020180205201109000
B0513503320487S14758400EA020180205301109000
B0513513320477S14758404EA020190205301109000
B0513523320467S14758403EA020200205301009000
B0513533320459S14758399EA020210205301409000
B0513543320454S14758393EA020210205301309000
B0513553320451S14758385EA020210205301309000
B0513563320450S14758377EA020210205401109000
B0513573320450S14758369EA020200205501109000
B0513583320452S14758363EA020210205701109000
B0513593320453S14758358EA020240205801009000
B0514003320454S14758353EA020260206000909000
B0514013320455S14758348EA020280206200909000
B0514023320456S14758343EA020310206300809000
B0514033320458S14758338EA020340206500809000
B0514043320459S14758333EA020360206700709000
B0514053320461S14758329EA020370206900709000
B0514063320463S14758325EA020380207100609000
B0514073320465S14758322EA020390207200609000
B0514083320468S14758318EA020400207300609000
B0514093320471S14758316EA020390207400609000
B0514103320475S14758315EA020370207400609000
B0514113320479S14758317EA020360207400709000
B0514123320483S14758322EA020360207300809000
B0514133320485S14758330EA020360207300809000
B0514143320485S14758341EA020340207100809000
B0514153320483S14758353EA020330207000809000
B0514163320482S14758364EA020320207000809000
B0514173320480S14758376EA020330207100709000
B0514183320479S14758387EA020340207100709000
B0514193320479S14758398EA020350207200709000
B0514203320479S14758409EA020360207300709000
B0514213320480S14758420EA020380207400609000
B0514223320481S14758431EA020390207400609000
B0514233320482S14758441EA020400207500609000
B0514243320482S14758452EA020420207700509000
B0514253320482S14758461EA020460207900509000
B0514263320483S14758471EA020480208100509000
B0514273320483S14758481EA020490208200509000
B0514283320484S14758491EA020500208300509000
B0514293320484S14758501EA020510208500509000
B0514303320484S14758511EA020520208600509000
B0514313320482S14758522EA020540208800509000
B0514323320479S14758533EA020550208900509000
B0514333320474S14758543EA020550209000609000
B0514343320467S14758551EA020560209200809000
B0514353320459S14758557EA020580209301009000
B0514363320450S14758557EA020590209501009000
B0514373320441S14758553EA020580209400809000
B0514383320437S14758547EA020570209501009000
B0514393320436S14758539EA020570209500909000
B0514403320438S14758534EA020570209501009000
B0514413320441S14758533EA020580209501009000
B0514423320448S14758540EA020580209601309000
B0514433320452S14758549EA020570209501009000
B0514443320455S14758561EA020570209600809000
B0514453320457S14758571EA020570209700909000
B0514463320459S14758581EA020600209700909000
B0514473320461S14758590EA020630209900909000
B0514483320463S14758597EA020650210001009000
B0514493320465S14758605EA020660210100809000
B0514503320467S14758613EA020660210200809000
B0514513320469S14758621EA020660210300609000
B0514523320471S14758629EA020670210400609000
B0514533320472S14758637EA020680210500709000
B0514543320473S14758646EA020690210600609000
B0514553320474S14758655EA020700210700609000
B0514563320475S14758664EA020710210800509000
B0514573320477S14758673EA020710210900509000
B0514583320478S14758681EA020710211000509000
B0514593320480S14758690EA020720211000409000
B0515003320483S14758699EA020730211100409000
B0515013320486S14758708EA020730211100409000
B0515023320489S14758717EA020740211100509000
B0515033320492S14758726EA020730211200509000
B0515043320494S14758734EA020740211300509000
B0515053320496S14758743EA020750211500509000
B0515063320498S14758750EA020770211500509000
B0515073320500S14758759EA020780211500509000
B0515083320502S14758767EA020790211600509000
B0515093320505S14758776EA020790211600409000
B0515103320507S14758786EA020790211700509000
B0515113320509S14758795EA020800211800509000
B0515123320512S14758804EA020810211900509000
B0515133320514S14758813EA020810212000509000
B0515143320517S14758822EA020830212200509000
B0515153320520S14758830EA020850212300409000
B0515163320523S14758839EA020880212500409000
B0515173320526S14758847EA020900212700509000
B0515183320528S14758856EA020920212800609000
B0515193320531S14758864EA020930213000409000
B0515203320534S14758873EA020940213200409000
B0515213320536S14758882EA020960213400409000
B0515223320539S14758891EA020990213600409000
B0515233320541S14758899EA021010213700409000
B0515243320545S14758907EA021010213900309000
B0515253320549S14758915EA021030214000409000
B0515263320553S14758923EA021040214100409000
B0515273320557S14758930EA021040214100409000
B0515283320562S14758938EA021040214200509000
B0515293320566S14758945EA021030214200509000
B0515303320569S14758953EA021040214400409000
B0515313320573S14758961EA021050214500609000
B0515323320576S14758969EA021060214500609000
B0515333320578S14758978EA021050214500709000
B0515343320581S14758988EA021020214500509000
B0515353320583S14758998EA021000214400409000
B0515363320585S14759007EA021000214400509000
B0515373320586S14759016EA021000214400509000
B0515383320587S14759025EA020990214400509000
B0515393320589S14759034EA021000214400509000
B0515403320591S14759042EA021000214400509000
B0515413320593S14759051EA021000214300509000
B0515423320595S14759059EA021000214300509000
B0515433320598S14759068EA020990214300509000
B0515443320600S14759077EA020990214300409000
B0515453320603S14759086EA020990214300409000
B0515463320605S14759095EA020990214300409000
B0515473320608S14759105EA021020214400409000
B0515483320610S14759113EA021030214400509000
B0515493320612S14759122EA021040214500509000
B0515503320615S14759131EA021050214500509000
B0515513320617S14759140EA021060214600409000
B0515523320619S14759149EA021050214600509000
B0515533320621S14759158EA021050214700409000
B0515543320622S14759167EA021050214700409000
B0515553320623S14759176EA021050214800309000
B0515563320625S14759186EA021050214800509000
B0515573320627S14759195EA021040214700509000
B0515583320628S14759204EA021030214700509000
B0515593320630S14759212EA021020214600409000
B0516003320632S14759221EA021010214500509000
B0516013320635S14759231EA021000214500509000
B0516023320637S14759240EA020980214400509000
B0516033320640S14759250EA020980214400509000
B0516043320642S14759260EA020980214400509000
B0516053320645S14759269EA020990214400509000
B0516063320647S14759279EA021000214400509000
B0516073320650S14759288EA021010214500509000
B0516083320652S14759297EA021030214500509000
B0516093320655S14759307EA021040214600509000
B0516103320656S14759317EA021050214600509000
B0516113320658S14759326EA021060214700509000
B0516123320659S14759337EA021060214800509000
B0516133320661S14759347EA021070214800509000
B0516143320663S14759357EA021080214900509000
B0516153320664S14759368EA021090215000509000
B0516163320666S14759378EA021100215100409000
B0516173320668S14759388EA021100215100409000
B0516183320669S14759398EA021100215200409000
B0516193320671S14759408EA021100215200409000
B0516203320673S14759418EA021100215200509000
B0516213320676S14759428EA021100215200509000
B0516223320678S14759438EA021090215100509000
B0516233320680S14759448EA021070215100509000
B0516243320682S14759458EA021060215000509000
B0516253320684S14759468EA021040214800509000
B0516263320686S14759478EA021030214700509000
B0516273320688S14759489EA021010214600509000
B0516283320691S14759499EA021000214500509000
B0516293320693S14759509EA021000214500509000
B0516303320695S14759519EA021010214500509000
B0516313320697S14759528EA021030214500509000
B0516323320699S14759538EA021030214500509000
B0516333320701S14759548EA021030214500509000
B0516343320703S14759558EA021030214400509000
B0516353320705S14759568EA021030214500509000
B0516363320706S14759577EA021030214400409000
B0516373320707S14759587EA021030214400509000
B0516383320708S14759598EA021020214400509000
B0516393320710S14759608EA021010214300509000
B0516403320712S14759618EA021000214300509000
B0516413320714S14759628EA021000214300509000
B0516423320716S14759637EA021000214200509000
B0516433320719S14759647EA020990214200409000
B0516443320721S14759656EA020990214100509000
B0516453320724S14759665EA020980214100509000
B0516463320727S14759674EA020970214000509000
B0516473320729S14759683EA020970213900509000
B0516483320732S14759692EA020970213900409000
B0516493320735S14759701EA020960213800409000
B0516503320738S14759710EA020950213800409000
B0516513320740S14759719EA020950213700409000
B0516523320743S14759727EA020950213700409000
B0516533320746S14759736EA020940213600409000
B0516543320748S14759745EA020930213500509000
B0516553320751S14759753EA020920213400509000
B0516563320754S14759762EA020900213300309000
B0516573320756S14759772EA020890213200509000
B0516583320758S14759781EA020880213100509000
B0516593320760S14759791EA020860213000509000
B0517003320762S14759801EA020850212900409000
B0517013320765S14759811EA020840212800509000
B0517023320767S14759820EA020830212700509000
B0517033320769S14759830EA020820212500509000
B0517043320772S14759839EA020800212400409000
B0517053320774S14759848EA020790212300409000
B0517063320776S14759857EA020780212100409000
B0517073320778S14759866EA020770212000509000
B0517083320781S14759875EA020750211900509000
B0517093320783S14759883EA020740211800509000
B0517103320784S14759891EA020750211700509000
B0517113320786S14759899EA020740211500509000
B0517123320788S14759907EA020720211300509000
B0517133320789S14759916EA020700211200509000
B0517143320790S14759924EA020680211000509000
B0517153320792S14759933EA020670210900609000
B0517163320793S14759942EA020660210800509000
B0517173320795S14759950EA020650210600609000
B0517183320797S14759959EA020630210400609000
B0517193320799S14759968EA020610210300609000
B0517203320801S14759977EA020590210200509000
B0517213320802S14759987EA020580210200509000
B0517223320803S14759996EA020580210100609000
B0517233320804S14800005EA020580209900609000
B0517243320806S14800014EA020570209800609000
B0517253320807S14800023EA020550209600609000
B0517263320808S14800033EA020530209400609000
B0517273320810S14800042EA020520209300509000
B0517283320811S14800052EA020500209100509000
B0517293320813S14800061EA020490209000509000
B0517303320814S14800070EA020480208900409000
B0517313320816S14800078EA020470208800509000
B0517323320817S14800087EA020460208700509000
B0517333320818S14800096EA020450208500509000
B0517343320819S14800105EA020440208400509000
B0517353320820S14800115EA020430208300409000
B0517363320821S14800125EA020410208200309000
B0517373320821S14800134EA020400208100409000
B0517383320822S14800144EA020380208000309000
B0517393320822S14800154EA020370207900309000
B0517403320823S14800164EA020360207800309000
B0517413320824S14800174EA020350207700409000
B0517423320824S14800183EA020350207500409000
B0517433320824S14800193EA020330207400409000
B0517443320825S14800203EA020320207300409000
B0517453320826S14800213EA020310207100509000
B0517463320827S14800223EA020290207100409000
B0517473320828S14800232EA020290206900509000
B0517483320829S14800242EA020290206800409000
B0517493320831S14800252EA020280206700509000
B0517503320833S14800262EA020270206600509000
B0517513320835S14800272EA020250206500509000
B0517523320838S14800281EA020250206400509000
B0517533320840S14800290EA020260206400609000
B0517543320842S14800298EA020270206400509000
B0517553320845S14800306EA020270206300509000
B0517563320847S14800314EA020260206200509000
B0517573320850S14800321EA020250206100509000
B0517583320854S14800329EA020230206000509000
B0517593320857S14800337EA020210205900609000
B0518003320861S14800345EA020200205800609000
B0518013320864S14800352EA020190205700609000
B0518023320868S14800360EA020180205500609000
B0518033320871S14800367EA020160205500609000
B0518043320874S14800375EA020150205300609000
B0518053320877S14800383EA020140205200509000
B0518063320880S14800391EA020130205200509000
B0518073320882S14800399EA020120205100509000
B0518083320884S14800407EA020120205000509000
F0518090205061220252931
B0518093320885S14800415EA020110204900608000
F051810020506122024252931
B0518103320888S14800423EA020110204900409000
B0518113320890S14800431EA020100204800509000
B0518123320894S14800438EA020080204600609000
B0518133320898S14800446EA020060204500509000
B0518143320902S14800454EA020040204400409000
B0518153320906S14800462EA020030204300409000
B0518163320910S14800470EA020020204300609000
B0518173320914S14800477EA020030204200609000
B0518183320918S14800485EA020030204100609000
B0518193320921S14800492EA020030204000609000
B0518203320926S14800500EA020030203900609000
B0518213320930S14800509EA020010203800609000
B0518223320934S14800518EA020000203700509000
B0518233320938S14800527EA019990203700509000
B0518243320941S14800536EA020000203700609000
B0518253320945S14800544EA020010203700609000
B0518263320948S14800552EA020020203700509000
B0518273320951S14800559EA020020203600409000
B0518283320954S14800568EA020010203600409000
B0518293320958S14800577EA020010203600509000
B0518303320962S14800586EA020010203500509000
B0518313320966S14800596EA020000203500509000
B0518323320969S14800606EA020000203600509000
B0518333320973S14800616EA020010203600509000
B0518343320976S14800626EA020030203600509000
B0518353320979S14800634EA020040203700509000
B0518363320983S14800643EA020050203700509000
B0518373320987S14800650EA020050203800509000
B0518383320990S14800658EA020070203900509000
B0518393320994S14800665EA020080203900509000
B0518403320998S14800672EA020070204000509000
B0518413321002S14800679EA020080204100409000
B0518423321007S14800686EA020080204200409000
B0518433321011S14800693EA020080204300509000
B0518443321015S14800701EA020100204400509000
B0518453321019S14800708EA020120204500609000
B0518463321023S14800714EA020140204600609000
B0518473321027S14800719EA020150204700609000
B0518483321032S14800725EA020150204700609000
B0518493321038S14800729EA020140204700609000
B0518503321043S14800734EA020140204800609000
B0518513321048S14800739EA020140204800509000
B0518523321052S14800746EA020140204800509000
B0518533321056S14800754EA020130204900509000
B0518543321059S14800762EA020130204900509000
B0518553321062S14800771EA020130204900509000
B0518563321065S14800780EA020140204900509000
B0518573321068S14800790EA020130204800509000
B0518583321070S14800799EA020120204800409000
B0518593321072S14800809EA020120204800409000
B0519003321075S14800818EA020110204700509000
B0519013321077S14800828EA020100204600409000
B0519023321080S14800838EA020080204400409000
B0519033321084S14800847EA020070204300409000
B0519043321087S14800856EA020050204300409000
B0519053321090S14800864EA020040204100509000
B0519063321093S14800872EA020030204100509000
B0519073321097S14800880EA020020203900409000
B0519083321100S14800887EA020020203800309000
B0519093321103S14800893EA020010203600409000
B0519103321106S14800901EA020000203500409000
B0519113321109S14800910EA020000203300409000
B0519123321111S14800920EA019990203200409000
B0519133321113S14800932EA019980203100409000
B0519143321114S14800943EA019970203000309000
B0519153321115S14800954EA019980203000609000
B0519163321115S14800965EA019980203000609000
B0519173321117S14800976EA019990203000609000
B0519183321118S14800988EA019990202900509000
B0519193321119S14800999EA019990202900509000
B0519203321120S14801011EA019980202900509000
B0519213321121S14801023EA019970202800309000
B0519223321121S14801035EA019960202800309000
B0519233321122S14801048EA019940202700309000
B0519243321122S14801060EA019920202600409000
B0519253321122S14801073EA019890202500409000
B0519263321122S14801085EA019880202400409000
B0519273321122S14801097EA019860202200409000
B0519283321123S14801109EA019830202000409000
B0519293321124S14801121EA019800201900509000
B0519303321125S14801133EA019760201600409000
B0519313321127S14801146EA019730201300409000
B0519323321129S14801158EA019710201000409000
B0519333321130S14801171EA019680200800409000
B0519343321131S14801184EA019670200600309000
B0519353321132S14801196EA019650200400309000
B0519363321133S14801208EA019640200100409000
B0519373321134S14801220EA019630199900409000
B0519383321136S14801233EA019610199700409000
B0519393321137S14801246EA019590199400409000
B0519403321139S14801258EA019580199300509000
B0519413321141S14801269EA019580199100509000
F0519420205122024252931
B0519423321142S14801280EA019580198900508000
F051943020506122024252931
B0519433321145S14801290EA019590198700409000
B0519443321147S14801301EA019570198500509000
B0519453321150S14801313EA019550198300609000
B0519463321153S14801325EA019520198200509000
B0519473321155S14801337EA019510198100409000
B0519483321157S14801349EA019500198000409000
B0519493321159S14801360EA019500197900509000
B0519503321161S14801372EA019500197700509000
B0519513321163S14801384EA019490197600509000
B0519523321166S14801396EA019470197400509000
B0519533321169S14801408EA019450197300509000
B0519543321171S14801420EA019430197200409000
B0519553321174S14801432EA019410197000409000
B0519563321177S14801444EA019400196900409000
B0519573321180S14801455EA019390196800409000
B0519583321183S14801466EA019380196600409000
B0519593321186S14801478EA019360196500409000
B0520003321189S14801489EA019350196400409000
B0520013321192S14801500EA019340196300409000
B0520023321194S14801511EA019340196300509000
B0520033321196S14801522EA019340196200609000
B0520043321197S14801533EA019340196200609000
B0520053321200S14801545EA019350196200509000
B0520063321202S14801556EA019350196300509000
B0520073321205S14801567EA019360196300509000
B0520083321209S14801578EA019370196400509000
B0520093321212S14801588EA019390196600609000
B0520103321215S14801597EA019410196700609000
B0520113321218S14801607EA019440196800509000
B0520123321222S14801616EA019450196800609000
B0520133321226S14801625EA019460196900609000
B0520143321230S14801633EA019460196900609000
B0520153321235S14801642EA019450196900609000
B0520163321239S14801651EA019450196900509000
B0520173321243S14801660EA019440196800509000
B0520183321246S14801669EA019430196800509000
B0520193321250S14801678EA019420196700509000
B0520203321254S14801688EA019400196600509000
B0520213321257S14801698EA019380196500509000
B0520223321261S14801708EA019350196300509000
B0520233321265S14801717EA019340196200509000
B0520243321269S14801727EA019320196100509000
B0520253321272S14801737EA019290196000609000
B0520263321274S14801746EA019270195700509000
B0520273321276S14801757EA019260195500409000
B0520283321279S14801766EA019240195300509000
B0520293321281S14801777EA019220195100509000
B0520303321284S14801787EA019200194900509000
B0520313321287S14801797EA019180194800509000
B0520323321289S14801807EA019170194600509000
B0520333321292S14801817EA019160194500509000
B0520343321294S14801826EA019150194400509000
B0520353321296S14801835EA019150194300509000
B0520363321298S14801844EA019140194200409000
B0520373321300S14801853EA019120194100509000
B0520383321302S14801863EA019110193900509000
B0520393321303S14801872EA019100193800509000
B0520403321305S14801882EA019090193600409000
B0520413321307S14801891EA019080193500509000
B0520423321310S14801900EA019070193400509000
B0520433321313S14801909EA019050193200509000
B0520443321316S14801918EA019040193100509000
B0520453321319S14801926EA019020193000409000
B0520463321322S14801934EA019010192900509000
B0520473321325S14801942EA019000192800809000
B0520483321328S14801950EA018990192600709000
B0520493321332S14801957EA018970192400509000
B0520503321335S14801966EA018950192300409000
B0520513321338S14801974EA018930192100409000
B0520523321340S14801982EA018910191900409000
B0520533321343S14801991EA018900191700409000
B0520543321346S14801999EA018880191500409000
B0520553321348S14802008EA018830191300409000
B0520563321351S14802017EA018800191100409000
B0520573321355S14802026EA018780190900309000
B0520583321358S14802036EA018760190700409000
B0520593321361S14802045EA018740190500409000
B0521003321363S14802055EA018720190300509000
B0521013321365S14802065EA018700190000509000
B0521023321367S14802075EA018690189800509000
B0521033321369S14802086EA018660189500509000
B0521043321371S14802096EA018630189300509000
B0521053321373S14802107EA018600189000409000
B0521063321376S14802117EA018570188800409000
B0521073321378S14802126EA018560188500509000
B0521083321381S14802135EA018540188200509000
B0521093321384S14802144EA018510188000509000
B0521103321388S14802152EA018480187700509000
B0521113321392S14802161EA018450187500509000
B0521123321396S14802168EA018430187200509000
B0521133321399S14802176EA018410187000509000
B0521143321403S14802184EA018390186800509000
B0521153321407S14802191EA018380186600509000
B0521163321410S14802199EA018370186400509000
B0521173321414S14802207EA018350186200409000
B0521183321417S14802215EA018330186000409000
B0521193321421S14802223EA018320185800409000
B0521203321425S14802230EA018300185700509000
B0521213321429S14802236EA018290185400509000
B0521223321433S14802243EA018270185200509000
B0521233321437S14802250EA018260185000409000
B0521243321440S14802258EA018230184800409000
B0521253321443S14802266EA018210184600409000
B0521263321446S14802274EA018180184400409000
B0521273321449S14802284EA018150184200509000
B0521283321451S14802294EA018110183900509000
B0521293321455S14802304EA018070183600509000
B0521303321458S14802315EA018040183400509000
B0521313321461S14802325EA018010183100509000
B0521323321464S14802334EA017990182900409000
B0521333321468S14802343EA017970182600509000
B0521343321471S14802351EA017960182400409000
B0521353321475S14802359EA017940182200409000
B0521363321480S14802366EA017910181900309000
B0521373321484S14802374EA017880181600409000
B0521383321489S14802380EA017860181300409000
B0521393321493S14802386EA017830181000409000
B0521403321497S14802392EA017820180800409000
B0521413321502S14802397EA017800180500409000
B0521423321506S14802402EA017780180200609000
B0521433321511S14802408EA017750179900509000
B0521443321515S14802415EA017730179600409000
B0521453321518S14802421EA017700179300409000
B0521463321522S14802429EA017670179000409000
B0521473321526S14802437EA017640178700409000
B0521483321529S14802446EA017610178500409000
B0521493321533S14802455EA017580178200409000
B0521503321536S14802463EA017570178000309000
B0521513321539S14802472EA017550177700309000
B0521523321543S14802481EA017530177500309000
B0521533321546S14802490EA017500177200409000
B0521543321549S14802498EA017470177000509000
B0521553321552S14802507EA017450176800409000
B0521563321555S14802516EA017440176600409000
B0521573321558S14802524EA017420176300409000
B0521583321562S14802533EA017400176100409000
B0521593321565S14802543EA017370175900509000
B0522003321568S14802552EA017350175700509000
B0522013321572S14802561EA017330175400509000
B0522023321575S14802569EA017310175200509000
B0522033321579S14802577EA017280174900509000
B0522043321583S14802586EA017250174500509000
B0522053321588S14802594EA017220174200509000
B0522063321592S14802602EA017190173900409000
B0522073321597S14802611EA017170173600409000
B0522083321601S14802619EA017140173300409000
B0522093321605S14802628EA017110173000409000
B0522103321609S14802636EA017080172700409000
B0522113321613S14802645EA017060172300409000
B0522123321617S14802653EA017030172100409000
B0522133321621S14802662EA017010171800409000
B0522143321625S14802671EA016990171500409000
B0522153321628S14802680EA016960171200409000
B0522163321631S14802690EA016940171000509000
B0522173321634S14802699EA016920170700509000
B0522183321637S14802709EA016890170400509000
B0522193321639S14802719EA016870170200509000
B0522203321641S14802728EA016850169900509000
B0522213321644S14802737EA016820169600509000
B0522223321647S14802744EA016800169400509000
B0522233321649S14802752EA016780169100409000
B0522243321653S14802759EA016760168800409000
B0522253321656S14802766EA016730168600409000
B0522263321659S14802773EA016710168400409000
B0522273321662S14802780EA016680168200409000
B0522283321665S14802788EA016660167900309000
B0522293321668S14802797EA016630167700409000
B0522303321670S14802806EA016600167500509000
B0522313321673S14802816EA016570167200409000
B0522323321675S14802825EA016550166900509000
B0522333321678S14802835EA016520166700509000
B0522343321681S14802844EA016500166500409000
B0522353321684S14802853EA016480166400409000
B0522363321686S14802862EA016470166200409000
B0522373321690S14802870EA016460166000509000
B0522383321693S14802877EA016440165900509000
B0522393321697S14802885EA016430165700509000
B0522403321701S14802892EA016420165400409000
B0522413321706S14802899EA016390165200409000
B0522423321710S14802906EA016360165000409000
B0522433321714S14802914EA016340164800409000
B0522443321718S14802922EA016320164500409000
B0522453321722S14802930EA016290164300409000
B0522463321726S14802939EA016260164000409000
B0522473321729S14802948EA016230163700309000
B0522483321732S14802958EA016190163400309000
B0522493321734S14802968EA016170163200409000
B0522503321735S14802978EA016140162900309000
B0522513321737S14802989EA016100162500409000
B0522523321738S14802999EA016070162100509000
B0522533321740S14803010EA016030161800509000
B0522543321742S14803020EA016000161500509000
B0522553321744S14803030EA015970161100509000
B0522563321747S14803039EA015940160800509000
B0522573321749S14803047EA015920160500509000
B0522583321752S14803054EA015920160300409000
F0522590205122024252931
B0522593321755S14803061EA015910160000408000
F052300020506122024252931
B0523003321758S14803068EA015900159800309000
B0523013321762S14803076EA015880159600409000
B0523023321765S14803084EA015860159400409000
B0523033321768S14803092EA015840159200409000
B0523043321771S14803100EA015820159000409000
B0523053321774S14803108EA015800158800509000
B0523063321777S14803116EA015790158600409000
B0523073321781S14803124EA015780158400409000
B0523083321784S14803132EA015760158200309000
B0523093321788S14803140EA015740158000409000
B0523103321792S14803148EA015720157900409000
B0523113321795S14803156EA015700157800409000
B0523123321799S14803165EA015680157600409000
B0523133321802S14803173EA015680157500409000
B0523143321806S14803182EA015660157300409000
B0523153321809S14803190EA015650157200409000
B0523163321812S14803199EA015630157000409000
B0523173321815S14803207EA015620156900409000
B0523183321818S14803216EA015600156700409000
B0523193321821S14803226EA015590156600409000
B0523203321824S14803236EA015570156500509000
B0523213321826S14803246EA015550156400409000
B0523223321829S14803256EA015540156200409000
B0523233321831S14803266EA015530156100409000
F0523240205061224252931
B0523243321834S14803276EA015520156000408000
F052325020506122024252931
B0523253321837S14803286EA015510155800409000
B0523263321841S14803296EA015480155700409000
B0523273321845S14803305EA015470155600409000
B0523283321849S14803314EA015460155500409000
B0523293321852S14803323EA015460155400509000
B0523303321857S14803331EA015450155200509000
B0523313321861S14803339EA015430155100509000
B0523323321865S14803348EA015410154900509000
B0523333321870S14803356EA015390154700509000
B0523343321874S14803364EA015370154500509000
B0523353321879S14803372EA015340154200509000
B0523363321884S14803381EA015300153900609000
B0523373321888S14803389EA015260153500509000
B0523383321893S14803398EA015220153200509000
B0523393321897S14803407EA015180152800509000
B0523403321901S14803416EA015140152300509000
B0523413321905S14803425EA015100151800409000
B0523423321908S14803434EA015050151400409000
B0523433321912S14803444EA015000151000409000
B0523443321915S14803454EA014970150700409000
B0523453321918S14803464EA014940150300509000
B0523463321921S14803474EA014910150000509000
B0523473321924S14803483EA014880149600509000
B0523483321927S14803492EA014860149200509000
B0523493321930S14803500EA014830148800509000
B0523503321933S14803508EA014790148400509000
B0523513321937S14803516EA014750147900509000
B0523523321941S14803524EA014710147500509000
B0523533321945S14803532EA014670147100409000
B0523543321948S14803539EA014630146700309000
B0523553321952S14803546EA014600146300309000
B0523563321955S14803554EA014570145900309000
B0523573321959S14803561EA014540145500309000
B0523583321962S14803568EA014500145100409000
B0523593321965S14803576EA014470144800309000
B0524003321968S14803584EA014440144400309000
B0524013321972S14803592EA014410144000309000
B0524023321975S14803600EA014380143600309000
B0524033321979S14803608EA014340143200409000
B0524043321983S14803616EA014310142800409000
B0524053321987S14803623EA014280142400309000
B0524063321991S14803630EA014250142000309000
B0524073321994S14803637EA014200141600309000
B0524083321998S14803645EA014170141200309000
B0524093322002S14803652EA014130140800309000
B0524103322005S14803661EA014090140400309000
B0524113322008S14803669EA014050139900309000
B0524123322012S14803678EA014010139500309000
B0524133322015S14803687EA013960139100309000
B0524143322018S14803696EA013920138700309000
B0524153322021S14803704EA013880138300309000
B0524163322024S14803713EA013850137900409000
B0524173322027S14803721EA013820137500409000
F0524180205122024252931
B0524183322031S14803728EA013790137100408000
F052419020506122024252931
B0524193322035S14803736EA013750136700309000
B0524203322039S14803744EA013710136200309000
B0524213322043S14803751EA013680135800309000
B0524223322047S14803758EA013640135500309000
B0524233322051S14803765EA013620135200409000
B0524243322055S14803772EA013590134900409000
B0524253322059S14803779EA013560134500409000
B0524263322062S14803786EA013530134200409000
B0524273322065S14803792EA013500133900409000
B0524283322069S14803799EA013480133700509000
B0524293322073S14803805EA013460133400509000
B0524303322077S14803810EA013440133200509000
B0524313322081S14803815EA013430133100609000
B0524323322085S14803820EA013420132800609000
B0524333322089S14803825EA013400132600509000
B0524343322093S14803831EA013370132300509000
B0524353322097S14803837EA013330132100509000
B0524363322101S14803844EA013310131900509000
B0524373322104S14803852EA013290131700509000
B0524383322107S14803859EA013270131500509000
B0524393322109S14803866EA013240131200509000
B0524403322111S14803874EA013220131000409000
B0524413322113S14803881EA013200130800409000
B0524423322115S14803888EA013170130500409000
B0524433322117S14803895EA013150130200409000
B0524443322119S14803903EA013120130000309000
B0524453322121S14803911EA013090129700409000
B0524463322123S14803919EA013070129400409000
B0524473322125S14803927EA013050129100409000
B0524483322127S14803935EA013020128900409000
B0524493322129S14803942EA013010128700409000
B0524503322131S14803949EA012990128600409000
B0524513322133S14803956EA012970128400509000
B0524523322136S14803963EA012960128100509000
B0524533322139S14803970EA012930127900409000
B0524543322142S14803977EA012900127700409000
B0524553322146S14803984EA012870127400409000
B0524563322149S14803991EA012850127100409000
B0524573322152S14803998EA012820126900409000
B0524583322155S14804005EA012800126600409000
B0524593322157S14804012EA012770126300509000
B0525003322160S14804020EA012740126100509000
B0525013322162S14804028EA012700125900409000
B0525023322165S14804036EA012670125600409000
B0525033322166S14804044EA012650125300409000
B0525043322168S14804053EA012620125000409000
B0525053322169S14804061EA012600124700409000
B0525063322171S14804070EA012580124400409000
B0525073322172S14804079EA012550124200309000
B0525083322174S14804088EA012520123900309000
B0525093322175S14804097EA012500123600409000
B0525103322176S14804106EA012480123300409000
B0525113322177S14804115EA012450123000409000
B0525123322179S14804124EA012430122700409000
B0525133322180S14804133EA012400122500409000
B0525143322181S14804142EA012380122200409000
B0525153322182S14804151EA012360121900409000
B0525163322183S14804159EA012330121600409000
B0525173322184S14804168EA012300121300409000
B0525183322185S14804177EA012280121000409000
B0525193322187S14804186EA012250120700409000
B0525203322188S14804194EA012220120400409000
B0525213322190S14804203EA012200120100409000
B0525223322191S14804212EA012170119800309000
B0525233322193S14804220EA012150119600309000
B0525243322195S14804229EA012120119300309000
B0525253322196S14804238EA012090119000309000
B0525263322198S14804246EA012070118700309000
B0525273322200S14804255EA012040118400309000
B0525283322201S14804265EA012010118100309000
B0525293322202S14804274EA011980117900309000
B0525303322204S14804282EA011960117600409000
B0525313322205S14804291EA011940117400409000
B0525323322206S14804299EA011930117200409000
B0525333322208S14804307EA011910117000409000
B0525343322209S14804316EA011890116800409000
B0525353322211S14804324EA011870116600409000
B0525363322212S14804332EA011850116400409000
B0525373322214S14804341EA011820116200409000
B0525383322215S14804350EA011800116000409000
B0525393322217S14804358EA011780115700409000
B0525403322218S14804367EA011750115500409000
B0525413322220S14804375EA011730115300309000
B0525423322222S14804383EA011700115100309000
B0525433322223S14804392EA011680114800409000
B0525443322225S14804401EA011660114600409000
B0525453322227S14804410EA011630114300509000
B0525463322228S14804419EA011610114000409000
B0525473322230S14804428EA011580113800509000
B0525483322231S14804437EA011560113500509000
B0525493322233S14804446EA011530113300509000
B0525503322235S14804455EA011510113000509000
B0525513322238S14804464EA011490112800409000
B0525523322240S14804472EA011470112700509000
B0525533322243S14804481EA011460112500509000
