AFLY00Bw 00740
HFDTE060117
HFFXA010
HFPLTPILOT:Nari Watabe     
HFGTYGLIDERTYPE:not-set         
HFGIDGLIDERID:not-set         
HFDTM100GPSDATUM:WGS84
HFRFWFIRMWAREVERSION: 1.3.07  Eng
HFRHWHARDWAREVERSION:1.00
HFFTYFRTYPE:Brauniger,IQ-Basic GPS
HFGPS:FASTRAX,IT321,20
HFPRSPRESSALTSENSOR:INTERSEMA,MS5401BM,12000
HFTZNUTCOFFSET: 11
I033638FXA3940SIU4143TAS
C060117010453060117003601
C3321322S14755953ETakeoff
C3321372S14756016E00000000010000000000360000StartArea,BMI023          
C3336662S14600362E00000000000400000000360000TurnArea,MONIA           
C3329502S14531487E00000000000400000000360000FinishArea,HILLS           
C3312535S14718692ELanding
F0259030206171925
B0259033321300S14755940EA002380023800405000
F025917020617192425
E025917STA
E025917ATS1013.2
LFLYA100238
B0259173321322S14755953EA002400023800206000
B0259273321394S14755985EA002630025700206000
F02593702061217192425
B0259373321459S14756022EA002920029200107000
B0259473321516S14756075EA003170031900107000
B0259573321567S14756138EA003370034800107000
E030001TPC
B0300013321582S14756166EA003400035500107000
F0300070206121719242529
B0300073321602S14756220EA003440035900108000
B0300173321642S14756291EA003550037000108000
B0300273321683S14756355EA003680038100108000
B0300373321723S14756423EA003810039300108000
B0300473321772S14756488EA003950041100108000
B0300573321806S14756568EA004230043600108000
B0301073321817S14756659EA004500046300108000
B0301173321837S14756759EA004960051000108000
B0301273321849S14756845EA005390056100108000
B0301373321898S14756907EA005730060100108000
B0301473321960S14756933EA006060064200108000
B0301573322039S14756937EA006460068100108000
B0302073322127S14756886EA006670070500108000
B0302173322198S14756793EA006860072600108000
B0302273322225S14756661EA007040074200108000
F03023702121719242529
B0302373322193S14756512EA007210076100107000
F03024702061217192429
B0302473322096S14756405EA007230076500107000
F030257020506121719242529
B0302573321988S14756356EA007280077000109000
B0303073321871S14756310EA007300076800109000
B0303173321755S14756294EA007460077700109000
B0303273321656S14756314EA007740080500109000
B0303373321555S14756320EA008150085000109000
B0303473321436S14756315EA008640090200109000
B0303573321339S14756325EA009120096100109000
B0304073321259S14756260EA009410099400109000
B0304173321298S14756192EA009530100600209000
B0304273321288S14756225EA009860103000309000
B0304373321221S14756145EA010110105800309000
B0304473321267S14756113EA010290107700109000
B0304573321212S14756142EA010580110500309000
B0305073321197S14756050EA010810113100309000
B0305173321229S14756072EA010990115200109000
B0305273321209S14756119EA011280118000109000
B0305373321138S14756140EA011410120100109000
B0305473321069S14756175EA011620122500109000
B0305573321011S14756219EA011710123900309000
B0306073320954S14756150EA011750123900109000
B0306173320989S14756101EA011790123900109000
B0306273321030S14756092EA011990125500109000
B0306373321040S14756130EA012210127700109000
B0306473320962S14756160EA012230128900109000
B0306573320886S14756189EA012320129800109000
B0307073320799S14756223EA012290129900109000
B0307173320712S14756244EA012340129600109000
B0307273320654S14756287EA012440130700109000
B0307373320650S14756342EA012450130700109000
B0307473320674S14756398EA012400130800109000
B0307573320653S14756452EA012240129400109000
B0308073320607S14756498EA012100127900109000
B0308173320550S14756533EA011990126700109000
B0308273320490S14756558EA011870125400109000
B0308373320430S14756581EA011800124500109000
B0308473320365S14756606EA011590122200109000
B0308573320294S14756621EA011570121300109000
B0309073320222S14756599EA011510120900109000
B0309173320152S14756540EA011550121300109000
B0309273320109S14756453EA011610122000109000
B0309373320085S14756361EA011680122700109000
B0309473320119S14756307EA011790123900109000
B0309573320148S14756348EA011850124500109000
B0310073320156S14756410EA011910125100109000
B0310173320096S14756456EA012130127100109000
B0310273320026S14756392EA012180127900109000
B0310373320043S14756308EA012230128400109000
B0310473320098S14756292EA012390129500109000
B0310573320139S14756327EA012380129800109000
B0311073320070S14756355EA012460130700209000
B0311173320038S14756274EA012580132000109000
F0311270506121719242529
B0311273320086S14756252EA012640132700208000
F031137020506121719242529
B0311373320065S14756318EA012660133000109000
B0311473319985S14756322EA012770134200109000
B0311573319957S14756240EA012900135400109000
B0312073320004S14756216EA013030137000109000
B0312173320013S14756273EA013100137900109000
B0312273319945S14756292EA013210139000109000
B0312373319917S14756211EA013250139300109000
B0312473319966S14756176EA013360140500109000
B0312573320020S14756165EA013340140600109000
B0313073320048S14756211EA013240139600109000
B0313173320034S14756276EA013300139700109000
F0313270205061217242529
B0313273319982S14756306EA013320140100108000
F031337020506121719242529
B0313373319943S14756229EA013230139400109000
B0313473319990S14756167EA013240139200109000
B0313573320046S14756190EA013210138900109000
F0314070206121719242529
B0314073320076S14756250EA013180138600108000
F031417020506121719242529
B0314173320088S14756315EA013040137900109000
B0314273320029S14756348EA012850135900109000
B0314373319969S14756292EA012750134000109000
B0314473319980S14756210EA012720133500109000
B0314573320031S14756189EA012670133200109000
B0315073320060S14756236EA012560132200109000
B0315173320072S14756302EA012440130800109000
B0315273320059S14756371EA012250129000109000
B0315373320042S14756442EA012040126900109000
B0315473320023S14756512EA011910125200109000
B0315573320001S14756584EA011780124000109000
B0316073319970S14756661EA011700122900109000
B0316173319950S14756735EA011550121600109000
B0316273319925S14756806EA011490120500109000
B0316373319890S14756867EA011530121200109000
B0316473319830S14756904EA011580121700109000
B0316573319757S14756890EA011530121400109000
B0317073319714S14756810EA011630121900109000
B0317173319674S14756735EA011810123300309000
B0317273319623S14756784EA012000125400309000
B0317373319669S14756753EA011970125600209000
B0317473319697S14756685EA012230127000209000
B0317573319698S14756747EA012380129100309000
B0318073319637S14756705EA012430130500209000
B0318173319678S14756665EA012670132400209000
B0318273319645S14756725EA012820134500309000
B0318373319608S14756656EA012870135200109000
B0318473319649S14756619EA013030136600109000
B0318573319649S14756689EA013190138200109000
B0319073319582S14756676EA013200139100109000
B0319173319578S14756589EA013260139000309000
B0319273319618S14756617EA013390140400109000
B0319373319566S14756664EA013430141300309000
B0319473319538S14756585EA013450141400109000
B0319573319584S14756560EA013570142300109000
B0320073319564S14756622EA013610142900109000
B0320173319507S14756570EA013580142600109000
B0320273319552S14756521EA013680143200109000
B0320373319576S14756579EA013800144600109000
B0320473319513S14756613EA013770144800209000
B0320573319497S14756526EA013740144300109000
B0321073319516S14756438EA013870145200109000
B0321173319537S14756361EA014120147400109000
B0321273319583S14756363EA014360150200309000
B0321373319527S14756384EA014630153000209000
B0321473319546S14756320EA014900156500309000
B0321573319552S14756389EA015090158500109000
B0322073319487S14756359EA015420161400209000
B0322173319531S14756301EA015700164600309000
B0322273319537S14756367EA015820166400309000
B0322373319488S14756317EA016040167500309000
B0322473319548S14756324EA016190169700109000
B0322573319508S14756375EA016410172200309000
B0323073319475S14756302EA016700174800309000
B0323173319520S14756321EA016870177100209000
B0323273319455S14756334EA017090179500109000
B0323373319432S14756259EA017270181500109000
B0323473319494S14756248EA017360182700209000
B0323573319464S14756299EA017480183700209000
B0324073319434S14756233EA017580184600109000
F0324170506121719242529
B0324173319495S14756204EA017620185100108000
F032427020506121719242529
B0324273319501S14756258EA017680185600109000
B0324373319447S14756223EA017670186100209000
B0324473319460S14756142EA017830187300109000
B0324573319469S14756053EA017760187200109000
B0325073319492S14755958EA017630185700109000
F0325170205061217242529
B0325173319523S14755858EA017430183600108000
F032527020506121719242529
B0325273319553S14755764EA017320182300109000
B0325373319583S14755664EA017140180300109000
B0325473319626S14755560EA017150179600109000
B0325573319686S14755481EA017330181300109000
B0326073319678S14755382EA017400182600109000
B0326173319594S14755331EA017430183200109000
B0326273319516S14755317EA017520184200109000
B0326373319469S14755220EA017610185000309000
B0326473319517S14755167EA017470184500209000
B0326573319579S14755149EA017400183500109000
B0327073319632S14755143EA017310182400109000
B0327173319677S14755147EA017290181800109000
B0327273319695S14755199EA017320181200209000
B0327373319693S14755263EA017440182800109000
B0327473319728S14755310EA017540183600109000
B0327573319726S14755359EA017660185200309000
B0328073319673S14755296EA017830187400109000
B0328173319726S14755258EA017940188700109000
B0328273319774S14755289EA018050189800109000
B0328373319800S14755334EA018000189800109000
B0328473319743S14755371EA018050190000109000
B0328573319669S14755335EA018150190700309000
B0329073319633S14755381EA018260191300309000
B0329173319621S14755446EA018330192100109000
B0329273319555S14755433EA018340193100209000
B0329373319540S14755345EA018440193700109000
B0329473319586S14755329EA018520194700109000
B0329573319569S14755388EA018550194800109000
B0330073319512S14755433EA018560194800109000
B0330173319438S14755446EA018620195000109000
B0330273319361S14755465EA018750196400109000
F0330370205061217192425
B0330373319283S14755483EA018930198500108000
F033047020506121719242529
B0330473319202S14755477EA019030199900109000
B0330573319123S14755448EA019200201700109000
B0331073319142S14755375EA019230202100209000
B0331173319166S14755424EA019320202700109000
B0331273319097S14755416EA019480204600209000
B0331373319132S14755364EA019440204500209000
B0331473319128S14755417EA019500204700209000
B0331573319070S14755371EA019560205600109000
B0332073319092S14755302EA019490205300109000
B0332173319127S14755339EA019420204400109000
B0332273319078S14755380EA019580205000109000
B0332373319012S14755389EA019660206200109000
F0332470506121719242529
B0332473318944S14755395EA019740207400108000
B0332573318878S14755401EA019770208100008000
F033307020506121719242529
B0333073318806S14755379EA019740208100109000
B0333173318728S14755375EA019700207600109000
B0333273318662S14755382EA019760208000109000
B0333373318617S14755323EA019730207600109000
B0333473318645S14755246EA019730207400209000
B0333573318681S14755280EA019740207500109000
F0334070205061219242529
B0334073318651S14755336EA019700207300108000
B0334173318575S14755334EA019680207100108000
B0334273318495S14755319EA019460205300108000
F03343702050612192429
B0334373318420S14755308EA019240203200107000
F0334470205061219242529
B0334473318375S14755233EA019000200400108000
B0334573318390S14755135EA018800197900108000
B0335073318371S14755028EA018630195900108000
B0335173318331S14754930EA018570194800108000
B0335273318292S14754839EA018500194100108000
B0335373318249S14754753EA018420193200108000
B0335473318180S14754716EA018510193700108000
B0335573318116S14754663EA018560194400108000
B0336073318144S14754567EA018640195100108000
B0336173318187S14754580EA018670195600108000
B0336273318163S14754625EA018760196300108000
B0336373318153S14754668EA018700196500108000
B0336473318131S14754710EA018690196200108000
B0336573318066S14754710EA018630196100108000
B0337073317991S14754667EA018690196300108000
B0337173317927S14754611EA018780197700108000
B0337273317871S14754554EA018690197100108000
B0337373317826S14754474EA018670196900108000
B0337473317771S14754384EA018640196200108000
B0337573317716S14754301EA018880197900108000
B0338073317754S14754240EA019130200500108000
B0338173317754S14754273EA019260202100108000
B0338273317684S14754234EA019410203500208000
B0338373317696S14754144EA019670206000108000
B0338473317721S14754163EA019810207600108000
B0338573317650S14754161EA019980209500108000
B0339073317649S14754065EA020140211500108000
B0339173317683S14754076EA020300212900108000
B0339273317614S14754086EA020450214800108000
B0339373317559S14753989EA020610216300108000
B0339473317485S14753909EA020660217200108000
B0339573317420S14753821EA020610217100108000
B0340073317346S14753755EA020380215100108000
B0340173317282S14753691EA020200212600108000
B0340273317226S14753609EA019980210300108000
B0340373317173S14753534EA019670207300108000
B0340473317117S14753453EA019330203600108000
B0340573317082S14753344EA019020200100108000
F03410702050612242529
B0341073317045S14753236EA018770197200007000
F03411702050612192429
B0341173316989S14753145EA018640195300107000
F0341270205061219242529
B0341273316933S14753089EA018520194200108000
B0341373316875S14753018EA018360192800108000
F03414702050612192429
B0341473316822S14752939EA018160190900107000
F0341570205061219242529
B0341573316778S14752850EA018050189500108000
B0342073316740S14752768EA017890188000108000
B0342173316702S14752690EA017710186300108000
B0342273316657S14752614EA017520184200108000
B0342373316615S14752541EA017400183000108000
B0342473316567S14752467EA017170180600108000
B0342573316512S14752404EA017040179000108000
B0343073316460S14752343EA016960177700108000
B0343173316408S14752281EA016810176400108000
B0343273316360S14752205EA016540173900108000
B0343373316307S14752118EA016410171900108000
B0343473316263S14752034EA016480172000108000
B0343573316217S14751949EA016580173200108000
B0344073316236S14751870EA016560173500108000
B0344173316266S14751901EA016520173100108000
B0344273316203S14751897EA016570173100208000
B0344373316175S14751797EA016500173000108000
B0344473316151S14751699EA016450172600108000
B0344573316095S14751622EA016380172000108000
B0345073316035S14751567EA016160169900108000
B0345173315977S14751512EA015940167300108000
B0345273315919S14751444EA015730165000108000
B0345373315865S14751365EA015570163200108000
B0345473315805S14751272EA015440161800108000
B0345573315750S14751188EA015300160300108000
B0346073315704S14751103EA015340160100108000
B0346173315743S14751034EA015440160600108000
B0346273315761S14751073EA015450161200108000
B0346373315691S14751069EA015550162300108000
B0346473315647S14750989EA015650163400108000
B0346573315689S14750925EA015700164200108000
B0347073315726S14750973EA015760164600108000
B0347173315687S14751019EA015840165400108000
B0347273315616S14750994EA015910166200108000
B0347373315556S14750926EA016130168400108000
B0347473315494S14750858EA016220169700108000
B0347573315443S14750785EA016210170300108000
B0348073315388S14750715EA016320170900108000
B0348173315311S14750729EA016330171500108000
B0348273315282S14750804EA016330171000108000
B0348373315261S14750885EA016390171400108000
B0348473315222S14750947EA016450172000108000
B0348573315149S14750922EA016410172200108000
B0349073315152S14750832EA016530172600108000
B0349173315203S14750825EA016690174300108000
B0349273315180S14750889EA016770175100108000
B0349373315106S14750869EA016800175600108000
B0349473315095S14750774EA016840175700108000
B0349573315053S14750705EA016900176400108000
B0350073314981S14750675EA017060178000108000
B0350173314911S14750715EA017380180800108000
B0350273314839S14750705EA017690184000208000
B0350373314868S14750661EA018020187900208000
B0350473314850S14750727EA018280191000108000
B0350573314774S14750682EA018510193300108000
B0351073314794S14750629EA018810196200208000
B0351173314796S14750690EA019080199200108000
B0351273314714S14750688EA019270201600108000
B0351373314689S14750606EA019510203800108000
B0351473314734S14750626EA019850206900108000
B0351573314694S14750682EA020070209600108000
B0352073314628S14750623EA020250211600108000
B0352173314664S14750567EA020550214600108000
B0352273314677S14750626EA020770217000108000
B0352373314594S14750633EA020950219100108000
F03524702050612242529
B0352473314580S14750550EA021180221400107000
F0352570205061219242529
B0352573314613S14750580EA021430224000108000
B0353073314538S14750594EA021670226700108000
B0353173314521S14750512EA021860228800108000
B0353273314566S14750525EA022000230600108000
B0353373314533S14750591EA022170232300108000
B0353473314458S14750628EA022270233500108000
B0353573314423S14750556EA022440234900208000
B0354073314459S14750586EA022600236700108000
B0354173314389S14750635EA022660237600108000
B0354273314306S14750592EA022710238000108000
B0354373314301S14750511EA022800238800108000
B0354473314344S14750462EA022850239400108000
B0354573314389S14750448EA022970240800108000
B0355073314381S14750517EA023000241200108000
B0355173314302S14750564EA023100242000108000
B0355273314222S14750524EA023130242300108000
B0355373314224S14750449EA023200242900108000
B0355473314262S14750410EA023350244200108000
B0355573314293S14750451EA023410245200108000
B0356073314264S14750528EA023390245300108000
B0356173314197S14750578EA023460245400108000
B0356273314140S14750622EA023390246000108000
B0356373314089S14750677EA023010242400208000
B0356473314027S14750608EA022600237700108000
B0356573313984S14750518EA022380234600108000
B0357073313943S14750426EA022250233100008000
B0357173313915S14750338EA022010231400108000
B0357273313902S14750231EA021930230200108000
B0357373313859S14750137EA021750228800108000
B0357473313817S14750032EA021600227400108000
B0357573313779S14749923EA021370224700008000
B0358073313743S14749819EA021210222800008000
B0358173313701S14749725EA021130221400108000
B0358273313666S14749633EA021000220200108000
B0358373313636S14749543EA020780218300108000
B0358473313612S14749447EA020520215500108000
B0358573313586S14749344EA020270212500008000
B0359073313561S14749243EA020090210200008000
B0359173313534S14749148EA019980209000008000
B0359273313504S14749062EA019900207700008000
B0359373313494S14748979EA020060209000108000
B0359473313531S14748925EA020110210000108000
B0359573313556S14748987EA020300212100108000
B0400073313492S14749013EA020330212800108000
B0400173313443S14748945EA020420213500108000
B0400273313452S14748871EA020490214400108000
B0400373313506S14748879EA020560215100108000
B0400473313491S14748952EA020680216500108000
B0400573313423S14748950EA020660216600108000
B0401073313383S14748875EA020650216400108000
B0401173313408S14748804EA020690216600108000
B0401273313468S14748791EA020760217200108000
B0401373313493S14748859EA020820218000108000
B0401473313439S14748903EA020820218000108000
B0401573313378S14748847EA020780217700108000
B0402073313386S14748760EA020830218000108000
F040217020506121920242529
B0402173313444S14748748EA020860218400109000
B0402273313469S14748815EA020880218800009000
B0402373313437S14748876EA020870218800109000
B0402473313365S14748841EA020800217800109000
B0402573313320S14748764EA020720217100109000
B0403073313281S14748683EA020580215800109000
B0403173313245S14748599EA020380213800109000
B0403273313222S14748505EA020270212400009000
B0403373313184S14748415EA020170211200009000
B0403473313147S14748326EA020190211200009000
B0403573313100S14748256EA020180211400009000
B0404073313060S14748175EA020280212100009000
B0404173313072S14748100EA020320212700309000
B0404273313097S14748147EA020410213600109000
B0404373313036S14748131EA020470214400109000
B0404473313037S14748047EA020520214900109000
B0404573313083S14748044EA020510214900109000
B0405073313053S14748097EA020580215100109000
B0405173313001S14748049EA020570215200109000
B0405273313030S14747976EA020520214800109000
B0405373313064S14747999EA020550215000109000
B0405473313024S14748041EA020580215300109000
B0405573312967S14748047EA020550215300109000
B0406073312925S14747982EA020420214100109000
B0406173312907S14747888EA020250211800109000
B0406273312889S14747783EA020120210400109000
B0406373312866S14747689EA020190210700109000
B0406473312847S14747608EA020230211300109000
B0406573312837S14747511EA020180211100109000
B0407073312817S14747413EA020270211800109000
B0407173312778S14747329EA020340212500109000
B0407273312815S14747258EA020550214400109000
B0407373312873S14747272EA020650216000109000
B0407473312857S14747330EA020680216400109000
B0407573312786S14747305EA020740216700109000
B0408073312752S14747225EA020960218700109000
B0408173312733S14747144EA021120220700109000
B0408273312788S14747126EA021220221900109000
B0408373312796S14747183EA021320223000109000
B0408473312735S14747194EA021440224100109000
B0408573312691S14747122EA021560225500109000
B0409073312684S14747028EA021530225600109000
B0409173312671S14746925EA021330224100109000
B0409273312655S14746812EA021290222900109000
F0409370205121920242529
B0409373312645S14746708EA021440223500108000
F040947020506121920242529
B0409473312636S14746603EA021520224800109000
B0409573312619S14746493EA021840226900109000
B0410073312667S14746456EA022190231300209000
B0410173312640S14746499EA022440235000309000
B0410273312617S14746410EA022750238000309000
B0410373312658S14746435EA023040241300309000
B0410473312592S14746404EA023290243700309000
B0410573312569S14746449EA023540246400109000
B0411073312631S14746428EA023600247300109000
B0411173312640S14746327EA023760248300109000
B0411273312635S14746228EA023980251100109000
B0411373312633S14746115EA024140253100109000
B0411473312628S14745987EA024210253700109000
B0411573312651S14745880EA024100253700109000
B0412073312622S14745780EA024140253100109000
B0412173312582S14745693EA024160253200209000
B0412273312601S14745574EA024170253200109000
B0412373312621S14745450EA023980251900109000
B0412473312646S14745328EA023770249900109000
B0412573312666S14745206EA023470246300109000
B0413073312678S14745082EA023280243800109000
B0413173312699S14744959EA023060241700109000
B0413273312726S14744838EA022900240000109000
B0413373312742S14744718EA022880239300109000
B0413473312765S14744609EA022840239400109000
F0413570205121920242529
B0413573312793S14744500EA022790239200108000
F041407020506121920242529
B0414073312820S14744384EA022750238600109000
B0414173312832S14744272EA022620237300109000
B0414273312854S14744162EA022500235800109000
B0414373312876S14744039EA022460235000109000
B0414473312899S14743933EA022440235400109000
B0414573312928S14743814EA022310234300109000
B0415073312956S14743690EA022190233100109000
F0415170205121920242529
B0415173312991S14743571EA021940230800108000
F041527020506121920242529
B0415273313024S14743450EA021740228300109000
B0415373313061S14743330EA021620226300109000
B0415473313094S14743211EA021480225000109000
F0415570205121920242529
B0415573313122S14743092EA021310223500108000
F041607020506121920242529
B0416073313143S14742986EA021150221800109000
B0416173313157S14742885EA020910219400109000
F0416270205121920242529
B0416273313182S14742791EA020680216800108000
F041637020506121920242529
B0416373313217S14742692EA020500214800109000
B0416473313238S14742595EA020310212800109000
B0416573313256S14742503EA020130211000109000
B0417073313276S14742410EA019810207800109000
B0417173313292S14742317EA019510204600109000
B0417273313304S14742222EA019290201800109000
B0417373313318S14742129EA018980198600109000
B0417473313329S14742032EA018750195800109000
F0417570205121920242529
B0417573313348S14741936EA018600194200108000
B0418073313392S14741829EA018620193800108000
F041817020506121920242529
B0418173313403S14741723EA018620194100109000
B0418273313437S14741642EA018440193000109000
B0418373313454S14741554EA018260191400109000
F0418470205121920242529
B0418473313475S14741462EA018050189400108000
F041857020506121920242529
B0418573313480S14741365EA017870187400109000
B0419073313475S14741271EA017790185800109000
B0419173313475S14741179EA017710185200109000
B0419273313463S14741080EA017520183300109000
B0419373313455S14740980EA017380181800109000
B0419473313495S14740910EA017250180300109000
B0419573313502S14740809EA017180179200109000
B0420073313499S14740717EA016990178000109000
B0420173313489S14740629EA016770175700109000
B0420273313484S14740536EA016600173500109000
B0420373313476S14740435EA016510172600109000
B0420473313471S14740329EA016480172100109000
F0420570205121920242529
B0420573313468S14740228EA016430171800108000
F042107020506121920242529
B0421073313469S14740140EA016400171100109000
B0421173313512S14740142EA016350170600109000
B0421273313495S14740218EA016250169600109000
B0421373313457S14740276EA016150168800109000
F0421470206121920242529
B0421473313398S14740301EA016070167900108000
F042157020506121920242529
B0421573313347S14740237EA015960166700109000
B0422073313323S14740142EA015900165600109000
B0422173313298S14740051EA015810164900109000
B0422273313272S14739966EA015750164100009000
B0422373313250S14739873EA015780163600109000
B0422473313238S14739790EA015940165300109000
B0422573313221S14739706EA016020166800109000
B0423073313225S14739621EA016080167700109000
F0423170205061219242529
B0423173313277S14739620EA016110168100108000
F042327020506121920242529
B0423273313265S14739696EA016150168500109000
B0423373313219S14739737EA016260169700109000
B0423473313180S14739666EA016230169700109000
B0423573313161S14739583EA016290169800109000
B0424073313170S14739500EA016280170000109000
B0424173313225S14739504EA016200169300209000
B0424273313233S14739575EA016360170200109000
B0424373313204S14739637EA016380171100309000
B0424473313169S14739574EA016340170900109000
B0424573313212S14739530EA016440171500109000
B0425073313247S14739581EA016570173000109000
B0425173313194S14739623EA016510172900109000
B0425273313153S14739560EA016460172100109000
B0425373313157S14739483EA016500172200109000
B0425473313208S14739432EA016660173300109000
B0425573313209S14739475EA016640174200309000
B0426073313153S14739433EA016750174400209000
B0426173313198S14739374EA016830175500209000
B0426273313243S14739418EA017070177700109000
B0426373313271S14739354EA017260179800109000
B0426473313217S14739303EA017410181500109000
B0426573313166S14739331EA017480182600109000
B0427073313148S14739387EA017310181700109000
B0427173313195S14739441EA017270180600109000
B0427273313247S14739416EA017150179000109000
B0427373313250S14739329EA017270179200109000
B0427473313251S14739250EA017360180400109000
B0427573313240S14739175EA017370181000109000
B0428073313215S14739096EA017480182000109000
B0428173313160S14739053EA017430182100109000
B0428273313093S14739062EA017310181100109000
B0428373313028S14739006EA017250179700109000
B0428473313034S14738927EA017340180300209000
B0428573313060S14738972EA017340180700109000
B0429073312989S14738985EA017250179900109000
B0429173312947S14738902EA017340180800109000
B0429273312999S14738872EA017340181000109000
B0429373312975S14738934EA017490182300109000
B0429473312914S14738890EA017600183300309000
B0429573312953S14738849EA017710184700309000
B0430073312913S14738898EA017810185900209000
B0430173312858S14738837EA018060187900209000
B0430273312905S14738801EA018280190800209000
B0430373312896S14738867EA018390192100209000
B0430473312820S14738850EA018530193300109000
B0430573312829S14738774EA018840196200209000
B0431073312828S14738822EA019060198800209000
B0431173312753S14738811EA019290201200109000
B0431273312715S14738735EA019710205200109000
B0431373312757S14738691EA019980208500109000
B0431473312798S14738723EA020270211500109000
B0431573312745S14738759EA020540214300109000
B0432073312714S14738694EA020900217900109000
B0432173312768S14738681EA021180221200109000
B0432273312758S14738742EA021370223900109000
B0432373312691S14738726EA021660226300109000
B0432473312713S14738658EA021990229800109000
F04325702050612192024252931
B0432573312748S14738706EA022170231900210000
B0433073312687S14738720EA022390234100110000
B0433173312681S14738649EA022640236700110000
B0433273312729S14738681EA022790238800110000
B0433373312682S14738715EA022900240000110000
B0433473312658S14738644EA023100241600110000
B0433573312711S14738608EA023150242700110000
B0434073312734S14738669EA023210243000110000
B0434173312685S14738707EA023210243000110000
B0434273312630S14738665EA023270243400110000
B0434373312597S14738593EA023390244500110000
B0434473312570S14738517EA023440245100110000
B0434573312557S14738439EA023570246500010000
B0435073312517S14738380EA023730248100110000
B0435173312460S14738425EA023860249700110000
B0435273312498S14738475EA023970250800110000
B0435373312538S14738424EA024060251800110000
B0435473312523S14738346EA024150252700110000
B0435573312503S14738273EA024200253700110000
B0436073312519S14738207EA024250254200110000
B0436173312575S14738233EA024260254400110000
B0436273312554S14738317EA024200253700210000
B0436373312491S14738292EA024160253000110000
B0436473312481S14738215EA024200253100110000
B0436573312481S14738142EA024250253700110000
F043707020506122024252931
B0437073312489S14738058EA024200253500109000
B0437173312491S14737967EA024390255000109000
B0437273312496S14737879EA024620257500109000
F0437370205122024252931
B0437373312505S14737796EA024980261000108000
F043747020506122024252931
B0437473312507S14737713EA025280264300109000
B0437573312505S14737620EA025490267000109000
B0438073312513S14737526EA025840270300109000
B0438173312516S14737420EA026140273900109000
B0438273312513S14737285EA026510277400109000
B0438373312447S14737151EA026740279400309000
B0438473312350S14737053EA026870281000209000
B0438573312240S14736996EA027220284300109000
B0439073312155S14736928EA027200285700109000
B0439173312091S14736851EA027170285700109000
B0439273312043S14736734EA027030283900109000
B0439373312008S14736622EA026850281900109000
B0439473311991S14736486EA026630279400109000
B0439573311981S14736355EA026480277600109000
B0440073311977S14736223EA026240275400109000
B0440173311979S14736089EA026040273000109000
B0440273311979S14735956EA025770270300109000
B0440373311965S14735819EA025560267700109000
B0440473311946S14735691EA025290265300109000
B0440573311939S14735556EA025050262700109000
B0441073311941S14735431EA024840260300109000
B0441173311941S14735302EA024660258300109000
B0441273311944S14735178EA024560257300109000
B0441373311943S14735067EA024450256300109000
B0441473311941S14734963EA024350255200109000
B0441573311928S14734857EA024300254500109000
B0442073311916S14734759EA024320254700109000
B0442173311912S14734654EA024330254700109000
B0442273311900S14734545EA024310254700109000
B0442373311886S14734424EA024220254000109000
B0442473311880S14734302EA024160253200109000
B0442573311873S14734191EA024090252300109000
B0443073311866S14734087EA023940250800109000
B0443173311855S14733999EA024030251500109000
B0443273311857S14733908EA024050251900109000
B0443373311851S14733811EA024130252700109000
B0443473311843S14733714EA024170253200109000
B0443573311831S14733610EA024170253200109000
B0444073311828S14733499EA024180252700109000
B0444173311811S14733395EA024390254400109000
B0444273311797S14733283EA024560256400109000
B0444373311782S14733167EA024650257800109000
B0444473311761S14733043EA024590257600109000
B0444573311735S14732914EA024450256100109000
B0445073311709S14732792EA024210254000109000
B0445173311682S14732668EA023920250900109000
B0445273311659S14732546EA023670248100109000
B0445373311639S14732414EA023430245200109000
B0445473311614S14732285EA023210243000109000
B0445573311594S14732152EA023080241600109000
B0446073311565S14732033EA022840239300109000
B0446173311537S14731919EA022650237100109000
B0446273311504S14731806EA022490235200109000
B0446373311468S14731705EA022480234900109000
B0446473311460S14731600EA022380234000109000
B0446573311453S14731493EA022220233000109000
B0447073311435S14731378EA022100231700109000
B0447173311390S14731270EA022050230600109000
B0447273311358S14731154EA022020230300109000
B0447373311366S14731031EA021970229700109000
B0447473311382S14730918EA021900229300109000
B0447573311366S14730807EA021770227900109000
B0448073311310S14730707EA021680226700109000
F0448170506122024252931
B0448173311259S14730603EA021430224700108000
F044827020506122024252931
B0448273311238S14730482EA021220222400109000
B0448373311222S14730361EA020870218900109000
B0448473311217S14730227EA020530215200109000
B0448573311232S14730096EA020260212100109000
B0449073311255S14729975EA019900208200109000
B0449173311268S14729856EA019660205200109000
B0449273311272S14729738EA019480203100109000
B0449373311278S14729619EA019300201200109000
B0449473311290S14729510EA019100199300109000
B0449573311301S14729397EA018840196800109000
B0450073311301S14729294EA018620194400109000
B0450173311311S14729189EA018400192000109000
B0450273311324S14729081EA018290190800109000
B0450373311344S14728967EA018140189400109000
B0450473311338S14728845EA018010187900109000
B0450573311330S14728733EA017810185900109000
B0451073311311S14728617EA017600183700109000
B0451173311298S14728500EA017360181300109000
B0451273311284S14728387EA017050177800109000
B0451373311278S14728284EA016690174000109000
B0451473311262S14728178EA016390170300109000
B0451573311239S14728081EA016260168900109000
B0452073311238S14727969EA016140167800109000
B0452173311225S14727861EA016070167100109000
B0452273311225S14727752EA015900165600109000
B0452373311215S14727634EA015650163200109000
B0452473311217S14727516EA015450160900109000
B0452573311216S14727411EA015380160100109000
B0453073311242S14727317EA015250158700109000
B0453173311281S14727234EA015270158700109000
B0453273311334S14727163EA015230158300109000
B0453373311387S14727088EA015120157600009000
B0453473311441S14727039EA015110157400109000
B0453573311487S14727069EA015020156500109000
B0454073311470S14727132EA014950155500109000
B0454173311423S14727185EA014840154200109000
B0454273311359S14727149EA014740153200109000
B0454373311316S14727062EA014580151500109000
B0454473311268S14726970EA014460149900109000
B0454573311222S14726883EA014420149400109000
B0455073311186S14726793EA014310148600109000
B0455173311126S14726715EA014240147600109000
B0455273311067S14726640EA014200147300109000
B0455373311028S14726546EA014070146300109000
F0455470205122024252931
B0455473311002S14726452EA013970145200108000
F045557020506122024252931
B0455573310975S14726356EA013860144000109000
B0456073310927S14726273EA013740142500109000
B0456173310882S14726192EA013690141900109000
B0456273310830S14726119EA013670141600109000
B0456373310771S14726049EA013700142000109000
B0456473310711S14725973EA013760142700109000
B0456573310645S14725905EA013880143900109000
B0457073310569S14725890EA014020145200109000
B0457173310512S14725918EA014180146700109000
B0457273310532S14725956EA014360148700109000
B0457373310586S14725918EA014590150900109000
B0457473310605S14725824EA014800153700109000
B0457573310564S14725731EA014870154900109000
B0458073310488S14725711EA014920155100109000
B0458173310436S14725741EA014970155900109000
B0458273310418S14725795EA015100156900109000
B0458373310434S14725836EA015270158200109000
B0458473310453S14725872EA015520160400209000
B0458573310387S14725841EA015680162900109000
B0459073310407S14725751EA015780164100109000
B0459173310451S14725764EA016050166700109000
B0459273310396S14725785EA016360169900109000
B0459373310382S14725685EA016480171500109000
B0459473310435S14725628EA016730173900109000
B0459573310466S14725671EA016900175600209000
B0500073310406S14725643EA017220178700109000
B0500173310414S14725545EA017450181600109000
B0500273310458S14725557EA017570183000209000
B0500373310398S14725576EA017850185600109000
B0500473310375S14725476EA018070188500109000
B0500573310425S14725477EA018190190200109000
B0501073310384S14725519EA018470192300109000
B0501173310337S14725435EA018690194600109000
B0501273310388S14725384EA018760195500109000
B0501373310407S14725435EA018940197200109000
B0501473310345S14725434EA019270200300109000
B0501573310342S14725334EA019520203500109000
B0502073310399S14725284EA019580204500109000
B0502173310418S14725332EA019710205600109000
F05022702050612202124252931
B0502273310349S14725318EA019970208000110000
B0502373310350S14725217EA020160210400110000
B0502473310407S14725197EA020270211400110000
B0502573310393S14725251EA020450213000110000
B0503073310328S14725213EA020650215300110000
B0503173310334S14725116EA020810217400110000
B0503273310386S14725116EA020900218300110000
B0503373310363S14725170EA021070220000110000
B0503473310300S14725126EA021230221800110000
B0503573310336S14725049EA021370223300110000
B0504073310360S14725095EA021490224300110000
B0504173310292S14725088EA021620225800110000
B0504273310297S14724997EA021760227400110000
B0504373310341S14725020EA021840228100110000
B0504473310286S14725054EA021920229100110000
B0504573310254S14724972EA022000230100110000
B0505073310309S14724946EA022070230700110000
B0505173310287S14725007EA022140231200110000
B0505273310220S14725004EA022140231500110000
B0505373310197S14724913EA022110231200110000
B0505473310233S14724840EA022090231100110000
B0505573310282S14724778EA022080231000010000
B0506073310340S14724745EA022000230600110000
B0506173310390S14724668EA021870228900110000
B0506273310423S14724562EA021780227800110000
B0506373310461S14724458EA021660226500110000
F050647020512202124252931
B0506473310510S14724359EA021440224500109000
B0506573310568S14724263EA021220222300109000
B0507073310621S14724152EA020970219600109000
B0507173310671S14724038EA020770217400109000
B0507273310724S14723919EA020520214800109000
B0507373310775S14723801EA020320212600109000
B0507473310821S14723686EA020030209600109000
B0507573310872S14723574EA019700206500109000
B0508073310912S14723455EA019430203300109000
B0508173310938S14723336EA019230201000109000
B0000003310973S14723226EV018970001800000000
B0000325353808N14723084EV018710001000100000
B0508005353808N00000049EA013100193400100000
B0100005353858N00000049EA000000139200100000
B0509075353809N00000049EA000000008200009000
B0000173311137S00000000EV000810000000009000
B0000009335046S14557707EV000000000000000000
B0000323311200S14722446EV017550000000000000
B0000325353808N14722331EV017380000000100000
B0500325353858N00000049EA017220179900100000
B0400005353808N00000049EA000000178200109000
B0510175353858N00000000EA000000008100009000
B0010273311387S00000000EV000000008200009000
B0000320644048N14721462EV000000008200000000
B0000323311465S14721663EV016400000000000000
B0000325353808N14721555EV016160131000000000
B0000005353858N00000049EA015920166100100000
B0000175353808N00000049EA000820163600109000
B0511275353858N00000049EA000000008200109000
B0511370021549N00000000EV000000008200008000
B0000000000012N00021502EV000000000003200005
B0000000003611N13653508EV357840008222400000
B3200000823316N00003627EV028133860319200000
F323200
B3232000000000N00000000EV197923461143100000
F000000
B0000000000000N03320683WV344570000508000000
B0000325353858N14557707EA013830143700100000
B0012475353809N00000000EV000000142700100000
B0512575353858N00000049EA000000008200109000
B0513075341530N00000000EV000000008100009000
B0000000000000N00000032EV000000008100009000
B0000003312229S14720246EV000480008100000000
B0000323312425S14720187EV000000008100000000
B0000325353858N14719889EV013240137400100000
B0513005353858N00000049EV013110137100100000
B0514075353809N00000000EA000000131100009000
B0514175353808N00000049EA000000000000009000
B0000273333266S00000001EV000810000000009000
B0000323312697S14719905EV000020000000000000
B0000323312748S11346599EV000000000100000000
B0000000000000N03312797WV330110123923100000
B0100000000049N05353858EV329170121000400000
B0100010000000N05353809EA000810118859700005
B0300010000000N05353809EA000810000080800004
B0000010003146N05353808EV000820000003200005
B0000000003203N03312908WV000810008200000000
B0000000003218N00644145EV318370008100000000
B0000000000049N03312843WV319830115000000000
B0000000000000N05353808EA318680116200000000
B0100010000000N05353809EA000810118874200000
B0100010000000N05353858EA000820000057500000
B0100010003203N05353858EV000810000022400005
B0000000003218N00020379EV000000008219200005
B0000000003233N00000301EV356390008122400000
B0032000000000N13556885EV214963571219200000
F32320006
E323200ATS1013.3
E323200STA
E323200ATS1013.2
LFLYA100238
B3232000000000N00000000EV052940051848800000
B0000000000000N03312824WV316450125419200000
F00000014
B0000000000049N03320683WV315050049100000000
B0000325353809N14557707EA012740131900100000
B0018075353809N00000049EV000820131800100000
B0518175353809N00000049EA000810000000108000
B0518275341607N00000000EV000810000000008000
B0000320000006N00000120EV000810000000008000
B0000323312837S14718722EV006340000000000000
B0000323313163S14718642EV000110002300000000
B0000005353809N14718365EV012840132900100000
B0519005353809N00000000EV007370133600100000
B0519275353809N00000049EA000820131000108000
B0519375353809N00000000EA000810000000008000
B0000473333266S00000000EV000820000000008000
B0000323312729S14718653EV000020000000000000
B0000003312725S11345449EV000000000200000000
B0000005353858N14718743EV012910134200100000
B0500005353858N00000000EV012570131000000000
B0520375353808N00000049EA000000127200108000
B0520475353858N00000049EA000000008100008000
B0020573313212S00000000EV000000000000008000
B0000003312961S14718770EV000000000000000000
B0000003312959S00802192EV006550000000000000
B0000005353858N14718867EV011250116000000000
B0000325353858N00000049EA011200115500000000
B0521475353858N00000000EA000810114800108000
B0521095353858N00000049EA000810008200100000
B0522070020284N00000000EV000820008200008000
B0000003312990S00121361EV000820008100000000
B0000003313005S00001575EV010880008200000000
B0000323320634S14719152EV010840111800000000
B0000325353858N14557756EA010760033300000000
F052257
B0522575353858N00000000EA000000109600100000
B0023075353858N00000049EV000000108000100000
B0100010000000N05353858EA000810000041800005
B0100010000026N05353858EV000000000003200005
B0000000000000N05341374EV000810000003200005
B0000000003203N03313072WV005330008100000000
B0000000003195N03313077WV000120029519200000
B0000000000049N03313212WV325310091818100000
B0100000000000N05353809EV325740089616000000
B0100030000000N05353808EA000000065567500005
B4882010000000N00000000EA896800008100000001
B3200010823316N00000000EV000008976200000116
B0032000140665N00823318EV000008976219200032
B0032000140665N00140665EV000008968122400032
B3232000000000N00823318EV052612169408100032
B9900000000000N00000000EV052866142300400032
F462601
E462601ATS1013.3
E462601STA
E462601ATS1013.2
LFLYA100238
B4626010000000N00000000EA000002156137600178
B0000000000049N05353808EV323060070000000000
B0000010000049N05353809EA000810068691800005
B0000010000049N05353809EA000820000007200004
B0000010003146N05353808EV000810000000000005
B0000000003172N03312938WV000810000003200000
B0000000003187N00644049EV311820008100000000
B0000000000049N03313055WV314330062119200000
B0000000000049N05353808EV312650060100000000
B0100010000049N05353858EV000810058104100000
B0100010000000N05353808EV000810000015300000
B0100010003172N05353858EV000810000000000005
B0000000003187N00020364EV000000000000000005
B0000000003203N00000309EV345170000000000000
B0000000000049N03312795WV307250050403200000
B0000000000049N03320634WV307420035487200000
B0100010000000N05353808EV961770046482300000
B0100000000000N05353858EV000820008282600000
B0100010000042N05353809EV000810008203200005
B0000000003203N05341515EV000820000003200005
B0000000003218N00000001EV004020008103200000
B0000000003195N03312483WV308630041500000000
B0000000000000N03312769WV307530001097100000
B0100000000000N05353858EV306080042631600000
B0100000000000N05353808EV000000008141900005
B0300010000000N05353809EV000000008100000005
B0000010003218N05353810EV000000008103200005
B0000000003233N03333266WV000000000000000000
B0000000003156N03312493WV306240000003200000
B0000000000000N03312559WV751650000008200000
B0100000000000N05353809EV306590038442200000
B0000000000049N05353858EV000000038918600005
B0200010000049N05353809EV000000000064000005
B0000010003233N05353808EV000000000000000005
B0000000003157N03312819WV000000000000000000
B0000000003172N03312644WV306090000003200000
B0000000000000N03312637WV029900000000000000
B0000000000049N05353858EV307800034585000000
B0000000000049N00000000EV897623086812000000
E591700ATS1013.4
E591700STA
E591700ATS1013.2
LFLYA100238
B5917000000000N00000049EA000008976264800030
B4697000000000N00000000EV897620008242000000
B9588000000002N00000000EV897620000019200002
B3200000823318N00003187EV897620000000000001
B0000000823318N00000002EV345110008203200000
B3200000823316N00003218EV209323494400000000
B0000000000000N00000049EV209290313852800000
B5778000000000N00000000EV343893112877600000
B9474000000000N00000000EV897629625976700000
B9178000000002N00000000EV897620008103200001
B0000000823318N00000057EV897620008103200001
B0000000823318N00000006EV691780008200000000
B3200000823316N00003233EV208950062200000000
B3200000000000N00003146EV208940001076400000
B7378000000000N00000000EV212823115279200000
B0204000000000N00000000EV897623060878700001
B1277000000000N00000049EV897620008100000001
B3200000823318N00000000EV897620008100000001
B0000000140665N00000000EV896820008100000000
B0000000823318N00003157EV208910000203200000
B6877000000000N00003172EV606899617786100001
F0101010102030405060708091011121314151617181920212223242526272829303132
E010101ATS1013.2
E010101STA
E010101ATS1013.2
LFLYA100238
E010101PEV
E010101TPC
B0101010823318N00003187EA-0000-000053555255
L   FlyChart®
L   Version 4.59, August 3th 2016
GB5F02645FA6E8198D378813073E5E033FEB0115E9E448D55E5675CA154DE932A
